:020000040000FA
:060000000201070221B914
:03002B00022401AB
:03003B0002242676
:030043000223D9BC
:03004B000224A0EC
:0300530002222F57
:1000830002200FE5C754F84401F5C77901220000A7
:100093000080FB120086B900030200F1E4791A78AC
:1000A30002B800028004F709D8FCE4791C7802B88E
:1000B30000028004F709D8FCE49002817858791C87
:1000C3008002F0A3D8FCD9FA7AD87B1D9001377847
:1000D300FE79018015E493A3AD82AE838A828B837C
:1000E300F0A3AA82AB838D828E83D8E9D9E7758288
:1000F30030758388740412011975829175830074B5
:100103000012011975D00075813F751881751902A8
:10011300759F00020096C09FF59FE473D09F22D085
:1001230083D082C09FE493C0E0740193C0E0740263
:1001330093F59F22C603D20308040204FF0000B410
:10014300000028002800283075A000A000A000A00F
:100153000000080008E001F000100010001000107B
:10016300001000100050005000500010001000D08C
:10017300070000000000000F0001000500307507B4
:10018300001000010081FF00000000FFFFFF0202DA
:100193000288820100006E82028282010000321E08
:1001A300028E82010000B802028282010000331E27
:1001B300027C82010000CE02FFFF0100FF200288C3
:1001C300820100007182028282010000611E027AB4
:1001D300820000000000028082030000FA02170080
:1001E3001E0C1E0C1E0C1E0C1E0C1E0C1E0C1E0CBC
:1001F3001E0C1E0C1E0C1E0C1E0CFE0D1C0EF80DF0
:1002030001E803057710020AFFFFFF00FEFF00006D
:10021300F5081A00000000000000000000000000C4
:10022300F5081B00000000000000000000000000B3
:10023300FF120122A7F903120122BAF903120122C4
:10024300DBF90312012246FA0312012287FA031291
:100253000122A8FA03120122E9FA0312012281FB07
:1002630003120122C9FB03120122E4E50312012256
:10027300F7E50312012228E60312012262E60312C4
:100283000122BBE60312012202E7031201224AE71D
:100293000312012279E703120122A8E703120122C4
:1002A300DFE70312012226E8031201223FE80312CB
:1002B300012294E803120122C2E803120122FCE89E
:1002C30003120122C9CF02120122CCD00212012251
:1002D300F9D0021201224AD1021201226DD1021277
:1002E30001227FD10212012282D102120122C0D146
:1002F3000212012234D202120122A0D202120122DE
:1003030068D30212012284D302120122BBD3021248
:100313000122F5D3021201228CD402120122DED46F
:10032300021201220FD50212012240D5021201222C
:100333004DD502120122B7D502120122BAD50212FB
:100343000122C7D502120122CAD50212012221D6E7
:100353000212012224D6021201225DD602120122C8
:1003630060D60212012294D60212012297D60212FB
:100373000122EBD60212012234D70212012244D702
:100383000212012277D70212012284D7021201221C
:1003930087D702120122EFD702120122F1D80212EB
:1003A300012295D902120122FED9021201223CDA5E
:1003B30002120122B48903120122AC8A0312012220
:1003C300E08A03120122768B03120122C18B0312EE
:1003D3000122258C03120122AF8C03120122688DA6
:1003E300031201228A9003120122079203120122AF
:1003F3002A9203120122BDD90312012262DB0312E6
:10040300012282DB03120122A3DC03120122F6DCA8
:100413000312012203DE031201222BDE0312012247
:1004230058DE0312012290DE03120122EEDE0312D4
:1004330001223ADF03120122A1DF03120122E1DFCD
:10044300031201221EE0031201224CE003120122D7
:10045300F6E00312012200E1031201220DE103126F
:10046300012240E1031201224CE10312012264E163
:10047300031201226EE103120122F0FE0212012295
:10048300FEFE0212012216FF021201222EFF0212A9
:10049300012245FF02120122736F001201221D7017
:1004A30000120122997000120122B7710012012279
:1004B300F371001201228E72001201227273001274
:1004C3000122357400120122AD74001201223B7621
:1004D30000120122AC76001201226677001201227B
:1004E3005878001201229878001201224C790012E8
:1004F30001227E7900120122747B00120122B67B55
:1005030000120122D47B00120122597C0012012225
:100513001D7D001201223C7F00120122FCE1031227
:10052300012212E20312012230E20312012241E30B
:10053300031201224BE30312012276E40312012288
:100543006DE503120122DAE503120122B7BD03129E
:1005530001225BBE0312012292BE03120122E9BEF5
:1005630003120122FEC003120122E9D0011201226B
:100573009AD101120122B6D1011201227FD20112B6
:10058300012299D201120122ECD201120122F7D2E7
:1005930001120122CDD301120122AAD40112012298
:1005A3003AD501120122F1D501120122FFD801121D
:1005B3000122EEDA01120122A0DB0112012269DC21
:1005C30001120122AEDF0112012258E001120122C1
:1005D30081E1011201223DE301120122DDE3011257
:1005E300012230E4011201226FE40112012242E5EB
:1005F3000112012276E50112012203E60112012212
:100603000080021201228C8002120122F081021268
:100613000122FC8102120122378202120122A682E8
:1006230002120122AF8302120122B88402120122B4
:100633007F8502120122DC8602120122FA8602124F
:100643000122178702120122E287021201220A887D
:1006530002120122D48A02120122D98A0212012231
:10066300F28C02120122408D02120122B08D02127D
:100673000122EE8D02120122CA8E021201228A8FFA
:1006830002120122D68F02120122D98F02120122F5
:100693001D9002120122659002120122A4900212FF
:1006A3000122C69002120122FA90021201225D91E8
:1006B30002120122ADB803120122B6B803120122BD
:1006C300C4B80312012217B90312012236B9031267
:1006D30001227BB903120122BFBA031201225ABBC2
:1006E300031201229EBB03120122C8BB0312012283
:1006F30037BC031201227DBC03120122F4BC031296
:100703000122A5BD031201225D4F001201226D4F8C
:10071300001201220E50001201226A50001201221F
:100723002751001201224352001201227552001276
:100733000122A45200120122515400120122C85670
:10074300001201223859001201222A5A00120122F2
:10075300235B001201222A5D001201221E60001297
:1007630001224D61001201225163001201226164D2
:1007730000120122F06500120122E166001201223B
:100783002F67001201229E6700120122C267001226
:100793000122136800120122B46C00120122B56D0C
:1007A30000120122166E00120122416E0012012274
:1007B300076F001201223ED50312012248D503120E
:1007C30001228DD503120122A1D50312012231D6B4
:1007D3000312012259D60312012294D603120122D5
:1007E300BDD603120122F1D60312012206D703124A
:1007F300012271D70312012292D703120122A6D735
:1008030003120122BBD703120122F5D703120122DF
:1008130019D80312012264D803120122ECD803125F
:1008230001222FD90312012259D90312012295D98A
:1008330003120122A884041201223DBA02120122EA
:1008430020BB021201229BBB02120122D6BB021261
:10085300012227BD02120122B0BD02120122C8BF2C
:10086300021201225AC2021201220CC302120122F5
:100873002BC40212012284C4021201228AB303127E
:100883000122CDB30312012251B40312012224B574
:1008930003120122FBB70312012200F20312012209
:1008A300ADF203120122BAF303120122F9F3031288
:1008B300012253F4031201220080041201226380F7
:1008C300041201220081041201222E81041201224A
:1008D3004F81041201228A8104120122AA81041287
:1008E3000122ADC20312012239C303120122F8C34C
:1008F3000312012210C5031201222AC70312012287
:10090300008003120122258003120122F9800312C1
:100913000122668103120122BC8103120122588243
:10092300031201228C830312012267840312012222
:10093300C684031201229785031201222386031220
:100943000122268603120122708603120122E28607
:10095300031201228D8703120122AD8703120122A4
:10096300F587031201221188031201228B880312D7
:1009730001229988031201222889031201229189F5
:100983000312012213CC0312012298CC0312012279
:10099300DACC03120122BECD031201222BCE0312A5
:1009A30001226FCE03120122B3CE03120122E0CE45
:1009B3000312012208CF0312012240CF03120122A6
:1009C3007ECF03120122A5CF031201221FD00312EF
:1009D300012269D00312012202B901120122CFBA06
:1009E30001120122BDBC0112012211BD011201221B
:1009F3003CBD01120122EABD011201221ABE0112FD
:100A0300012249BE011201225CBE011201229DBED8
:100A130001120122C9BE0112012217BF01120122D4
:100A23004EBF011201229ABF01120122F9BF011226
:100A330001228CC00112012276C10112012265C27A
:100A43000112012245C40112012264C901120122CB
:100A5300BDC901120122A6CB0112012275CD0112DB
:100A630001227ACD0112012221CE0112012267CF88
:100A730001120122B5D001120122C6D001120122B6
:100A830036F70312012221F80312012264F803123C
:100A93000122B3F80312012204F90312012255F9CA
:100AA300031201229BA0011201221CA101120122A7
:100AB30049A10112012292A10112012293A2011262
:100AC3000122D8A20112012204A30112012280A44F
:100AD3000112012202A5011201225FA501120122C6
:100AE300B2A501120122A1A60112012236A8011208
:100AF300012200A90112012210A9011201223AA91F
:100B0300011201223DA90112012220AA0112012290
:100B13000BAB01120122B8AB0112012215AC011279
:100B230001226EAC01120122D2AC011201227AAD74
:100B33000112012216AE01120122A3AE01120122FB
:100B430018AF0112012274AF01120122D3AF0112B7
:100B53000122FAAF01120122B8B001120122A9B297
:100B630001120122F2B20112012222B30112012267
:100B730095B3011201221BB501120122CBB501125B
:100B83000122F0B5011201222FB60112012244B64F
:100B93000112012287B601120122F7B601120122C6
:100BA30041B7011201224BB801120122CCB8011244
:100BB30001220AEF0212012255EF0212012261EF14
:100BC3000212012235F0021201224CF0021201221C
:100BD30089F002120122BAF002120122F2F002128B
:100BE300012248F1021201225EF1021201229AF15E
:100BF30002120122ADF102120122D4F102120122EA
:100C030008F2021201222EF30212012278F40212D8
:100C1300012274F50212012291F602120122F77FDA
:100C2300001201225DAE031201220BB20312012254
:100C33003FB3031201224AAE021201220DB1021286
:100C4300012213B102120122D0B3021201222AB6E9
:100C53000212012261C703120122F8C70312012203
:100C6300B6C803120122E0C80312012216CB0312F5
:100C73000122F9E60112012234E70112012288F16F
:100C830001120122F4F201120122F1F301120122F5
:100C930076F7011201225CF801120122A8F8011271
:100CA3000122C2F80112012203F9011201220CF9F7
:100CB30001120122BCF9011201228CFA0112012254
:100CC300D3FA0112012239FB01120122ABFB0112FB
:100CD300012264E90312012241EA0312012285EA97
:100CE30003120122BFEA0312012257EB031201226E
:100CF300C6EB03120122CFEB03120122DBEB03123B
:100D03000122F5EB031201221FEC031201224FEC27
:100D130003120122CAF802120122D7F80212012299
:100D2300F1F80212012224F90212012262F90212DD
:100D33000122C7F902120122DCF902120122F3F99E
:100D43000212012201FA0212012210FA02120122F6
:100D530025FA021201223AFA0212012245FA02127C
:100D6300012251FA021201225EFA021201226DFAE5
:100D73000212012278FA021201229DFA02120122C2
:100D830041FB0212012256FB021201226BFB0212EB
:100D9300012285FB02120122A2FB02120122BFFBE8
:100DA30002120122CAFB0212012276FC0212012264
:100DB30057FD021201227CFD0212012287FD02125D
:100DC30001229CFD02120122B0FD0212012211FE3A
:100DD3000212012217FE021201221DFE021201223B
:100DE30023FE021201223BFE021201226EFE0212B8
:100DF300012262DA0212012284DA021201224CDB9E
:100E03000212012206DE021201221CDF021201225B
:100E13003DE00212012217E102120122C6E1021291
:100E23000122C7A0021201225EA102120122F6A131
:100E330002120122E6A2021201221DA302120122C2
:100E430030A3021201229EA30212012239A502122B
:100E5300012260A50212012202A60212012237A674
:100E63000212012248A602120122C1A60212012285
:100E7300E2A602120122FAA60212012252A80212CB
:100E830001225BAA02120122ABAC02120122AEAD17
:100E930002120122FDAD0212012235920212012239
:100EA3003293021201221D9402120122279402128C
:100EB3000122499402120122559402120122A7959C
:100EC30002120122D6950212012206970212012272
:100ED3004897021201227498021201224A990212BF
:100EE30001229C9902120122FB9902120122329AD9
:100EF300021201226D9A02120122089E021201229D
:100F0300219E02120122A39E02120122B19E02120D
:100F13000122069F02120122149F02120122819FC5
:100F230002120122F39F0212012239A002120122AE
:100F3300B88104120122DD81041201224E820412BF
:100F430001224D93031201225693031201225F9350
:100F530003120122909403120122AF96031201227D
:100F6300E596031201221F970312012255970312DC
:100F730001228F9703120122C39703120122EF97D5
:100F830003120122389803120122729803120122DC
:100F9300BA980312012210990312012245990312F0
:100FA3000122A09903120122DA99031201222B9A3A
:100FB30003120122619A031201229B9A0312012256
:100FC300BE9A03120122BC8504120122E885041291
:100FD30001224386041201224D86041201225D86FA
:100FE300041201224C9B03120122949B031201223F
:100FF300589C03120122749C03120122F69C0312D3
:101003000122489D031201225B9D031201229D9D33
:1010130003120122389E03120122B79E03120122FA
:101023003BA00312012254A0031201228CA103123C
:101033000122F8A10312012266A2031201220A87E8
:1010430004120122918201120122C385011201229D
:10105300AA8701120122258801120122E3880112C5
:1010630001228F8901120122328A01120122CA8AC6
:1010730001120122F98A01120122FC8E01120122BE
:101083008E8F01120122CA900112012234910112A2
:101093000122E891011201229E9401120122D894A7
:1010A300011201224295011201229F950112012290
:1010B300FC95011201225996011201224497011253
:1010C30001228A9701120122D59701120122F89772
:1010D300011201223F9901120122539901120122A7
:1010E300C29A01120122019B01120122419B0112AA
:1010F3000122949B01120122B59B01120122F39B51
:1011030001120122199E01120122B49E0112012231
:10111300269F0112012267A00112012256EF03123A
:101123000122FCEF03120122E9F00312012228F14C
:101133000312012292F1031201227DEC0312012218
:1011430048EF03120122018904120122497F001290
:101153000122597F001201226D7F00120122E97FD3
:1011630000120122F7FC011201229FFD011201224C
:10117300E1FF01120122FA7F00120122B9A2031238
:101183000122B6A4031201223CA5031201224EA69A
:101193000312012212A7031201228FA703120122B5
:1011A30001A80312012204A80312012212A80312A8
:1011B30001222FA80312012258A80312012281A899
:1011C300031201228FA803120122A7A803120122EE
:1011D300EEFD0312012217FE0312012241FE031248
:1011E300012202FF0312012260FF031201222DC517
:1011F3000212012242C5021201229EC502120122DD
:1012030009C60212012251C602120122C3C60212EA
:101213000122ECC602120122FAC90212012208CAF3
:10122300021201226ACA02120122A8CA0212012270
:10123300C3CA021201225ECB0212012207CC0212A0
:1012430001228ACC02120122C3CC021201224ECD0A
:1012530002120122A5CD0212012203CE02120122A3
:1012630015CE021201223BCE0212012244CE0212FB
:10127300012295CF02120122F4FB031201225BFC2F
:101283000312012218FD0312012296FD031201220B
:10129300A9D003120122DCD0031201220ED20312C1
:1012A300012252D20312012217D303120122F3D3D4
:1012B300031201226E83041201224C8404120122C0
:1012C3009EF403120122E3F40312012229F503120F
:1012D3000122F2F603120122A08704120122BB8726
:1012E30004120122CB870412012267860412012211
:1012F300BAE40212012296E502120122DDE502128E
:1013030001221AE60212012288E602120122E2E613
:101313000212012252E7021201228AE8021201227A
:1013230079E902120122F0E9021201228CEB021286
:10133300012219EC021201228CEC0212012208EDA7
:10134300021201221FED0212012244EE02120122B7
:101353009EEE02120122B5A803120122D5A80312A0
:101363000122DBA90312012227AA0312012247AAA1
:10137300031201229AAA0312012207AB03120122CC
:101383004DAB03120122B1AB03120122342500122B
:101393000122C22600120122FE2A00120122222B60
:1013A30000120122E42B00120122E72B001201227A
:1013B300D83900120122E63900120122E93900125C
:1013C3000122B93B00120122E33E00120122963FA3
:1013D3000012012279400012012251410012012220
:1013E3001F4200120122DD4200120122B64B0012FD
:1013F30001221D4D00120122E84D001201221C4E54
:1014030000120122454E00120122674E00120122F2
:10141300164F00120122D58804120122BBFF0312CA
:101423000122D5FF0212012220890412012285889C
:1014330004E066701008A3E066700A08A3E0667013
:101443000408A3E06622C3E7960809E7960809E7BC
:10145300960809E79622C3E09608A3E09608A3E05E
:101463009608A3E09622C008C3E096F50808A3E017
:1014730096420808A3E096420808A3E09645087040
:1014830001D3D00822080808EAC0E0EBC0E086F0E8
:10149300E7A4FA180986F0E7A42AFA180986F0E700
:1014A300A42AFA180986F0E7A42AFA1986F0E7A411
:1014B300FBE5F02AFA190886F0E7A42BFBE5F03ADE
:1014C300FA190886F0E7A42BFBE5F03AFA18180995
:1014D30086F0E7A4C5F02BFBE43AFA1908E7C5F058
:1014E300C6A426F6E5F03BFBE43AFA1886F0E7A437
:1014F300F6E5F00826F6E43B08F6E43A08F6D0E011
:10150300FBD0E0FA22E4CFC0E0E4CEC0E0E4CDC0FB
:10151300E0E4CCC0E075F020E626F608E633F608F2
:10152300E633F608E633F6181818EC33FCED33FD12
:10153300EE33FEEF33FFC3EC9709ED9709EE9709FE
:10154300EF97191919400FFFEC97FC09ED97FD0967
:10155300EE97FE191906D5F0BFECF709EDF709EE82
:10156300F709EFF7191919D0E0FCD0E0FDD0E0FE40
:10157300D0E0FF226016080808C6C313C618C613B6
:10158300C618C613C618C613C6D5E0EA22700908E2
:101593000808226016181818C6C333C608C633C60F
:1015A30008C633C608C633C6D5E0EA22E627F608DE
:1015B30009E637F60809E637F60809E637F622E0C2
:1015C30026F608A3E036F608A3E036F608A3E036CD
:1015D300F622E026F008A3E036F008A3E036F00890
:1015E300A3E036F022C3E697F60809E697F6080962
:1015F300E697F60809E697F622C3E096F008A3E01B
:1016030096F008A3E096F008A3E096F022E657F6DA
:101613000809E657F60809E657F60809E657F622D9
:10162300E056F608A3E056F608A3E056F608A3E052
:1016330056F622E056F008A3E056F008A3E056F071
:1016430008A3E056F022E066F608A3E066F608A3D6
:10165300E066F608A3E066F622E0F608A3E0F608E3
:10166300A3E0F608A3E0F622E6F008A3E6F008A359
:10167300E6F008A3E6F022E0FAA3E0FBA3E0FCA374
:10168300E0FD22EAF0A3EBF0A3ECF0A3EDF022E0FF
:10169300F8A3E0F9A3E0FAA3E0FB22E8F0A3E9F062
:1016A300A3EAF0A3EBF022CAC0E0E6F0A308DAFA5B
:1016B300D0E0FA22CAC0E0E0A3C582CCC582C583CC
:1016C300CDC583F0A3C582CCC582C583CDC583DADE
:1016D300E6D0E0CA22C3E498F8E499F91217198016
:1016E30026C3E49AFAE49BFBE920E7E9121719E41D
:1016F30098F8E499F922C3E498F8E499F9121719D0
:10170300E498F8E499F9C3E49AFAE49BFB22EB200A
:10171300E7CFE920E7E0B90010BB0008E88AF084CE
:10172300F8AAF022E4FBC8FA22EB70227B10C8333C
:10173300C8C933C9335007C39AC3DBF280069A5032
:10174300012ADBEAC833F4C8C933F4C9FA2275F0B5
:1017530008E4C833C8C933C933C99AC99B5004C9FB
:101763002AC93BD5F0ECFBC833F4C8E4C9FA2260BC
:101773000D08C6A2E713C618C613C6D5E0F3226048
:101783000C08C6C313C618C613C6D5E0F4227004EA
:1017930022600D18C6C333C608C633C6D5E0F41895
:1017A30022251810AF08F518400C15198008F518F4
:1017B30040021519D2AF2200C0D0251810AF08F58A
:1017C30018500C05198008F51850020519D2AFD02E
:1017D300D0222518F58210AF08F518400C15198092
:1017E30008F51840021519D2AF85198322C5822541
:1017F30018C582C583351910AF07F519858218807E
:1018030007F519858218D2AFC583222518F582E41E
:101813003519F583222518F8E43519F9222518FA24
:10182300E43519FB222518FCE43519FD22E4732560
:1018330018C582C0E0E51934FFC583C0E0E518C3CD
:10184300958224F810AF088583198582188008854E
:101853008319858218D2AFCEF0A3E520F0A37808D0
:10186300E608F0A3DEFAEFF0A3E58124FAF8E60830
:10187300F0A3E608F0A3E608F0A30808E608F0A33F
:10188300E608F0A315811581D0E0FED0E0F81581BC
:1018930015811581E8C0E0EEC0E0222518C582C09D
:1018A300E0E51934FFC583C0E0E518C3958224F948
:1018B30010AF08858319858218800885831985826E
:1018C30018D2AFCEF0A3E520F0A37808E608F0A382
:1018D300DEFAEFF0A3E58124FBF8E608F0A3E608BF
:1018E300F0A30808E608F0A3E608F0A31581158124
:1018F300D0E0FED0E0F815811581E8C0E0EEC0E04D
:1019030022851983851882E0A3FEE0A3F5207808D9
:10191300E0A3F608DFFAE0A3FFE0A3C0E0E0A3C082
:10192300E0E0A3C0E0E0A3C0E0E0A3C0E010AF08A4
:101933008582188583198008858218858319D2AF1B
:10194300D083D08202011F851983851882E0A3FE0C
:10195300E0A3F5207808E0A3F608DFFAE0A3FFE0B0
:10196300A3C0E0E0A3C0E0E0A3C0E0E0A3C0E010B8
:10197300AF088582188583198008858218858319A5
:10198300D2AFD083D08222C0D02518C582C0E0E573
:101993001934FFC583C0E0E518C3958224F310AF63
:1019A300088583198582188008858319858218D252
:1019B300AFC8F0A3E9F0A3EAF0A3EBF0A37908E73B
:1019C30009F0A3D8FAECF0A3EDF0A3EEF0A3EFF047
:1019D300A3D0E0F0A3D0E0F0A3D0E0F0A3E520F0A3
:1019E300A3E5F0F0A322851983851882E0C0E0A364
:1019F300E0F9A3E0FAA3E0FBA37808E0F608A3DF8D
:101A0300FAE0FCA3E0FDA3E0FEA3E0FFA3E0C0E057
:101A1300A3E0C0E0A3E0F5D0A3E0F520A3E0A3F5A5
:101A2300F010AF088583198582188008858319858E
:101A33008218D2AFD082D083D0E0F8D0E0327404E1
:101A43008006740280027401C0E0F4041217D5D03A
:101A5300E01216AA227404800474028000CCC0E051
:101A6300EDC0E0E518C39CCCAD1950011D10AF06C5
:101A73008C188D1980068C188D19D2AF1216B7D019
:101A8300E0FDD0E0FC22D083D082E9C0E0E493A360
:101A9300C386F0C5F095F0F908E493A386F0C5F08A
:101AA30095F0700BE493A3C3994005E9048002A366
:101AB300E475F002A42582F582E5F03583F583D041
:101AC300E0F9E493A3C0E0E493C0E022D083D082A2
:101AD300ECC0E0EDC0E0E493A3FCE493A3FDED4C84
:101AE300600D121B1BEC24FFFCED34FFFD80EFE4C3
:101AF30093A3FCE493A3FDED4C600D121B5AEC245D
:101B0300FFFCED34FFFD80EFD0E0FDD0E0FCE4937B
:101B1300A3C0E0E493C0E022C0E0C3E4939608745A
:101B230001939618400FE493667008087401936656
:101B33001870007019A3A3C3E493960874019396D5
:101B430018A3A3400DD0E0D0E0D0E0021B0BA3A369
:101B5300A3A3A3A3D0E022C0E0C0F088F0E493667F
:101B630070080874019366187000A8F0A3A3700BA3
:101B7300D0F0D0E0D0E0D0E0021B0BA3A3D0F0D094
:021B8300E0225E
:101B880074F612189EEAFEEBFF8C088D09EE2434D9
:101B9800F8E43FF9E8FCE9FDEE2435121E54FAEEAC
:101BA8002437121E54F88508F0A4C885F00A850960
:101BB800F0A4250AF9EA28F8E439F97A257B001215
:101BC8001719EA8C828D83F0FA131313541FF8EE59
:101BD80028F8E43FF9E8245DF582E439F583E0C0AC
:101BE800E074075AF8D0E0B800028004C313D8FCA8
:101BF800A2E0EE50082434F582E43F80182436121F
:101C08001E54F5F0EA84A8F0EE28F8E43FF9E82439
:101C180038F582E439F583E0F97F0302194A74F74D
:101C280012189EEAFEEBFFEE2434121E54C0E0EEBA
:101C38002435F582E43FF583D0E0F08E828F83A3CC
:101C4800A3A3A3A3A3A3C082C0838E828F83A3A3CD
:101C5800A3A3A3E0F8A3E0F9D083D082E0C398F56A
:101C680008A3E099F509EE247F121E546401703E22
:101C7800EE2480F582E43FF583C082C0838E828F94
:101C880083A3A3A3A3A3E0240108A3E03400F9D00D
:101C980083D082E0687003A3E06970127CC07D067F
:101CA800120B52EE247FF582E43FF583E4F0AC0892
:101CB800AD09EEFAEFFB121B88E9F91223CB7F027C
:101CC80002194A74EF12189E900369E064086005CF
:101CD800E06407702A9061C8E06024900397E0F4FC
:101CE800601DE0F875F00DA4C8AAF02AF9749928C7
:101CF800FE740339FF8E828F83A3A3A3E0700302CF
:101D08001DD9906060E0C0E0EE2468F582E43FF5FC
:101D180083D0E0F0750CFC750D0675080075090098
:101D2800E5D914F50AE5D95403F50E601274036574
:101D38000E6043E50A600AEE2467121E54700280A2
:101D4800759006F7E06401601F121E5160047A0462
:101D580080027A00E50AC39AFA95E0FB1209EA8A3A
:101D6800088B09EA45097005120DD48064121E51CA
:101D780070048A0C8B0DE50A6012850C82850D8330
:101D8800F50BE5D9F0A3150BE50B70F6121E5160A3
:101D98004474FC250AF50A780C121A45AC0AA90EF7
:101DA800EEFAEFFB120C1874021217BAE97026AAA1
:101DB80008AB0912127E793D8E828F83A3A3A3A359
:101DC800E0FA7B00120864EEFAEFFB120B76120CB5
:101DD800787900806F7403650E6051850A1075115B
:101DE800007810121A45AC0CAD0DAA08AB09120BFD
:101DF800DC74021217BAEE2468121E546480700450
:101E0800747F8001E0F50C780C121A49E50EF50C88
:101E1800780C121A49A90AAC08AD09900397E0FAA0
:101E28007B0012083474021217BA8013900369E019
:101E38006408700BAC0CAD0DEEFAEFFB120C4812F7
:101E48000DE079017F0A02194AEE2483F582E43F06
:101E5800F583E02274F212189E74FC1217A4EAFEAD
:101E6800EBFF8909A2AFE433F508C2AF021F26E0F1
:101E7800601B780C121A45AC0BA90EEEFAEFFB1298
:101E88000C1274021217BA7404250BF50B74012591
:101E98000BF5D9850ED9E50B6018F50A850C8285F6
:101EA8000D83E0F5D9A385820C85830D150AE50A13
:101EB80070EA75E195EE2463F8E43FF97A007B0057
:101EC800A2AFE433F50BC2AF88828983E0FCA3E0BC
:101ED800FDEC4D603A88828983E0FAA3E0FB8A82B0
:101EE8008B83E0FCA3E0FD88828983ECF0A3EDF00E
:101EF8008A828B83E4F0A3F088828983E0FCA3E0E4
:101F0800FDEC4D700A88828983A3A3E4F0A3F0E571
:101F18000BA2E092AF12127E9006C7E004F0EE2406
:101F280063121E54F8A3E0F9E8496064EE246312D2
:101F38001E542402F8A3E03400F988828983E582DC
:101F48002402F50CE43583F50DE0F50BA3E0F50E5E
:101F5800EE2462121E54640170369061D0E0F812CB
:101F68001E5160047C0480027C007480C398FA953A
:101F7800E0FBE50B2CF8E43400F9E82402F8500102
:101F880009C3EA98EB99A2D265D0334003021E77C1
:101F98009006C7E0604D9006C8E0F89006C7E0C319
:101FA80098500C74026509703A9006C9E060348E46
:101FB800828F83A3A3A3A3E0851882851983121FA8
:101FC800FB740212180EE8121FFB9006C6E028F0F8
:101FD8007402121828AA18AB19790112088E9006F3
:101FE800C7E4F0E508A2E092AF74041217BA7F07BD
:101FF80002194AF0A3E4F09006C7E0F822000000B6
:10200800851A87851BC622C0E074EB12198AA2AF15
:10201800E433F508C2AF759B00906182E0A2E050FE
:1020280030E591A2E0502A7591FE7401651A70217D
:102038001221A2120D08122190121A5812230774A5
:10204800041217BAE9640170057901120D38121CDF
:10205800CB906182E0A2E5505DE591A2E55057750D
:1020680091DF900369E064076005E06408702F124F
:1020780021A27401651A703E120D08122190121ADD
:102088005812230774041217BAE96401700579011C
:10209800120D387901EEFAEFFB121E5C8018E0642D
:1020A8000D701390038BE004F064287002E4F07A5A
:1020B80000E0F9120DE6906182E0A2E640030221F9
:1020C80065E591A2E640030221657591BF90036919
:1020D800E064057008120CF0120CFC8003120CF678
:1020E800751A00120D56E990036AF07900120D383E
:1020F800120AB67A017B00900368E0F912124E903A
:102108007803E0644270569006FBE014F0704EC20B
:10211800AF12211C00781DD0E0F618D0E0F6E59F3C
:102128005407F87005750DFF8003750D7FC4C0E076
:10213800781CE6F50A08E6550DF50B740B780A12BB
:102148001782D0E0250AF8906270E0A2E740F8E82C
:10215800C333906272F0906270E0D2E0F0906181D7
:10216800E0A2E35009E5E9A2E3500375E9F7A3E02B
:10217800A2E75009E591A2E7500375917FE508A20F
:10218800E092AF7F080219E98E828F83E0F8A3E01E
:10219800C82416F582E438F58322900397E0F87591
:1021A800F00DA4C8AAF02AF9749928FE740339FF1F
:1021B80022C0E0C0D0C082C083906183E0A2E0501A
:1021C80009E5BFA2E0500375BFFEE0A2E15009E5B2
:1021D800BFA2E1500375BFFDE0A2E25009E5BFA22E
:1021E800E2500375BFFBE0A2E35009E5BFA2E3504C
:1021F8000375BFF7E0A2E45009E5BFA2E4500375F8
:10220800BFEFE0A2E55009E5BFA2E5500375BFDFC7
:10221800E0A2E65009E5BFA2E6500375BFBFD08330
:10222800D082D0D0D0E032C0E074F212198AE5A78B
:10223800A2E6500FE5A1A2E6500953A7BF75A1BFBA
:10224800122283E5A7A2E5500CE5A1A2E5500653AA
:10225800A7DF75A1DFE5A7A2E15009E5A1A2E1503A
:102268000375A1FDE5A7A2E2500CE5A1A2E2500684
:1022780053A7FB75A1FB7F010219E974F712189E99
:10228800751A01900369E064067015120C9C8A8225
:102298008B83A3A3A3A3A3A3E0FAA3E0FB120CDE02
:1022A800A2AFE433FED2AF90036FE0640170187AF6
:1022B800207B00900368E0F912137A7A207B009063
:1022C8000368E0F9121254906182E0D2E6F09006B9
:1022D800F8E0602185C61B801690036EE0640170EB
:1022E80008E5C654F84405F5C653BEFC1220087428
:1022F80001651A60E4EEA2E092AF7F0202194A7407
:10230800F112189E8A088B098C0A8D0B9082177817
:1023180008121623740F12180E780C12165C90828D
:1023280017780C1216237808790C1214499081EB4F
:1023380050107808790C1215E878081214694014BE
:10234800800E780C79081215E8780C12146950047C
:102358007901800279007F0802194A74ED12189EEB
:102368008A088B098C0A8D0B90821778081216231D
:10237800741312180E780C12165C908217780C12CF
:102388001623780C790812144940117808790C1230
:1023980015E8AA08AB09AC0AAD0B802275100075C8
:1023A80011007512007513017810790C1215E87870
:1023B8001079081215AFAA10AB11AC12AD137F0C2F
:1023C80002194AC082C083E9906000F0D083D082AD
:1023D80022C0E074F212198AA2AFE433FED2AFC26F
:1023E800C0E5D1A2E4500675D10F1211CAEEF8EE7D
:1023F800A2E092AF7F010219E9C0E0C0D0E8C0E0D6
:10240800E9C0E0A2AFE433F8D2AFC2C7E8F9E8A266
:10241800E092AFD0E0F9D0E0F8D0D0D0E032C0E020
:10242800C0D0E8C0E0E9C0E0EAC0E0C082C083A252
:10243800AFE433FAD2AF900F75E0F8900F76E0680A
:10244800700B539AFB900F777401F0802CC2E990BF
:102458000F75E0F8740128900F75F0790074DF2883
:10246800F582740E39F583E0F5C1900F75E0C394D9
:10247800964006900F757400F0EAF8EAA2E092AF71
:10248800D083D082D0E0FAD0E0F9D0E0F8D0D0D034
:10249800E032C2AF02000022C0E074EB12198AAE2B
:1024A800AFEEA2E050789081DB780812165C901DA0
:1024B800D478081215D59081D7780812165C901D2B
:1024C800D4780812145940167A007B007C007D00ED
:1024D800901DD4EAF0A3EBF0A3ECF0A3EDF0901D6F
:1024E800D4780812165C908267780C12165C78080B
:1024F800790C121508E50C450D450E450F701C7931
:102508000A901DD4780812165CAC08AD097AC27B13
:102518008112140A7A8A7B8212140453AFFE7F0850
:032528000219E9AC
:10252C00FFFFFFFFFFFFFFFF74F712183274DA1280
:10253C0017A4E9FFEF901BDBF0740412180E740360
:10254C00F0740412182879017A047B04120FEAE95A
:10255C007CA07D0F7A027B00120414E97CA07D0F15
:10256C007A037B00120414E97C147D007A157B003D
:10257C00120414E97C207D007A167B00120414E905
:10258C007CCD7D807A15790012054CE97AC77B4C9D
:10259C007C007D00740512180EEAF0A3EBF0A3EC9E
:1025AC00F0A3EDF0740312180E7401F074021218FB
:1025BC000E7400F0740112180E7400F085188285E8
:1025CC0019837400F0740512182879047A087B04B6
:1025DC00121044E9740312182879017A007B041252
:1025EC001044E9740212182879017A027B04121043
:1025FC0044E9740112182879017A037B04121044FF
:10260C00E9AC18AD1979017A067B04121044E91271
:10261C00056AE9FE901BDBE0F9120570908223122B
:10262C00167A120552E990822312167A120726E9BD
:10263C00740912180E7401F0740A12180E7404F056
:10264C00740B12180E7400F0740C12180E7400F047
:10265C00A37400F0741312180E741EF0A37400F01F
:10266C00741B12180E741EF0A37400F0740E121862
:10267C000E74C8F0741F12180E7401F07424121822
:10268C000E74E0F0A37413F0740912182079001280
:10269C0011ACE97902120816E97901120810E97AED
:1026AC00017B00901BDBE0F912124EE97426121725
:1026BC00BA7F0102190474F012183274D01217A4E4
:1026CC00890DEAFEEBFFEE5400F8EF5480F9E8496F
:1026DC006032901BDBE0F91212368A0A8B0BA80AC7
:1026EC00A90B88088909E849600FAA08AB091213DD
:1026FC0098AA08AB09121224E9EE6400FAEF648080
:10270C00FB022AF4EEA2E050347A337B82120FE4FF
:10271C00E9F5087A377B8212106E9081F7121A58FD
:10272C007A087B00901BDBE0F912136E740412170D
:10273C00BAE9EE6401FAEF6400FB022AF4EE5404E9
:10274C006035901BF9E064026022901BF6E0701873
:10275C00901BF67401F0901BDC7400F07B007A0186
:10276C007903120FFCE98004121002E9EE6404FAFA
:10277C00EF6400FB022AF4EE541060431213E6904F
:10278C001DBCE0FCA3E0FD901DBAE0FAA3E0FB1237
:10279C0013F88A088B09E508450960189081F31233
:1027AC001A587A407B00901BDBE0F912136E74040C
:1027BC001217BAE9EE6410FAEF6400FB022AF4EE89
:1027CC005408606D7A587B801214047A00EAC39422
:1027DC00025053EAF87900E875F002A4C8ABF07522
:1027EC00F000A42BFB75F002E9A42BF974B028F5CA
:1027FC0082741E39F58374FEF0A374FFF0EAF87945
:10280C0000E875F00AA4C8ABF075F000A42BFB75BA
:10281C00F00AE9A42BF9740328F582741C39F583AA
:10282C007400F00A80A7EE6408FAEF6400FB022A39
:10283C00F4EE542070030228D0901BDCE0607A90F8
:10284C001BF8E0C394025071901BDDE024FFF09064
:10285C001BDCE024FFF0901ED47400F0901ED4E03A
:10286C00C394035054901ED4E0F87900E875F00836
:10287C00A4C8AAF075F000A42AFA75F008E9A42AF5
:10288C00F974E028FC741B39FD901ED4E0F8790033
:10289C00E875F008A4C8AAF075F000A42AFA75F03F
:1028AC0008E9A42AF974DF28F582741B39F583E052
:1028BC00FB7A007900120FF6E9EE6420FAEF64005F
:1028CC00FB022AF4EE5402600E1213BCEE6402FA00
:1028DC00EF6400FB022AF4EE54407003022A32909B
:1028EC001DBEE0C394024007901DBEE02401F09091
:1028FC001DBCE0F8A3E0F9901DBAE0687003A3E0FA
:10290C00697003022A20750800750900750A0075A4
:10291C000B00901DBCE0FCA3E0FD901DBAE0FAA3F7
:10292C00E0FB1213F8EAF50CE50CC39415400375A3
:10293C000C14750800750900901DBCE0F50AA3E0A5
:10294C00F50BA80C7900C3E50898E5099950427479
:10295C00EE250AF582741C350BF583E0C0E074108B
:10296C0012180EE5822508F582E5833509F583D02A
:10297C00E0F00508E508700205097C017D00AA0A53
:10298C00AB0B1213FE8A0E8B0F850E0A850F0B8074
:10299C00B1750800750900901BF8E0F87900C3E5E3
:1029AC000898E50999504B850C0E750F00780E129E
:1029BC001A457412121828A808A909E875F002A47F
:1029CC00C8AAF075F000A42AFA75F002E9A42AF955
:1029DC0074B028F582741E39F583E0FAA3E0FB127B
:1029EC0013EC74021217BAE90508E50870A9050979
:1029FC0080A5901DBCE50AF0A3E50BF09081EF12C9
:102A0C001A587A407B00901BDBE0F912136E7404A9
:102A1C001217BAE9901DBEE02401F0EE6440FAEF03
:102A2C006400FB022AF4EE5480600E121410EE6463
:102A3C0080FAEF6400FB022AF4EE5400F8EF540124
:102A4C00F9E8497003022AF075080190814AAC1824
:102A5C00AD1974101216B7E508C0E0740412180E04
:102A6C00D0E0F00508E508C3941E40037508017515
:102A7C000900901BF8E0F8E509C3985045750A0F5A
:102A8C00750B00780A121A457402121828A80979D5
:102A9C0000E875F002A4C8AAF075F000A42AFA7533
:102AAC00F002E9A42AF974B028F582741E39F58372
:102ABC00E0FAA3E0FB1213EC74021217BAE9050951
:102ACC0080B090821B121A587A007B01901BDBE0BD
:102ADC00F912136E74041217BAE9EE6400FAEF647B
:102AEC0001FB80047A007B0074301217BA7F080255
:102AFC00190474F7121832EAFEEBFF8E828F83E012
:102B0C002450600624F060098007EEFAEFFB1213E4
:102B1C009E7F0102190474F7121832EAFEEBFF8E45
:102B2C00828F83A3A3A3A3E0640B601B8E828F838D
:102B3C00A3A3A3A3E0640170108E828F83A3A3A32D
:102B4C00A3A3E0640A700280768E828F83A3A3A372
:102B5C00A3E0641360698E828F83A3A3A3A3E064B4
:102B6C0001700E8E828F83A3A3A3A3A3E0641260D3
:102B7C004E8E828F83A3A3A3A3E0641B70278E8247
:102B8C008F83A3A3A3A3A3A3A3E0FC7D008E828FBA
:102B9C0083A3A3A3A3A3A3A3A3E0FAA3E0FB7900BD
:102BAC001211B8801A8E828F83A3A3A3A3E0641D95
:102BBC00600D901BFAE06007EEFAEFFB1213C28E69
:102BCC00828F83A3A3A3A3E0F9EE2405FAE43FFBD1
:102BDC001207027F0102190402011F74F612183247
:102BEC0074C71217A4EAFEEBFF8E828F83A3A3E0B7
:102BFC006020147003022CBD24FC7003022DE11420
:102C0C0070030230CA1470030239CC24FA60060235
:102C1C0039CC0239CC8E828F83A3A3A3E07059EEFA
:102C2C00240CF582E43FF583E0F9EE240DF582E403
:102C3C003FF583E0FCA3E0FD7AF07BFF1213CEE9B5
:102C4C0060368E828F83A3A3A3A3E0F9EE2405FA4A
:102C5C00E43FFB1213D4EE2405FAE43FFB1213DA23
:102C6C008A088B09AA08AB097C0F7D007900121128
:102C7C00B87A747B821214048E828F83A3A3A3E090
:102C8C006404702AEE240DF582E43FF583121A5C7D
:102C9C00EE240CF582E43FF583E0F9740212182857
:102CAC00741B1218201213C874021217BAE90239D5
:102CBC00CC901BF67400F0901BDCE07003022DD658
:102CCC007A00901BDCE0F8EAC3984003022DD6741E
:102CDC00012A901EB7F0EAF87900E875F008A4C84C
:102CEC00ABF075F000A42BFB75F008E9A42BF9747C
:102CFC00E028F582741B39F583E0901EB8F0EAF8F1
:102D0C007900E875F008A4C8ABF075F000A42BFBB3
:102D1C0075F008E9A42BF974E128F582741B39F5D8
:102D2C0083E0901EB9F0EAF87900E875F008A4C8C1
:102D3C00ABF075F000A42BFB75F008E9A42BF9742B
:102D4C00E228F582741B39F583E0901EBAF0EAF89C
:102D5C007900E875F008A4C8ABF075F000A42BFB63
:102D6C0075F008E9A42BF974E328F582741B39F586
:102D7C0083E0901EBBF0EAF87900E875F008A4C86F
:102D8C00ABF075F000A42BFB75F008E9A42BF974DB
:102D9C00E428F582741B39F583E0901EBCF0EAF848
:102DAC007900E875F008A4C8ABF075F000A42BFB13
:102DBC0075F008E9A42BF974E528F582741B39F534
:102DCC0083E0901EBDF00A022CCE901BDCE0901B21
:102DDC00DDF00239CC8E828F83A3E06003023025B4
:102DEC00901BF97402F08E828F83A3A3A3A3A3A3D9
:102DFC00A3A3A3A3E0FAA3E0FB901BF8E0F87900EF
:102E0C00E875F002A4C8ACF075F000A42CFC75F0C9
:102E1C0002E9A42CF974B028F582741E39F583EA02
:102E2C00F0A3EBF0901BF8E02401F0901BF8E0F815
:102E3C007900E875F00AA4C8AAF075F000A42AFA83
:102E4C0075F00AE9A42AF974F928F582741B39F58E
:102E5C0083E070189081E7121A587A027B00901B5D
:102E6C00DBE0F912136E74041217BAE98E828F83A9
:102E7C00A3A3A3A3E0C0E0901BF8E0F87900E875E9
:102E8C00F00AA4C8AAF075F000A42AFA75F00AE9B1
:102E9C00A42AF974FB28F582741B39F583D0E0F071
:102EAC008E828F83A3A3A3A3A3E0C0E0901BF8E0C2
:102EBC00F87900E875F00AA4C8AAF075F000A42A05
:102ECC00FA75F00AE9A42AF974FC28F582741B3906
:102EDC00F583D0E0F08E828F83A3A3A3A3A3A3E0FA
:102EEC00C0E0901BF8E0F87900E875F00AA4C8AAD5
:102EFC00F075F000A42AFA75F00AE9A42AF974FD19
:102F0C0028F582741B39F583D0E0F08E828F83A371
:102F1C00A3A3A3A3A3A3E0C0E0901BF8E0F879005F
:102F2C00E875F00AA4C8AAF075F000A42AFA75F0A6
:102F3C000AE9A42AF974FE28F582741B39F583D0AA
:102F4C00E0F08E828F83A3A3A3A3A3A3A3A3E0C0CB
:102F5C00E0901BF8E0F87900E875F00AA4C8AAF034
:102F6C0075F000A42AFA75F00AE9A42AF974FF286E
:102F7C00F582741B39F583D0E0F08E828F83A3A386
:102F8C00A3A3A3A3A3A3A3E0C0E0901BF8E0F8794C
:102F9C0000E875F00AA4C8AAF075F000A42AFA7526
:102FAC00F00AE9A42AF9740028F582741C39F58317
:102FBC00D0E0F0901EC77400F08E828F83A3A3A381
:102FCC00A3E0901EC8F08E828F83A3A3A3A3A3E0DB
:102FDC00901EC9F08E828F83A3A3A3A3A3A3E0901A
:102FEC001ECAF08E828F83A3A3A3A3A3A3A3E090F6
:102FFC001ECBF08E828F83A3A3A3A3A3A3A3A3E0D2
:10300C00901ECCF08E828F83A3A3A3A3A3A3A3A310
:10301C00A3E0901ECDF00239CC901BF97400F09017
:10302C001BF8E0F87900E875F002A4C8AAF075F076
:10303C0000A42AFA75F002E9A42AF974B028F582E2
:10304C00741E39F58374FEF0A374FFF0901BF774B3
:10305C0000F0901BFA7400F0901EC77401F08E8281
:10306C008F83A3A3A3A3E0901EC8F08E828F83A3AB
:10307C00A3A3A3A3E0901EC9F08E828F83A3A3A366
:10308C00A3A3A3E0901ECAF08E828F83A3A3A3A355
:10309C00A3A3A3E0901ECBF08E828F83A3A3A3A344
:1030AC00A3A3A3A3E0901ECCF08E828F83A3A3A333
:1030BC00A3A3A3A3A3A3E0901ECDF00239CC901B35
:1030CC00F97400F0901BF77400F0901BFA7400F088
:1030DC00901BFF7400F0A37400F0750900750800D4
:1030EC00908247740912182874041216B790824BF8
:1030FC00740512182874041216B790824F740112BA
:10310C00182874041216B7750900901BF8E0F8E53E
:10311C0009C39840030236028E828F83A3A3A3E0D7
:10312C00FAA3E0FBA8097900E875F002A4C8ACF09A
:10313C0075F000A42CFC75F002E9A42CF974B028ED
:10314C00F582741E39F583E06A7003A3E06B6003AB
:10315C000232D8A8097900E875F002A4C8AAF07563
:10316C00F000A42AFA75F002E9A42AF974B028F543
:10317C0082741E39F58374FEF0A374FFF0A80979EC
:10318C0000E875F00AA4C8AAF075F000A42AFA7534
:10319C00F00AE9A42AF9740328F582741C39F58322
:1031AC007400F0A8097900E875F00AA4C8AAF075B3
:1031BC00F000A42AFA75F00AE9A42AF9740428F597
:1031CC0082741C39F5837400F0901EC77401F0A84A
:1031DC00097900E875F00AA4C8AAF075F000A42AD1
:1031EC00FA75F00AE9A42AF9740528F582741C39D9
:1031FC00F583E0901EC8F0A8097900E875F00AA4E0
:10320C00C8AAF075F000A42AFA75F00AE9A42AF904
:10321C00740628F582741C39F583E0901EC9F0A859
:10322C00097900E875F00AA4C8AAF075F000A42A80
:10323C00FA75F00AE9A42AF9740728F582741C3986
:10324C00F583E0901ECAF0A8097900E875F00AA48D
:10325C00C8AAF075F000A42AFA75F00AE9A42AF9B4
:10326C00740828F582741C39F583E0901ECBF0A805
:10327C00097900E875F00AA4C8AAF075F000A42A30
:10328C00FA75F00AE9A42AF9740928F582741C3934
:10329C00F583E0901ECCF0A8097900E875F00AA43B
:1032AC00C8AAF075F000A42AFA75F00AE9A42AF964
:1032BC00740A28F582741C39F583E0901ECDF07CDD
:1032CC000A7D007AC47B1E79001211B8A809790016
:1032DC00E875F002A4C8AAF075F000A42AFA75F0FB
:1032EC0002E9A42AF974B028F582741E39F583E03A
:1032FC0064FE7004A3E064FF70030235FDA8097935
:10330C0000E875F00AA4C8AAF075F000A42AFA75B2
:10331C00F00AE9A42AF9740528F582741C39F5839E
:10332C00E0C0E0A8087900E875F006A4C8AAF0751A
:10333C00F000A42AFA75F006E9A42AF9740D121803
:10334C000EE58228F582E58339F583D0E0F0A809F3
:10335C007900E875F00AA4C8AAF075F000A42AFA5E
:10336C0075F00AE9A42AF9740628F582741C39F55B
:10337C0083E0C0E0A8087900E875F006A4C8AAF0BC
:10338C0075F000A42AFA75F006E9A42AF9740D1256
:10339C00180EE58228F582E58339F583A3D0E0F099
:1033AC00A8097900E875F00AA4C8AAF075F000A481
:1033BC002AFA75F00AE9A42AF9740728F582741C14
:1033CC0039F583E0C0E0A8087900E875F006A4C8D8
:1033DC00AAF075F000A42AFA75F006E9A42AF9748B
:1033EC000D12180EE58228F582E58339F583A3A327
:1033FC00D0E0F0A8097900E875F00AA4C8AAF07525
:10340C00F000A42AFA75F00AE9A42AF9740828F540
:10341C0082741C39F583E0C0E0A8087900E875F0E7
:10342C0006A4C8AAF075F000A42AFA75F006E9A45F
:10343C002AF9740D12180EE58228F582E58339F508
:10344C0083A3A3A3D0E0F0A8097900E875F00AA43F
:10345C00C8AAF075F000A42AFA75F00AE9A42AF9B2
:10346C00740928F582741C39F583E0C0E0A808794A
:10347C0000E875F006A4C8AAF075F000A42AFA7545
:10348C00F006E9A42AF9740D12180EE58228F582CB
:10349C00E58339F583A3A3A3A3D0E0F0A8097900B1
:1034AC00E875F00AA4C8AAF075F000A42AFA75F021
:1034BC000AE9A42AF9740A28F582741C39F583E008
:1034CC00C0E0A8087900E875F006A4C8AAF075F069
:1034DC0000A42AFA75F006E9A42AF9740D12180E44
:1034EC00E58228F582E58339F583A3A3A3A3A3D0B2
:1034FC00E0F0A8097900E875F002A4C8AAF075F00C
:10350C0000A42AFA75F002E9A42AF974B028F5820D
:10351C00741E39F583E0FAA3E0FBA8087900E8757E
:10352C00F002A4C8ACF075F000A42CFC75F002E914
:10353C00A42CF9740112180EE58228F582E5833962
:10354C00F583EAF0A3EBF0A8097900E875F00AA47A
:10355C00C8AAF075F000A42AFA75F00AE9A42AF9B1
:10356C00740328F582741C39F583E0FA7B00A808F3
:10357C007900E875F002A4C8ACF075F000A42CFC3E
:10358C0075F002E9A42CF9740912180EE58228F5DD
:10359C0082E58339F583EAF0A3EBF0A8097900E81A
:1035AC0075F00AA4C8AAF075F000A42AFA75F00AFE
:1035BC00E9A42AF9740428F582741C39F583E0FA1D
:1035CC007B00A8087900E875F002A4C8ACF075F08F
:1035DC0000A42CFC75F002E9A42CF9740512180E49
:1035EC00E58228F582E58339F583EAF0A3EBF00553
:1035FC00080509023116750900E509C39402507BD0
:10360C00A8097900E875F002A4C8AAF075F000A426
:10361C002AFA75F002E9A42AF974B028F582741E0E
:10362C0039F58374FEF0A374FFF0A8097900E875EE
:10363C00F00AA4C8AAF075F000A42AFA75F00AE9F9
:10364C00A42AF9740328F582741C39F5837400F0EC
:10365C00A8097900E875F00AA4C8AAF075F000A4CE
:10366C002AFA75F00AE9A42AF9740428F582741C64
:10367C0039F5837400F00509023605750900E50972
:10368C00C3950840030239C5A8097900E875F00212
:10369C00A4C8AAF075F000A42AFA75F002E9A42ACD
:1036AC00F9740112180EE58228F582E58339F58349
:1036BC00E064FE7004A3E064FF70030239C0A80943
:1036CC007900E875F006A4C8AAF075F000A42AFAEF
:1036DC0075F006E9A42AF9740D12180EE58228F586
:1036EC0082E58339F583E0C0E0A8097900E875F03C
:1036FC000AA4C8AAF075F000A42AFA75F00AE9A485
:10370C002AF9740528F582741C39F583D0E0F0A8E9
:10371C00097900E875F006A4C8AAF075F000A42A8F
:10372C00FA75F006E9A42AF9740D12180EE5822830
:10373C00F582E58339F583A3E0C0E0A8097900E8B8
:10374C0075F00AA4C8AAF075F000A42AFA75F00A5C
:10375C00E9A42AF9740628F582741C39F583D0E0A3
:10376C00F0A8097900E875F006A4C8AAF075F00075
:10377C00A42AFA75F006E9A42AF9740D12180EE5BC
:10378C008228F582E58339F583A3A3E0C0E0A8097C
:10379C007900E875F00AA4C8AAF075F000A42AFA1A
:1037AC0075F00AE9A42AF9740728F582741C39F516
:1037BC0083D0E0F0A8097900E875F006A4C8AAF057
:1037CC0075F000A42AFA75F006E9A42AF9740D1212
:1037DC00180EE58228F582E58339F583A3A3A3E0CF
:1037EC00C0E0A8097900E875F00AA4C8AAF075F041
:1037FC0000A42AFA75F00AE9A42AF9740828F582BB
:10380C00741C39F583D0E0F0A8097900E875F0064E
:10381C00A4C8AAF075F000A42AFA75F006E9A42A47
:10382C00F9740D12180EE58228F582E58339F583BB
:10383C00A3A3A3A3E0C0E0A8097900E875F00AA44B
:10384C00C8AAF075F000A42AFA75F00AE9A42AF9BE
:10385C00740928F582741C39F583D0E0F0A8097935
:10386C0000E875F006A4C8AAF075F000A42AFA7551
:10387C00F006E9A42AF9740D12180EE58228F582D7
:10388C00E58339F583A3A3A3A3A3E0C0E0A809793A
:10389C0000E875F00AA4C8AAF075F000A42AFA751D
:1038AC00F00AE9A42AF9740A28F582741C39F58304
:1038BC00D0E0F0A8097900E875F002A4C8AAF07568
:1038CC00F000A42AFA75F002E9A42AF9740112187E
:1038DC000EE58228F582E58339F583E0FAA3E0FB57
:1038EC00A8097900E875F002A4C8ACF075F000A442
:1038FC002CFC75F002E9A42CF974B028F582741E26
:10390C0039F583EAF0A3EBF0A8097900E875F00229
:10391C00A4C8AAF075F000A42AFA75F002E9A42A4A
:10392C00F9740912180EE58228F582E58339F583BE
:10393C00E0F8A3E0F9E8C0E0A8097900E875F00A1E
:10394C00A4C8AAF075F000A42AFA75F00AE9A42A12
:10395C00F9740328F582741C39F583D0E0F0A809BA
:10396C007900E875F002A4C8AAF075F000A42AFA50
:10397C0075F002E9A42AF9740512180EE58228F5EF
:10398C0082E58339F583E0F8A3E0F9E8C0E0A80903
:10399C007900E875F00AA4C8AAF075F000A42AFA18
:1039AC0075F00AE9A42AF9740428F582741C39F517
:1039BC0083D0E0F0050902368A901BF8E024FFF072
:1039CC00790174391217BA7F02021904E96008747C
:1039DC000169600374026902011F02011F74F7126E
:1039EC00183274EE1217A4901C15E06401600302E7
:1039FC003AD890813A740212182874101216B77AB9
:103A0C0000EAC394105031EAF87900C3E498F8E462
:103A1C0099F9742528F582741C39F583E0C0E0EA25
:103A2C00F87900740212180EE58228F582E58339C4
:103A3C00F583D0E0F00A80C978007900901BFFE88C
:103A4C00F0A3E9F0901BFDE8F0A3E9F0901BFBE874
:103A5C00F0A3E9F0901BF8E0F87900E875F00AA4FF
:103A6C00C8AAF075F000A42AFA75F00AE9A42AF99C
:103A7C0074F928F582741B39F5837400F0901BFAE5
:103A8C007401F0901BDBE0F5087808121A497910E4
:103A9C007403121828901BF8E0FA7B00EA75F00208
:103AAC00A4CAA8F075F000A428F875F002EBA428BD
:103ABC00FB74AE2AF582741E3BF583E0FAA3E0FB9F
:103ACC0012057674011217BAE9023BAF90827EACF4
:103ADC0018AD1974021216B77A00EAC39402503268
:103AEC00EAF87900C3E498F8E499F9741728F58298
:103AFC00741C39F583E0C0E0EAF8790085188285FA
:103B0C001983E58228F582E58339F583D0E0F00A44
:103B1C0080C878007900901BFFE8F0A3E9F0901BB7
:103B2C00FDE8F0A3E9F0901BFBE8F0A3E9F0901B93
:103B3C00F8E0F87900E875F00AA4C8AAF075F0006E
:103B4C00A42AFA75F00AE9A42AF974F928F5827402
:103B5C001B39F5837400F0901BFA7401F0901BDB99
:103B6C00E0F5087808121A497902740112182890A5
:103B7C001BF8E0FA7B00EA75F002A4CAA8F075F015
:103B8C0000A428F875F002EBA428FB74AE2AF58289
:103B9C00741E3BF583E0FAA3E0FB12057674011268
:103BAC0017BAE974121217BA7F0102190474F712CA
:103BBC00183274EB1217A4EAFEEBFF901BFAE064C8
:103BCC00016003023D258E828F83A3A3A3A3E0642F
:103BDC00076003023C718E828F83A3A3A3A3A3E08F
:103BEC007003023C718E828F83A3A3A3A3A3A3E0D3
:103BFC00F8A3E0F5838882E0FA7B008E828F83A3A2
:103C0C00A3A3A3A3A3E0F8A3E0F5838882A3E0F821
:103C1C007900E4C8F9EA28F8EB39F9901BFBE8F0D5
:103C2C00A3E9F08E828F83A3A3A3A3A3A3E0F8A39D
:103C3C00E0F5838882A3A3E0FA7B008E828F83A3B6
:103C4C00A3A3A3A3A3E0F8A3E0F5838882A3A3A373
:103C5C00E0F87900E4C8F9EA28F8EB39F9901BFD93
:103C6C00E8F0A3E9F08E828F83A3A3A3A3E06407FB
:103C7C00700A8E828F83A3E0641A60108E828F8309
:103C8C00A3A3A3A3E064016003023ED9901BFBE055
:103C9C00F8A3E0F9E8497003023ED9901BFA7402CC
:103CAC00F0901BFBE0F8A3E0F9851882851983E8F6
:103CBC00F0A3E9F0901BFDE0F8A3E0F974021218F0
:103CCC000EE8F0A3E9F0740412180E7402F07405F7
:103CDC0012180E74F1F0740612180E74FFF0901B8B
:103CEC00DBE0F9AC18AD19901BF8E0FA7B00EA7533
:103CFC00F002A4CAA8F075F000A428F875F002EB45
:103D0C00A428FB74AE2AF582741E3BF583E0FAA35B
:103D1C00E0FB12057CE9023ED9901BFAE0640260DC
:103D2C0003023E5B8E828F83A3A3A3A3E06409608E
:103D3C0003023DDE8E828F83A3A3A3A3A3E07003B3
:103D4C00023DDE8E828F83A3A3A3A3A3A3A3E0F8DB
:103D5C00A3E0F5838882E0FA7B008E828F83A3A395
:103D6C00A3A3A3A3A3E0F8A3E0F5838882A3E0F8C0
:103D7C007900E4C8F9EA28F8EB39F9901BFFE8F070
:103D8C00A3E9F07910901BFFE0FCA3E0FD7AF67B31
:103D9C008012140A7A6B7B82121404901BFFE0F8D9
:103DAC00A3E0F9E8C0E0901BF8E0F87900E875F0C2
:103DBC000AA4C8AAF075F000A42AFA75F00AE9A4BE
:103DCC002AF974F928F582741B39F583D0E0F002D6
:103DDC003ED9901BFA7403F0901BFBE0F8A3E0F9BA
:103DEC00851882851983E8F0A3E9F0901BFDE0F8B3
:103DFC00A3E0F9740212180EE8F0A3E9F0740412AF
:103E0C00180E7402F0740512180E74F4F074061285
:103E1C00180E74FFF0901BDBE0F9AC18AD19901B79
:103E2C00F8E0FA7B00EA75F002A4CAA8F075F0007D
:103E3C00A428F875F002EBA428FB74AE2AF5827462
:103E4C001E3BF583E0FAA3E0FB12057CE9807E9033
:103E5C001BFAE0640370768E828F83A3A3A3A3E086
:103E6C00640970638E828F83A3A3A3A3A3E060571E
:103E7C008E828F83A3A3A3A3A3A3A3E0F8A3E0F54F
:103E8C00838882E0F5087910AC087D007AE27B80AB
:103E9C0012140A7A6B7B82121404E508C0E0901BA2
:103EAC00F8E0F87900E875F00AA4C8AAF075F000FB
:103EBC00A42AFA75F00AE9A42AF974FA28F582748E
:103ECC001B39F583D0E0F0901BFA7400F0741512D6
:103EDC0017BA7F0102190474F2121832EAFEEBFFD2
:103EEC00890C740E12180EE0FAA3E0FB750A00A8F8
:103EFC000C7900EA28F8EB39F9E824FFF8E934FFEB
:103F0C00F988088909A808A909C3EA98EB9950739C
:103F1C008A828B83E0F50D8A828B83A3AA82AB8382
:103F2C00E50D60E18A828B83E0F50B7409650B70FB
:103F3C00468A828B83A3AA82AB83150DE50DC0E064
:103F4C008C828D83D0E0F0750A00E50AC3950D5084
:103F5C0022A80A7900EA28F582EB39F583E0C0E063
:103F6C00A80A7900EE28F582EF39F583D0E0F00548
:103F7C000A80D77901800EA80D7900EA28FAEB396E
:103F8C00FB808279007F0602190474F2121832EA5F
:103F9C00FEEBFF890AA80A7900EC28F8ED39F9E85C
:103FAC0024FFF8E934FFF9E8FAE9FBC3EC9AED9B3E
:103FBC0040030240728C828D83E0F5088C828D83E5
:103FCC00A3AC82AD83E50860E28C828D83E0F509B9
:103FDC0074026509600674036509707D8C828D839B
:103FEC00A3AC82AD831508E508C394024056EAF8E9
:103FFC00EBF9C3EC98ED99504B8C828D83E0F879FA
:10400C0000EE54FFF50CEF5400F50DE50C68700351
:10401C00E50D6970208C828D83A3E0F50C750D0085
:10402C00EEF8EFF9E4C9F8E8650C7003E9650D707A
:10403C000479018033EC2402FC50010D74FE250838
:10404C00F50880A3740165086003023FB78C828D6C
:10405C0083A3AC82AD83023FB7A8087900EC28FC9F
:10406C00ED39FD023FB779007F0602190474F41292
:10407C001832EAFEEBFF8909901BDCE0C394034085
:10408C000302414C750800901BDCE0F8E508C3986E
:10409C00503F750A06750B00780A121A45A8087964
:1040AC0000E875F008A4C8AAF075F000A42AFA7507
:1040BC00F008E9A42AF974E028FC741B39FDEEFA27
:1040CC00EFFB12120674021217BAE970730508801E
:1040DC00B6750A06750B00780A121A45EEFCEFFD50
:1040EC00901BDCE0F87900E875F008A4C8AAF0751C
:1040FC00F000A42AFA75F008E9A42AF974E028FA69
:10410C00741B39FB1211F474021217BAE509C0E0E2
:10411C00901BDCE0F87900E875F008A4C8AAF075EB
:10412C00F000A42AFA75F008E9A42AF974DF28F53E
:10413C0082741B39F583D0E0F0901BDCE02401F095
:10414C007F0402190474F712183274EF1217A4EAE0
:10415C00FEEBFF908109AC18AD1974111216B778EB
:10416C00BF791D888289837430F088828983A3A8E3
:10417C0082A983888289837478F088828983A3A832
:10418C0082A983EE2406FE50010F750806E508602F
:10419C006DEE24FFFEEF34FFFF8E828F83E0C4545C
:1041AC000FFA7B00851882851983E5822AF582E552
:1041BC00833BF583E0C0E088828983D0E0F088827D
:1041CC008983A3A882A9838E828F83E0FA7B00EA7D
:1041DC00540FFAEB5400FB851882851983E5822A6B
:1041EC00F582E5833BF583E0C0E088828983D0E0EB
:1041FC00F088828983A3A882A9831508808F88827E
:10420C0089837400F07ABF7B1D74111217BA7F0179
:10421C0002190474F41218327582CA7583FE1217CF
:10422C00F089088A09A9081211C48A0A8B0BE50ABD
:10423C00450B70030242CB7C367D01AA18AB19A941
:10424C00081211B28A0A8B0BAE0AAF0B78007900F8
:10425C00C3E89EE99F5050851882851983E5822812
:10426C00F582E58339F583E0C0E0901DB6E02426A5
:10427C00FAA3E0341CFB8A828B83D0E0F0901DB64D
:10428C00E02401F0A3E03400F0901DB6C3E094C824
:10429C00A3E09400400A901DB67400F0A37400F0E3
:1042AC0008E870AC0980A99081F3121A587A107B37
:1042BC0000901BDBE0F912136E74041217BAE9922A
:1042CC00F07582367583011217F0A2F07F04021983
:1042DC000474F212183274D21217A490803074063F
:1042EC0012182874281216B77E00750A00901DB893
:1042FC00E0F8A3E0F9901DB6E0687003A3E06970E4
:10430C0003024BAC901DB8E02426F8A3E0341CF952
:10431C0088828983E064416003024770901DCE74EB
:10432C0001F0901DB8E0F8A3E0F9901DD0E8F0A3DF
:10433C00E9F0901DD0E0F8A3E0F9901DD2E8F0A3CD
:10434C00E9F0901DB8E0FCA3E0FD901DB6E0FAA3E7
:10435C00E0FB1213F88A088B09C3E5089402E509FF
:10436C0094005003024BAC7C017D00901DD0E0FA10
:10437C00A3E0FB1213FE8A088B0974262508F5822C
:10438C00741C3509F583E0645460030246F9901DF2
:10439C00D2E0F8A3E0F9901DB6E0687003A3E069E1
:1043AC006036901DD2E02426F8A3E0341CF98882F4
:1043BC008983E0640A7008901DCF7401F080197C29
:1043CC00017D00901DD2E0FAA3E0FB1213FE901DBC
:1043DC00D2EAF0A3EBF080B6901DCFE0640160034D
:1043EC00024BAC901DD0E0FCA3E0FD901DD2E0FA96
:1043FC00A3E0FB1213F8EAFF750800750900901D85
:10440C00D0E0FAA3E0FBEFF87900C3E50898E509E2
:10441C0099503A74262AF582741C3BF583E0C0E06F
:10442C00740612180EE5822508F582E5833509F528
:10443C0083D0E0F00508E508700205097C017D00D9
:10444C001213FE8A0C8B0DAA0CAB0D80B9EFF87908
:10445C0000740612180EE58228F8E58339F9E82471
:10446C00FFF582E934FFF5837400F0EFFC7D0074F6
:10447C000612182079001211B87C017D007A747B29
:10448C008279001211B87CB87D8174061218201242
:10449C00142E8A088B09E5084509602D901C1574AB
:1044AC0000F0901C1674FFF0901C1774F0F09081C3
:1044BC00E3121A587A047B00901BDBE0F912136E9E
:1044CC0074041217BAE90246C27C947D81740612F8
:1044DC00182012142E8A088B09E50845096003027E
:1044EC0046C27CAC7D81740612182012142E8A08E8
:1044FC008B09E508450960030246C27CBD7D8174C9
:10450C000612182012142E8A088B09E5084509702A
:10451C0003024672901ED474FFF07A00EAC394032F
:10452C004003024658851882851983E0FCEAF87925
:10453C0000E875F008A4C8ABF075F000A42BFB756F
:10454C00F008E9A42BF974E028F582741B39F58383
:10455C00E06C6003024654740112180EE0FCEAF899
:10456C007900E875F008A4C8ABF075F000A42BFB3B
:10457C0075F008E9A42BF974E128F582741B39F560
:10458C0083E06C6003024654740212180EE0FCEADD
:10459C00F87900E875F008A4C8ABF075F000A42B0E
:1045AC00FB75F008E9A42BF974E228F582741B3929
:1045BC00F583E06C6003024654740312180EE0FCA1
:1045CC00EAF87900E875F008A4C8ABF075F000A41F
:1045DC002BFB75F008E9A42BF974E328F582741B06
:1045EC0039F583E06C7061740412180EE0FCEAF883
:1045FC007900E875F008A4C8ABF075F000A42BFBAB
:10460C0075F008E9A42BF974E428F582741B39F5CC
:10461C0083E06C7033740512180EE0FCEAF8790034
:10462C00E875F008A4C8ABF075F000A42BFB75F08E
:10463C0008E9A42BF974E528F582741B39F583E09D
:10464C006C7005EA901ED4F00A0245289081E312A2
:10465C001A587A207B00901BDBE0F912136E74045D
:10466C001217BAE980507C807D81740612182012D2
:10467C00142E8A088B09E5084509601A9081E3120B
:10468C001A587A807B00901BDBE0F912136E7404CD
:10469C001217BAE980207C877D81740612182012CB
:1046AC00142E8A088B09E5084509600A79277A00D7
:1046BC007B001213F2E9901DD2E02401F8A3E03440
:1046CC0000F9901DB8E8F0A3E9F0901DCE7400F04D
:1046DC00901DCF7400F0901DD07400F0A37400F006
:1046EC00901DD27400F0A37400F00242F9901DCE1C
:1046FC007400F0901DCF7400F0901DD07400F0A3E6
:10470C007400F0901DD27400F0A37400F0901DB8EA
:10471C00E02426F8A3E0341CF988828983E0C0E009
:10472C00901DBAE024EEF8A3E0341CF9888289834A
:10473C00D0E0F07C017D00901DBAE0FAA3E0FB1202
:10474C0013FE901DBAEAF0A3EBF07C017D00901DE6
:10475C00B8E0FAA3E0FB1213FE901DB8EAF0A3EB4D
:10476C00F00242F9901DB8E02426F8A3E0341CF9BD
:10477C0088828983E064F56003024B55901DCE74EA
:10478C0001F0901DB8E0F8A3E0F9901DD0E8F0A37B
:10479C00E9F0901DD0E0F8A3E0F9901DD2E8F0A369
:1047AC00E9F0901DB8E0FCA3E0FD901DB6E0FAA383
:1047BC00E0FB1213F8EAF50AE50AC394025003026F
:1047CC004BAC7C017D00901DD0E0FAA3E0FB1213F2
:1047DC00FE8A088B0974262508F582741C3509F5A8
:1047EC0083E0FEEEC39415403A7C027D00901DB828
:1047FC00E0FAA3E0FB1213FE901DB8EAF0A3EBF075
:10480C00901DCE7400F0901DCF7400F0901DD074EC
:10481C0000F0A37400F0901DD27400F0A37400F0AB
:10482C00024BACA80A7900E824FEFAE934FFFBEE4F
:10483C00F87900C3EA98EB99A2D265D03350030201
:10484C004BAC901DCF7401F0901DCFE06401600360
:10485C000242F9750800750900901DD0E0FAA3E03A
:10486C00FBEEF87900E82402F8500109C3E508983A
:10487C00E50999503A74262AF582741C3BF583E0BD
:10488C00C0E0740612180EE5822508F582E5833522
:10489C0009F583D0E0F00508E508700205097C01F4
:1048AC007D001213FE8A0C8B0DAA0CAB0D80B2741A
:1048BC000812180EE024E6600D14603724EE700325
:1048CC00024AB2024B14901C157400F0901C167422
:1048DC00FFF0901C1774F0F09081E3121A587A04D0
:1048EC007B00901BDBE0F912136E74041217BAE90B
:1048FC00024B14740912180EE0C0E0851882851959
:10490C0083D0E0F0740A12180EE0C0E074011218A3
:10491C000ED0E0F0740B12180EE0C0E07402121806
:10492C000ED0E0F0740C12180EE0C0E074031218F4
:10493C000ED0E0F0740D12180EE0C0E074041218E2
:10494C000ED0E0F0740E12180EE0C0E074051218D0
:10495C000ED0E0F0901ED474FFF07A00EAC39403FA
:10496C004003024A98851882851983E0FCEAF8799D
:10497C0000E875F008A4C8ABF075F000A42BFB752B
:10498C00F008E9A42BF974E028F582741B39F5833F
:10499C00E06C6003024A94740112180EE0FCEAF811
:1049AC007900E875F008A4C8ABF075F000A42BFBF7
:1049BC0075F008E9A42BF974E128F582741B39F51C
:1049CC0083E06C6003024A94740212180EE0FCEA55
:1049DC00F87900E875F008A4C8ABF075F000A42BCA
:1049EC00FB75F008E9A42BF974E228F582741B39E5
:1049FC00F583E06C6003024A94740312180EE0FC19
:104A0C00EAF87900E875F008A4C8ABF075F000A4DA
:104A1C002BFB75F008E9A42BF974E328F582741BC1
:104A2C0039F583E06C7061740412180EE0FCEAF83E
:104A3C007900E875F008A4C8ABF075F000A42BFB66
:104A4C0075F008E9A42BF974E428F582741B39F588
:104A5C0083E06C7033740512180EE0FCEAF87900F0
:104A6C00E875F008A4C8ABF075F000A42BFB75F04A
:104A7C0008E9A42BF974E528F582741B39F583E059
:104A8C006C7005EA901ED4F00A0249689081E3121A
:104A9C001A587A207B00901BDBE0F912136E740419
:104AAC001217BAE98062750800750900EEF87900F2
:104ABC00E82402F8500109C3E50898E50999504823
:104ACC00740612180EE5822508F582E5833509F582
:104ADC0083E0C0E0901DBAE024EEF8A3E0341CF9AA
:104AEC0088828983D0E0F07C017D00901DBAE0FAC9
:104AFC00A3E0FB1213FE901DBAEAF0A3EBF005083D
:104B0C00E50870A8050980A4EEF87900E82402FCF9
:104B1C00E439FD901DB8E0FAA3E0FB1213FE901DE2
:104B2C00B8EAF0A3EBF0901DCE7400F0901DCF749A
:104B3C0000F0901DD07400F0A37400F0901DD2749E
:104B4C0000F0A37400F00242F9901DB8E02426F89E
:104B5C00A3E0341CF988828983E0C0E0901DBAE0A0
:104B6C0024EEF8A3E0341CF988828983D0E0F07C31
:104B7C00017D00901DBAE0FAA3E0FB1213FE901D1C
:104B8C00BAEAF0A3EBF07C017D00901DB8E0FAA32B
:104B9C00E0FB1213FE901DB8EAF0A3EBF00242F911
:104BAC00742E1217BA7F0602190474EE121832749E
:104BBC00F91217A48A0C8B0D8C0E8D0F7419121808
:104BCC000EE0F508A3E0F5097F007E00C3E50C9428
:104BDC0002E50D94005006E50E450F7005790102B3
:104BEC004D13C3E5089415E509940040047F148027
:104BFC0003E508FF750A00901BF8E0F8E50AC39876
:104C0C005032A80A7900E875F002A4C8AAF075F031
:104C1C0000A42AFA75F002E9A42AF974B028F582E6
:104C2C00741E39F583E0650C7004A3E0650D600417
:104C3C00050A80C3E50AC3940340057902024D13AB
:104C4C00E4F510F5117810121A45EFFC7D0079127D
:104C5C00AA0CAB0D1206FC74021217BA74031218CC
:104C6C000EEAF0A3EBF0740312180EE0F8A3E0F9CF
:104C7C00E8497003024D0FA80A7900E875F00AA400
:104C8C00C8AAF075F000A42AFA75F00AE9A42AF96A
:104C9C00740328F582741C39F583E0F879008518C3
:104CAC0082851983E8F0A3E9F0EFC0E074021218D2
:104CBC000ED0E0F0740512180E7400F07406121881
:104CCC000E7401F08F107511007810121A45AC0E8D
:104CDC00AD0F740512180EE0FAA3E0FB1211F47478
:104CEC00021217BAAC18AD19AA0CAB0D120582E959
:104CFC0070047E00800F7E037912AA18AB1912077C
:104D0C000280027E04EEF974071217BA7F0A0219A8
:104D1C000474F412183274F91217A4EAFEEBFF892A
:104D2C0009750800E4F50AF50B780A121A457C029D
:104D3C007D007913EEFAEFFB1206FC74021217BA1F
:104D4C00740312180EEAF0A3EBF0740312180EE0C1
:104D5C00F8A3E0F9E8496075A8097900E82401F89E
:104D6C00500109851882851983E8F0A3E9F07402D3
:104D7C0012180E7402F0740512180E7400F07406FA
:104D8C0012180E7400F0740312180EE0F8A3E0F57C
:104D9C008388827401F0740312180EE0F8A3E0F516
:104DAC00838882A37400F0901BDBE0F9AC18AD197A
:104DBC00EEFAEFFB120588E9700575080080117595
:104DCC0008017913AA18AB1912070280037508029F
:104DDC00A90874071217BA7F0402190474F7121881
:104DEC0032EAF8EBF9C3E89CE99D400DE8C39CFE60
:104DFC00E99DFFEEFAEFFB8012E824C8FEE439FFD0
:104E0C00EEC39CFEEF9DFFEEFAEFFB7F010219044F
:104E1C0074F41218328A088B09E5082CF8E5093D60
:104E2C00F97AC87B001217198A0A8B0BAE0AAF0BE2
:104E3C00EEFAEFFB7F0402190474F7121832EAFE43
:104E4C00EBFFEEFAEFFB1211EEEAFCEBFDEEFAEFE4
:104E5C00FB79001211B87F0102190474EE1218329A
:104E6C007582007583FF1217F08A0E8B0FECFEED26
:104E7C00FF890DAA0EAB0F1211EEEAF50C850C1082
:104E8C007511007810121A45AC0EAD0F7402121881
:104E9C00201211F474021217BAA80C79008518822A
:104EAC00851983E58228F582E58339F5837420F032
:104EBC00EEF8EFF9E4FAFB880889098A0A8B0BA84B
:104ECC000C7900851882851983E58228F582E583A3
:104EDC0039F583A38582108583117810121A45A9A0
:104EEC000DAA08AB09AC0AAD0B1212127402121700
:104EFC00BAAA18AB1912140492F0758200758301CA
:104F0C001217F0A2F07F0A02190474F71218327EFD
:104F1C00007E00901BF8E0F8EEC398502FEEF87965
:104F2C0000E875F002A4C8AAF075F000A42AFA757E
:104F3C00F002E9A42AF974B028F582741E39F583BD
:104F4C00E0FAA3E0FB120FF0E90E80C77F01021913
:104F5C0004C082C083E9901E60F0D083D08202012D
:104F6C001F74F6121832E99002DCF090033BE0F566
:104F7C000875090074027808121791AA08AB091277
:104F8C0012CC9002DD1259209002DD125D0D606F83
:104F9C0090033BE075F003A4FAABF01212CC900234
:104FAC00FA1259209002FA125D0D700B9002DD126C
:104FBC005CDE1212D280489002FA126C727AFF7B7D
:104FCC00FF12111C7A0080198A0875090074027886
:104FDC000812179112671A74FF125120E4F0A3F013
:104FEC000A90033BE0F8EAC39840DD7905120720EC
:104FFC009002DCE0F912060C7AAA7B0712098A02ED
:10500C0067BD74F41218328A088B09EB5480604720
:10501C009002DCE0F91212368A0A8B0BAE0AAF0B47
:10502C00EE4F602A8E828F83E064B0701A120732C2
:10503C00E960148E828F83A3A3A3A3E0F9EE240569
:10504C00FAE43FFB120702EEFAEFFB121224AA0855
:10505C00E5096480FB80047A007B0002527074F2D4
:10506C0012183274FB1217A4EAFEEBFFEE4F6045E8
:10507C00740312180EEEF0A3EFF0851882851983D5
:10508C00ECF0A3EDF0740212180EE9F0AA18AB19AB
:10509C00120606E9F5087075741312180EE0F50A7D
:1050AC00A3E0F50BE50A450B60638E828F831256E5
:1050BC00A9EE4F700575080280537A067B00121218
:1050CC00CC8A0C8B0DA80CA90DE84970057508133A
:1050DC00803B88828983E4125120EEF0A3EF1252B8
:1050EC003CE50AF0A3E50BF09002E0125235900279
:1050FC00E06017E0FCA3E08003EAFCEBFD8C828D02
:10510C008312523570F38C828D83126335A9087427
:10511C0005026EF2F0A3126C54A32274F212183230
:10512C008908890C750D007403780C121791850C85
:10513C000A850D0B9002DFF09002DD1261401252D5
:10514C0033602E1212D27900801D890C750D0074FB
:10515C0002780C1217919002DD1265D98882F583C2
:10516C00A3A3E4F0A3F00990033BE0F8E9C3984053
:10517C00D990033BE0FA850AF0A4CAA8F0850BF09D
:10518C00A428FB1212CC8A0C8B0DAE0CAF0DEE4F7B
:10519C00700302522990033BE0FC850AF0A4CCA8D2
:1051AC00F0850BF0A428FD790012120C7C008031E4
:1051BC008D0C750D007403780C1217918A828B83F9
:1051CC0012522E88828983E4F012523BA3A3F0A3DF
:1051DC00F00DEDC3950840D8EE250AFEEF350BFF18
:1051EC000C90033BE0F8ECC39850288C0C750D0028
:1051FC007402780C1217919002DD12522EE82402E0
:10520C00500109FAE9FB8A828B83EEF0A3EFF07D63
:10521C000080BFE5089002DFF0790080027913026C
:10522C006EF51265DDF922A3A3125CE2EA4B22A310
:10523C00126C54A3A3A32274F41218327900EAA2BC
:10524C00E0501F75088E7509817808121A4579107F
:10525C007C047D007A627B1E12071A74021217BA44
:10526C00E9F980007F04021904C082C0839002E037
:10527C00125D0D601C88828983A3A3E06A7003A36E
:10528C00E06B8882898370E8A3A3A3A3125CDE8001
:10529C00047A007B00024F6674F212183274FD120D
:1052AC0017A4EAFEEBFF851882851983E4F0A3F0BE
:1052BC00740212180E7401F0125D0A70141208DCDC
:1052CC001212CC9002E3125920125D0A70030254A0
:1052DC0036125A20EE2404F50AE43FF50B850A82B7
:1052EC00F583E024FE603C24FC607424FE607E2484
:1052FC00FE700302538624FE700302539324FE7047
:10530C00030253A024FE70030253AD24FE7003026B
:10531C0053BA24FC70030253DB24FE70030253F3D4
:10532C0002542F1208DC9002E5EAF0A3EB1254426F
:10533C00120276E9600302542F9002E5121A5C8E79
:10534C00828F83A3A3A3A3A3126C72850882850901
:10535C0083125CDE1206EA74021217BA02542FACE6
:10536C0018AD19EEFAEFFB1207380253FEAC18AD6C
:10537C0019EEFAEFFB12073E8078AC18AD19EEFA75
:10538C00EFFB120744806BAC18AD19EEFAEFFB1271
:10539C00074A805EAC18AD19EEFAEFFB120750808D
:1053AC0051AC18AD19EEFAEFFB120756804474029B
:1053BC00121818880C890D780C121A4574021218E0
:1053CC0028EEFAEFFB12075C74021217BA8023ACBA
:1053DC0018AD19EEFAEFFB120762E9F870167402B9
:1053EC0012180EE4F0803CAC18AD19EEFAEFFB127B
:1053FC000768E9F8E8602C8E828F83A3E064146060
:10540C0022850A82850B83E09002E5F0851882855F
:10541C001983125CDE9002E6125920E8A312544262
:10542C00120270EEFAEFFB1206C0740212180EE0B4
:10543C00F97403026EF2F07CE57D02850882850921
:10544C0083125CE22274E812183274FA1217A474F4
:10545C000412180EECF0A3EDF08A128B13EA24055B
:10546C00F50EE43513F50FEA2402F510E43513F5C7
:10547C0011851082F583125CDE1203AE8A0A8B0B47
:10548C007508007C037D0079007AE57B0212120C12
:10549C00E50E2402F516E4350FF5177402121818F0
:1054AC00880C890D780C121A45850E82850F83A302
:1054BC00A3A3A3E0F50C750D00780C121A45E50EAC
:1054CC002405F50CE4350FF50D780C121A458516EC
:1054DC0082851783125FE512062474061217BA8AA6
:1054EC000C8B0DE50C450D7003025672802085184F
:1054FC0082851983E088828983F005088518828566
:10550C001983A3E0C0E01256B3D0E0F00508E50A19
:10551C0024FBFAE50B34FFFBC3E5089AE49B40033C
:10552C000256727E007F00851282851383A3A3A38B
:10553C00A3E0F5097809121A49E4F514F515781465
:10554C00121A457514E27515027814121A45900258
:10555C00E3121A5C740912180E121A5CE50A24F98B
:10556C00F9AC0CAD0D851082851183125CDE12072F
:10557C009274091217BAE96003025613850E8285DC
:10558C000F83A3A3A3A3A3A3A3E0F89002E2E06874
:10559C007075E0F5148E157814121A45126C6F851F
:1055AC000E82850F83A3A3A3A3A3A3A3A3125CDEE4
:1055BC0012120674021217BAE9604C9002E6125DE0
:1055CC000D703BE4F5147814121A457CFF7DFF79BD
:1055DC0007851082851183125CDE1206FC740212A0
:1055EC0017BA125D137017850E82850F83126E0C1D
:1055FC00740412180E1266CD1260160256A6850C93
:10560C0082850D831256A9A818A9198814891578B2
:10561C0014121A45740412180E121A5C851682851F
:10562C00178312591612063074041217BA8A0C8B8F
:10563C000DEE4F70030254EF1256B3EE1256BE121B
:10564C005FCCEF1256BEF8A3E03400F9E50C450D23
:10565C0060030254FA8882898374FFF0050812569D
:10566C00B374FFF00508E508601A1313543F125980
:10567C0026120282E960099002E6125CDE12127EAA
:10568C0079008016850E82850F83126E0C740412BD
:10569C00180E1266CD126335790A025F9FA3A3A37D
:1056AC00A3E0FEA3E0FF22A8089002E6E028125F28
:1056BC00CC22F00508089002E6E0282274E81218C3
:1056CC003274FA1217A4740212180E1259207404B0
:1056DC0012180EECF0A3EDF0740212180EE0240573
:1056EC00125FB5E0F50CA3E0F50D740212180EE094
:1056FC002402F510A3E03400F511851082F5831215
:10570C005CDE1203AE750800750900EA24FCFEEBA2
:10571C0034FFFF8008050CE50C7002050DA808C3CA
:10572C00EE98EF940050030258D2A818A919880ECD
:10573C00890F780E121A45851482851583A3A3A3AD
:10574C00A3126C76121A45E5142405F50EE43515F2
:10575C00F50F780E121A458514828515831259148B
:10576C0012062474061217BA8A0E8B0FEA450F70B4
:10577C00030258D2EA2404F516E4350FF517851602
:10578C0082F583E0F50CA3E0F50D8518828519836D
:10579C00126C728A828B83A3A3A3E0F98510828595
:1057AC001183125CDE120612E9F50960030258D26D
:1057BC00740212180E125FDCF5097809121A49E40A
:1057CC00F512F5137812121A457512E27513027858
:1057DC0012121A459002E3121A5C740712180E1278
:1057EC001A5CEEF9AC0EAD0F851082851183125C3C
:1057FC00DE12079274091217BAE9F5096003025810
:10580C00D2E508703FE4F50EF50F780E121A457CC0
:10581C00FF7DFF7909851082851183125CDE1206EB
:10582C00FC74021217BA126002700D740412180E76
:10583C0012590979110259069002E2E024029002F1
:10584C00E6F080149002E6E0FA9002E2E07900249F
:10585C00025001096A497072A8089002E2E0FAE865
:10586C002AFAE43400FBEE9AEF9B405A85168285A7
:10587C001783E0C0E09002E71256B8D0E0F00508BC
:10588C00851682851783A3E0C0E0089002E71256C4
:10589C00B8D0E0F005089002E2126C76121A4512AC
:1058AC006C6FA808125FA91211F474021217BA9047
:1058BC0002E2E02508F50874FF650C700474FF65BE
:1058CC000D6003025721E508601F9002E6E0F5F039
:1058DC00E50884125926120288E960099002E71241
:1058EC005CDE12127E79008011E509700375090ADD
:1058FC00740412180E125909A909025F9F1261440F
:10590C00E50CF0A3E50DF022A3A3126F01AA0CABDA
:10591C000D22A3A3EAF0A3EBF0229002E5F07CE5C4
:10592C007D02851082851183125CE22274EC1218C0
:10593C003274FC1217A41264457402121828125CFB
:10594C00D812062A8A0C8B0DEA450D7003025A10E8
:10595C00125A20A818A919881089117810121A4502
:10596C007CFF7DFF790B850882850983125CDE1232
:10597C0006FC74021217BA125B16700C850A82852B
:10598C000B83126013025A1D8E828F83A3A3A3A3D1
:10599C00E0F5127812121A49E4F512F51378121286
:1059AC001A457512E57513027812121A4578101201
:1059BC001A45740912180E121A5C740912180EE0AA
:1059CC00F9AC0CAD0D850882850983125CDE1207DB
:1059DC009274091217BAE9FE70157CE57D028508F0
:1059EC0082850983125CDE12028EE97009802074B4
:1059FC00166E70027E009002E6125CDE12127EEED3
:105A0C007004800B7E01850A82850B83126332EE53
:105A1C00F9026347EE2402F508E43FF5092274EC21
:105A2C0012183274FC1217A4EAFEEBFF8C0E8D0FC9
:105A3C00EE2405F508E43FF50974021218288508D0
:105A4C0082850983125CDE12062A8A0C8B0DEA45CC
:105A5C000D7003025B06EE2402F50AE43FF50BA879
:105A6C0018A919881089117810121A457CFF7DFF2E
:105A7C00790D125CD81206FC74021217BA125B165E
:105A8C00700B850882850983126013807A8E828F51
:105A9C0083A3A3A3A3E0F5127812121A49850882F6
:105AAC00850983A3A3121A5C7512E575130278128B
:105ABC00121A457810121A45740912180E121A5C33
:105ACC00740912180EE0F9125CD4120792740912C0
:105ADC0017BAE9FE700F7CE57D02125CD8120294B5
:105AEC00E97009802074166E70027E009002E61236
:105AFC005CDE12127EEE7004800B7E0185088285BE
:105B0C000983126332EEF9026347125D1DF510A38F
:105B1C00E0F511EA45112274E812183274FE1217DE
