:020000040000FA
:0600000002010702213994
:03002B000223812C
:03003B000223A6F7
:030043000223593C
:030053000221AFD8
:10008300021F8FE5C754F84401F5C7790122000028
:100093000080FB120086B900030200F1E4791A78AC
:1000A30002B800028004F709D8FCE4791C7802B88E
:1000B30000028004F709D8FCE49002817866791C79
:1000C3008002F0A3D8FCD9FA7AE67B1D9001377839
:1000D300DB79018015E493A3AD82AE838A828B839F
:1000E300F0A3AA82AB838D828E83D8E9D9E7758288
:1000F300717583EA74031201197582917583007413
:100103000012011975D00075813F751881751902A8
:10011300759F00020096C09FF59FE473D09F22D085
:1001230083D082C09FE493C0E0740193C0E0740263
:1001330093F59F229D03A903DF03D903FF0000B4B6
:10014300000028002800283075A000A000A000A00F
:100153000000080008E001F000100010001000107B
:10016300001000100050005000500010001000D08C
:10017300070000000000000F0001000500307507B4
:10018300001000010081FF00000000FFFFFF0202DA
:10019300022C820100000D82021E82010000401E1B
:1001A300021A82010000B802021E82010000411EF1
:1001B300021882010000CE02FFFF0100FF20022C83
:1001C300820100001382021E820100006F1E0216CC
:1001D300820000000000021C82030000FA021700E4
:1001E300E90BE90BE90BE90BE90BE90BE90BE90B6C
:1001F300E90BE90BE90BE90BE90BC90DE70DC30D9E
:1002030001E803057710020AFFFFFF00FEFF12015A
:100213002295DC03120122A8DC03120122C9DC03AC
:1002230012012234DD0312012275DD03120122962D
:10023300DD03120122D7DD031201226FDE03120157
:1002430022B7DE03120122CDC503120122E0C5034A
:1002530012012211C6031201224BC603120122A46A
:10026300C603120122EBC60312012233C703120194
:100273002262C70312012291C703120122C8C703D6
:100283001201220FC80312012228C8031201227D82
:10029300C803120122ABC803120122E5C8031201ED
:1002A30022F8B202120122FBB30212012228B40285
:1002B30012012279B4021201229CB402120122AE6D
:1002C300B402120122B1B402120122EFB4021201EC
:1002D3002263B502120122CFB50212012297B602A0
:1002E300120122B3B602120122EAB602120122243B
:1002F300B702120122BBB7021201220DB80212018A
:10030300223EB8021201226FB8021201227CB80207
:10031300120122E6B802120122E9B802120122EC0C
:10032300B80212012243B90212012246B902120194
:10033300227FB90212012282B902120122B6B90246
:10034300120122B9B9021201220DBA021201225678
:10035300BA0212012266BA0212012299BA021201EA
:1003630022A6BA02120122A9BA0212012211BB0269
:1003730012012213BC02120122B7BC021201222075
:10038300BD021201225EBD02120122A0E50212018A
:100393002298E602120122CCE60212012262E7024F
:1003A300120122ADE70212012211E8021201229B7F
:1003B300E80212012254E90212012276EC02120130
:1003C30022F3ED0212012216EE02120122A6B90354
:1003D3001201224BBB031201226BBB031201228CBD
:1003E300BC03120122DFBC03120122ECBD03120184
:1003F3002214BE0312012241BE0312012279BE035D
:10040300120122D7BE0312012223BF031201228A43
:10041300BF03120122CABF0312012207C003120144
:100423002235C003120122DFC003120122E9C003F7
:10043300120122F6C00312012229C103120122353F
:10044300C1031201224DC10312012257C10312013C
:10045300226AE60312012278E60312012290E603E0
:10046300120122A8E603120122BFE6031201225A57
:10047300EA0112012204EB0112012280EB011201B5
:10048300229EEC01120122DAEC0112012275ED0128
:1004930012012259EE011201221CEF0112012294D2
:1004A300EF0112012222F10112012293F101120143
:1004B300224DF2011201223FF3011201227FF301C7
:1004C30012012233F40112012265F4011201225BAD
:1004D300F6011201229DF601120122BBF60112015F
:1004E3002240F70112012204F80112012223FA012A
:1004F300120122E5C103120122FBC10312012219D9
:10050300C2031201222AC30312012234C3031201BC
:10051300225FC40312012256C503120122C3C5037D
:10052300120122A09D03120122449E031201227B89
:100533009E03120122D29E03120122E7A00312019D
:100543002214B001120122C5B001120122DAB00156
:10055300120122A3B101120122BDB1011201221025
:10056300B201120122E6B201120122D8B301120133
:10057300228FB4011201229DB7011201228CB9010D
:100583001201223EBA0112012207BB011201224CC1
:10059300BE01120122F6BE011201221FC001120187
:1005A30022DBC1011201227BC201120122CEC20150
:1005B3001201220DC301120122E0C3011201221410
:1005C300C401120122A1C40112012225D801120182
:1005D30022B1D80112012215DA0112012221DA0116
:1005E3001201225CDA01120122CBDA01120122D4B8
:1005F300DB01120122DDDC01120122A4DD01120163
:100603002201DF011201221FDF011201223CDF015F
:1006130012012207E0011201222FE001120122F947
:10062300E201120122FEE20112012217E501120189
:100633002265E501120122D5E50112012213E6012B
:10064300120122EFE601120122AFE701120122FBA0
:10065300E701120122FEE70112012242E801120121
:10066300228AE801120122C9E801120122EBE80102
:100673001201221FE90112012282E90112012296CD
:1006830098031201229F9803120122AD98031201CD
:10069300220099031201221F990312012264990374
:1006A300120122A89A03120122439B0312012287FB
:1006B3009B03120122B19B03120122209C0312010E
:1006C30022669C03120122DD9C031201228E9D03EC
:1006D300120122282400120122382400120122D9F7
:1006E3002400120122352500120122F225001201F5
:1006F300220E27001201224027001201226F270039
:100703001201221C2900120122932B001201220341
:100713002E00120122F52E00120122EE2F001201EB
:1007230022F53100120122E93400120122183600A9
:100733001201221C38001201222C3900120122BBA3
:100743003A00120122AC3B00120122FA3B001201D3
:1007530022693C001201228D3C00120122DE3C0082
:100763001201227F4100120122804200120122E184
:1007730042001201220C4300120122D24300120153
:100783002227B50312012231B50312012276B503E4
:100793001201228AB5031201221AB6031201224260
:1007A300B6031201227DB603120122A6B60312017B
:1007B30022DAB603120122EFB6031201225AB7035B
:1007C3001201227BB7031201228FB703120122A465
:1007D300B703120122DEB70312012202B80312018A
:1007E300224DB803120122D5B80312012218B9030E
:1007F30012012242B9031201227EB9031201224AD5
:10080300E40312012208A802120122EBA80212013A
:100813002266A902120122A1A902120122F2AA024E
:100823001201227BAB0212012293AD021201222597
:10083300B002120122D7B002120122F6B102120154
:10084300224FB202120122739303120122B69303C1
:100853001201223A94031201220D9503120122E49C
:100863009703120122EED4031201229BD503120136
:1008730022A8D603120122E7D60312012241D7038D
:10088300120122DCE0031201223FE103120122DC08
:10089300E1031201220AE2031201222BE2031201F5
:1008A3002266E20312012286E20312012296A203C8
:1008B30012012222A303120122E1A303120122F94E
:1008C300A40312012213A703120122ECDB0212017B
:1008D3002211DC02120122E5DC0212012252DD02A6
:1008E300120122A8DD0212012244DE021201227843
:1008F300DF0212012253E002120122B2E0021201CE
:100903002283E1021201220FE20212012212E20209
:100913001201225CE202120122CEE20212012279CA
:10092300E30212012299E302120122E1E30212011E
:1009330022FDE30212012277E40212012285E4027E
:1009430012012214E5021201227DE502120122FCAA
:10095300AB0312012281AC03120122C3AC031201C7
:1009630022A7AD0312012214AE0312012258AE03D3
:100973001201229CAE03120122C9AE03120122F11D
:10098300AE0312012229AF0312012267AF03120142
:10099300228EAF0312012208B00312012252B003C8
:1009A3001201222F8201120122FC8301120122EA89
:1009B30085011201223E860112012269860112017C
:1009C300221787011201224787011201227687012C
:1009D300120122898701120122CA8701120122F61C
:1009E30087011201224488011201227B880112012E
:1009F30022C78801120122268901120122B9890125
:100A0300120122A38A01120122928B011201227286
:100A13008D01120122919201120122EA9201120127
:100A230022D39401120122A29601120122A7960158
:100A33001201224E9701120122949801120122E21F
:100A43009901120122F3990112012224DA031201FE
:100A5300220FDB0312012252DB03120122A1DB036B
:100A6300120122F2DB0312012243DC0312012248AA
:100A73006200120122C96200120122F66200120111
:100A8300223F6300120122406400120122856400A8
:100A9300120122B164001201222D6600120122AF5D
:100AA30066001201220C67001201225F6700120127
:100AB300224E6800120122E36900120122AD6A008E
:100AC300120122BD6A00120122E76A00120122EA22
:100AD3006A00120122CD6B00120122B86C001201D0
:100AE30022656D00120122C26D001201221B6E00ED
:100AF3001201227F6E00120122276F00120122C30E
:100B03006F00120122507000120122C57000120101
:100B130022217100120122807100120122A77100AB
:100B23001201226572001201225674001201229FE3
:100B33007400120122CF74001201224275001201C7
:100B430022C876001201227877001201229D7700D5
:100B5300120122DC7700120122F177001201223404
:100B63007800120122A47800120122EE780012010B
:100B730022F87900120122797A001201222CD20282
:100B830012012277D20212012283D20212012257CA
:100B9300D3021201226ED302120122ABD30212013D
:100BA30022DCD30212012214D4021201226AD402DB
:100BB30012012280D402120122BCD402120122CFDC
:100BC300D402120122F6D4021201222AD502120102
:100BD3002250D6021201229AD70212012296D8027B
:100BE300120122B3D902120122FB7F00120122AFAC
:100BF3007A001201225D7E00120122917F00120110
:100C030022159C02120122D89E02120122DE9E02AC
:100C13001201229BA102120122F5A3021201224A10
:100C2300A703120122E1A7031201229FA8031201C5
:100C330022C9A803120122FFAA03120122169A0154
:100C4300120122519A01120122A5A40112012211BB
:100C5300A6011201220EA70112012293AA01120179
:100C63002279AB01120122C5AB01120122DFAB01D4
:100C730012012220AC0112012229AC01120122D956
:100C8300AC01120122A9AD01120122F0AD01120142
:100C93002256AE01120122C8AE011201224DC90330
:100CA3001201222ACA031201226ECA03120122A8C8
:100CB300CA0312012240CB03120122AFCB0312015C
:100CC30022B8CB03120122C4CB03120122DECB03D1
:100CD30012012208CC0312012238CC031201225143
:100CE30087031201225E8703120122788703120110
:100CF30022AB8703120122E987031201224E8803E4
:100D03001201226388031201227A880312012288C6
:100D13008803120122978803120122AC880312016F
:100D230022C18803120122CC8803120122D888032E
:100D3300120122E58803120122F48803120122FF23
:100D43008803120122248903120122C88903120194
:100D530022DD8903120122F289031201220C8A0384
:100D6300120122298A03120122468A031201225107
:100D73008A03120122FD8A03120122DE8B03120170
:100D830022038C031201220E8C03120122238C03F3
:100D9300120122378C03120122988C031201229E26
:100DA3008C03120122A48C03120122AA8C031201C8
:100DB30022C28C03120122F58C0312012284BD028C
:100DC300120122A6BD021201226EBE0212012228C6
:100DD300C1021201223EC2021201225FC3021201AA
:100DE3002239C402120122E8C402120122928E02A5
:100DF300120122298F02120122C18F02120122B194
:100E03009002120122E89002120122FB90021201C9
:100E1300226991021201220493021201222B9302EE
:100E2300120122CD93021201220294021201221313
:100E330094021201228C9402120122AD9402120137
:100E430022C594021201221D960212012226980243
:100E5300120122769A02120122799B02120122C800
:100E63009B02120122008002120122FD8002120164
:100E730022E88102120122F281021201221482026B
:100E8300120122208202120122728302120122A184
:100E93008302120122D1840212012213850212015C
:100EA300223F86021201221587021201226787025E
:100EB300120122C68702120122FD87021201223883
:100EC3008802120122D38B02120122EC8B0212013F
:100ED300226E8C021201227C8C02120122D18C021E
:100EE300120122DF8C021201224C8D02120122BE5A
:100EF3008D02120122048E0212012294E2031201D6
:100F030022B9E2031201222AE30312012239EF027A
:100F130012012242EF021201224BEF021201227C44
:100F2300F0021201229BF202120122D1F2021201FB
:100F3300220BF30212012241F3021201227BF3027C
:100F4300120122AFF302120122DBF3021201222467
:100F5300F4021201225EF402120122A6F40212012B
:100F630022FCF40212012231F5021201228CF50255
:100F7300120122C6F50212012217F6021201224DB6
:100F8300F60212012287F602120122AAF6021201C8
:100F930022FDE70312012229E80312012284E80358
:100FA3001201228EE8031201229EE803120122009D
:100FB30080031201224880031201220C81031201D3
:100FC300228E8103120122E08103120122F38103A5
:100FD300120122358203120122D082031201224F11
:100FE3008303120122D38403120122EC840312012E
:100FF30022248603120122908603120122FE860315
:101003001201224BE9031201223E44001201227015
:101013004700120122574900120122D2490012014E
:1010230022904A001201223C4B00120122DF4B00A6
:10103300120122774C00120122A64C00120122A9B0
:1010430050001201223B510012012277520012017B
:1010530022E152001201229553001201224B560045
:10106300120122855600120122EF56001201224C72
:101073005700120122A9570012012206580012013B
:1010830022F158001201223759001201228259001D
:10109300120122A55900120122EC5A00120122006A
:1010A3005B001201226F5C00120122AE5C00120190
:1010B30022EE5C00120122415D00120122625D00FA
:1010C300120122A05D00120122C65F0012012261FB
:1010D3006000120122D36000120122146200120187
:1010E3002244D203120122EAD203120122D7D303EC
:1010F30012012216D40312012280D4031201226B9F
:10110300CF0312012236D203120122DC7F00120127
:10111300224FE7031201225FE70312012273E70361
:10112300120122EFE70312012266CC031201220E01
:10113300CD0312012250CF03120122F6FF01120147
:1011430022778D03120122748F03120122FA8F0377
:101153001201220C9103120122D091031201224D9C
:101163009203120122BF9203120122C292031201BF
:1011730022D09203120122ED92031201221693034D
:101183001201223F93031201224D930312012265A0
:1011930093031201225EE50312012287E503120184
:1011A30022B1E5031201220FE60312012238F702EE
:1011B3001201224DF702120122A9F7021201221491
:1011C300F8021201225CF802120122CEF802120187
:1011D30022F7F80212012205F90212012267F9022D
:1011E300120122A5F902120122C0F9021201225BA7
:1011F300FA0212012204FB0212012287FB021201EE
:1012030022C0FB021201224BFC02120122A2FC02A9
:1012130012012200FD0212012212FD0212012238E4
:10122300FD0212012241FD0212012292FE0212016D
:1012330022E2DE0312012249DF0312012206E00348
:1012430012012284E00312012292B003120122C58B
:10125300B003120122F7B1031201223BB2031201C0
:101263002200B303120122DCB303120122C6FE02E1
:10127300120122A4FF021201228CD703120122D1F0
:10128300D70312012217D803120122E0D903120156
:1012930022E1E903120122FCE9031201220CEA0311
:1012A300120122A8E803120122DCC702120122B8AC
:1012B300C802120122FFC8021201223CC902120114
:1012C30022AAC90212012204CA0212012274CA020A
:1012D300120122ACCB021201229BCC021201221278
:1012E300CD02120122AECE021201223BCF02120125
:1012F30022AECF021201222AD00212012241D002D1
:1013030012012266D102120122C0D102120122303F
:10131300FA0112012250FA0112012256FB011201B5
:1013230022A2FB01120122C2FB0112012215FC01C0
:1013330012012282FC01120122C8FC011201222C9B
:10134300FD0112012297C50112012225C7011201D5
:1013530022D9CE01120122FDCE01120122CACF01F0
:10136300120122CDCF011201227FD1011201228D60
:10137300D10112012290D101120122C8D20112011E
:101383002281D40112012264D5011201223CD6012B
:101393001201220AD701120122C8D701120122FC2D
:1013A300D70112012216EB03120122D8FF01120109
:1013B30022C6EA03E066701008A3E066700A08A379
:1013C300E066700408A3E06622C3E7960809E7967F
:1013D3000809E7960809E79622C3E09608A3E09672
:1013E30008A3E09608A3E09622C008C3E096F50898
:1013F30008A3E096420808A3E096420808A3E096F3
:1014030045087001D3D00822080808EAC0E0EBC001
:10141300E086F0E7A4FA180986F0E7A42AFA180987
:1014230086F0E7A42AFA180986F0E7A42AFA1986AF
:10143300F0E7A4FBE5F02AFA190886F0E7A42BFBF2
:10144300E5F03AFA190886F0E7A42BFBE5F03AFA3F
:1014530018180986F0E7A4C5F02BFBE43AFA19083B
:10146300E7C5F0C6A426F6E5F03BFBE43AFA188696
:10147300F0E7A4F6E5F00826F6E43B08F6E43A08BC
:10148300F6D0E0FBD0E0FA22E4CFC0E0E4CEC0E047
:10149300E4CDC0E0E4CCC0E075F020E626F608E633
:1014A30033F608E633F608E633F6181818EC33FC7F
:1014B300ED33FDEE33FEEF33FFC3EC9709ED9709F0
:1014C300EE9709EF97191919400FFFEC97FC09EDF7
:1014D30097FD09EE97FE191906D5F0BFECF709ED54
:1014E300F709EEF709EFF7191919D0E0FCD0E0FD81
:1014F300D0E0FED0E0FF226016080808C6C313C67A
:1015030018C613C618C613C618C613C6D5E0EA22F2
:101513007009080808226016181818C6C333C608CD
:10152300C633C608C633C608C633C6D5E0EA22E6C4
:1015330027F60809E637F60809E637F60809E63715
:10154300F622E026F608A3E036F608A3E036F6080E
:10155300A3E036F622E026F008A3E036F008A3E085
:1015630036F008A3E036F022C3E697F60809E697BB
:10157300F60809E697F60809E697F622C3E096F01F
:1015830008A3E096F008A3E096F008A3E096F02203
:10159300E657F60809E657F60809E657F60809E696
:1015A30057F622E056F608A3E056F608A3E056F6EF
:1015B30008A3E056F622E056F008A3E056F008A38D
:1015C300E056F008A3E056F022E066F608A3E066D2
:1015D300F608A3E066F608A3E066F622E0F608A3A1
:1015E300E0F608A3E0F608A3E0F622E6F008A3E697
:1015F300F008A3E6F008A3E6F022E0FAA3E0FBA3D9
:10160300E0FCA3E0FD22EAF0A3EBF0A3ECF0A3EDF2
:10161300F022E0F8A3E0F9A3E0FAA3E0FB22E8F06C
:10162300A3E9F0A3EAF0A3EBF022CAC0E0E6F0A33B
:1016330008DAFAD0E0FA22CAC0E0E0A3C582CCC53A
:1016430082C583CDC583F0A3C582CCC582C583CDB6
:10165300C583DAE6D0E0CA22C3E498F8E499F91224
:10166300169C8026C3E49AFAE49BFBE920E7E9127F
:10167300169CE498F8E499F922C3E498F8E499F9FC
:1016830012169CE498F8E499F9C3E49AFAE49BFBF4
:1016930022EB20E7CFE920E7E0B90010BB0008E820
:1016A3008AF084F8AAF022E4FBC8FA22EB70227BCA
:1016B30010C833C8C933C9335007C39AC3DBF28098
:1016C300069A50012ADBEAC833F4C8C933F4C9FACD
:1016D3002275F008E4C833C8C933C933C99AC99B12
:1016E3005004C92AC93BD5F0ECFBC833F4C8E4C99C
:1016F300FA22600D08C6A2E713C618C613C6D5E0C2
:10170300F322600C08C6C313C618C613C6D5E0F48B
:1017130022700422600D18C6C333C608C633C6D56B
:10172300E0F41822251810AF08F518400C1519809D
:1017330008F51840021519D2AF2200C0D0251810A1
:10174300AF08F518500C05198008F5185002051953
:10175300D2AFD0D0222518F58210AF08F518400C6F
:1017630015198008F51840021519D2AF851983227F
:10177300C5822518C582C583351910AF07F51985AC
:1017830082188007F519858218D2AFC583222518E0
:10179300F582E43519F583222518F8E43519F92281
:1017A3002518FAE43519FB222518FCE43519FD2226
:1017B300E4732518C582C0E0E51934FFC583C0E092
:1017C300E518C3958224F810AF088583198582181C
:1017D3008008858319858218D2AFCEF0A3E520F067
:1017E300A37808E608F0A3DEFAEFF0A3E58124FA74
:1017F300F8E608F0A3E608F0A3E608F0A30808E675
:1018030008F0A3E608F0A315811581D0E0FED0E02F
:10181300F8158115811581E8C0E0EEC0E022251896
:10182300C582C0E0E51934FFC583C0E0E518C39560
:101833008224F910AF08858319858218800885836F
:1018430019858218D2AFCEF0A3E520F0A37808E67D
:1018530008F0A3DEFAEFF0A3E58124FBF8E608F035
:10186300A3E608F0A30808E608F0A3E608F0A3152A
:10187300811581D0E0FED0E0F815811581E8C0E044
:10188300EEC0E022851983851882E0A3FEE0A3F56C
:10189300207808E0A3F608DFFAE0A3FFE0A3C0E0A6
:1018A300E0A3C0E0E0A3C0E0E0A3C0E0E0A3C0E0A9
:1018B30010AF08858218858319800885821885836F
:1018C30019D2AFD083D08202011F85198385188274
:1018D300E0A3FEE0A3F5207808E0A3F608DFFAE032
:1018E300A3FFE0A3C0E0E0A3C0E0E0A3C0E0E0A367
:1018F300C0E010AF08858218858319800885821897
:10190300858319D2AFD083D08222C0D02518C58257
:10191300C0E0E51934FFC583C0E0E518C395822410
:10192300F310AF088583198582188008858319858C
:101933008218D2AFC8F0A3E9F0A3EAF0A3EBF0A3B7
:101943007908E709F0A3D8FAECF0A3EDF0A3EEF0E1
:10195300A3EFF0A3D0E0F0A3D0E0F0A3D0E0F0A396
:10196300E520F0A3E5F0F0A322851983851882E032
:10197300C0E0A3E0F9A3E0FAA3E0FBA37808E0F654
:1019830008A3DFFAE0FCA3E0FDA3E0FEA3E0FFA3CE
:10199300E0C0E0A3E0C0E0A3E0F5D0A3E0F520A31E
:1019A300E0A3F5F010AF08858319858218800885B8
:1019B3008319858218D2AFD082D083D0E0F8D0E0EB
:1019C3003274048006740280027401C0E0F40412CD
:1019D3001758D0E012162D2274048004740280007C
:1019E300CCC0E0EDC0E0E518C39CCCAD1950011D9F
:1019F30010AF068C188D1980068C188D19D2AF1272
:101A0300163AD0E0FDD0E0FC22D083D082E9C0E0DA
:101A1300E493A3C386F0C5F095F0F908E493A38695
:101A2300F0C5F095F0700BE493A3C3994005E90466
:101A33008002A3E475F002A42582F582E5F03583E4
:101A4300F583D0E0F9E493A3C0E0E493C0E022D0AF
:101A530083D082ECC0E0EDC0E0E493A3FCE493A365
:101A6300FDED4C600D121A9EEC24FFFCED34FFFDDE
:101A730080EFE493A3FCE493A3FDED4C600D121AF5
:101A8300DDEC24FFFCED34FFFD80EFD0E0FDD0E082
:101A9300FCE493A3C0E0E493C0E022C0E0C3E4937A
:101AA30096087401939618400FE4936670080874BF
:101AB3000193661870007019A3A3C3E49396087486
:101AC30001939618A3A3400DD0E0D0E0D0E0021A12
:101AD3008EA3A3A3A3A3A3D0E022C0E0C0F088F009
:101AE300E4936670080874019366187000A8F0A365
:101AF300A3700BD0F0D0E0D0E0D0E0021A8EA3A305
:101B0300D0F0D0E02274F6121821EAFEEBFF8C0825
:101B13008D09EE2434F8E43FF9E8FCE9FDEE2435C1
:101B2300121DD4FAEE2437121DD4F88508F0A4C888
:101B330085F00A8509F0A4250AF9EA28F8E439F9B9
:101B43007A257B0012169CEA8C828D83F0FA13139C
:101B530013541FF8EE28F8E43FF9E8245DF582E416
:101B630039F583E0C0E074075AF8D0E0B80002808A
:101B730004C313D8FCA2E0EE50082434F582E43FFA
:101B830080182436121DD4F5F0EA84A8F0EE28F864
:101B9300E43FF9E82438F582E439F583E0F97F037B
:101BA3000218CD74F7121821EAFEEBFFEE2434126B
:101BB3001DD4C0E0EE2435F582E43FF583D0E0F098
:101BC3008E828F83A3A3A3A3A3A3A3C082C0838E68
:101BD300828F83A3A3A3A3A3E0F8A3E0F9D083D0C8
:101BE30082E0C398F508A3E099F509EE247F121D5E
:101BF300D46401703EEE2480F582E43FF583C08215
:101C0300C0838E828F83A3A3A3A3A3E0240108A38D
:101C1300E03400F9D083D082E0687003A3E06970F8
:101C2300127CC07D06120B1DEE247FF582E43FF586
:101C330083E4F0AC08AD09EEFAEFFB121B08E9F9F7
:101C430012234B7F020218CD74EF121821900369FF
:101C5300E064086005E06407702A9061C8E06024CE
:101C6300900397E0F4601DE0F875F00DA4C8AAF0A6
:101C73002AF9749928FE740339FF8E828F83A3A3F4
:101C8300A3E07003021D59906060E0C0E0EE246899
:101C9300F582E43FF583D0E0F0750CFC750D067515
:101CA3000800750900E5D914F50AE5D95403F50EC2
:101CB30060127403650E6043E50A600AEE2467123E
:101CC3001DD4700280759006F7E06401601F121D39
:101CD300D160047A0480027A00E50AC39AFA95E097
:101CE300FB1209B58A088B09EA45097005120D9F95
:101CF3008064121DD170048A0C8B0DE50A60128575
:101D03000C82850D83F50BE5D9F0A3150BE50B705C
:101D1300F6121DD1604474FC250AF50A780C1219D9
:101D2300C8AC0AA90EEEFAEFFB120BE3740212170A
:101D33003DE97026AA08AB09121237793D8E828FCE
:101D430083A3A3A3A3E0FA7B0012082FEEFAEFFB11
:101D5300120B41120C437900806F7403650E6051BE
:101D6300850A1075110078101219C8AC0CAD0DAAB4
:101D730008AB09120BA7740212173DEE2468121D5B
:101D8300D464807004747F8001E0F50C780C121920
:101D9300CCE50EF50C780C1219CCA90AAC08AD09E8
:101DA300900397E0FA7B001207FF740212173D803D
:101DB30013900369E06408700BAC0CAD0DEEFAEF01
:101DC300FB120C13120DAB79017F0A0218CDEE241E
:101DD30083F582E43FF583E02274F212182174FC48
:101DE300121727EAFEEBFF8909A2AFE433F508C215
:101DF300AF021EA6E0601B780C1219C8AC0BA90E2B
:101E0300EEFAEFFB120BDD740212173D7404250B7F
:101E1300F50B7401250BF5D9850ED9E50B6018F583
:101E23000A850C82850D83E0F5D9A385820C858311
:101E33000D150AE50A70EA75E195EE2463F8E43FAF
:101E4300F97A007B00A2AFE433F50BC2AF88828935
:101E530083E0FCA3E0FDEC4D603A88828983E0FADD
:101E6300A3E0FB8A828B83E0FCA3E0FD8882898365
:101E7300ECF0A3EDF08A828B83E4F0A3F0888289EF
:101E830083E0FCA3E0FDEC4D700A88828983A3A361
:101E9300E4F0A3F0E50BA2E092AF1212379006C76D
:101EA300E004F0EE2463121DD4F8A3E0F9E84960DE
:101EB30064EE2463121DD42402F8A3E03400F988ED
:101EC300828983E5822402F50CE43583F50DE0F580
:101ED3000BA3E0F50EEE2462121DD464017036905C
:101EE30061D0E0F8121DD160047C0480027C007490
:101EF30080C398FA95E0FBE50B2CF8E43400F9E88D
:101F03002402F8500109C3EA98EB99A2D265D033B1
:101F13004003021DF79006C7E0604D9006C8E0F845
:101F23009006C7E0C398500C74026509703A900696
:101F3300C9E060348E828F83A3A3A3A3E0851882B4
:101F4300851983121F7B7402121791E8121F7B906D
:101F530006C6E028F074021217ABAA18AB19790170
:101F63001208599006C7E4F0E508A2E092AF7404A2
:101F730012173D7F070218CDF0A3E4F09006C7E0E7
:101F8300F822000000851A87851BC622C0E074EB87
:101F930012190DA2AFE433F508C2AF759B0090612F
:101FA30082E0A2E05030E591A2E0502A7591FE74E0
:101FB30001651A7021122122120CD3122110121959
:101FC300DB122287740412173DE96401700579015D
:101FD300120D03121C4B906182E0A2E5505DE59166
:101FE300A2E550577591DF900369E064076005E04F
:101FF3006408702F1221227401651A703E120CD3EB
:102003001221101219DB122287740412173DE9649E
:102013000170057901120D037901EEFAEFFB121D30
:10202300DC8018E0640D701390038BE004F06428E7
:102033007002E4F07A00E0F9120DB1906182E0A23F
:10204300E640030220E5E591A2E640030220E575A0
:1020530091BF900369E064057008120CBB120CC7B2
:102063008003120CC1751A00120D21E990036AF066
:102073007900120D03120A817A017B00900368E054
:10208300F9121207907803E0644270569006FBE061
:1020930014F0704EC2AF12209C00781DD0E0F618E9
:1020A300D0E0F6E59F5407F87005750DFF800375C2
:1020B3000D7FC4C0E0781CE6F50A08E6550DF50B64
:1020C300740B780A121705D0E0250AF8906270E0C5
:1020D300A2E740F8E8C333906272F0906270E0D2F6
:1020E300E0F0906181E0A2E35009E5E9A2E3500347
:1020F30075E9F7A3E0A2E75009E591A2E75003755C
:10210300917FE508A2E092AF7F0802196C8E828F5F
:1021130083E0F8A3E0C82416F582E438F58322901F
:102123000397E0F875F00DA4C8AAF02AF97499286A
:10213300FE740339FF22C0E0C0D0C082C083906127
:1021430083E0A2E05009E5BFA2E0500375BFFEE0C3
:10215300A2E15009E5BFA2E1500375BFFDE0A2E291
:102163005009E5BFA2E2500375BFFBE0A2E35009AB
:10217300E5BFA2E3500375BFF7E0A2E45009E5BF52
:10218300A2E4500375BFEFE0A2E55009E5BFA2E565
:10219300500375BFDFE0A2E65009E5BFA2E6500396
:1021A30075BFBFD083D082D0D0D0E032C0E074F20C
:1021B30012190DE5A7A2E6500FE5A1A2E6500953B7
:1021C300A7BF75A1BF122203E5A7A2E5500CE5A1A5
:1021D300A2E5500653A7DF75A1DFE5A7A2E15009E9
:1021E300E5A1A2E1500375A1FDE5A7A2E2500CE52C
:1021F300A1A2E2500653A7FB75A1FB7F0102196C54
:1022030074F7121821751A01900369E064067015BA
:10221300120C678A828B83A3A3A3A3A3A3E0FAA3CD
:10222300E0FB120CA9A2AFE433FED2AF90036FE040
:10223300640170187A207B00900368E0F91213336D
:102243007A207B00900368E0F912120D906182E01E
:10225300D2E6F09006F8E0602185C61B8016900355
:102263006EE064017008E5C654F84405F5C653BE34
:10227300FC121F887401651A60E4EEA2E092AF7F3E
:10228300020218CD74F11218218A088B098C0A8D69
:102293000B9081C978081215A6740F121791780C48
:1022A3001215DF9081C9780C1215A67808790C12E3
:1022B30013CC90820950107808790C12156B7808AA
:1022C3001213EC4014800E780C790812156B780CFD
:1022D3001213EC50047901800279007F080218CDB3
:1022E30074ED1218218A088B098C0A8D0B9081C911
:1022F30078081215A67413121791780C1215DF9033
:1023030081C9780C1215A6780C79081213CC4011E8
:102313007808790C12156BAA08AB09AC0AAD0B80CF
:10232300227510007511007512007513017810796C
:102333000C12156B78107908121532AA10AB11AC78
:1023430012AD137F0C0218CDC082C083E9906000E8
:10235300F0D083D08222C0E074F212190DA2AFE450
:1023630033FED2AFC2C0E5D1A2E4500675D10F123D
:10237300118FEEF8EEA2E092AF7F0102196CC0E07C
:10238300C0D0E8C0E0E9C0E0A2AFE433F8D2AFC206
:10239300C7E8F9E8A2E092AFD0E0F9D0E0F8D0D0F6
:1023A300D0E032C0E0C0D0E8C0E0E9C0E0EAC0E07D
:1023B300C082C083A2AFE433FAD2AF900F75E0F8C6
:1023C300900F76E068700B539AFB900F777401F0CF
:1023D300802CC2E9900F75E0F8740128900F75F016
:1023E300790074DF28F582740E39F583E0F5C19026
:1023F3000F75E0C394964006900F757400F0EAF8E9
:10240300EAA2E092AFD083D082D0E0FAD0E0F9D054
:10241300E0F8D0D0D0E032C2AF02000022FFFFFFCD
:10242300FFFFFFFFFFC082C083E9901E6EF0D083E1
:10243300D08202011F74F61217B5E99002DCF09006
:10244300033BE0F50875090074027808121714AA13
:1024530008AB091212859002DD122DEB9002DD12FA
:1024630031D8606F90033BE075F003A4FAABF01230
:1024730012859002FA122DEB9002FA1231D8700BEA
:102483009002DD1231A912128B80489002FA124198
:102493003D7AFF7BFF1210E17A0080198A087509E3
:1024A3000074027808121714123BE574FF1225EB2F
:1024B300E4F0A3F00A90033BE0F8EAC39840DD7927
:1024C300051206EB9002DCE0F91205D77A757B075B
:1024D300120955023C8874F41217B58A088B09EB6C
:1024E300548060479002DCE0F91211EF8A0A8B0BEB
:1024F300AE0AAF0BEE4F602A8E828F83E064B0701A
:102503001A1206FDE960148E828F83A3A3A3A3E0AE
:10251300F9EE2405FAE43FFB1206CDEEFAEFFB12C7
:1025230011DDAA08E5096480FB80047A007B0002C0
:10253300273B74F21217B574FB121727EAFEEBFF61
:10254300EE4F60457403121791EEF0A3EFF0851878
:1025530082851983ECF0A3EDF07402121791E9F070
:10256300AA18AB191205D1E9F5087075741312177F
:1025730091E0F50AA3E0F50BE50A450B60638E8253
:102583008F83122B74EE4F700575080280537A0601
:102593007B001212858A0C8B0DA80CA90DE84970DB
:1025A30005750813803B88828983E41225EBEEF0DE
:1025B300A3EF122707E50AF0A3E50BF09002E01260
:1025C30027009002E06017E0FCA3E08003EAFCEB45
:1025D300FD8C828D8312270070F38C828D831238D9
:1025E30000A90874050243BDF0A312411FA322747E
:1025F300F21217B58908890C750D007403780C1253
:102603001714850C0A850D0B9002DFF09002DD1282
:10261300360B1226FE602E12128B7900801D890C58
:10262300750D007402780C1217149002DD123AA48F
:102633008882F583A3A3E4F0A3F00990033BE0F8B9
:10264300E9C39840D990033BE0FA850AF0A4CAA8ED
:10265300F0850BF0A428FB1212858A0C8B0DAE0CAF
:10266300AF0DEE4F70030226F490033BE0FC850AA6
:10267300F0A4CCA8F0850BF0A428FD79001211CBAF
:102683007C0080318D0C750D007403780C121714C7
:102693008A828B831226F988828983E4F0122706C3
:1026A300A3A3F0A3F00DEDC3950840D8EE250AFED1
:1026B300EF350BFF0C90033BE0F8ECC39850288CEC
:1026C3000C750D007402780C1217149002DD12269B
:1026D300F9E82402500109FAE9FB8A828B83EEF0C0
:1026E300A3EFF07D0080BFE5089002DFF079008062
:1026F3000279130243C0123AA8F922A3A31231ADFF
:10270300EA4B22A312411FA3A3A32274F41217B509
:102713007900EAA2E0501F75086F750981780812E5
:1027230019C879107C047D007A707B1E1206E5744B
:102733000212173DE9F980007F04021887C082C0A6
:10274300839002E01231D8601C88828983A3A3E0BE
:102753006A7003A3E06B8882898370E8A3A3A3A3B1
:102763001231A980047A007B0002243174F212171B
:10277300B574FD121727EAFEEBFF851882851983CE
:10278300E4F0A3F074021217917401F01231D570C2
:10279300141208A71212859002E3122DEB1231D501
:1027A3007003022901122EEBEE2404F50AE43FF52F
:1027B3000B850A82F583E024FE603C24FC607424CC
:1027C300FE607E24FE700302285124FE700302285B
:1027D3005E24FE700302286B24FE70030228782413
:1027E300FE700302288524FC70030228A624FE70D1
:1027F300030228BE0228FA1208A79002E5EAF0A312
:10280300EB12290D120253E960030228FA9002E544
:102813001219DF8E828F83A3A3A3A3A312413D8545
:1028230008828509831231A91206B5740212173D75
:102833000228FAAC18AD19EEFAEFFB1207030228CF
:10284300C9AC18AD19EEFAEFFB1207098078AC1882
:10285300AD19EEFAEFFB12070F806BAC18AD19EE52
:10286300FAEFFB120715805EAC18AD19EEFAEFFB19
:1028730012071B8051AC18AD19EEFAEFFB120721BA
:102883008044740212179B880C890D780C1219C8A6
:1028930074021217ABEEFAEFFB120727740212173A
:1028A3003D8023AC18AD19EEFAEFFB12072DE9F8C2
:1028B30070167402121791E4F0803CAC18AD19EE57
:1028C300FAEFFB120733E9F8E8602C8E828F83A3BB
:1028D300E064146022850A82850B83E09002E5F0B0
:1028E3008518828519831231A99002E6122DEBE82F
:1028F300A312290D12024DEEFAEFFB12068B74029E
:10290300121791E0F974030243BDF07CE57D028563
:1029130008828509831231AD2274E81217B574FA5F
:102923001217277404121791ECF0A3EDF08A128B9F
:1029330013EA2405F50EE43513F50FEA2402F51026
:10294300E43513F511851082F5831231A91203853D
:102953008A0A8B0B7508007C037D0079007AE57B7E
:10296300021211CBE50E2402F516E4350FF51774A8
:102973000212179B880C890D780C1219C8850E82D8
:10298300850F83A3A3A3A3E0F50C750D00780C12A8
:1029930019C8E50E2405F50CE4350FF50D780C1276
:1029A30019C88516828517831234B01205EF740691
:1029B30012173D8A0C8B0DE50C450D7003022B3D60
:1029C3008020851882851983E088828983F0050831
:1029D300851882851983A3E0C0E0122B7ED0E0F036
:1029E3000508E50A24FBFAE50B34FFFBC3E5089A67
:1029F300E49B4003022B3D7E007F008512828513FA
:102A030083A3A3A3A3E0F50978091219CCE4F51471
:102A1300F51578141219C87514E275150278141295
:102A230019C89002E31219DF74091217911219DF02
:102A3300E50A24F9F9AC0CAD0D85108285118312DA
:102A430031A912075D740912173DE96003022ADEFA
:102A5300850E82850F83A3A3A3A3A3A3A3E0F8906A
:102A630002E2E0687075E0F5148E1578141219C847
:102A730012413A850E82850F83A3A3A3A3A3A3A325
:102A8300A31231A91211C5740212173DE9604C90CB
:102A930002E61231D8703BE4F51478141219C87C9D
:102AA300FF7DFF79078510828511831231A91206F4
:102AB300C7740212173D1231DE7017850E82850F1F
:102AC300831242D77404121791123B981234E10215
:102AD3002B71850C82850D83122B74A818A9198874
:102AE30014891578141219C874041217911219DF76
:102AF300851682851783122DE11205FB74041217C4
:102B03003D8A0C8B0DEE4F70030229BA122B7EEE19
:102B1300122B89123497EF122B89F8A3E03400F9B2
:102B2300E50C450D60030229C58882898374FFF093
:102B33000508122B7E74FFF00508E508601A1313CD
:102B4300543F122DF112025FE960099002E612313F
:102B5300A912123779008016850E82850F831242DF
:102B6300D77404121791123B98123800790A023471
:102B73006AA3A3A3A3E0FEA3E0FF22A8089002E6B2
:102B8300E02812349722F00508089002E6E0282294
:102B930074E81217B574FA121727740212179112F8
:102BA3002DEB7404121791ECF0A3EDF074021217DD
:102BB30091E02405123480E0F50CA3E0F50D7402D6
:102BC300121791E02402F510A3E03400F5118510EB
:102BD30082F5831231A9120385750800750900EA8D
:102BE30024FCFEEB34FFFF8008050CE50C700205A6
:102BF3000DA808C3EE98EF94005003022D9DA8186A
:102C0300A919880E890F780E1219C88514828515A3
:102C130083A3A3A3A31241411219C8E5142405F504
:102C23000EE43515F50F780E1219C8851482851533
:102C330083122DDF1205EF740612173D8A0E8B0FD8
:102C4300EA450F7003022D9DEA2404F516E4350FBF
:102C5300F517851682F583E0F50CA3E0F50D8518CD
:102C63008285198312413D8A828B83A3A3A3E0F952
:102C73008510828511831231A91205DDE9F50960FA
:102C830003022D9D74021217911234A7F5097809D6
:102C93001219CCE4F512F51378121219C87512E261
:102CA30075130278121219C89002E31219DF740720
:102CB3001217911219DFEEF9AC0EAD0F8510828554
:102CC30011831231A912075D740912173DE9F50941
:102CD3006003022D9DE508703FE4F50EF50F780EB5
:102CE3001219C87CFF7DFF79098510828511831233
:102CF30031A91206C7740212173D1234CD700D7438
:102D030004121791122DD47911022DD19002E2E011
:102D130024029002E6F080149002E6E0FA9002E2C8
:102D2300E0790024025001096A497072A8089002F0
:102D3300E2E0FAE82AFAE43400FBEE9AEF9B405A09
:102D4300851682851783E0C0E09002E7122B83D0BB
:102D5300E0F00508851682851783A3E0C0E008909C
:102D630002E7122B83D0E0F005089002E212414102
:102D73001219C812413AA8081234741211B374021A
:102D830012173D9002E2E02508F50874FF650C7008
:102D93000474FF650D6003022BECE508601F9002CD
:102DA300E6E0F5F0E50884122DF1120265E9600909
:102DB3009002E71231A912123779008011E50970E8
:102DC3000375090A7404121791122DD4A909023448
:102DD3006A12360FE50CF0A3E50DF022A3A312430C
:102DE300CCAA0CAB0D22A3A3EAF0A3EBF022900232
:102DF300E5F07CE57D028510828511831231AD22D9
:102E030074EC1217B574FC121727123910740212DE
:102E130017AB1231A31205F58A0C8B0DEA450D7021
:102E230003022EDB122EEBA818A91988108911783A
:102E3300101219C87CFF7DFF790B850882850983F1
:102E43001231A91206C7740212173D122FE1700C3A
:102E5300850A82850B831234DE022EE88E828F83ED
:102E6300A3A3A3A3E0F51278121219CCE4F512F58B
:102E73001378121219C87512E57513027812121914
:102E8300C878101219C874091217911219DF74093E
:102E9300121791E0F9AC0CAD0D85088285098312F8
:102EA30031A912075D740912173DE9FE70157CE51F
:102EB3007D028508828509831231A912026BE970AC
:102EC30009802074166E70027E009002E61231A90A
:102ED300121237EE7004800B7E01850A82850B8304
:102EE3001237FDEEF9023812EE2402F508E43FF53D
:102EF300092274EC1217B574FC121727EAFEEBFFD4
:102F03008C0E8D0FEE2405F508E43FF509740212CB
:102F130017AB8508828509831231A91205F58A0C3E
:102F23008B0DEA450D7003022FD1EE2402F50AE45E
:102F33003FF50BA818A9198810891178101219C820
:102F43007CFF7DFF790D1231A31206C7740212179D
:102F53003D122FE1700B8508828509831234DE80D0
:102F63007A8E828F83A3A3A3A3E0F512781212199A
:102F7300CC850882850983A3A31219DF7512E57531
:102F8300130278121219C878101219C8740912178B
:102F9300911219DF7409121791E0F912319F120788
:102FA3005D740912173DE9FE700F7CE57D02123155
:102FB300A3120271E97009802074166E70027E00FC
:102FC3009002E61231A9121237EE7004800B7E01D3
:102FD3008508828509831237FDEEF9023812123112
:102FE300E8F510A3E0F511EA45112274E81217B5CC
:102FF30074FE1217278A168B178C148D15EA240575
:10300300F50CE43517F50DEA2402F50EE43517F552
:103013000F850E82F5831231A91203858A088B0965
:10302300750B007C037D0079007AE57B021211CBDE
:10303300750A00E50814F5100424FFF508E50934C2
:10304300FFF50980549002E5E0FA9002E2E0F8EA25
:1030530028F8E43400F9E50898E50999500D900241
:10306300E5E0F8E510C3989002E2F0E0F51275137D
:103073000078121219C812413A9002E6E02AFAA324
:10308300E03400FB1211B3740212173D9002E2E028
:10309300F89002E5E028F0050A850C82850D83A3EC
:1030A300A3123AB440030231849002E5E0C39508C9
:1030B300E495094003023184AE0AEE2EFEE433FFA9
:1030C3001231C3AC18AD19124155E439FB1205F5A1
:1030D3008A128B13AC12AD13EC4D701B750B0112DE
:1030E30031B31238019002E612270060031212373F
:1030F300A90B740202346C851682851783A3A3A3DC
:10310300A3E0F50B780B1219CCE4F512F513781242
:103113001219C87512E275130278121219C89002B7
:10312300E31219DF74071217911219DFA910850E24
:1031330082850F831231A912075D740912173DE9C5
:10314300F50B709B9002E61231D86003023048E41D
:10315300F512F51378121219C87CFF7DFF790F85DC
:103163000E82850F831231A91206C7740212173D0E
:103173001231DE60030230481231B31234E20230FE
:10318300F57CE57D02850E82850F831231A912023B
:1031930077E960030230E879000230F5AC0CAD0D3D
:1031A300850A82850B831231AD22E0FAA3E0FB226C
:1031B3001231C3E0FAA3E0F9EA851482851583226C
:1031C300850C82850D83E02EF8A3E03FF988828980
:1031D30083229002E31242DBE849221231E8F8A38A
:1031E300E0F9E849229002E6EAF0A3EBF09002E668
:1031F300E02274E81217B574FA1217277404121731
:1032030091122DEB8C168D177404121791E024057F
:10321300F50EA3E03400F50F7404121791E02402B5
:103223001234801231A91203858A0A8B0B7F007E28
:1032330000A818A9198808890978081219C8850EE1
:1032430082850F83A3A3A3A3E0F5088E0978081250
:1032530019C8E50E2405F508E4350FF509780812B9
:1032630019C8850E82850F83A3A31234B01205EF0C
:10327300740612173D8A0C8B0D80291234A1F00FAE
:103283001234A1F00F9002E21237EC1219C8124166
:103293003AEFF81234741211B3740212173D90020C
:1032A300E2E02FFFE50C450D7003023330851882F1
:1032B300851983123922A3A3A3E0F9851482851506
:1032C300831231A91205DDE9FEE50C2404F510E4AF
:1032D300350DF511EE705074041217911234A7F5E1
:1032E3000878081219CCE4F508F50978081219C80A
:1032F3007508E275090278081219C89002E31219D9
:10330300DF74071217911219DFE50A24FAF9AC0CDE
:10331300AD0D8514828515831231A912075D7409D9
:1033230012173DE9FE60391234BD123800EF700305
:103333000234579002E6E0F5F0EF849002E5F07C6A
:10334300E57D028514828515831231A912027DE978
:1033530060099002E71231A9121237790002346A28
:103363008F08EF703BE4F512F51378121219C87C3D
:10337300FF7DFF79118514828515831231A9120609
:10338300C7740212173D1234CD70091234BD1234C2
:10339300E102346A9002E2E024049002E6F0803510
:1033A3009002E2E0F89002E6E0FAE82404FCE43458
:1033B30000FDEC6A4D6003023336E50A24FAFAE5B0
:1033C3000B34FFFBE50828F8E43400F9EA98EB999D
:1033D3005003023336851082851183E0C0E09002EA
:1033E300E7E02FF8A3E034008882F583D0E0F00F04
:1033F300851082851183A3E0C0E012348ED0E0F003
:103403000F740212179B8808890978081219C87467
:10341300021217911219DF850E82850F83122DDF99
:103423001205FB740412173D8A0C8B0DEA450D70CF
:103433000302327E7402121791E0C0E012348ED080
:10344300E0F00F7402121791A3E0C0E012348ED0A3
:10345300E0023286EE70027E0A850E82850F8312A9
:1034630034C3123800EEF9740612173D7F100218A8
:10347300879002E7E028FAA3E03400FB22F514A3C7
:10348300E03400F515851482F583221234922290DC
:1034930002E7E02FFAA3E034008A82F58322123494
:1034A3009274FF2212360FA3A3A3A3E0221243CCEC
:1034B300850E82850F831231AD228510828511839B
:1034C3001242DB851682851783229002E7EAF0A376
:1034D300EBF09002E71242DBE84922123806E8F0EB
:1034E300A3E9F079112274EA1217B574FE121727B3
:1034F3008A088B098C128D13EA2405FEE43509FF33
:10350300AC18AD198E828F831231A91205F58A0C7E
:103513008B0DEE2406F50EE43FF50FEA450D70031F
:103523000235E1E5082402F50AE43509F50B8A8240
:103533008B83A3A3A3E0A2E5502885188285198372
:103543001231A91207518A108B11EA4511602079B3
:103553001212319F8510828511831217B3E9F50C7E
:10356300707F850E82850F83E06009795280117523
:103573000C0E806D850882850983A3A3A3A3E0F9BC
:10358300E4F508F50978081219C88E828F83A3A37E
:10359300E0F50878081219C88E828F83A3A3A312BB
:1035A30019DF8E828F8312413D1231A31207637498
:1035B3000612173DE9F50C7011850E82850F83E025
:1035C300702D1231A312028380257416650C7011BD
:1035D300750C00741812179112360BE48010750CD9
:1035E300011242D3851282851383E8F0A3E9F085A3
:1035F3000E82850F83E0600479008002A90C7402B7
:1036030012173D7F0E02188712360F22E0F8A3E04F
:10361300F58388822274EC1217B574F71217278A80
:103623000A8B0B8C108D11EA2405FEE4350BFF7514
:103633000C00AC18AD198E828F831231A91205F5D7
:103643008A088B09EA450970030237D7E50A240281
:10365300F50A5002050B8A828B83A3A3A3E0A2E59C
:10366300502F8518828519831231A91207518A0CAC
:103673008B0DEA450D604F7912AC08AD091231A3E9
:10368300850C82850D831217B3E9F50C60030237AD
:10369300DA850A82850B83E0F508A3E0F509AA0819
:1036A300FB120745EA4B70197AFF7BFF120745EAC5
:1036B3004B70030237CD8A828B83E508F0A3E509BB
:1036C300F07508008008750C0E0237DA05089002C1
:1036D300DFE0F8E508C39840030237CD85080E758F
:1036E3000F007403780E1217148A828B83A3A3E04E
:1036F300250EF8A3E0350F123BA170D08E828F8385
:103703001237F5122DEB8E828F83A3A31237F51296
:103713002DE9EE2404F508E43FF509850882F583D5
:10372300E088828983A3A3A3A3F0A3E4F0EE240596
:10373300F50EE43FF50F850E82F5831237F5A3A34B
:10374300A3A3122DE975120775130078121219C875
:10375300EEFCEFFD74041217A31211B374021217D7
:103763003DE4F51278121219C8850882850983E0B1
:10377300FC7D0079171231A31206C7740212173D9C
:103783007407121791122DEB7407121791E0FA4B7D
:10379300603D8508828509831237EC1219C8850EAE
:1037A30082850F8312413D1211B3740212173D74C7
:1037B300021217AB1231A3120289E96026740712B1
:1037C30017911231A91212378019750C09800875E7
:1037D3000C118003750C011242D38510828511836D
:1037E300123800A90C74098028E0F50875090078DF
:1037F30008221231AD8882898322123806E8F0A3A9
:10380300E9F022E0F8A3E0F9850E82850F832274A4
:103813000412173D7F0C02188774EC1217B5123986
:1038230010751000EE2402F50CE43FF50D850C82B3
:10383300F5831231A91207458A088B09EA450970F5
:10384300030238F4850A82850B83E0640160030276
:1038530038E9AC08AD09AA0AAB0B120739E9606E67
:10386300850882850983122B76EE2406F50AE43F48
:10387300F50B8E828F83A3A31219DF8E828F83A30E
:10388300A3A3A31219DF850A82850B831219DF799B
:10389300188E828F831239221231A912076374069C
:1038A30012173DE9F8741668700B850A82850B833D
:1038B300E4F0A38014E860128E828F831231A9850D
:1038C3000E82850F83EAF0A3EBF088108018780E40
:1038D3001219C8AC08AD09EEFAEFFB12073F7402E8
:1038E30012173DE9F510AA08AB0912074BE5107052
:1038F3000E850C82850D831231A912028F80097403
:103903001665107003751000A910023817EAFEEB54
:10391300FF8C0E8D0FEE2405F50AE43FF50B221202
:1039230043CC850C82850D832274EA1217B5750882
:10393300007509007E007F00750A00EC2402F51073
:10394300E43DF5118035EC65087003ED650960030E
:103953000239E188828983A3A3E06A7003A3E06B41
:10396300707C88828983A3A3A3A31242D7EE28FE87
:10397300EF39FFEA28FAEB39FB050A123AB1503A5C
:10398300850A0C750D007403780C121714851082C8
:10399300851183123AA4123BA1601FE50845097003
:1039A300A58C088D0988828983122B748882898368
:1039B300A3A3E02EFAA3E03F80BEE50AC39402501E
:1039C30003023A9F750800750900EE4F6010EEFA86
:1039D300EFFB1212318A0E8B0FEA450F7005790047
:1039E300023AA1750B00023A74850B0C750D007435
:1039F30003780C121714851082851183E0250CF5CA
:103A03000CA3E0350DF50DE50C2406F514E4350D96
:103A1300F515851482F583123BA66042E50C240458
:103A2300F512E4350DF513851282F5831219DFE5DE
:103A33000E2508FAE50F3509FB1211B374021217AC
:103A43003D851282851383E02508F508A3E0350937
:103A5300F5098514828515831231A9121237E50BF6
:103A6300600D7C087D007900AA0CAB0D1211CB050B
:103A73000BE50BC3950A50030239EC8510828511BF
:103A8300831242D788828983A3A3A3A3A3A3E50EAA
:103A9300F0A3E50F122707EEF0A3EFF0790102364A
:103AA30006123AA822E0250CF8A3E0350D22900275
:103AB300DFE0F8E50AC3982274F01217B58A0E8B7B
:103AC3000F8C0A8D0B750D00750C0080507916EE66
:103AD3002406F508E43FF5098E828F83A3A3121908
:103AE300DF8E828F83A3A3A3A31219DF85088285A8
:103AF30009831219DF850E82850F83A3A31231A9CF
:103B0300120763740612173DE9F50D7416650D70FF
:103B13006C850882850983E4F0A3F0050C9002DF2D
:103B2300E0F8E50CC3985066AA0C8A08750900747E
:103B3300037808121714850A82850B83A3A3123B0B
:103B4300F0E8FEE9FF8E828F83123BA66040EA24F1
:103B530001F508E43400F5099002DFE0650870021E
:103B6300E509601488828983A3A3A3A3A3A3A3A3C2
:103B73001231D86003023AD07918023AD2E9609B35
:103B83001242D37410121791123B98123800A90DE8
:103B93007F08021887E0FAA3E0F5838A8222F98876
:103BA3008289831243CCEC4D2274F61217B57C0044
:103BB30080010C90033BE0F8ECC398501E8C087511
:103BC300090074027808121714123BE5E06A7003C7
:103BD300A3E06B70DDE8FAE9FB80047A007B000266
:103BE3003C889002DD123BF08882898322E025081D
:103BF300F8A3E03509F92274F21217B58A088B0984
:103C0300750A0080278E828F83A3A3A3A31226FEA7
:103C130060031212377C087D007900EEFAEFFB1285
:103C230011CB8E828F83E4F0A3F0050A123AB150D0
:103C330027850A0C750D007403780C121714850878
:103C430082850983A3A3E0250CFEA3E0350DFF8E37
:103C5300828F831231D870AD85088285098374FF02
:103C6300F0A3F00243C074F61217B51206F78A8266
:103C73008B83E582458370067A007B008007A3A3CC
:103C8300A3A31231A97F0202188774F41217B5890E
:103C9300088C828D83E06402703C124276FEA3E0BE
:103CA300F9EEF874026870037429697029750A02C1
:103CB300750B00780A1219C874101217911219DFC4
:103CC30074101217911219DFA9081210E774061263
:103CD300173DE9F98002790102273B74E81217B511
:103CE30074FB121727E9851882851983F08A168BCE
:103CF30017ECFEEDFF7510008E828F83A3A3A3E064
:103D0300A2E4502D741D1217911231A91207518A82
:103D1300828B83E58245837003024115790AEEFCA9
:103D2300EFFDAA16AB171217B3E9F51060030241B2
:103D330018741F121791E0F508A3E0F50974211216
:103D43001791E0F50AA3E0F50B7423121791E0F540
:103D53000EA3E0F50F8E828F83E0640260030240BE
:103D6300B6A31242D7850882850983A3858212856B
:103D73008313EE2406F50CE43FF50D888289831244
:103D83004155F514E439F5157814121A520100005F
:103D9300280128B83D070002287D3E0328EB3D009B
:103DA30029AC3F0129D73F0229783F0329AC3F04BF
:103DB300295040B640E50E450F60030240B1850C23
:103DC30082850D831242D7E8FAE9FB8A828B83E06E
:103DD300850A82850B831241601219C88A828B83FC
:103DE300A3E0FCA3E002403AE50E450F6003024066
:103DF300B1850A82850B837401F012414A850882DA
:103E0300850983F07C007D008E828F83A3A3A3A307
:103E1300E02401FAA3E03400FB1205F5EA4B60400D
:103E23008A828B83E02402F8850A82850B83E0284B
:103E3300F0EA2404F8E43BF988828983E08512825E
:103E430085138312416E1241601219C88A828B83D3
:103E5300A312413DE5082403FAE43509FB02403F80
:103E6300850A82850B83E02404F07C047D007900BD
:103E7300AA12AB131211CB024118E50E450F6003D2
:103E83000240B112414AFEA3E0FF850A82850B83FB
:103E93007404F0EE850882850983F0EF851282852C
:103EA3001383F074031217ABEEFAEFFB1205F58AD6
:103EB3000C8B0DEA450D7003023F5B8A828B83A353
:103EC300A3122B74740112179B880E890F780E129C
:103ED30019C874051217911219DF7CFF7DFF1205B3
:103EE300FB740412173D8B0FEA450F7033850C8268
:103EF300850D831241411219C8850C82850D83A358
:103F03001219DF7C027D007A247B8212037374040E
:103F130012173DE9700A740112179174FFF0A3F0B0
:103F23008E828F83E064027039750C02750D007800
:103F33000C1219C88E828F83A312413DE508240415
:103F4300FAE43509FB1211B3740212173D850A8294
:103F5300850B83E0240280097401121791EEF0A30C
:103F6300EFF0740112179112412F7401121791127D
:103F730041260240ABE50E450F60030240B1850CBC
:103F830082850D831243C5AA16AB171210ED850A5D
:103F930082850B837402F0850882850983EAF085A4
:103FA3001282851383EB0240AEE50E450F600302D8
:103FB30040B112414AF8A3E0F9850A82850B837464
:103FC30002F0E8850882850983F0E985128285136A
:103FD300830240AE850C82850D831231A91211AD87
:103FE300EAFAF8C3950EE4950F405CE8650E450FB9
:103FF30070047A008021851882851983E0FCE50E20
:104003002CFCE4350FFDC3EC98ED94005003E080E5
:1040130005E50ECAC39AFAEA850A82850B83F08AFC
:104023000A750B00780A1219C8850C82850D83E086
:10403300250EFCA3E0350FFDAA08AB091211B374DA
:104043000212173D024118751007024118E50E458B
:104053000F705B850C82850D831242D7850A82859A
:104063000B837407F08882898312412712411FE072
:10407300851282851383F0E82402FAE439FB8A82ED
:104083008B8312412F8A828B83124126A3A312278B
:1040930006124134F0E82405F85001098882898327
:1040A300124134A312416EA3A3A3A3F0806775103A
:1040B3000B8062741D1217911231A91206F78A82BE
:1040C3008B83E5824583604A1242D7880C890DE8C9
:1040D300450D603E7425121791E0F5107810121902
:1040E300CC780E1219C8780A1219C878081219C8A0
:1040F3007407121791E0F9EEFCEFFDAA16AB1785D2
:104103000C82850D831217B3740712173DE9F5105E
:10411300800375100EA910740502346CF08882892F
:1041230083A322A3E085088285098322124175F0C7
:1041330022124175A3A3229002E31243CC22E0F59D
:104143000E750F00780E22850C82850D8312360FB3
:10415300E022E0FAA3E0F8E4C8F9EA2822F08A8230
:104163008B83E0F50A750B00780A2212411F124176
:104173007522E0850882850983A3A32274EE1217B2
:10418300B574FE1217278A088B09ECFEEDFF890A26
:10419300AC18AD19EEFAEFFB1205F58A0C8B0DEA9C
:1041A300450D70030242678518828519831231A970
:1041B3001206F78A828B83E582458370030242628B
:1041C300A3A31242D7880E890FE8450F700302425A
:1041D300627414121791E0F510A3E0F511E50AF5E6
:1041E3000B780B1219CC74191217911219DF78106E
:1041F3001219C8741B121791E0F9AC0CAD0DAA0883
:10420300AB09850E82850F831217B3740512173D10
:10421300E9F50B705274FE650A604C850C82850DBE
:1042230083E064027041124276FAA3E0F9EAF8747B
:1042330002687003742969702E85108285118312B8
:104243004155F50CE439F50D780C1219C8EEFCEF65
:10425300FDAA08AB0912077B740212173D8008758B
:104263000B0E8003750B01A90B740212173D7F0A15
:10427300021887A31242DB88828983E02274F61234
:1042830017B574FE121727740C1217911242D7E850
:10429300851882851983F07401121791E9F0E4F50A
:1042A30008F50978081219C875080278081219C8A0
:1042B300740412179B8808890978081219C879FEB3
:1042C300120763740612173D740212173D023C88ED
:1042D3008E828F831242DB22E0F8A3E0F92274F787
:1042E3001217B5EAFEEBFF89089002FA12413D125C
:1042F30010EDEA5402600BA908EEFAEFFB1205E990
:10430300800279017F0102188774F21217B574FED7
:10431300121727EAFEEBFF890A7401650A60147419
:1043230002650A60030243BB7901120973E9600362
:104333000243BBEEFAEFFB120745EA4B6003120799
:104343004BA818A9198808890978081219C875088B
:104353000275090078081219C875081C7509827856
:10436300081219C87CFF7DFF7A017B001205EF74E8
:104373000612173D8038850882850983A3A3A3A36A
:10438300A3A31243C5EEFAEFFB1210E1E4F50CF51B
:104393000D780C1219C874021217911219DF7CFFE1
:1043A3007DFFAA08AB091205FB740412173D8A08A6
:1043B3008B09E508450970BE740212173D7F06029A
:1043C300188712360F1243CC22E0FCA3E0FD2274BF
:1043D300F41217B58A088B09ECFEEDFF901E6EE010
:1043E300F4604B7A097B001211D7EA4B60408A8252
:1043F3008B8374B1F0A3E4124434F08A828B83A3D9
:10440300A3E508F0A3E509124434A3EEF0A3EFF00B
:10441300740C1217911242D78A828B83A3A3A3A38E
:10442300A3A3A3123800901E6EE0F91211E3022732
:104433003BF08A828B83A3A3A3A32274EE1217B546
:1044430074FA1217278A0A8B0BE9FF8C088D097EF1
:1044530000850A0C850B0D780C121A0C0004103C15
:10446300478644A944C844EB440E4531456245851B
:10447300459C45CC457B469E46C146EF463C471A84
:1044830047F54574016F7019850882850983E0C378
:104493009403500D850882850983E0901EB2F08055
:1044A300027E1802476474026F70158508828509BD
:1044B30083E0F8A3E0F9901EB3E8F0A3E9F08002EB
:1044C3007E1802476474016F701985088285098319
:1044D300E0C39402500D850882850983E0900CCFD8
:1044E300F080027E1802476474016F701985088298
:1044F300850983E0C39405500D850882850983E00F
:10450300900CD0F080027E1802476474016F70191A
:10451300850882850983E0C39402500D850882854E
:104523000983E0900CD1F080027E18024764741076
:104533006F7027750C10750D00780C1219C8AC0834
:10454300AD097AD27B0C1211B3740212173D8A0C97
:104553008B0D850C82850D8380027E18024764745F
:10456300016F7019850882850983E0C39402500D99
:10457300850882850983E0900CE2F080027E1802B0
:10458300476474016F700D850882850983E0901E6E
:10459300B6F080027E1802476474046F702690811F
:1045A300A9780C1215DF850882850983780C12130C
:1045B300DC5011850882850983121615900CE412CC
:1045C300162180027E18024764EF7021120505E967
:1045D300701312108DE9F50D7950121309E9F50CDA
:1045E30012107B800A900D777401F080027E18020E
:1045F300476474076F707C750E06750F00780E1292
:1046030019C8850882850983A3AC82AD837402121D
:1046130017A31211B9740212173D8A108B1185105A
:104623000E85110F7C007D00AA18AB1985088285C1
:104633000983E0F9121021E9F50CE50CC3940A5043
:104643002E120505E97015A90C121093E9F50E79E0
:1046530050121309E9F50D12107B8019A80C79008B
:10466300747828F582740D39F5837401F080067E21
:104673000280027E1802476474016F7019850882F4
:10468300850983E0C39402500D850882850983E080
:10469300900CE3F080027E1802476474016F701976
:1046A300850882850983E0C3940A500D85088285B5
:1046B3000983E0901EB5F080027E180247647401FE
:1046C3006F7025850882850983E0C39407401985A7
:1046D3000882850983E0C39411500D8508828509FA
:1046E30083E0901EB7F080797E18807574016F7037
:1046F30022900D76E0F50C850882850983E0900D04
:1047030076F0E50C705B900D76E064017053121047
:104713007B804E7E18804A74016F701985088285EC
:104723000983E0C39404500D850882850983E090D2
:104733001EB8F0802C7E188028C3E50A9427E50B69
:104743009400501B74026F7016850882850983E0FC
:10475300FCA3E0FDAA0AAB0B1203EBE9FE80027E89
:1047630002EEF9740612173D7F0A02188774EC12E1
:1047730017B574DA121727890C8A128B13ECFEED26
:10478300FF743A121791E0F50D908157AC18AD19EB
:10479300740612163AAC18AD19AA12AB13A90C126F
:1047A3001021E9F508E508C3940A40030248EEA97D
:1047B3000812105DE9F509901EB2E06402700474FA
:1047C3000180027400F50A780A1219CCAD0DAC0908
:1047D300A908EEFAEFFB1210C9740112173D7C14FD
:1047E3007D00790074121217A31211CB8A0E8B0F5E
:1047F300850E0A850F0B74121217AB7A1075F0062B
:10480300E508A42424F9121303E9703E7C1079FF10
:1048130074121217A312122BE9702F74221217911C
:10482300AC82AD837A0475F006E508A42425F91259
:104833001303E9F50A74121217ABE509A2E0E43396
:10484300F9EEFAEFFB120475E9F874061217AB7A66
:104853000C74702508F9121303E9707974061217A2
:10486300A3121051750E00E50EC394045067A80EF1
:104873007900E875F003A4C8AAF075F000A42AFA39
:1048830075F003E9A42AF97406121791E58228F555
:104893000AE58339F50B850A82850B83E0F8A3E0EB
:1048A300F9E849602C850A82850B83A3A3E0F51000
:1048B30075110078101219C8850A82850B83E0FCF4
:1048C300A3E0FDEEFAEFFB120769740212173DE94C
:1048D300F8050E8092E509A2E1506D900CCEE0F947
:1048E300EEFAEFFB12076FE9F8805D7408650D704F
:1048F30057901EB2E06402704F7C007D00A90CEE5D
:10490300FAEFFB1210C3900CE8E0F8A3E0F9E849D2
:104913006036900CE8E0F8A3E0F5838882A3A3E077
:10492300F8A3E0F9E84960207C007900EEFAEFFB98
:10493300900CE8E0F8A3E0F5838882A3A3E0F8A352
:10494300E0F58388821217B37900742612173D7F2E
:104953000C02188774F71217B5EAFEEBFF12050570
:10496300E97067900D77E06401701B12108DE9F513
:1049730008900D777400F07C0A7D0079007A787BCB
:104983000D1211CB8039750800E508C3940A502F26
:10499300A8087900747828F582740D39F583E064EA
:1049A300017018A908121093E9FAA808790074781D
:1049B30028F582740D39F5837400F0050880CA79EF
:1049C30050121309E9F50812107B7F01021887744E
:1049D300F21217B574FA121727EAFEEBFF90815112
:1049E300AC18AD19740612163AEEFAEFFB1209670A
:1049F3008A0C8B0D850C0A850D0BE50A450B70039C
:104A0300024A86901EB2E064026078AC18AD19E5E4
:104A13000A2405FAE4350BFB850A82850B83A3A3DD
:104A2300A3A3E0F9121021E9F508E508C3940A509D
:104A330021A90812105DE9FC75090178091219CC46
:104A43007D08A908EEFAEFFB1210C9740112173D95
:104A53008031901EB2E0700C7905EEFAEFFB120480
:104A630081E9801F901EB2E0640170177C007D0015
:104A7300850A82850B83A3A3A3A3E0F9EEFAEFFBD8
:104A83001210C3740612173D7F0602188774F212C0
:104A930017B5890BEAFEEBFF8C088D09750A0AE549
:104AA3000B600C146009146044146064024B35EE0F
:104AB300FAEFFB12106FE9F50AE50AC3940A507284
:104AC300E5084509606C750C06750D00780C121924
:104AD300C8EEFCEFFDAA08AB091211B3740212175A
:104AE3003D8A0C8B0D850C82850D838045EEFAEF94
:104AF300FB121069E9F50AE50AC3940A5034E50884
:104B03004509602EAA08AB09A90A121063E980229D
:104B1300EEFAEFFB121075E9F50AE50AC3940A50A1
:104B230011E5084509600BAA08AB09A90A1210632D
:104B3300E9F8A90A7F0602188774F21217B58A0CDE
:104B43008B0DE9FF7E1574FF650C700474FF650D12
:104B5300702A750800E508C3940A5014EFFC7A0222
:104B63007B00A90812103FE960027E00050880E57A
:104B7300EF60627AB77B101209978059AA0CAB0DCC
:104B83001209678A0A8B0B850A08850B09E5084514
:104B93000960407C007D00E5082405FAE43509FB43
:104BA300850882850983A3A3A3A3E0F9121021E951
:104BB300F50AE50AC3940A500EEFFC7A027B00A9BA
:104BC3000A12103FE97E00EF600BAA08AB0912102E
:104BD300B780027E14EEF97F0602188774EE12176F
:104BE300B58A0E8B0F8C0A8D0B7412121791E0F598
:104BF3000CA3E0F50D75081574FF650E700474FFC2
:104C0300650F701E7E00EEC3940A5061AC0CAD0DAF
:104C1300AA0AAB0BEEF9121045E960037508000E02
:104C230080E4AA0EAB0F1209678A108B11AE10AF86
:104C330011EE4F60357C007D00EE2405FAE43FFB66
:104C43008E828F83A3A3A3A3E0F9121021E9F509B0
:104C5300E509C3940A5016AC0CAD0DAA0AAB0BA917
:104C630009121045E97508008003750814A9087F27
:104C73000A02188774F71217B5EAFEEBFF900CE8E7
:104C8300EEF0A3EFF0900CCEE0FC7D007A267B00E3
:104C93001203EBE9F508900CCEE0F91206D37F017D
:104CA30002188774F01217B574F21217278A0C8B47
:104CB3000D850C82850D83A3A3E024FA70030250B3
:104CC3008A24FD7003025035147003024D9614605C
:104CD3001014700302507324FE7003024F3C025001
:104CE3009DAE0CAF0D900CE8E0F8A3E0F9E8496045
:104CF30066900CE8E0F8A3E0F5838882E0F8A3E08F
:104D0300F9E8496052EE240CF582E43FF583E0F5BF
:104D13000878081219CCEE240BF582E43FF583E002
:104D2300F98E828F83A3A3A3A3A3A3A3A3A3E0FCCE
:104D3300A3E0FDEE2403FAE43FFB900CE8E0F8A3C4
:104D4300E0F5838882E0F8A3E0F58388821217B345
:104D5300740112173D80398E828F83A3A3A3A3A36B
:104D6300A3A3A3A31219DF900CE41215FD12048769
:104D7300740212173DE9601879018E828F83A3A311
:104D8300A3A3A3A3A3A3A3E0FAA3E0FB120481E9D3
:104D930002509DAE0CAF0D7508008E828F83A3E089
:104DA3006003024EBE8E828F83A3A3A3A3A3E0A2BC
:104DB300E04003024EBE900D82E0F8A3E0F9E8491B
:104DC3006003024EBE7C0E7D007900AA18AB191257
:104DD30011CB8A0A8B0BAA0AAB0BEE240CF582E4E7
:104DE3003FF583E0F8A3E0F9E8496036750A0675F4
:104DF3000B00780A1219C8EE240CF582E43FF58300
:104E0300E02410FCA3E03400FD74021217A3121176
:104E1300B3740212173D8A0A8B0B850A82850B83B2
:104E2300804F8E828F83A3A3A3E0FAA3E0FB120932
:104E3300678A0E8B0F850E0A850F0BE50A450B60FB
:104E43002D750E06750F00780E1219C8E50A240594
:104E5300FCE4350BFD74021217A31211B374021292
:104E6300173D8A0E8B0F850E82850F8380030250B8
:104E73009D8E828F83A3A3A3A3A3E0A2E25004D2B7
:104E8300F08002C2F0A2F0E433F87900740C121738
:104E930091E048F0A3E049F0EEFCEFFDAA18AB194E
:104EA300121057E970127A027B00900CCEE0F912CF
:104EB3001207E9790002509F750815900CE8E0F895
:104EC300A3E0F9E849606F900CE8E0F8A3E0F5830C
:104ED3008882A3A3E0F8A3E0F9E84960598E828FA2
:104EE30083A3E0FC79018E828F83A3A3A3E0FAA3BB
:104EF300E0FB900CE8E0F8A3E0F5838882A3A3E04D
:104F0300F8A3E0F58388821217B3E5086028AC089C
:104F130079038E828F83A3A3A3E0FAA3E0FB900C13
:104F2300E8E0F8A3E0F5838882A3A3E0F8A3E0F523
:104F33008388821217B302509DAE0CAF0D8E828F01
:104F430083A3E064066003024FE28E828F83A3A3F0
:104F5300A3E0FAA3E0FB1209678A0A8B0B850A0810
:104F6300850B09E50845096076901EB8E0146008D2
:104F730014602614603F80677C007D00850882856D
:104F83000983A3A3A3A3E0F98E828F83A3A3A3E042
:104F9300FAA3E0FB1210C380467C058E828F83A3A5
:104FA300A3A3E0FAA3E0FB850882850983E0F91255
:104FB300046FE9802A7C007D0079007A097B041262
:104FC3001009E9F50A7C058E828F83A3A3A3E0FA77
:104FD300A3E0FB850882850983E0F912046FE99059
:104FE3000CE8E0F8A3E0F9E8496045900CE8E0F844
:104FF300A3E0F5838882A3A3E0F8A3E0F9E849607E
:105003002F850C82850D83A3E0FC79028E828F832A
:10501300A3A3A3E0FAA3E0FB900CE8E0F8A3E0F578
:10502300838882A3A3E0F8A3E0F58388821217B3F1
:105033008068AE0CAF0D7C007D00EE2404FAE43FE3
:10504300FB8E828F83A3A3A3E0F9121021E9F50855
:10505300E508C3940A5043EE240AFCE43FFD7A04B6
:1050630075F006E508A42425F91212FDE9F8802A53
:10507300850C82850D83A3A3A3E0FEA3E0FFEEFAD4
:10508300EFFB12101B8013AE0CAF0D8E828F83A328
:10509300A3A3E0FAA3E0FB1210157901740E121713
:1050A3003D7F0802188774F51217B574F21217279B
:1050B3008909EAFEEBFF8C0AAC18AD197A0E75F07C
:1050C30006E509A42420F9121303E9705F7C06792D
:1050D300FFAA18AB1912122BE97051740C12179115
:1050E300E0F8A3E0F9E8F508E50A6005EE42088078
:1050F30004EEF45208A8087900740C121791E068C2
:105103007003A3E0696021A8087900740C12179159
:10511300E8F0A3E9F0AC18AD197A0E75F006E509CD
:10512300A42420F91212FDE9790180027900740E9A
:1051330012173D7F0302188774F01217B574E61235
:105143001727890B8A0C8B0DECFEEDFF740C1217DD
:10515300AB7A0E75F006E50BA42420F9121303E9CC
:10516300600302526B7C0679FF740C1217A31212B0
:105173002BE9600302526BAC18AD197A0C747025DD
:105183000BF9121303E96003025267750A00AA18A8
:10519300AB19121051E50C450D702E7C0C7900AA49
:1051A30018AB1912122BE9600302524D7C0C7D00DF
:1051B3007900AA18AB191211CB8A088B09850882CA
:1051C300850983750A0102524DAC18AD19AA0CABBF
:1051D3000D12104B8A0E8B0F850E08850F09E508FB
:1051E30045097030EE4F601BAC18AD197A007B0097
:1051F30012104B8A0E8B0FA80EA90F88088909E895
:1052030049700479008063850882850983E50CF081
:10521300A3E50DF0850882850983A3A3E0F879004F
:10522300EE687002EF696022EEC0E08508828509AE
:1052330083A3A3D0E0F0EE4F700D85088285098328
:105243007400F0A37400F0750A01E50A6016AA1849
:10525300AB19121051AC18AD197A0C7470250BF9F7
:105263001212FDE9790180027900741A12173D7F49
:105273000802188774F61217B58A088B097E00EEA8
:10528300C394045050EEF87900E875F003A4C8AA5B
:10529300F075F000A42AFA75F003E9A42AF9EC28C2
:1052A300F582ED39F583E065087004A3E0650970C4
:1052B30021EEF87900E875F003A4C8AAF075F000B0
:1052C300A42AFA75F003E9A42AF9EC28FAED39FBCC
:1052D30080070E80AA7A007B007F0202188774F78A
:1052E3001217B57C00ECC394044003025390ECF80E
:1052F3007900E875F003A4C8ADF075F000A42DFDA6
:1053030075F003E9A42DF9EA28F582EB39F583E07A
:10531300F4FEA3E0F4FFECF87900E875F003A4C809
:10532300ADF075F000A42DFD75F003E9A42DF9EAA5
:1053330028F582EB39F583EEF0A3EFF0ECF8790072
:10534300E875F003A4C8ADF075F000A42DFD75F069
:1053530003E9A42DF9EA28F582EB39F583A3A3E049
:10536300F4C0E0ECF87900E875F003A4C8ADF0757B
:10537300F000A42DFD75F003E9A42DF9EA28F582C8
:10538300EB39F583A3A3D0E0F00C0252E87F0102CE
:10539300188774F01217B574F4121727EAFEEBFF9F
:1053A3008C088D09900D82E0F8A3E0F9E849702C90
:1053B300EE4F6006E508450970057901025641EE96
:1053C300FAEFFB12106FE9901EB9F0901EB9E0C31B
:1053D300940A4008121081E9901EB9F0901EB9E0BA
:1053E300C3940A400302563F900D82E0F8A3E0F90C
:1053F300E849600302548BEEFCEFFD7A0E75F0066C
:10540300901EB9E0A42420F91212FDE9F50C7C0CDE
:105413007D0079FFAA18AB191211CB8A0E8B0F8569
:105423000E0A850F0BAC18AD197A0C901EB9E02447
:1054330070F91212FDE9F50D750E0E750F00780E59
:105443001219C8EEFCEFFD901EB9E0F87900E8757B
:10545300F00EA4C8AAF075F000A42AFA75F00EE9BC
:10546300A42AF974EA28FA740C39FB1211B37402F2
:1054730012173D8A0E8B0FA80EA90F900D82E50817
:10548300F0A3E509F002563B900D82E0F8A3E0C8D3
:105493002406F582C83400F583E0F8A3E0F9E8496F
:1054A3006043900D82E0F8A3E0C82406F582C83477
:1054B30000F583E0FCA3E0FD7A1B75F006901EB9AE
:1054C300E0A42421F91212FDE9F8900D82E0F9A37A
:1054D300E0C92406F582C93400F5837400F0A3748F
:1054E30000F002563B900D82E0F8A3E0C8240AF5D1
:1054F30082C83400F583E0F8A3E0F9E849604390FB
:105503000D82E0F8A3E0C8240AF582C83400F583CD
:10551300E0FCA3E0FD7A1B75F006901EB9E0A4241D
:1055230022F91212FDE9F8900D82E0F9A3E0C924F3
:105533000AF582C93400F5837400F0A37400F00205
:10554300563B900D82E0F8A3E0C8240CF582C834E2
:1055530000F583E0F8A3E0F9E8496043900D82E0A9
:10556300F8A3E0C8240CF582C83400F583E0FCA35B
:10557300E0FD7A1075F006901EB9E0A42423F91219
:1055830012FDE9F8900D82E0F9A3E0C9240CF5823D
:10559300C93400F5837400F0A37400F002563B9005
:1055A3000D82E0F8A3E0C82408F582C83400F5832F
:1055B300E0F8A3E0F9E849606F900D82E0F8A3E01A
:1055C300C82408F582C83400F583E0FCA3E0FD7A23
:1055D3001075F006901EB9E0A42424F91212FDE917
:1055E300F50A900D82E0F8A3E0C82408F582C834D8
:1055F30000F583E02410FCA3E03400FD7A0475F089
:1056030006901EB9E0A42425F91212FDE9F8900DC5
:1056130082E0F9A3E0C92408F582C93400F5837454
:1056230000F0A37400F08010900D76E06003121078
:10563300CF1210BD79018006790080027901740CC4
:1056430012173D7F0802188774F71217B574F21208
:105653001727E9FEAC18AD197A0E75F006EEA424EF
:1056630020F9121303E9700E740C121791E0F8A3DA
:10567300E0F9E8F980027900740E12173D7F010208
:10568300188774F41217B574F21217278909EAFE02
:10569300EBFFE509C3940A5004EE4F7004790280CE
:1056A30041AC18AD197A0E75F006E509A42420F96A
:1056B300121303E9F508E5087026750A06750B0051
:1056C300780A1219C874021217ABEEFAEFFB121123
:1056D300B3740212173D8A0A8B0B850A82850B83EA
:1056E300A908740E12173D7F0402188774F4121769
:1056F300B5EAFEEBFF750800E508C3940A5043754D
:105703000A06750B00780A1219C8EEFCEFFDA8080B
:105713007900E875F00EA4C8AAF075F000A42AFA7F
:1057230075F00EE9A42AF974F028FA740C39FB1207
:1057330011C5740212173DE96004A9088006050823
:1057430080B6790A7F0402188774F41217B5EAFE4B
:10575300EBFF750800E508C3940A5043750A067504
:105763000B00780A1219C8EEFCEFFDA8087900E8CF
:1057730075F00EA4C8AAF075F000A42AFA75F00E0D
:10578300E9A42AF974EA28FA740C39FB1211C574D6
:105793000212173DE96004A9088006050880B6795E
:1057A3000A7F0402188774F71217B574F0121727CB
:1057B300EAFEEBFF750800E508C3940A5039AC18FC
:1057C300AD197A1075F006E508A42423F912130322
:1057D300E970207C1079FFAA18AB1912122BE9701B
:1057E30012EEFCEFFDAA18AB19120451E97004A9DB
:1057F300088006050880C0790A741012173D7F01DE
:1058030002188774F41217B5750800E508C3940AE3
:1058130040030258E0A8087900E875F00EA4C8AA6E
:10582300F075F000A42AFA75F00EE9A42AF974EAD7
:1058330028FC740C39FD7A0E75F006E508A42420C3
:10584300F9121303E970030258DB7C067D0079FF2C
:10585300AA087B00EA75F00EA4CAA8F075F000A4AC
:1058630028F875F00EEBA428FB74EA2AFA740C3BB3
:10587300FB1211CB8A0A8B0BAE0AAF0B7C067D00A1
:1058830079FFAA087B00EA75F00EA4CAA8F075F0A8
:1058930000A428F875F00EEBA428FB74F02AFA7420
:1058A3000C3BFB1211CB8A0A8B0BAC0AAD0BA8087D
:1058B3007900E875F00EA4C8AAF075F000A42AFADE
:1058C30075F00EE9A42AF974F628F582740C39F5FB
:1058D300837400F0A37400F0050802580E900D764F
:1058E300E060031210CF1210BD7F0402188774F713
:1058F3001217B57E00EEC3940A50327C0679FFEE90
:10590300FA7B00EA75F00EA4CAA8F075F000A4288B
:10591300F875F00EEBA428FB74EA2AFA740C3BFB2F
:1059230012122BE96004EEF980050E80C8790A7F14
:105933000102188774F71217B57E007F00EFC39436
:105943000A50357C0679FFC9FDC9EFF87900E8757F
:10595300F00EA4C8AAF075F000A42AFA75F00EE9B7
:10596300A42AF974EA28FA740C39FBCDF9CD121282
:105973002BE970010E0F80C5EEF97F0102188774C1
:10598300F71217B57E007F00EFC3940A500DEE7037
:105993000AEFF9121093E9FE0F80EDEEF97F010291
:1059A300188774F01217B574CB1217278909901E44
:1059B300B9E06509701D7A017B00900CCEE0F91205
:1059C300120DE97A027B00900CCEE0F912120DE978
:1059D3001210DB74271217AB7A0E75F006E509A4D3
:1059E3002420F9121303E96003025ADD7C0679FFD0
:1059F30074271217A312122BE96003025ADD7C0EDF
:105A03007D0079FF74271217A31211CB8A0A8B0B1F
:105A1300850A0C850B0D7C1B7D0079FF740C121716
:105A2300A31211CB8A0E8B0F850E0A850F0B7C0CEC
:105A33007D0079FFAA18AB191211CB8A0E8B0FAE1A
:105A43000EAF0F74271217AB7A0E75F006E509A493
:105A53002420F91212FDE9F508740C1217AB7A1B16
:105A630075F006E509A42421F91212FDE942087430
:105A73000C1217AB7A1B75F006E509A42422F91260
:105A830012FDE94208740C1217AB7A1075F006E5A3
:105A930009A42423F91212FDE94208740C1217AB6E
:105AA3007A1075F006E509A42424F91212FDE942DF
:105AB30008740C1217AB7A0475F006E509A42425C3
:105AC300F91212FDE94208AC18AD197A0C7470256D
:105AD30009F91212FDE942088003750800A9087448
:105AE3003512173D7F0802188774F71217B5E9FEC0
:105AF300EE900CCEF012107B7F0102188774F21225
:105B030017B5890AEAFEEBFFEE5400F8EF5480F96B
:105B1300E8496035900CCEE0F91211EF8A0C8B0D39
:105B2300A80CA90D88088909E8496012AA08AB09DD
:105B33001210A5E96008AA08AB091211DDE9EE64A9
