:020000040000FA
:0600000002011A02224178
:03002B0002296E39
:030053000222B7CF
:03006B0002293C2B
:10008300022097E5C754F84401F5C779012200001F
:100093000080FB120086B90003020104E479217891
:1000A30008B800028004F709D8FCE479297802B87B
:1000B30000028004F709D8FCE490028178BF791329
:1000C3008002F0A3D8FCD9FA781A90014A7A01BACF
:1000D30000028007E493A3F608DAF97A3F7B1590D0
:1000E300014B784179048015E493A3AD82AE838AF2
:1000F300828B83F0A3AA82AB838D828E83D8E9D9C6
:10010300E77582F57583AF740312012C75829175BF
:100113008300740012012C75D00075813F7518811E
:10012300751902759F00020096C09FF59FE473D076
:100133009F22D083D082C09FE493C0E0740193C018
:10014300E0740293F59F2201FF0000B40000280031
:100153002800283075A000A000A000A0000008001F
:1001630008E001F000100010001000100010001053
:100173000050005000500010001000D00700000095
:100183000000000F0001000500307507001000019A
:100193000081FF00000000FFFFFFAD06CB06B306A2
:1001A300EF06FF02020208025000A0000000E8036D
:1001B300023482010000F4810208820100009A15D2
:1001C300022A81010000BF020208820100009B1580
:1001D30002FA81010000D5020208820100009C1589
:1001E30002FC81010000D7020208820100009D1574
:1001F30002FE81080000D8020208820100009E1559
:100203000200820100009F15FF0100FF20023482DB
:10021300010000F181020882010000031602168228
:100223000000000000020282030000060317005BC7
:100233000D5B0D5B0D5B0D5B0D5B0D5B0D5B0D5B7B
:100243000D5B0D5B0D5B0D5B0D19102B1013100275
:100253000202020202020202010D0000001001026A
:100263003482010000EE810208820100004616027A
:100273001E820100004007020882010000471602A7
:100283001C82010000158102088201000048160249
:100293001A82010000078102088201000049160248
:1002A300188201000093800208820100004A1602AE
:1002B300148201000081800208820100004B1602B3
:1002C3001282010000A5800208820100004C160280
:1002D3001082010000B7800208820100004D16025F
:1002E3000E82010000F9800208820100004E16020E
:1002F3000C820100004F1601E8030577100AFFFF87
:10030300FF00013075030201060000000000000039
:1003130000000000000000000000000000000000DA
:100323000000000000FFFF0600800CE803140953DF
:10033300696D706C65424C45506572697068657291
:10034300616C051250002003020A0002010503023A
:10035300F0FF53696D706C6520424C452050657207
:100363006970686572616C6F14000075140E4368E0
:100373006172616374657269737469632031000229
:10038300436861726163746572697374696320326F
:1003930000084368617261637465726973746963A9
:1003A300203300104368617261637465726973740A
:1003B3006963203400024368617261637465726922
:1003C30073746963203500023482010000EB8102FB
:1003D3000882010000641702228203000031150223
:1003E30006820100006517020882010000761702E9
:1003F30024820100003215020682010000771702F1
:1004030008820100008817022682020000331502C9
:10041300068201000089170208820100009A170270
:100423002882000000341502028203000035150201
:1004330006820100009B17020882010000AC17022C
:100443002A820400003715020682010000AD17104E
:100453004B65792050726573732053746174650022
:10046300023482010000F78102088201000046186D
:100473000232820000003C150202820300003D1597
:100483000206820100004718120135E08B031201B6
:1004930035F38B03120135248C031201355E8C0373
:1004A300120135B78C03120135FE8C031201354658
:1004B3008D03120135758D03120135A48D031201CD
:1004C30035DB8D03120135228E031201353B8E037A
:1004D300120135908E03120135A98E03120135F7EF
:1004E3008E03120135318F03120135ACA8021201BC
:1004F30035AFA902120135E8A9021201350BAA0290
:100503001201351DAA021201355BAA02120135D769
:10051300AA021201359FAB02120135C1AB021201CF
:100523003558AC02120135AAAC02120135DBAC021C
:10053300120135E8AC0212013552AD02120135A9A0
:10054300AD02120135ACAD02120135E5AD02120167
:1005530035E8AD02120135F2AD0212013546AE02A5
:1005630012013587AE02120135BAAE02120135F718
:10057300AE02120135F9AF021201359DB00212012C
:100583003506B10212013544B102120135FF83036E
:100593001201352784031201355484031201358C6B
:1005A3008403120135EA84031201353685031201EF
:1005B300359D8503120135DD85031201351A860346
:1005C300120135488603120135F28603120135FC08
:1005D30086031201350987031201353C8703120193
:1005E300354887031201356087031201356A870393
:1005F300120135BBAC03120135C9AC03120135E15D
:10060300AC03120135F8AC03120135EDA60112015A
:100613003597A701120135AAA80112013526A901B0
:1006230012013544AA0112013580AA011201351BBA
:10063300AB01120135FFAB01120135CBAC01120145
:100643003559AE01120135CAAE0112013584AF012D
:1006530012013576B001120135B6B0011201356AC7
:10066300B1011201359CB10112013592B30112019E
:1006730035D4B301120135F2B30112013558B40177
:1006830012013527B501120135EBB5011201350A07
:10069300B801120135D1C102120135BBC2021201E8
:1006A3003566C302120135B7C30212013567C402AE
:1006B300120135D8C402120135BDC502120135F14C
:1006C300C502120135EAC60212013527C70212011B
:1006D3003503C80212013542C8021201355EC80251
:1006E3001201354E9D03120135D29D03120135FDD2
:1006F3009D03120135179F03120135F88703120179
:10070300350E88031201352C88031201353D890308
:10071300120135478903120135728A0312013569C3
:100723008B03120135D68B03120135BFC8021201A8
:1007330035F5C9021201352CCA0212013583CA02EA
:1007430012013598CC02120135378201120135C3EB
:10075300820112013527840112013533840112010C
:10076300356E8401120135DD8401120135E6850100
:10077300120135EF8601120135B6870112013513D7
:1007830089011201353189011201354E89011201A6
:1007930035FB8901120135788A01120135A08A01DE
:1007A3001201356A8D011201356F8D0112013588F1
:1007B3008F01120135D68F011201354690011201C6
:1007C30035849001120135609101120135209201A7
:1007D3001201356C92011201356F9201120135B38A
:1007E3009201120135FB92011201353A9301120174
:1007F300355C9301120135909301120135F3930196
:10080300120135D2D302120135E0D302120135337E
:10081300D40212013552D40212013597D4021201C7
:1008230035DBD50212013576D602120135BAD6026E
:10083300120135E4D60212013553D702120135995C
:10084300D70212013510D802120135C1D8021201A4
:1008530035A82900120135B82900120135592A009B
:10086300120135B52A00120135722B001201358EA3
:100873002C00120135C02C00120135EF2C0012019F
:10088300359C2E00120135133100120135833300DC
:100893001201357534001201356E350012013575BC
:1008A3003700120135693A00120135983B001201F5
:1008B300359C3D00120135AC3E001201353B400032
:1008C3001201352C41001201357A4100120135E93C
:1008D30041001201350D42001201355E4200120142
:1008E30035FF46001201350048001201356148000A
:1008F3001201358C48001201355249001201351E90
:10090300F80212013528F8021201356DF8021201BE
:100913003581F80212013511F9021201354AF90243
:1009230012013585F902120135AEF90212013502C1
:10093300FA0212013517FA0212013539FA021201CD
:10094300354EFA0212013562FA0212013577FA02C4
:10095300120135B1FA02120135DDFA021201352610
:10096300FB0212013598FB02120135DBFB02120177
:100973003505FC0212013530FC02120135F6A703DE
:10098300120135108B02120135F38B021201356E01
:100993008C02120135A98C02120135FA8D02120163
:1009A30035888E021201351A9102120135CC91025B
:1009B300120135D892021201354B9402120135A46B
:1009C30094021201358CEF02120135CFEF021201AE
:1009D3003553F0021201352AF302120135DA980376
:1009E3001201358C9903120135889A03120135C718
:1009F3009A03120135219B0312013520A103120131
:100A03003583A10312013520A20312013555A20338
:100A130012013585A203120135C0A203120135E08C
:100A2300A203120135D3D8021201355FD902120194
:100A3300351EDA0212013536DB0212013550DD02B2
:100A43001201354EF40112013573F40112013540E0
:100A5300F50112013514F60112013581F601120177
:100A630035C1F6011201355DF70112013591F80127
:100A73001201356CF901120135CBF9011201355719
:100A8300FA01120135C5FA0112013551FB011201B8
:100A93003597FB0112013509FC011201359BFC015D
:100AA3001201353CFD011201355CFD01120135A433
:100AB300FD01120135EDFD0112013509FE0112019F
:100AC300352FFE01120135A9FE01120135B7FE01D2
:100AD30012013546FF01120135AFFF0112013587BF
:100AE300DD021201350CDE021201354EDE02120167
:100AF3003532DF021201359FDF02120135E3DF02D7
:100B030012013527E00212013554E0021201357C4F
:100B1300E002120135B4E002120135F2E0021201E3
:100B23003519E10212013593E102120135DDE102CB
:100B330012013517B801120135B6B901120135EEAC
:100B4300BB0112013542BC011201356DBC0112011A
:100B53003549BD0112013579BD01120135A8BD0129
:100B6300120135BBBD01120135FCBD01120135294E
:100B7300BE0112013577BE01120135B3BE01120168
:100B830035F8BE0112013545BF01120135BFBF0162
:100B930012013500C201120135EAC30112013526E3
:100BA300C401120135B5C501120135FAC50112019F
:100BB300356DC601120135C2C601120135C7C60122
:100BC30012013551C70112013570C8011201358177
:100BD300C8011201350D9F02120135869F021201D1
:100BE3003540A5021201354BA602120135F4A702C6
:100BF30012013582A802120135585E00120135D95F
:100C03005E00120135065F001201354F5F001201CD
:100C130035506000120135A96000120135256200CC
:100C2300120135A76200120135C262001201353389
:100C33006300120135F06300120135B36400120141
:100C430035416500120135F865001201350B660068
:100C5300120135A466001201353B670012013562AB
:100C63006700120135CB67001201351568001201C8
:100C730035636800120135086900120135A6690061
:100C8300120135336A00120135A46A00120135EBF3
:100C93006A00120135436B00120135756B001201B6
:100CA300352F6C00120135366D001201357F6D0052
:100CB3001201359C6D00120135BB6D00120135EE3A
:100CC3006E00120135A56F00120135CA6F001201C3
:100CD30035DF6F001201354F70001201359070003F
:100CE300120135B471001201353572001201354D10
:100CF3009502120135989502120135A4950212014D
:100D0300357896021201358F9602120135CC960280
:100D1300120135FD96021201353597021201358B0A
:100D23009702120135A19702120135DD97021201D4
:100D330035F097021201351798021201354B9802CC
:100D4300120135719902120135BB9A02120135B7AE
:100D53009B02120135D49C021201359D2900120118
:100D630035A4C801120135DFC80112013531CC01A8
:100D73001201358DCD011201354CCE01120135B36F
:100D8300D1011201359DD201120135E9D2011201BF
:100D93003503D30112013540D3011201354BD30181
:100DA3001201358AD30112013593D3011201353D66
:100DB300D40112013514D50112013568D501120190
:100DC30035C5D50112013537D601120135CB940152
:100DD3001201352A9801120135309801120135614B
:100DE3009F0112013568A301120135998F03120186
:100DF300352F90031201354590031201359E900360
:100E0300120135E290031201351C9103120135B42E
:100E130091031201352392031201352C920312011F
:100E2300353892031201355292031201357C920335
:100E3300120135919203120135F392031201351A0F
:100E43009303120135DCF302120135E9F3021201B7
:100E53003503F40212013536F40212013574F4023B
:100E6300120135D9F402120135EEF402120135F9FB
:100E7300F40212013506F5021201351DF5021201C5
:100E8300352BF50212013536F50212013542F50212
:100E930012013551F5021201355CF5021201357F5D
:100EA300F50212013523F60212013533F60212015F
:100EB300354DF6021201356AF60212013585F60246
:100EC300120135AAF602120135B5F602120135CA2E
:100ED300F602120135DEF6021201353FF702120166
:100EE3003545F7021201354BF70212013551F7026E
:100EF30012013569F7021201359CF70212013570B0
:100F030072001201350773001201359F730012013D
:100F1300358F7400120135C67400120135D974007F
:100F2300120135477500120135E2760012013509C9
:100F33007700120135AB7700120135E0770012011B
:100F430035F177001201356A78001201358B78008C
:100F5300120135A37800120135FB79001201350423
:100F63007C00120135547E00120135577F001201B7
:100F730035A67F0012013586D70112013583D801CA
:100F83001201356ED90112013578D9011201359A52
:100F9300D901120135A6D901120135F8DA0112017E
:100FA3003527DB0112013557DC0112013599DC01CC
:100FB300120135C5DD011201359BDE01120135ED4C
:100FC300DE011201354CDF0112013583DF0112010D
:100FD30035BEDF0112013559E30112013572E30118
:100FE300120135F4E30112013502E4011201355710
:100FF300E40112013565E401120135D2E401120165
:101003003544E5011201358AE501120135008002FC
:101013001201352280021201350C8202120135B110
:101023008502120135F48602120135CE87021201C0
:1010330035EEA20312013513A30312013584A30372
:10104300120135A4B902120135ADB902120135B648
:10105300B902120135E7BA0212013506BD021201C7
:10106300353CBD0212013576BD02120135ACBD021D
:10107300120135E6BD021201351ABE0212013546D0
:10108300BE021201358FBE02120135C9BE02120122
:101093003511BF0212013567BF021201359CBF0231
:1010A300120135F7BF0212013531C0021201358238
:1010B300C002120135B8C002120135F2C00212019A
:1010C3003520C10212013543C10212013544AE037A
:1010D30012013570AE03120135CBAE03120135D5C3
:1010E300AE03120135E5AE03120135489303120135
:1010F300356F93031201359993031201354DB003F4
:10110300120135BE4900120135224C00120135D9B6
:101113004D00120135364E00120135384F001201D1
:1011230035C04F001201354750001201356C500095
:10113300120135615300120135D75300120135C630
:1011430054001201350055001201354055001201BB
:1011530035E056001201353557001201358257002C
:10116300120135F0570012013516580012013530BF
:101173005800120135465900120135565900120123
:1011830035DC5A00120135FC5A00120135325B007E
:10119300120135B65C00120135F55C0012013533DE
:1011A3005E00120135A2E602120135FAE6021201CF
:1011B3003542E802120135B1E80212013560E90255
:1011C3001201357FE902120135D3E902120135110B
:1011D300EA0212013597B003120135D6B0031201AA
:1011E30035ECFF0212013588AD0312013598AD03CA
:1011F300120135AAAD031201353EAE031201350AC1
:10120300A9031201358EA903120135F4A9031201B2
:1012130035E0AB0312013507AC031201355DAC03B6
:1012230012013570AC03120135AFAC03120135B2B4
:10123300AC0312013500800312013514800312013F
:10124300358D800312013562810312013534830326
:10125300120135998303120135EC8303120135F82A
:101263007F00120135469F03120135BCA003120112
:10127300351DA10312013504AB0312013526AB035F
:101283001201354FAB0312013567AB03120135A9C8
:10129300AB031201355FCE0212013569CE02120192
:1012A30035A9CE02120135F2CE021201352CCF023E
:1012B30012013582CF02120135A1CF02120135AAE4
:1012C300CF02120135FBCF0212013524D0021201E5
:1012D3003539D002120135A9D00212013537D102B6
:1012E3001201357BD102120135A3D102120135223D
:1012F300D20212013565D202120135A2D2021201C5
:1013030035B4D202120135D3D202120135DCD20236
:10131300120135A6D30212013558A603120135A9CD
:10132300A60312013532A70312013598A703120150
:10133300351696031201354096031201353A970389
:10134300120135699703120135EF97031201350D29
:10135300AA031201354C9B03120135829B03120130
:1013630035BB9B03120135149D03120135EFAE0308
:1013730012013505AF031201350FAF0312013565B5
:10138300AF0312013596AF031201356AB1021201A0
:101393003527B20212013562B2021201358AB20256
:1013A300120135ECB20212013538B302120135983D
:1013B300B30212013578B40212013574B502120179
:1013C3003506B70212013589B702120135EDB702AE
:1013D30012013504B802120135FAB802120135467A
:1013E300B9021201351DE20212013532E202120185
:1013F30035E2E20212013522E3021201353BE30238
:101403001201356EE302120135BBE302120135EF1F
:10141300E30212013531E4021201352FE602120113
:101423003595E60212013513E601120135CAE901C9
:101433001201355CEB01120135B3EB01120135D218
:10144300EB0112013550EC01120135E2ED011201FD
:1014530035C6EE01120135D7F201120135ABF301A6
:1014630012013523EB021201356FED021201359D96
:10147300EE0212013563EF0212013558FC0212012C
:1014830035C0FC02120135DDFC02120135A8FD0254
:10149300120135FBFD02120135DEFE02120135A4F5
:1014A300A4031201350BA50312013570A503120124
:1014B30035F7A503120135E0B003120135D2FF0160
:1014C30012013526B103E066701008A3E066700AC6
:1014D30008A3E066700408A3E06622C3E796080940
:1014E300E7960809E7960809E79622C3E09608A35A
:1014F300E09608A3E09608A3E09622C008C3E0960E
:10150300F50808A3E096420808A3E096420808A35A
:10151300E09645087001D3D00822080808EAC0E025
:10152300EBC0E086F0E7A4FA180986F0E7A42AFAEC
:10153300180986F0E7A42AFA180986F0E7A42AFA1C
:101543001986F0E7A4FBE5F02AFA190886F0E7A468
:101553002BFBE5F03AFA190886F0E7A42BFBE5F03C
:101563003AFA18180986F0E7A4C5F02BFBE43AFA17
:101573001908E7C5F0C6A426F6E5F03BFBE43AFA02
:101583001886F0E7A4F6E5F00826F6E43B08F6E44F
:101593003A08F6D0E0FBD0E0FA22E4CFC0E0E4CE94
:1015A300C0E0E4CDC0E0E4CCC0E075F020E626F670
:1015B30008E633F608E633F608E633F6181818ECAF
:1015C30033FCED33FDEE33FEEF33FFC3EC9709ED50
:1015D3009709EE9709EF97191919400FFFEC97FC3C
:1015E30009ED97FD09EE97FE191906D5F0BFECF743
:1015F30009EDF709EEF709EFF7191919D0E0FCD057
:10160300E0FDD0E0FED0E0FF226016080808C6C364
:1016130013C618C613C618C613C618C613C6D5E014
:10162300EA227009080808226016181818C6C3337E
:10163300C608C633C608C633C608C633C6D5E0EAED
:1016430022E627F60809E637F60809E637F6080919
:10165300E637F622E026F608A3E036F608A3E036DE
:10166300F608A3E036F622E026F008A3E036F008F9
:10167300A3E036F008A3E036F022C3E697F60809A4
:10168300E697F60809E697F60809E697F622C3E017
:1016930096F008A3E096F008A3E096F008A3E0967E
:1016A300F022E056F608A3E056F608A3E056F60843
:1016B300A3E056F622E056F008A3E056F008A3E0B4
:1016C30056F008A3E056F022E0F608A3E0F608A3DC
:1016D300E0F608A3E0F622E6F008A3E6F008A3E6A6
:1016E300F008A3E6F022E0FAA3E0FBA3E0FCA3E00A
:1016F300FD22E0F8A3E0F9A3E0FAA3E0FB22E8F07F
:10170300A3E9F0A3EAF0A3EBF022CAC0E0E6F0A35A
:1017130008DAFAD0E0FA22CAC0E0E0A3C582CCC559
:1017230082C583CDC583F0A3C582CCC582C583CDD5
:10173300C583DAE6D0E0CA22C3E498F8E499F91243
:10174300177C8026C3E49AFAE49BFBE920E7E912BD
:10175300177CE498F8E499F922C3E498F8E499F93A
:1017630012177CE498F8E499F9C3E49AFAE49BFB32
:1017730022EB20E7CFE920E7E0B90010BB0008E83F
:101783008AF084F8AAF022E4FBC8FA22EB70227BE9
:1017930010C833C8C933C9335007C39AC3DBF280B7
:1017A300069A50012ADBEAC833F4C8C933F4C9FAEC
:1017B3002275F008E4C833C8C933C933C99AC99B31
:1017C3005004C92AC93BD5F0ECFBC833F4C8E4C9BB
:1017D300FA22600D08C6A2E713C618C613C6D5E0E1
:1017E300F322600C08C6C313C618C613C6D5E0F4AB
:1017F30022700422600D18C6C333C608C633C6D58B
:10180300E0F41822251810AF08F518400C151980BC
:1018130008F51840021519D2AF2200C0D0251810C0
:10182300AF08F518500C05198008F5185002051972
:10183300D2AFD0D0222518F58210AF08F518400C8E
:1018430015198008F51840021519D2AF851983229E
:101853002518F582E43519F583222518F8E435199E
:10186300F9222518FAE43519FB222518FCE4351969
:10187300FD22E4732518C582C0E0E51934FFC58352
:10188300C0E0E518C3958224F810AF088583198555
:1018930082188008858319858218D2AFCEF0A3E51C
:1018A30020F0A37808E608F0A3DEFAEFF0A3E581C1
:1018B30024FAF8E608F0A3E608F0A3E608F0A30884
:1018C30008E608F0A3E608F0A315811581D0E0FE31
:1018D300D0E0F8158115811581E8C0E0EEC0E02263
:1018E3002518C582C0E0E51934FFC583C0E0E518BB
:1018F300C3958224F910AF0885831985821880085F
:10190300858319858218D2AFCEF0A3E520F0A378A2
:1019130008E608F0A3DEFAEFF0A3E58124FBF8E67E
:1019230008F0A3E608F0A30808E608F0A3E608F029
:10193300A315811581D0E0FED0E0F815811581E86B
:10194300C0E0EEC0E022851983851882E0A3FEE0A3
:10195300A3F5207808E0A3F608DFFAE0A3FFE0A3ED
:10196300C0E0E0A3C0E0E0A3C0E0E0A3C0E0E0A3E8
:10197300C0E010AF08858218858319800885821816
:10198300858319D2AFD083D0820201328519838532
:101993001882E0A3FEE0A3F5207808E0A3F608DFB1
:1019A300FAE0A3FFE0A3C0E0E0A3C0E0E0A3C0E04F
:1019B300E0A3C0E010AF08858218858319800885ED
:1019C3008218858319D2AFD083D08222C0D0251844
:1019D300C582C0E0E51934FFC583C0E0E518C395AF
:1019E3008224F310AF0885831985821880088583C4
:1019F30019858218D2AFC8F0A3E9F0A3EAF0A3EBEC
:101A0300F0A37908E709F0A3D8FAECF0A3EDF0A36B
:101A1300EEF0A3EFF0A3D0E0F0A3D0E0F0A3D0E08A
:101A2300F0A3E520F0A3E5F0F0A322851983851840
:101A330082E0C0E0A3E0F9A3E0FAA3E0FBA3780807
:101A4300E0F608A3DFFAE0FCA3E0FDA3E0FEA3E0D9
:101A5300FFA3E0C0E0A3E0C0E0A3E0F5D0A3E0F57E
:101A630020A3E0A3F5F010AF0885831985821880C1
:101A730008858319858218D2AFD082D083D0E0F84D
:101A8300D0E03274048006740280027401C0E0F472
:101A930004121838D0E012170D2274048004740263
:101AA3008000CCC0E0EDC0E0E518C39CCCAD19507C
:101AB300011D10AF068C188D1980068C188D19D254
:101AC300AF12171AD0E0FDD0E0FC22D083D082E918
:101AD300C0E0E493A3C386F0C5F095F0F908E4935E
:101AE300A386F0C5F095F0700BE493A3C39940056A
:101AF300E9048002A3E475F002A42582F582E5F0EF
:101B03003583F583D0E0F9E493A3C0E0E493C0E028
:101B130022D083D082ECC0E0EDC0E0E493A3FCE4E8
:101B230093A3FDED4C600D121B60EC24FFFCED3420
:101B3300FFFD80EFE493A3FCE493A3FDED4C600D64
:101B4300121B9FEC24FFFCED34FFFD80EFD0E0FD82
:101B5300D0E0FCE493A3C0E0E493C0E022C0E0C380
:101B6300E49396087401939618400FE49366700803
:101B730008740193661870007019A3A3C3E49396C5
:101B8300087401939618A3A3400DD0E0D0E0D0E0F1
:101B9300021B50A3A3A3A3A3A3D0E022C0E0C0F0E1
:101BA30088F0E4936670080874019366187000A8BF
:101BB300F0A3A3700BD0F0D0E0D0E0D0E0021B5034
:071BC300A3A3D0F0D0E02243
:101BCC0074F61218E3EAFEEBFF8C088D09EE243450
:101BDC00F8E43FF9E8FCE9FDEE2435121EDFFAEEDD
:101BEC002437121EDFF88508F0A4C885F00A850991
:101BFC00F0A4250AF9EA28F8E439F97A257B0012D1
:101C0C00177CEA8C828D83F0FA131313541FF8EEB1
:101C1C0028F8E43FF9E8245DF582E439F583E0C067
:101C2C00E074075AF8D0E0B800028004C313D8FC63
:101C3C00A2E0EE50082434F582E43F8018243612DA
:101C4C001EDFF5F0EA84A8F0EE28F8E43FF9E8246A
:101C5C0038F582E439F583E0F97F0302198F74F7C4
:101C6C001218E3EAFEEBFFEE2434121EDFC0E0EEA6
:101C7C002435F582E43FF583D0E0F08E828F83A388
:101C8C00A3A3A3A3A3A3C082C0838E828F83A3A389
:101C9C00A3A3A3E0F8A3E0F9D083D082E0C398F526
:101CAC0008A3E099F509EE247F121EDF6401703E53
:101CBC00EE2480F582E43FF583C082C0838E828F50
:101CCC0083A3A3A3A3A3E0240108A3E03400F9D0C9
:101CDC0083D082E0687003A3E06970127CB17D044C
:101CEC00120C9BEE247FF582E43FF583E4F0AC0804
:101CFC00AD09EEFAEFFB121BCCE9F912292E7F028B
:101D0C0002198FC082C083851882851983E0F8A3DD
:101D1C00E0F9C3EA9CEB9D5010C3EC98ED99401B85
:101D2C00C3EA98EB995014800EC3EA98EB994007DC
:101D3C00C3EC98ED994004790180027900D083D0EE
:101D4C008222EAC39CFAEB9DFB2274EF1218E390FB
:101D5C000376E064086005E06407702A9061C8E0CF
:101D6C0060249003A4E0F4601DE0F875F00BA4C8A7
:101D7C00AAF02AF974A628FE740339FF8E828F8389
:101D8C00A3A3A3E07003021E64906060E0C0E0EEC9
:101D9C002468F582E43FF583D0E0F0750C21750DD5
:101DAC0005750800750900E5D914F50AE5D9540341
:101DBC00F50E60127403650E6043E50A600AEE24AA
:101DCC0067121EDF7002807590051CE06401601FB5
:101DDC00121EDC60047A0480027A00E50AC39AFAC7
:101DEC0095E0FB120B458A088B09EA450970051230
:101DFC000EE18064121EDC70048A0C8B0DE50A6007
:101E0C0012850C82850D83F50BE5D9F0A3150BE536
:101E1C000B70F6121EDC604474FC250AF50A780C73
:101E2C00121A8AAC0AA90EEEFAEFFB120D557402C7
:101E3C0012181DE97026AA08AB0912131F793D8EE2
:101E4C00828F83A3A3A3A3E0FA7B001209A7EEFA67
:101E5C00EFFB120CBF120D677900806F7403650ED7
:101E6C006051850A107511007810121A8AAC0CADED
:101E7C000DAA08AB09120D19740212181DEE246874
:101E8C00121EDF64807004747F8001E0F50C780C06
:101E9C00121A8EE50EF50C780C121A8EA90AAC08E3
:101EAC00AD099003A4E0FA7B0012097D74021218AC
:101EBC001D8013900376E06408600BAC0CAD0DEE46
:101ECC00FAEFFB120DDF120EED79017F0A02198F6A
:101EDC00EE2483F582E43FF583E02274F21218E3DA
:101EEC0074FC121807EAFEEBFF8909A2AFE433F584
:101EFC0008C2AF021FB1E0601B780C121A8AAC0B3F
:101F0C00A90EEEFAEFFB120D4F740212181D740499
:101F1C00250BF50B7401250BF5D9850ED9E50B6056
:101F2C0018F50A850C82850D83E0F5D9A385820C02
:101F3C0085830D150AE50A70EA75E195EE2463F8C0
:101F4C00E43FF97A007B00A2AFE433F50BC2AF8813
:101F5C00828983E0FCA3E0FDEC4D603A88828983A2
:101F6C00E0FAA3E0FB8A828B83E0FCA3E0FD88828D
:101F7C008983ECF0A3EDF08A828B83E4F0A3F088E4
:101F8C00828983E0FCA3E0FDEC4D700A8882898392
:101F9C00A3A3E4F0A3F0E50BA2E092AF12131F9001
:101FAC0004B8E004F0EE2463121EDFF8A3E0F9E8B5
:101FBC00496064EE2463121EDF2402F8A3E03400AF
:101FCC00F988828983E5822402F50CE43583F50DCA
:101FDC00E0F50BA3E0F50EEE2462121EDF64017037
:101FEC00369061D0E0F8121EDC60047C0480027C28
:101FFC00007480C398FA95E0FBE50B2CF8E43400F0
:10200C00F9E82402F8500109C3EA98EB99A2D265C9
:10201C00D0334003021F029004B8E0604D9004B925
:10202C00E0F89004B8E0C398500C74026509703A5B
:10203C009004BAE060348E828F83A3A3A3A3E085BF
:10204C0018828519831220867402121853E8122004
:10205C00869004B7E028F0740212186DAA18AB1918
:10206C0079011209D19004B8E4F0E508A2E092AF2E
:10207C00740412181D7F0702198FF0A3E4F090046A
:10208C00B8E0F8228521878522C622C0E074EB12C5
:10209C0019CFA2AFE433F508C2AF759B00906182F3
:1020AC00E0A2E05030E591A2E0502A7591FE740157
:1020BC006521702112222A120E2D122218121A9D3D
:1020CC001226D8740412181DE964017005790112E6
:1020DC000E75121D56906182E0A2E5505DE591A24D
:1020EC00E550577591DF900376E064076005E06476
:1020FC0008702F12222A74016521703E120E2D12C7
:10210C002218121A9D1226D8740412181DE96401A3
:10211C0070057901120E757901EEFAEFFB121EE7CC
:10212C008018E0640D7013900398E004F06428703C
:10213C0002E4F07A00E0F9120EF3906182E0A2E67C
:10214C0040030221EDE591A2E640030221ED7591D9
:10215C00BF900376E064057008120E15120E2180F4
:10216C0003120E1B752100120E81E9900377F07992
:10217C0000120E75120C0B7A017B00900375E0F9BE
:10218C001212EF907803E064427056900520E01430
:10219C00F0704EC2AF1221A400782AD0E0F618D00D
:1021AC00E0F6E59F5407F87005750DFF8003750D7B
:1021BC007FC4C0E07829E6F50A08E6550DF50B74E6
:1021CC000B780A1217E5D0E0250AF8906270E0A2AD
:1021DC00E740F8E8C333906272F0906270E0D2E0AE
:1021EC00F0906181E0A2E35009E5E9A2E3500375A8
:1021FC00E9F7A3E0A2E75009E591A2E75003759136
:10220C007FE508A2E092AF7F08021A2E8E828F83A0
:10221C00E0F8A3E0C82416F582E438F58322900395
:10222C00A4E0F875F00BA4C8AAF02AF974A628FE4D
:10223C00740339FF22C0E0C0D0C082C08390618398
:10224C00E0A2E05009E5BFA2E0500375BFFEE0A29A
:10225C00E15009E5BFA2E1500375BFFDE0A2E250D9
:10226C0009E5BFA2E2500375BFFBE0A2E35009E50C
:10227C00BFA2E3500375BFF7E0A2E45009E5BFA28B
:10228C00E4500375BFEFE0A2E55009E5BFA2E550AD
:10229C000375BFDFE0A2E65009E5BFA2E650037567
:1022AC00BFBFD083D082D0D0D0E032C0E074F21265
:1022BC0019CFE5A7A2E6500FE5A1A2E6500953A756
:1022CC00BF75A1BF12230BE5A7A2E5500CE5A1A297
:1022DC00E5500653A7DF75A1DFE5A7A2E15009E59C
:1022EC00A1A2E1500375A1FDE5A7A2E2500CE5A166
:1022FC00A2E2500653A7FB75A1FB7F01021A2E74B4
:10230C00F71218E3752101900376E064067015123C
:10231C000D8B8A828B83A3A3A3A3A3A3E0FAA3E0D0
:10232C00FB120E03A2AFE433FED2AF90037CE06449
:10233C000170187A207B00900375E0F91214097A69
:10234C00207B00900375E0F91212F5906182E0D2C7
:10235C00E6F090051DE0602185C622801690037B77
:10236C00E064017008E5C654F84405F5C653BEFC9C
:10237C001220907401652160E4EEA2E092AF7F021E
:10238C0002198F008E238F24858228858327851838
:10239C0082851983E0CEA3E0CF852882852783EB45
:1023AC00C9EAC8EDCBECCA75F010C3E833C8E93301
:1023BC00C9EA33CAEB33CBC3EA9EF526EB9FF5256E
:1023CC00B35004AB25AA26EC33CCED33CDD5F0DAE3
:1023DC00AE23AF242274E91218E374FA121807EA38
:1023EC00FEEBFF8C0A8D0B120E39EAF8EBF9ECFAC6
:1023FC00EDFB8E828F83121701900376E024F7C3D6
:10240C0094055006751401022548120D8B8A088B11
:10241C0009EA45097003022545EEFCEFFDAA18AB4D
:10242C0019120E33850882850983A3A3780C121622
:10243C00CB90817B780C1216A58518828519837830
:10244C00101216CB90817B78101216A5780C79108F
:10245C001214DE501F780C791012167D90816F7853
:10246C000C1214FE4047850C14850D15850E16852F
:10247C000F17804590816F851014851115851216E4
:10248C008513177814790C12167D78141214FE50DB
:10249C001C751400751500751600751701781479E4
:1024AC001012167D7814790C121644800C751401D8
:1024BC007515007516007517007409781412162519
:1024CC009081E3780C1216CB7814790C12159D853B
:1024DC000882850983A3A3A3A3A3A31225661217BD
:1024EC007C880C890DE4F50EF50F7814790C121616
:1024FC0044740412185312256612177CE8FA8A0CDD
:10250C00E4F50D7814790C1214DE50077814790C5C
:10251C0012167D900376E06408600AE0640660059C
:10252C00E06405702090817378141214FE5016909C
:10253C0081777814121657800C7514007515007578
:10254C001600751700850A82850B8378141216DA2B
:10255C00740612181D7F1002198FE0F8A3E0F97AA7
:10256C00D07B032274F71218E3120E4B90051BE07C
:10257C0064017010906245E4F0A3F053F4F343FE51
:10258C000C5390F3120DF1E5C654B84441F5C6E571
:10259C009E5447644170F8906185740FF090051952
:1025AC00E0F47002A3E0604E90051AE0600814603D
:1025BC001B14602E8040750801750900900519E008
:1025CC0078081217F4E508F45280802A7508017512
:1025DC000900900519E078081217F4E508F45290F8
:1025EC008014750801750900900519E07808121718
:1025FC00F4E508F452A079007F0202198F74F712E7
:10260C0018E3E9FEEAFF120E4B74016E700C7A802F
:10261C007B00900375E0F91212EF9029A0E493F47B
:10262C006008E493F9120BFF800953C6B8E59E5479
:10263C004770FA120DF790051BE064017003120C41
:10264C001D900519E0F47002A3E0604B90051AE0B0
:10265C00600814601A14602C803D7508017509001F
:10266C00900519E078081217F4E508428080287567
:10267C000801750900900519E078081217F4E508AF
:10268C0042908013750801750900900519E07808CF
:10269C001217F4E50842A0120D8B8A088B09A808C2
:1026AC00A909E8496014E5E170FCE82414F582E41A
:1026BC0039F583E0F46003E0F5E174016F700A7A98
:1026CC0001900375E0F912137902260474F11218C3
:1026DC00E38A088B098C0A8D0B90817B7808121683
:1026EC00A5740F121853780C1216CB90817B780CB2
:1026FC001216A57808790C1214DE90816F501078A0
:10270C0008790C12167D78081214FE4014800E788D
:10271C000C790812167D780C1214FE500479018085
:10272C000279007F0802198F74ED1218E38A088B66
:10273C00098C0A8D0B90817B78081216A5741312E4
:10274C001853780C1216CB90817B780C1216A57846
:10275C000C79081214DE40117808790C12167DAA37
:10276C0008AB09AC0AAD0B80227510007511007511
:10277C0012007513017810790C12167D78107908F7
:10278C00121644AA10AB11AC12AD137F0C02198FA8
:10279C0090817B78081216CB8A828B83780812166C
:1027AC00B87F0402198F74F51218E38C828D83782C
:1027BC00081216CB8A828B83780812169112280A7B
:1027CC00C3E09CF0A3E09D1227FC402290819B78F3
:1027DC00081216CB8A828B83780812166A8A828B2F
:1027EC0083A3A3A3A3E02420F0A3E0344EF080A0A5
:1027FC00F088828983C3E09420A3E0944E22EA24DB
:10280C0004F8E43BF98C828D83A3A3A3A3E0FCA37F
:10281C00E0FD888289832274F51218E3E9FE9004A6
:10282C00D3E0FAA3E0FBEE29F8E433F974C928F5F8
:10283C0082748039F583E02AF508A3E03BF509782A
:10284C0008121A8A9081DF1216E912239074021270
:10285C00181D8A088B098C0A8D0B741078081216B7
:10286C000CAA08AB097F0402198F74F11218E38AC1
:10287C000C8B0D8C0E8D0F7411121853121AA1742F
:10288C0011121853E02401F508A3E03400F509E413
:10289C00F50AF50B780C790812151D9081837808D0
:1028AC001216CB780C790812151DAA0CAB0DAC0EB8
:1028BC00AD0F122390740212181D8B09EA450960A2
:1028CC00047A0180027A00EC2AFCE43DFD741312B8
:1028DC001853E0F8A3E0F9E8FEE9FFECF8EDF97A1B
:1028EC00717B0212177C88088909E4F50AF50B8EB6
:1028FC00828F8378081216DAECF8EDF97A717B0284
:10290C0012177C8A088B09740578081217F48E82CA
:10291C008F83A3A3A3A3E508F0A3E509F07F080226
:10292C00198FC082C083E9906000F0D083D08222DE
:10293C00C0E074F21219CFA2AFE433FED2AFE58936
:10294C00A2E04006E589A2E150031212237589002A
:10295C00758900C2C5751A00EEA2E092AF7F010224
:10296C001A2EC0E0C0D0E8C0E0E9C0E0A9A8D2AF00
:10297C00C2C7751A00E9A2E7E433F8E9A2E792AFFF
:10298C00D0E0F9D0E0F8D0D0D0E032C2AF020000F5
:10299C0022020132FFFFFFFFFFFFFFFFC082C08357
:1029AC00E9901602F0D083D08202013274F612182C
:1029BC0077E99002E8F0900348E0F5087509007497
:1029CC000278081217F4AA08AB091213619002E9F5
:1029DC0012336B9002E9123758606F900348E07520
:1029EC00F003A4FAABF012136190030612336B9050
:1029FC000306123758700B9002E91237291213672D
:102A0C0080489003061246BD7AFF7BFF1211A57A0F
:102A1C000080198A08750900740278081217F412DC
:102A2C00416574FF122B6BE4F0A3F00A900348E0AD
:102A3C00F8EAC39840DD79051208699002E8E0F9DC
:102A4C001207557AF37B08120AE502420874F41255
:102A5C0018778A088B09EB548060479002E8E0F9FC
:102A6C001212D78A0A8B0BAE0AAF0BEE4F602A8E6E
:102A7C00828F83E064B0701A12087BE960148E8236
:102A8C008F83A3A3A3A3E0F9EE2405FAE43FFB1282
:102A9C00084BEEFAEFFB1212C5AA08E5096480FB9D
:102AAC0080047A007B00022CBB74F212187774FB42
:102ABC00121807EAFEEBFFEE4F6045740312185331
:102ACC00EEF0A3EFF0851882851983ECF0A3EDF0FE
:102ADC007402121853E9F0AA18AB1912074FE9F552
:102AEC000870757413121853E0F50AA3E0F50BE5A2
:102AFC000A450B60638E828F831230F4EE4F7005A3
:102B0C0075080280537A067B001213618A0C8B0DB8
:102B1C00A80CA90DE8497005750813803B888289BB
:102B2C0083E4122B6BEEF0A3EF122C87E50AF0A3D3
:102B3C00E50BF09002EC122C809002EC6017E0FC9C
:102B4C00A3E08003EAFCEBFD8C828D83122C807059
:102B5C00F38C828D83123D80A908740502493DF0E7
:102B6C00A312469FA32274F21218778908890C7558
:102B7C000D007403780C1217F4850C0A850D0B905C
:102B8C0002EBF09002E9123B8B122C7E602E12139A
:102B9C00677900801D890C750D007402780C121772
:102BAC00F49002E91240248882F583A3A3E4F0A3F5
:102BBC00F009900348E0F8E9C39840D9900348E045
:102BCC00FA850AF0A4CAA8F0850BF0A428FB12130E
:102BDC00618A0C8B0DAE0CAF0DEE4F7003022C7492
:102BEC00900348E0FC850AF0A4CCA8F0850BF0A477
:102BFC0028FD79001212B37C0080318D0C750D000C
:102C0C007403780C1217F48A828B83122C798882C5
:102C1C008983E4F0122C86A3A3F0A3F00DEDC395E9
:102C2C000840D8EE250AFEEF350BFF0C900348E068
:102C3C00F8ECC39850288C0C750D007402780C12AB
:102C4C0017F49002E9122C79E82402500109FAE9F0
:102C5C00FB8A828B83EEF0A3EFF07D0080BFE5084A
:102C6C009002EBF07900800279130249401240285F
:102C7C00F922A3A312372DEA4B22A312469FA3A33A
:102C8C00A32274F41218777900EAA2E0501F750899
:102C9C004A7509817808121A8A79107C047D007AA9
:102CAC00047B16120863740212181DE9F980007F68
:102CBC0004021949C082C0839002EC123758601C80
:102CCC0088828983A3A3E06A7003A3E06B8882895E
:102CDC008370E8A3A3A3A312372980047A007B0096
:102CEC000229B174F212187774FD121807EAFEEB80
:102CFC00FF851882851983E4F0A3F074021218532F
:102D0C007401F01237557014120A1F1213619002DD
:102D1C00EF12336B1237557003022E8112346BEEA7
:102D2C002404F50AE43FF50B850A82F583E024FEC2
:102D3C00603C24FC607424FE607E24FE7003022D33
:102D4C00D124FE7003022DDE24FE7003022DEB2431
:102D5C00FE7003022DF824FE7003022E0524FC7075
:102D6C0003022E2624FE7003022E3E022E7A120A35
:102D7C001F9002F1EAF0A3EB122E8D120497E9607A
:102D8C0003022E7A9002F1121AA18E828F83A3A3D2
:102D9C00A3A3A31246BD8508828509831237291285
:102DAC000833740212181D022E7AAC18AD19EEFA03
:102DBC00EFFB120881022E49AC18AD19EEFAEFFBAD
:102DCC001208878078AC18AD19EEFAEFFB12088D5B
:102DDC00806BAC18AD19EEFAEFFB120893805EAC69
:102DEC0018AD19EEFAEFFB1208998051AC18AD1919
:102DFC00EEFAEFFB12089F8044740212185D880CE7
:102E0C00890D780C121A8A740212186DEEFAEFFB07
:102E1C001208A5740212181D8023AC18AD19EEFA15
:102E2C00EFFB1208ABE9F870167402121853E4F0B9
:102E3C00803CAC18AD19EEFAEFFB1208B1E9F8E8DA
:102E4C00602C8E828F83A3E064146022850A8285B5
:102E5C000B83E09002F1F0851882851983123729D3
:102E6C009002F212336BE8A3122E8D120491EEFA3B
:102E7C00EFFB1208097402121853E0F974030249AB
:102E8C003DF07CF17D0285088285098312372D2265
:102E9C0074E812187774FA1218077404121853ECA9
:102EAC00F0A3EDF08A128B13EA2405F50EE435132A
:102EBC00F50FEA2402F510E43513F511851082F5AF
:102ECC00831237291205878A0A8B0B7508007C033D
:102EDC007D0079007AF17B021212B3E50E2402F523
:102EEC0016E4350FF517740212185D880C890D78ED
:102EFC000C121A8A850E82850F83A3A3A3A3E0F577
:102F0C000C750D00780C121A8AE50E2405F50CE4EC
:102F1C00350FF50D780C121A8A85168285178312D7
:102F2C003A3012076D740612181D8A0C8B0DE50CC5
:102F3C00450D70030230BD8020851882851983E011
:102F4C0088828983F00508851882851983A3E0C0DF
:102F5C00E01230FED0E0F00508E50A24FBFAE50BA0
:102F6C0034FFFBC3E5089AE49B40030230BD7E00AE
:102F7C007F00851282851383A3A3A3A3E0F50978B0
:102F8C0009121A8EE4F514F5157814121A8A7514B0
:102F9C00EE7515027814121A8A9002EF121AA174A7
:102FAC0009121853121AA1E50A24F9F9AC0CAD0D4B
:102FBC008510828511831237291208DB74091218C7
:102FCC001DE9600302305E850E82850F83A3A3A3E7
:102FDC00A3A3A3A3E0F89002EEE0687075E0F514EB
:102FEC008E157814121A8A1246BA850E82850F83B2
:102FFC00A3A3A3A3A3A3A3A31237291212AD7402F4
:10300C0012181DE9604C9002F2123758703BE4F52F
:10301C00147814121A8A7CFF7DFF7907851082853B
:10302C001183123729120845740212181D12375ECB
:10303C007017850E82850F8312485774041218532B
:10304C00124118123A610230F1850C82850D8312FF
:10305C0030F4A818A919881489157814121A8A74CE
:10306C0004121853121AA185168285178312336124
:10307C00120779740412181D8A0C8B0DEE4F700315
:10308C00022F3A1230FEEE123109123A17EF1231BA
:10309C0009F8A3E03400F9E50C450D6003022F4557
:1030AC008882898374FFF005081230FE74FFF005E6
:1030BC0008E508601A1313543F1233711204A3E984
:1030CC0060099002F212372912131F7900801685BD
:1030DC000E82850F8312485774041218531241182C
:1030EC00123D80790A0239EAA3A3A3A3E0FEA3E070
:1030FC00FF22A8089002F2E028123A1722F00508E5
:10310C00089002F2E0282274E812187774FA121868
:10311C0007740212185312336B7404121853ECF028
:10312C00A3EDF07402121853E02405123A00E0F5F6
:10313C000CA3E0F50D7402121853E02402F510A351
:10314C00E03400F511851082F583123729120587BA
:10315C00750800750900EA24FCFEEB34FFFF8008BB
:10316C00050CE50C7002050DA808C3EE98EF940051
:10317C00500302331DA818A919880E890F780E1256
:10318C001A8A851482851583A3A3A3A31246C112A0
:10319C001A8AE5142405F50EE43515F50F780E1290
:1031AC001A8A85148285158312335F12076D740693
:1031BC0012181D8A0E8B0FEA450F700302331DEA9D
:1031CC002404F516E4350FF517851682F583E0F522
:1031DC000CA3E0F50D8518828519831246BD8A82F1
:1031EC008B83A3A3A3E0F985108285118312372961
:1031FC0012075BE9F509600302331D7402121853C0
:10320C00123A27F5097809121A8EE4F512F513789B
:10321C0012121A8A7512EE7513027812121A8A900B
:10322C0002EF121AA17407121853121AA1EEF9AC7C
:10323C000EAD0F8510828511831237291208DB74AD
:10324C000912181DE9F509600302331DE508703FEA
:10325C00E4F50EF50F780E121A8A7CFF7DFF7909C2
:10326C0085108285118312372912084574021218B1
:10327C001D123A4D700D74041218531233547911F7
:10328C000233519002EEE024029002F2F08014908E
:10329C0002F2E0FA9002EEE0790024025001096A91
:1032AC00497072A8089002EEE0FAE82AFAE43400B9
:1032BC00FBEE9AEF9B405A851682851783E0C0E09F
:1032CC009002F3123103D0E0F005088516828517C1
:1032DC0083A3E0C0E0089002F3123103D0E0F005C4
:1032EC00089002EE1246C1121A8A1246BAA80812A7
:1032FC0039F412129B740212181D9002EEE025088C
:10330C00F50874FF650C700474FF650D60030231E1
:10331C006CE508601F9002F2E0F5F0E508841233CA
:10332C00711204A9E960099002F312372912131FD4
:10333C0079008011E509700375090A740412185399
:10334C00123354A9090239EA123B8FE50CF0A3E5BC
:10335C000DF022A3A312494CAA0CAB0D22A3A3EA95
:10336C00F0A3EBF0229002F1F07CF17D028510824B
:10337C0085118312372D2274EC12187774FC1218F5
:10338C0007123E90740212186D1237231207738ABB
:10339C000C8B0DEA450D700302345B12346BA818CC
:1033AC00A919881089117810121A8A7CFF7DFF796F
:1033BC000B8508828509831237291208457402127D
:1033CC00181D123561700C850A82850B83123A5ECA
:1033DC000234688E828F83A3A3A3A3E0F512781224
:1033EC00121A8EE4F512F5137812121A8A7512F16C
:1033FC007513027812121A8A7810121A8A7409122A
:10340C001853121AA17409121853E0F9AC0CAD0D33
:10341C008508828509831237291208DB7409121872
:10342C001DE9FE70157CF17D0285088285098312E9
:10343C0037291204AFE97009802074166E70027E71
:10344C00009002F212372912131FEE7004800B7ECB
:10345C0001850A82850B83123D7DEEF9023D92EEC9
:10346C002402F508E43FF5092274EC12187774FC79
:10347C00121807EAFEEBFF8C0E8D0FEE2405F508F3
:10348C00E43FF509740212186D85088285098312D0
:10349C0037291207738A0C8B0DEA450D7003023520
:1034AC0051EE2402F50AE43FF50BA818A91988106F
:1034BC0089117810121A8A7CFF7DFF790D1237233F
:1034CC00120845740212181D123561700B850882A2
:1034DC00850983123A5E807A8E828F83A3A3A3A37D
:1034EC00E0F5127812121A8E850882850983A3A33F
:1034FC00121AA17512F17513027812121A8A781029
:10350C00121A8A7409121853121AA1740912185338
:10351C00E0F912371F1208DB740912181DE9FE704E
:10352C000F7CF17D021237231204B5E9700980205B
:10353C0074166E70027E009002F212372912131F5D
:10354C00EE7004800B7E01850882850983123D7D17
:10355C00EEF9023D92123768F510A3E0F511EA4539
:10356C00112274E812187774FE1218078A168B173A
:10357C008C148D15EA2405F50CE43517F50DEA24A9
:10358C0002F50EE43517F50F850E82F583123729F7
:10359C001205878A088B09750B007C037D00790066
:1035AC007AF17B021212B3750A00E50814F51004C7
:1035BC0024FFF508E50934FFF50980549002F1E089
:1035CC00FA9002EEE0F8EA28F8E43400F9E50898FD
:1035DC00E50999500D9002F1E0F8E510C3989002BE
:1035EC00EEF0E0F5127513007812121A8A1246BA30
:1035FC009002F2E02AFAA3E03400FB12129B740250
:10360C0012181D9002EEE0F89002F1E028F0050A85
:10361C00850C82850D83A3A312403440030237042A
:10362C009002F1E0C39508E495094003023704AE1B
:10363C000AEE2EFEE433FF123743AC18AD191246D6
:10364C00D5E439FB1207738A128B13AC12AD13EC51
:10365C004D701B750B01123733123D819002F21223
:10366C002C80600312131FA90B74020239EC85160F
:10367C0082851783A3A3A3A3E0F50B780B121A8EF4
:10368C00E4F512F5137812121A8A7512EE751302FC
:10369C007812121A8A9002EF121AA1740712185398
:1036AC00121AA1A910850E82850F831237291208D0
:1036BC00DB740912181DE9F50B709B9002F212379E
:1036CC005860030235C8E4F512F5137812121A8A01
:1036DC007CFF7DFF790F850E82850F8312372912AF
:1036EC000845740212181D12375E60030235C812A9
:1036FC003733123A620236757CF17D02850E828573
:10370C000F831237291204BBE96003023668790073
:10371C00023675AC0CAD0D850A82850B8312372DE4
:10372C0022E0FAA3E0FB22123743E0FAA3E0F9EA25
:10373C0085148285158322850C82850D83E02EF8F5
:10374C00A3E03FF988828983229002EF12485BE85C
:10375C004922123768F8A3E0F9E849229002F2EA0C
:10376C00F0A3EBF09002F2E02274E812187774FAEE
:10377C00121807740412185312336B8C168D1774AD
:10378C0004121853E02405F50EA3E03400F50F7471
:10379C0004121853E02402123A001237291205873A
:1037AC008A0A8B0B7F007E00A818A9198808890942
:1037BC007808121A8A850E82850F83A3A3A3A3E02F
:1037CC00F5088E097808121A8AE50E2405F508E426
:1037DC00350FF5097808121A8A850E82850F83A396
:1037EC00A3123A3012076D740612181D8A0C8B0D39
:1037FC008029123A21F00F123A21F00F9002EE12AA
:10380C003D6C121A8A1246BAEFF81239F412129B56
:10381C00740212181D9002EEE02FFFE50C450D709E
:10382C00030238B0851882851983123EA2A3A3A384
:10383C00E0F985148285158312372912075BE9FE9E
:10384C00E50C2404F510E4350DF511EE70507404FC
:10385C00121853123A27F5087808121A8EE4F50854
:10386C00F5097808121A8A7508EE7509027808129B
:10387C001A8A9002EF121AA17407121853121AA185
:10388C00E50A24FAF9AC0CAD0D851482851583126A
:10389C0037291208DB740912181DE9FE6039123A37
:1038AC003D123D80EF70030239D79002F2E0F5F043
:1038BC00EF849002F1F07CF17D02851482851583F2
:1038CC001237291204C1E960099002F31237291248
:1038DC00131F79000239EA8F08EF703BE4F512F5FB
:1038EC00137812121A8A7CFF7DFF79118514828558
:1038FC001583123729120845740212181D123A4DFD
:10390C007009123A3D123A610239EA9002EEE02453
:10391C00049002F2F080359002EEE0F89002F2E0B2
:10392C00FAE82404FCE43400FDEC6A4D6003023830
:10393C00B6E50A24FAFAE50B34FFFBE50828F8E4AF
:10394C003400F9EA98EB9950030238B68510828559
:10395C001183E0C0E09002F3E02FF8A3E03400887C
:10396C0082F583D0E0F00F851082851183A3E0C02F
:10397C00E0123A0ED0E0F00F740212185D8808893C
:10398C00097808121A8A7402121853121AA1850E99
:10399C0082850F8312335F120779740412181D8A03
:1039AC000C8B0DEA450D70030237FE74021218538E
:1039BC00E0C0E0123A0ED0E0F00F7402121853A3DC
:1039CC00E0C0E0123A0ED0E0023806EE70027E0A39
:1039DC00850E82850F83123A43123D80EEF97406F0
:1039EC0012181D7F100219499002F3E028FAA3E087
:1039FC003400FB22F514A3E03400F515851482F590
:103A0C008322123A12229002F3E02FFAA3E0340040
:103A1C008A82F58322123A1274FF22123B8FA3A3DF
:103A2C00A3A3E02212494C850E82850F8312372DF9
:103A3C002285108285118312485B85168285178337
:103A4C00229002F3EAF0A3EBF09002F312485BE849
:103A5C004922123D86E8F0A3E9F079112274EA12AA
:103A6C00187774FE1218078A088B098C128D13EACA
:103A7C002405FEE43509FFAC18AD198E828F831234
:103A8C0037291207738A0C8B0DEE2406F50EE43FD2
:103A9C00F50FEA450D7003023B61E5082402F50AB7
:103AAC00E43509F50B8A828B83A3A3A3E0A2E5502E
:103ABC00288518828519831237291208CF8A108B12
:103ACC0011EA45116020791212371F851082851179
:103ADC0083121875E9F50C707F850E82850F83E0D3
:103AEC00600979528011750C0E806D8508828509EC
:103AFC0083A3A3A3A3E0F9E4F508F5097808121A47
:103B0C008A8E828F83A3A3E0F5087808121A8A8E16
:103B1C00828F83A3A3A3121AA18E828F831246BD18
:103B2C001237231208E1740612181DE9F50C7011F6
:103B3C00850E82850F83E0702D1237231204C78007
:103B4C00257416650C7011750C007418121853122C
:103B5C003B8BE48010750C0112485385128285133F
:103B6C0083E8F0A3E9F0850E82850F83E060047989
:103B7C00008002A90C740212181D7F0E0219491242
:103B8C003B8F22E0F8A3E0F58388822274EC1218B4
:103B9C007774F71218078A0A8B0B8C108D11EA2494
:103BAC0005FEE4350BFF750C00AC18AD198E828F39
:103BBC00831237291207738A088B09EA45097003A7
:103BCC00023D57E50A2402F50A5002050B8A828B46
:103BDC0083A3A3A3E0A2E5502F8518828519831235
:103BEC0037291208CF8A0C8B0DEA450D604F7912DC
:103BFC00AC08AD09123723850C82850D831218751C
:103C0C00E9F50C6003023D5A850A82850B83E0F5C9
:103C1C0008A3E0F509AA08FB1208C3EA4B70197A4D
:103C2C00FF7BFF1208C3EA4B7003023D4D8A828B67
:103C3C0083E508F0A3E509F07508008008750C0E03
:103C4C00023D5A05089002EBE0F8E508C3984003E2
:103C5C00023D4D85080E750F007403780E1217F493
:103C6C008A828B83A3A3E0250EF8A3E0350F1241C3
:103C7C002170D08E828F83123D7512336B8E828FA2
:103C8C0083A3A3123D75123369EE2404F508E43FB7
:103C9C00F509850882F583E088828983A3A3A3A311
:103CAC00F0A3E4F0EE2405F50EE43FF50F850E824B
:103CBC00F583123D75A3A3A3A3123369751207757F
:103CCC0013007812121A8AEEFCEFFD7404121865B8
:103CDC0012129B740212181DE4F5127812121A8A31
:103CEC00850882850983E0FC7D0079171237231241
:103CFC000845740212181D740712185312336B7492
:103D0C0007121853E0FA4B603D850882850983122F
:103D1C003D6C121A8A850E82850F831246BD1212D3
:103D2C009B740212181D740212186D1237231204A0
:103D3C00CDE96026740712185312372912131F800D
:103D4C0019750C098008750C118003750C0112484B
:103D5C0053851082851183123D80A90C740980282B
:103D6C00E0F50875090078082212372D88828983BE
:103D7C0022123D86E8F0A3E9F022E0F8A3E0F985F1
:103D8C000E82850F8322740412181D7F0C021949B0
:103D9C0074EC121877123E90751000EE2402F50C9C
:103DAC00E43FF50D850C82F5831237291208C38A7E
:103DBC00088B09EA45097003023E74850A82850B5B
:103DCC0083E064016003023E69AC08AD09AA0AAB4A
:103DDC000B1208B7E9606E8508828509831230F6EC
:103DEC00EE2406F50AE43FF50B8E828F83A3A31213
:103DFC001AA18E828F83A3A3A3A3121AA1850A8270
:103E0C00850B83121AA179188E828F83123EA2120F
:103E1C0037291208E1740612181DE9F87416687037
:103E2C000B850A82850B83E4F0A38014E860128E64
:103E3C00828F83123729850E82850F83EAF0A3EBDC
:103E4C00F088108018780E121A8AAC08AD09EEFAB8
:103E5C00EFFB1208BD740212181DE9F510AA08AB8D
:103E6C00091208C9E510700E850C82850D83123776
:103E7C00291204D38009741665107003751000A9FB
:103E8C0010023D97EAFEEBFF8C0E8D0FEE2405F52C
:103E9C000AE43FF50B2212494C850C82850D8322D6
:103EAC0074EA1218777508007509007E007F00759A
:103EBC000A00EC2402F510E43DF5118035EC6508A0
:103ECC007003ED65096003023F6188828983A3A3B7
:103EDC00E06A7003A3E06B707C88828983A3A3A340
:103EEC00A3124857EE28FEEF39FFEA28FAEB39FB0C
:103EFC00050A124031503A850A0C750D007403788E
:103F0C000C1217F485108285118312402412412162
:103F1C00601FE508450970A58C088D098882898386
:103F2C001230F488828983A3A3E02EFAA3E03F80A9
:103F3C00BEE50AC39402500302401F7508007509C0
:103F4C0000EE4F6010EEFAEFFB1213198A0E8B0F76
:103F5C00EA450F70057900024021750B00023FF411
:103F6C00850B0C750D007403780C1217F4851082F8
:103F7C00851183E0250CF50CA3E0350DF50DE50C52
:103F8C002406F514E4350DF515851482F5831241DC
:103F9C00266042E50C2404F512E4350DF513851268
:103FAC0082F583121AA1E50E2508FAE50F3509FBF7
:103FBC0012129B740212181D851282851383E02540
:103FCC0008F508A3E03509F50985148285158312D7
:103FDC00372912131FE50B600D7C087D007900AAB0
:103FEC000CAB0D1212B3050BE50BC3950A50030273
:103FFC003F6C85108285118312485788828983A370
:10400C00A3A3A3A3A3E50EF0A3E50F122C87EEF058
:10401C00A3EFF07901023B8612402822E0250CF830
:10402C00A3E0350D229002EBE0F8E50AC398227468
:10403C00F01218778A0E8B0F8C0A8D0B750D00758C
:10404C000C0080507916EE2406F508E43FF5098E35
:10405C00828F83A3A3121AA18E828F83A3A3A3A3FF
:10406C00121AA1850882850983121AA1850E8285F0
:10407C000F83A3A31237291208E1740612181DE945
:10408C00F50D7416650D706C850882850983E4F056
:10409C00A3F0050C9002EBE0F8E50CC3985066AA6F
:1040AC000C8A08750900740378081217F4850A82C3
:1040BC00850B83A3A3124170E8FEE9FF8E828F83E8
:1040CC001241266040EA2401F508E43400F5099019
:1040DC0002EBE065087002E509601488828983A30D
:1040EC00A3A3A3A3A3A3A312375860030240507940
:1040FC0018024052E9609B12485374101218531264
:10410C004118123D80A90D7F08021949E0FAA3E07D
:10411C00F5838A8222F98882898312494CEC4D22DC
:10412C0074F61218777C0080010C900348E0F8ECD0
:10413C00C398501E8C08750900740278081217F485
:10414C00124165E06A7003A3E06B70DDE8FAE9FBED
:10415C0080047A007B000242089002E912417088C8
:10416C0082898322E02508F8A3E03509F92274F24C
:10417C001218778A088B09750A0080278E828F8324
:10418C00A3A3A3A3122C7E600312131F7C087D0033
:10419C007900EEFAEFFB1212B38E828F83E4F0A358
:1041AC00F0050A1240315027850A0C750D00740376
:1041BC00780C1217F4850882850983A3A3E0250CDB
:1041CC00FEA3E0350DFF8E828F8312375870AD85BC
:1041DC00088285098374FFF0A3F002494074F6123B
:1041EC0018771208758A828B83E582458370067A6C
:1041FC00007B008007A3A3A3A31237297F02021917
:10420C004974F412187789088C828D83E0640270EB
:10421C003C1247F6FEA3E0F9EEF8740268700374E2
:10422C0029697029750A02750B00780A121A8A74AA
:10423C0010121853121AA17410121853121AA1A9A1
:10424C00081211B7740612181DE9F98002790102DF
:10425C002CBB74E812187774FB121807E9851882C6
:10426C00851983F08A168B17ECFEEDFF7510008E06
:10427C00828F83A3A3A3E0A2E4502D741D121853C4
:10428C001237291208CF8A828B83E582458370030B
:10429C00024695790AEEFCEFFDAA16AB17121875BB
:1042AC00E9F5106003024698741F121853E0F508E4
:1042BC00A3E0F5097421121853E0F50AA3E0F50BFD
:1042CC007423121853E0F50EA3E0F50F8E828F8342
:1042DC00E064026003024636A312485785088285C3
:1042EC000983A3858212858313EE2406F50CE43F23
:1042FC00F50D888289831246D5F514E439F51578C5
:10430C0014121B140100002801283843070002284E
:10431C00FD4303286B4300292C45012957450229ED
:10432C00F84403292C450429D0453646E50E450FA3
:10433C006003024631850C82850D83124857E8FADA
:10434C00E9FB8A828B83E0850A82850B831246E027
:10435C00121A8A8A828B83A3E0FCA3E00245BAE599
:10436C000E450F6003024631850A82850B8374016A
:10437C00F01246CA850882850983F07C007D008E88
:10438C00828F83A3A3A3A3E02401FAA3E03400FB50
:10439C00120773EA4B60408A828B83E02402F88513
:1043AC000A82850B83E028F0EA2404F8E43BF988C0
:1043BC00828983E08512828513831246EE1246E0D1
:1043CC00121A8A8A828B83A31246BDE5082403FA4B
:1043DC00E43509FB0245BF850A82850B83E0240482
:1043EC00F07C047D007900AA12AB131212B30246C2
:1043FC0098E50E450F60030246311246CAFEA3E053
:10440C00FF850A82850B837404F0EE85088285098A
:10441C0083F0EF851282851383F0740312186DEE0E
:10442C00FAEFFB1207738A0C8B0DEA450D70030231
:10443C0044DB8A828B83A3A31230F4740112185DBF
:10444C00880E890F780E121A8A7405121853121AD4
:10445C00A17CFF7DFF120779740412181D8B0FEAE3
:10446C00450F7033850C82850D831246C1121A8A52
:10447C00850C82850D83A3121AA17C027D007A0A19
:10448C007B82120575740412181DE9700A740112EE
:10449C00185374FFF0A3F08E828F83E0640270399E
:1044AC00750C02750D00780C121A8A8E828F83A3FC
:1044BC001246BDE5082404FAE43509FB12129B747C
:1044CC000212181D850A82850B83E0240280097470
:1044DC0001121853EEF0A3EFF074011218531246A8
:1044EC00AF74011218531246A602462BE50E450F67
:1044FC006003024631850C82850D83124945AA164C
:10450C00AB171211BD850A82850B837402F08508E6
:10451C0082850983EAF0851282851383EB02462E8D
:10452C00E50E450F60030246311246CAF8A3E0F9C6
:10453C00850A82850B837402F0E8850882850983DD
:10454C00F0E985128285138302462E850C82850D37
:10455C0083123729121295EAFAF8C3950EE4950FD7
:10456C00405CE8650E450F70047A00802185188246
:10457C00851983E0FCE50E2CFCE4350FFDC3EC98AB
:10458C00ED94005003E08005E50ECAC39AFAEA8563
:10459C000A82850B83F08A0A750B00780A121A8A34
:1045AC00850C82850D83E0250EFCA3E0350FFDAA5A
:1045BC0008AB0912129B740212181D024698751052
:1045CC0007024698E50E450F705B850C82850D83BE
:1045DC00124857850A82850B837407F08882898379
:1045EC001246A712469FE0851282851383F0E824B9
:1045FC0002FAE439FB8A828B831246AF8A828B8360
:10460C001246A6A3A3122C861246B4F0E82405F891
:10461C00500109888289831246B4A31246EEA3A3E3
:10462C00A3A3F0806775100B8062741D12185312CF
:10463C0037291208758A828B83E5824583604A127A
:10464C004857880C890DE8450D603E7425121853A7
:10465C00E0F5107810121A8E780E121A8A780A1257
:10466C001A8A7808121A8A7407121853E0F9EEFCA9
:10467C00EFFDAA16AB17850C82850D831218757485
:10468C000712181DE9F510800375100EA91074059A
:10469C000239ECF088828983A322A3E08508828505
:1046AC000983221246F5F0221246F5A3A3229002AA
:1046BC00EF12494C22E0F50E750F00780E22850C96
:1046CC0082850D83123B8FE022E0FAA3E0F8E4C868
:1046DC00F9EA2822F08A828B83E0F50A750B0078C0
:1046EC000A2212469F1246F522E08508828509832C
:1046FC00A3A32274EE12187774FE1218078A088B83
:10470C0009ECFEEDFF890AAC18AD19EEFAEFFB12BD
:10471C0007738A0C8B0DEA450D70030247E7851869
:10472C00828519831237291208758A828B83E58258
:10473C00458370030247E2A3A3124857880E890FE2
:10474C00E8450F70030247E27414121853E0F51099
:10475C00A3E0F511E50AF50B780B121A8E741912F9
:10476C001853121AA17810121A8A741B121853E0DB
:10477C00F9AC0CAD0DAA08AB09850E82850F83121E
:10478C001875740512181DE9F50B705274FE650A44
:10479C00604C850C82850D83E0640270411247F6F3
:1047AC00FAA3E0F9EAF87402687003742969702EB0
:1047BC008510828511831246D5F50CE439F50D78F8
:1047CC000C121A8AEEFCEFFDAA08AB091208F97458
:1047DC000212181D8008750B0E8003750B01A90BB6
:1047EC00740212181D7F0A021949A312485B8882B1
:1047FC008983E02274F612187774FE121807740C71
:10480C00121853124857E8851882851983F07401E1
:10481C00121853E9F0E4F508F5097808121A8A75AC
:10482C0008027808121A8A740412185D880889091B
:10483C007808121A8A79FE1208E1740612181D748F
:10484C000212181D0242088E828F8312485B22E0EE
:10485C00F8A3E0F92274F7121877EAFEEBFF890847
:10486C009003061246BD1211BDEA5402600BA90852
:10487C00EEFAEFFB120767800279017F01021949FA
:10488C0074F212187774FE121807EAFEEBFF890A0D
:10489C007401650A60147402650A600302493B796D
:1048AC0001120B03E9600302493BEEFAEFFB12081D
:1048BC00C3EA4B60031208C9A818A919880889090A
:1048CC007808121A8A7508027509007808121A8A73
:1048DC007508027509827808121A8A7CFF7DFF7AA6
:1048EC00017B0012076D740612181D803885088232
:1048FC00850983A3A3A3A3A3A3124945EEFAEFFB57
:10490C001211A5E4F50CF50D780C121A8A7402122A
:10491C001853121AA17CFF7DFFAA08AB0912077964
:10492C00740412181D8A088B09E508450970BE74B9
:10493C000212181D7F06021949123B8F12494C2294
:10494C00E0FCA3E0FD2274F41218778A088B09ECC2
:10495C00FEEDFF901602E0F4604B7A097B00121218
:10496C00BFEA4B60408A828B8374B1F0A3E4124996
:10497C00B4F08A828B83A3A3E508F0A3E50912495E
:10498C00B4A3EEF0A3EFF0740C1218531248578A2C
:10499C00828B83A3A3A3A3A3A3A3123D809016028F
:1049AC00E0F91212CB022CBBF08A828B83A3A3A357
:1049BC00A32274F012187774FA1218078909ECFE06
:1049CC00EDFF7508008A0A8B0B780A121ACE0004C8
:1049DC0010E44B014A1F4A394A514A6F4A874AAA86
:1049EC004AC24AD64A004B7B4B8C4BA34BBE4BE482
:1049FC004BE44B164B740165096003024BDF8E824E
:104A0C008F83E0F8C394034003024BDFE89016EE6B
:104A1C00024BBB740265096003024BDF8E828F83ED
:104A2C001253429016EFE8F0A3E9024BBB740165F8
:104A3C00096003024BDF124C0C4003024BDFE89081
:104A4C000749024BBB740165096003024BDF8E8280
:104A5C008F83E0F8C394054003024BDFE890074ACC
:104A6C00024BBB740165096003024BDF124C0C4016
:104A7C0003024BDFE890074B024BBB7410650960D7
:104A8C0003024BDF750A10750B00780A121A8A7A2A
:104A9C004C7B0712129B740212181D024C057401F8
:104AAC0065096003024BDF124C0C4003024BDFE83C
:104ABC0090075C024BBB740165096003024BDF8EEF
:104ACC00828F83E09016F2024BBB7404650960037D
:104ADC00024BDF8E828F83780C1216CB9081DF789D
:104AEC000C1214FE5003024BDF90075E780C12166A
:104AFC00DA024C05E96003024BDF12070DE9700581
:104B0C0012116980559007F1806174076509600383
:104B1C00024BDF750A06750B00780A121A8A8E8210
:104B2C008F83A3AC82AD8374021218651212A17428
:104B3C000212181D7C007D00AA18AB198E828F837F
:104B4C00E0F9121115E9FEC3940A4003024C02125B
:104B5C00070DE9700CEEF912116F79501213DF800A
:104B6C006D74F22EF582E43407F583740180407481
:104B7C00016509705E124C0C5059E890075D802F4E
:104B8C0074016509704D8E828F83E0F8C3940A50CE
:104B9C0042E89016F180187401650970368E828F88
:104BAC0083E0F874F928C3940A5028E89016F3F0BF
:104BBC00804774016509701B9007F0E0F88E828FB6
:104BCC0083E09007F0F0E87030E06401702B121174
:104BDC005D80267508188021C3EA9427EB94005059
:104BEC001574026509700F8E828F83125E22120576
:104BFC008DE9F5088003750802A9087406024F3088
:104C0C008E828F83E0F8C3940222A90880031218C5
:104C1C001D7F0402194974F012187774B112180729
:104C2C008C0A8D0B90813E742012186D740612172D
:104C3C001A742012186D121115E9FF745F121853B3
:104C4C00E0F509EFC3940A4003024DA475F006EF9A
:104C5C00A4F508744112186D7A0E74202508F91207
:104C6C0013D9E97009744D121853E0FE80027E00CE
:104C7C009016EEE064027005750E018003750E004F
:104C8C007408650970047422800274212508F50DDE
:104C9C007C1B7D00790074261218651212B37426E1
:104CAC0012186D7A1BA90D1213D9E9702D744012CC
:104CBC001853E024F9C3940A5020E50EF50D780D35
:104CCC00121A8E742712186DEEA2E0E433F9AA0AB8
:104CDC00AB0B12062F740112181D7C147D00790089
:104CEC00740C1218651212B3740C12186D7A1074BD
:104CFC00242508F91213D9E970347C1079FF740C4F
:104D0C00121865121313E97025741C121853AC8217
:104D1C00AD837A0474252508F91213D9740C121872
:104D2C006DEEA2E0E433F9AA0AAB0B120617AC182D
:104D3C00AD197A0C74702FF91213D9E97049AA18AD
:104D4C00AB191211457F00EF75F003A4F8A9F0859B
:104D5C001882851983E58228F8E5831254F91256D6
:104D6C00DA601D88828983A3A3E0F50E750F0078A5
:104D7C000E121A8AAA0AAB0B1208E7740212181D3B
:104D8C000FEFC3940440C0EEA2E1500C900748E032
:104D9C00F9AA0AAB0B1208ED740465097028901679
:104DAC00EEE0640270207A0090075CE060027A0109
:104DBC00900749E06004780480027800E84AF9AA78
:104DCC000AAB0B1206E37900744F024F3074F712E2
:104DDC00187712070DE9704F9007F1E06401701518
:104DEC001211699007F1E4F07C0AFDF97AF27B0765
:104DFC001212B3802A750800A80874F228FEE43455
:104E0C0007FF8E828F83E06401700BA90812116F6B
:104E1C008E828F83E4F00508E508C3940A40D979A3
:104E2C00501213DF12115D02581174F012187774BE
:104E3C00F0121807EAFEEBFF8C088D09750A0AE9D7
:104E4C00600C14600914603B14607D024F2C12112D
:104E5C0057E9F50AC3940A4003024F2CE5084509AB
:104E6C007003024F2C750C06750D00780C121A8A03
:104E7C00EEFCEFFDAA08AB0912129B740212181D6E
:104E8C00024F2C750C00750E06750F00780E121A59
:104E9C008AEEFCEFFDE50C75F00EA4F8A9F0746A2F
:104EAC0028FA740739FB1212AD740212181DE9703E
:104EBC000B050CE50CC3940A506680CA850C0AE5F8
:104ECC000AC3940A505A8049750C00AC18AD197A73
:104EDC001075F006E50CA42423F91213D9E9701C03
:104EEC007C1079FFAA18AB19121313E9700EEEFCA3
:104EFC00EFFDAA18AB191205F3E9600B050CE50CD4
:104F0C00C3940A501B80C4850C0AE50AC3940A504A
:104F1C000FE50845096009AA08AB09A90A12115145
:104F2C00A90A741012181D7F0802194974F412187A
:104F3C0077890975081574FF6A700374FF6B702705
:104F4C007E00AC097A027B00EEF9121133E96003A2
:104F5C007508000EEEC3940A40E8E50960537A81A7
:104F6C007B11120B27804A120AF78A0A8B0BAE0AA6
:104F7C00AF0BEE4F60387C007D00EE2405FAE43F69
:104F8C00FB8E828F83A3A3A3A3E0F9121115E9F979
:104F9C00C3940A500CAC097A027B001211337508C9
:104FAC0000E509600CEEFAEFFB1211818003750825
:104FBC0014024C1674F2121877ECFEEDFF750815FE
:104FCC00740E121853E0F50AA3E0F50B74FF6A7027
:104FDC000374FF6B7021750900AC0AAD0BEEFAEF90
:104FEC00FBA909121139E960037508000509E509E7
:104FFC00C3940A503F80E2120AF78A828B83E582BF
:10500C004583602D7C007D00E5822405FAE4358320
:10501C00FBA3A3A3A3E0F9121115E9F9C3940A5059
:10502C0013AC0AAD0BEEFAEFFB12113975080080C8
:10503C0003750814A9087F06021949C082C0839021
:10504C000762EAF0A3EBF0900748E0FC7D007A26BB
:10505C007B0012058D900748E0F9120851025B2B7A
:10506C0074EE12187774EC1218078A088B09EA246C
:10507C000CF510E43509F5118A828B83A385820C1B
:10508C0085830DEA2405F50EE43509F50FEA2409AC
:10509C00F50AE43509F50BEA2403FEE43509FF8A29
:1050AC00828B83A3A3E024FA700302533024FD7097
:1050BC000302525014700302514A14601024FD7004
:1050CC0003025233147003025288025336125E28C4
:1050DC006044E0F5838882125342880C890DE845C0
:1050EC000D6033851082851183E0F50E780E121A4F
:1050FC008EEA240BF582E43509F583E0F9125E1C87
:10510C000A0A0AEFFB850C82850D8312187574014F
:10511C0012181D025336850A82850B83121AA19030
:10512C00075E1216E9120629740212181DE97003A3
:10513C000253367901850A82850B83025300750A66
:10514C0000850C82850D83E06003025200850E827F
:10515C00850F83E0A2E040030252009007FC125E30
:10516C002B60030252007C0E7D007900AA18AB194B
:10517C001212B3851082851183125AF6EA4B601015
:10518C00750A06750B00780A121A8AEA2410801B1D
:10519C00125AF2120AF7EA4B7003025336750A06DA
:1051AC00750B00780A121A8AEA2405FCE43BFD749C
:1051BC000212186512129B740212181D850E82853C
:1051CC000F83E0A2E25004D2F08002C2F0A2F0E41D
:1051DC0033F8740C121853125CAA12114BE97011AB
:1051EC007A027B00900748E0F91212EF7900025323
:1051FC0038750A15125E2870030253361253577015
:10520C0003025336850C82850D83E0FC7901125321
:10521C0048121875E50A7003025336FC7903125ACA
:10522C00F2125AAD02532B125E287003025336123F
:10523C0053577003025336850C82850D83E0FC793D
:10524C00020253287C007D00EA2404FAE43509FBB1
:10525C008E828F83E0F9121115E9F8C3940A40038A
:10526C00025336E508240AFCE43509FD7A0475F08E
:10527C0006E8A42425F91213D3025336125AF290DD
:10528C00075DE060079016F1E0F9806B9016EEE098
:10529C00700479058061120AF78A0C8B0DA80CA991
:1052AC000DE8497003025336E82404F50CE439F593
:1052BC000D850882850983A3A3A3A3A3A3A3E0A2BE
:1052CC00E05039850C82850D83E0F508602E850A47
:1052DC0082850B83A3E054027022740E12186DE8C1
:1052EC002405FAE439FBA908121115E9700E7903AB
:1052FC008E828F83125AF6120623802EAC0EAD0FBF
:10530C00850C82850D83E0F9125AF212118D125E12
:10531C0028601712535760127C0079001253481200
:10532C0018758006125AF212110F790174141218A2
:10533C001D7F0A021949E0F8A3E0F9228E828F83BF
:10534C00E0FAA3E0FB888285098322125ABBF98913
:10535C0009E845092274F512187774F2121807EA55
:10536C00FE8C0A75F006E9A42420F508AC18AD19DA
:10537C007A0EF91213D9E970467C0679FFAA18AB9C
:10538C0019121313E97038740C121853125AF6EAE6
:10539C00F8E50A6005EEC8488004EEF4C858F8EA4F
:1053AC00687001EB6015740C121853E8F0A3E4F06C
:1053BC00AC18AD197A0EA9081213D37901800279B1
:1053CC0000740E12181D7F0302194974F21218771B
:1053DC0074E6121807890A8A088B09ECFEEDFF7433
:1053EC000C12186D7A0E75F006E9A42420F912132C
:1053FC00D9E960030254BC7C0679FF740C12186561
:10540C00121313E960030254BC7470250AF50BAC3B
:10541C0018AD197A0CF91213D9E960030254B8AA21
:10542C0018AB19121145E5084509701D7C0C790063
:10543C00AA18AB19121313E970727C0C7D00790059
:10544C00AA18AB191212B38051AC18AD19AA08AB3B
:10545C000912113F8A0C8B0DA80CA90DE84970227A
:10546C00EE4F604CAC18AD197A007B0012113FEA7C
:10547C00F8EBF9EA4B603988828983E508F0A3E5FB
:10548C0009F0125535FAEE6A7001EF601FEEF04F1D
:10549C00700888828983E4F0A3F0AA18AB19121162
:1054AC0045AC18AD197A0CA90B1213D379018002F3
:1054BC007900741A12181D02504274F71218777E74
:1054CC0000EE75F003A4F8A9F0EC28F8ED1254F9ED
:1054DC00E06A7003A3E06B7006E8FAE9FB800B0E40
:1054EC00EEC3940440DB7A007B0002581139F98832
:1054FC008289832274F71218777C00EC75F003A470
:10550C00F8A9F0EA28F8EB1254F9E0F4FEA3E0F461
:10551C00FF88828983EEF0A3EFF0125535F4F00C7E
:10552C00ECC3940440D5025811E82402F582E43906
:10553C00F583E02274F412187774F4121807EAFE5B
:10554C00EBFF8C088D099007FC125E2B704FEE4F11
:10555C0070030256B9EC450970030256B912115783
:10556C00E99016F4F0C3940A4033750B007C06796D
:10557C00FFE50B75F00EA4FAABF074642AFA74070D
:10558C003BFB121313E9600302561A050BE50BC320
:10559C00940A40D9750A0AE50A9016F4F09016F4AC
:1055AC00E0C3940A40030256B975F006E0A4FB90E0
:1055BC0007FC125E2B705CEEFCEFFD7A0E74202B58
:1055CC00F91213D37C0C7D0079FFAA18AB191212B7
:1055DC00B3AC18AD197A0C9016F4E02470F91213D0
:1055EC00D3750A0E750B00780A121A8AEEFCEFFDC1
:1055FC009016F4E012577212129B740212181D903E
:10560C0007FCE508F0A3E509F079000256BB850B11
:10561C000A8084E0C824061256D460197A1B7421BF
:10562C002BF91213D31256C02406F582E438F583F5
:10563C00E4F0A380D31256C0240A1256D460107A18
:10564C001B74222BF91213D31256C0240A80DB12BE
:10565C0056C0240C1256D460107A1074232BF912F5
:10566C0013D31256C0240C80C11256C91256D460E2
:10567C00307A1074242BF91213D31256C9F582E424
:10568C0038F583E02410FCA3E03400FD7A0475F0B7
:10569C00069016F4E0A42425F91213D31256C980EF
:1056AC00899007F0E060031211931211877901744D
:1056BC000C024C1A9007FCE0F8A3E0C8229007FCFF
:1056CC00E0F8A3E0C8240822F582E438F583125EE2
:1056DC0022EC4D2274F412187774F2121807EAFEB9
:1056EC00EBFFE9C3940A5004EE4F70047902803446
:1056FC00AC18AD197A0E75F006E9A42420F9121332
:10570C00D9E9F508701C750A06750B00780A121A8F
:10571C008A740212186DEEFAEFFB12129B740212CD
:10572C00181DA908740E024C1A74F4121877EAFEAC
:10573C00EBFF750800750A06750B00780A121A8AB9
:10574C00EEFCEFFDE5081257721212AD740212183E
:10575C001DE96004A908800B0508E508C3940A40FC
:10576C00D4790A024C1D75F00EA4F8A9F0746428C3
:10577C00FA740739FB2274F7121877750800E508DC
:10578C0075F00EA4F8A9F0746428FE740739FFEEC6
:10579C00FCEFFD7A0E75F006E508A42420F912132F
:1057AC00D9E960297C067D0079FFEEFAEFFB121235
:1057BC00B37C067D0079FFEE2CFAE43FFB1212B3AA
:1057CC00EE240CF582E43FF583E4F0A3F00508E544
:1057DC0008C3940A40A89007F0E0600312119312DA
:1057EC001187802174F71218777E007F007C06EFFA
:1057FC0012577279FF121313E970010E0FEFC39455
:10580C000A40EAEEF97F0102194974F71218777E03
:10581C0000EEF912116FE9F90EEEC3940A5003E988
:10582C0060EF80E174F312187774CB1218078908B3
:10583C009016F4E06508701B7A017B00900748E035
:10584C00F91212F57A027B00900748E0F91212F572
:10585C0012119F75F006E508A4FF74202FFE742723
:10586C0012186D7A0EEEF91213D9E9600302593849
:10587C007C0679FF7427121865121313E960030272
:10588C0059387C0E7D0079FF74271218651212B3FB
:10589C007C1B7D0079FF740C1218651212B37C0C02
:1058AC007D0079FFAA18AB191212B3742712186D68
:1058BC007A0EEEF91213D3E9FE740C12186D7A1BE2
:1058CC0074212FF91213D3E9F509740C12186D7A9F
:1058DC001B74222FF91213D3E9F50A740C12186DEC
:1058EC007A1074232FF91213D3E9F50B740C1218D8
:1058FC006D7A1074242FF91213D3E9F50C740C1271
:10590C00186D7A0474252FF91213D3E9FFAC18AD76
:10591C00197A0C74702508F91213D3E9F8E50945C6
:10592C000A450B450C4F48CE4EFE80027E00EEF928
:10593C00743512181D7F0502194974F7121877E98E
:10594C00900748F012115D02581174F2121877EAA0
:10595C00FEEBFF54807003025A15900748E0F912D1
:10596C0012D78A088B09EA45097003025A0E7A018C
:10597C00E5082405F50AE43509F50BE5082404F8D7
:10598C00E43509F9880C890D8508828B83E0245055
:10599C00603614600624E16058805D88828983E05B
:1059AC0070598508828B83A3A3A3A3A3A3A3121A64
:1059BC00A1125E1C8508828B83A3A3125AF61211C6
:1059CC0021740212181D803388828983E0641E7052
:1059DC000F79008508828B83A3A3125AF612111B30
:1059EC00850C82850D83E0F9AA0AAB0B12084B805B
:1059FC000AAA0812112DE9FAEA6007AA08AB0912E3
:105A0C0012C5EEFAEF6480802AEE54026028EE6430
:105A1C0002FE7C007D007A007B0012114BE96004D1
:105A2C007A0180027A027B00900748E0F91212EFAB
:105A3C00EEFAEFFB8068EEA2E050556401F508EF3A
:105A4C00F509125ACB121199E96033125E286029BC
:105A5C00125AC3125342E8FEE9FFEE4F601B7C0062
:105A6C007901125ACB8E828F831218757C007903C0
:105A7C00125ACB125AAD12187512119F800C7A0162
:105A8C007B00900748E0F91212EFAA08AB09800ED0
:105A9C0054046006EE6404FA80047A007B00025021
:105AAC0042900762E0F8A3125ABBF5838882221257
:105ABC005AC3E0F8A3E022E0F5838882A3A32290E6
:105ACC0007FC125E0CE0FAA3E0FB227F02021949EC
:105ADC00C082C083900748E0F98A828B83A3125A54
:105AEC00F61208ED80398E828F83E0FAA3E0FB2258
:105AFC00C082C08374FF121807121163E9C39402A9
:105B0C00851882851983400474028002740AF0ACF3
:105B1C0018AD197A01790512072B740112181DD0D2
:105B2C0083D08202013274F012187774E8121807CD
