:020000040000FA
:0600000002010702233D8E
:03002B0002276940
:03003B0002278E0B
:0300430002274150
:03004B0002280880
:030053000223B3D2
:03005B0002290770
:10008300022193E5C754F84401F5C7790122000022
:100093000080FB120086B900030200F1E4792178A5
:1000A30008B800028004F709D8FCE479297802B87B
:1000B30000028004F709D8FCE4900281783D7916A8
:1000C3008002F0A3D8FCD9FA7ABD7B179001377868
:1000D3000879048015E493A3AD82AE838A828B836F
:1000E300F0A3AA82AB838D828E83D8E9D9E7758288
:1000F3009D7583E1740312011975829175830074F0
:100103000012011975D00075813F751881751902A8
:10011300759F00020096C09FF59FE473D09F22D085
:1001230083D082C09FE493C0E0740193C0E0740263
:1001330093F59F22FF0000B4000028002800283018
:1001430075A000A000A000A00000080008E001F0D6
:10015300001000100010001000100010005000509C
:1001630000500010001000D0070000000000000F36
:100173000001000500307507001000010081FF0039
:10018300000000FFFFFF60067E066606A206FF0270
:10019300020208025000A0000000E80302E5820109
:1001A30000001D8202E182010000181802DB8201B7
:1001B3000000BF0202E182010000191802D7820188
:1001C3000000D50202E1820100001A1802D982015F
:1001D3000000D70202E1820100001B1802E382083B
:1001E3000000D80202E1820100001C1802F3820120
:1001F30000001D18FF0100FF2002E582010000CE70
:100203008202E182010000811802058300000000E0
:100213000002DD82030000060317000E0D0E0D0E13
:100223000D0E0D0E0D0E0D0E0D0E0D0E0D0E0D0EF3
:100233000D0E0D0E0DB40FC60FAE0F020202020219
:1002430002020202010D000000100102E58201001A
:1002530000D18202E182010000C41802ED82010094
:1002630000400702E182010000C51802F582010087
:1002730000958102E182010000C618021383010088
:1002830000798102E182010000C7180203830100A3
:1002930000278102E182010000C8180201830100E6
:1002A30000F18002E182010000C91802FF8201000F
:1002B30000038102E182010000CA1802FD820100ED
:1002C30000158102E182010000CB1802FB820100CC
:1002D30000878102E182010000CC1802F98201004B
:1002E30000CD1801E8030577100AFFFFFF00013076
:1002F300750302010600000000000000000000007A
:1003030000000000000000000000000000000000EA
:1003130000FFFF0600800CE803140953696D706C3D
:1003230065424C455065726970686572616C05126F
:1003330014001400020A000201060302F0FF5369CD
:100343006D706C6520424C4520506572697068651C
:1003530072616CBE140000CA140E4368617261635B
:100363007465726973746963203100024368617252
:10037300616374657269737469632032000843684A
:100383006172616374657269737469632033001009
:10039300436861726163746572697374696320345D
:1003A300000243686172616374657269737469639F
:1003B30020350002E582010000D48202E1820100BF
:1003C30000E2190209830300009F1702DF82010084
:1003D30000E31902E182010000F419020B8301001A
:1003E30000B31702DF82010000F51902E182010068
:1003F30000061A020D83020000B41702DF82010017
:1004030000071A02E182010000181A020F8301009B
:1004130000B51702DD82030000B61702DF82010078
:1004230000191A02E1820100002A1A021183040052
:1004330000B81702DF820100002B1A120122CEB787
:1004430003120122E1B70312012212B8031201229F
:100453004CB803120122A5B803120122ECB803120F
:10046300012234B90312012263B90312012292B9A2
:1004730003120122C9B90312012210BA0312012285
:1004830029BA031201227EBA0312012297BA031278
:100493000122E5BA031201221FBB03120122A4D6D3
:1004A30002120122A7D702120122E0D7021201226F
:1004B30003D80212012215D80212012253D80212C4
:1004C3000122CFD80212012297D902120122B9D9EF
:1004D3000212012250DA02120122A2DA02120122CE
:1004E300D3DA02120122E0DA021201224ADB0212FB
:1004F3000122A1DB02120122A4DB02120122DDDBB5
:1005030002120122E0DB02120122EADB02120122C3
:100513003EDC021201227FDC02120122B2DC021253
:100523000122EFDC02120122F1DD0212012295DE2B
:1005330002120122FEDE021201223CDF021201221C
:100543001DAC0312012245AC0312012272AC03124B
:100553000122AAAC0312012208AD0312012254ADF9
:1005630003120122BBAD03120122FBAD03120122D0
:1005730038AE0312012266AE0312012210AF03123A
:1005830001221AAF0312012227AF031201225AAF2D
:100593000312012266AF031201227EAF031201226E
:1005A30088AF03120122B9DD03120122C7DD031252
:1005B3000122DFDD03120122F6DD03120122D2BB89
:1005C300011201227CBC011201228FBD0112012202
:1005D3000BBE0112012229BF0112012265BF0112C4
:1005E300012200C001120122E4C001120122B0C1A4
:1005F300011201223EC301120122AFC301120122E3
:1006030069C4011201225BC5011201229BC50112BB
:1006130001224FC60112012281C60112012277C8AD
:1006230001120122B9C801120122D7C80112012205
:100633003DC9011201220CCA01120122D0CA0112C2
:100643000122EFCC011201228FE70212012279E885
:100653000212012224E90212012275E90212012287
:1006630025EA0212012296EA021201227BEB021210
:100673000122AFEB02120122A8EC02120122E5ECE7
:1006830002120122C1ED0212012200EE0212012226
:100693001CEE0212012222D403120122A6D4031259
:1006A3000122D1D403120122EBD50312012216B089
:1006B300031201222CB0031201224AB003120122B9
:1006C3005BB10312012265B10312012290B203123E
:1006D300012287B303120122F4B303120122498BCF
:1006E300031201227F8C03120122B68C0312012212
:1006F3000D8D03120122228F031201221C97011276
:100703000122A897011201220C99011201221899C2
:1007130001120122539901120122C29901120122ED
:10072300CB9A01120122D49B011201229B9C01123C
:100733000122F89D01120122169E01120122339E0D
:1007430001120122E09E011201225D9F011201228A
:10075300859F011201224FA20112012254A201120C
:1007630001226DA401120122BBA4011201222BA5B7
:100773000112012269A50112012245A601120122DB
:1007830005A70112012251A70112012254A7011248
:10079300012298A701120122E0A7011201221FA83A
:1007A3000112012241A80112012275A8011201229E
:1007B300D8A801120122F37A00120122017B001250
:1007C3000122547B00120122737B00120122B87BA9
:1007D30000120122FC7C00120122977D00120122EB
:1007E300DB7D00120122057E00120122747E0012BD
:1007F3000122BA7E00120122317F00120122E27F20
:10080300001201221C29001201222C2900120122AC
:10081300CD2900120122292A00120122E62A001200
:100823000122022C00120122342C00120122632C1B
:1008330000120122102E0012012287300012012221
:10084300F73200120122E93300120122E2340012CE
:100853000122E93600120122DD39001201220C3B8C
:1008630000120122103D00120122203E001201223B
:10087300AF3F00120122A04000120122EE400012FD
:1008830001225D4100120122814100120122D24165
:100893000012012273460012012274470012012242
:1008A300D54700120122004800120122C648001257
:1008B3000122E3A703120122EDA70312012232A8AA
:1008C3000312012246A803120122D6A80312012211
:1008D3000FA9031201224AA90312012273A90312C9
:1008E3000122C7A903120122DCA903120122FEA9D6
:1008F3000312012213AA0312012227AA03120122BF
:100903003CAA0312012276AA03120122A2AA03120D
:10091300012232AB031201225DAB03120122A0AB11
:1009230003120122CAAB03120122F5AB0312012207
:10093300A5DC0312012208B902120122EBB902124B
:10094300012266BA02120122A1BA02120122F2BBEB
:100953000212012280BC0212012212BF02120122E2
:10096300C4BF02120122D0C00212012243C20212EA
:1009730001229CC202120122519F03120122949F61
:100983000312012218A003120122EFA20312012273
:10099300B6CF0312012268D00312012264D10312DD
:1009A3000122A3D103120122FDD1031201221AD67F
:1009B300031201227DD6031201221AD70312012248
:1009C3004FD7031201227FD703120122BAD7031292
:1009D3000122DAD70312012207960312012293960A
:1009E300031201225297031201226A980312012271
:1009F300849A03120122888D02120122AD8D021204
:100A030001227A8E021201224E8F02120122BB8F23
:100A130002120122FB8F021201229790021201227D
:100A2300CB9102120122A692021201220593021215
:100A33000122919302120122FF93021201228B944D
:100A430002120122D19402120122439502120122C1
:100A5300D59502120122769602120122969602126F
:100A63000122DE96021201222797021201224397E6
:100A730002120122699702120122E3970212012254
:100A8300F19702120122809802120122E9980212C0
:100A93000122BB9A03120122409B03120122829B73
:100AA30003120122669C03120122D39C031201222A
:100AB300179D031201225B9D03120122889D0312DD
:100AC3000122B09D03120122E89D03120122269EFA
:100AD300031201224D9E03120122C79E031201221B
:100AE300119F03120122FCCC011201229BCE0112A1
:100AF3000122D3D00112012227D10112012252D1A6
:100B0300011201222ED2011201225ED20112012210
:100B13008DD201120122A0D201120122E1D20112CF
:100B230001220ED3011201225CD30112012298D3B8
:100B330001120122DDD3011201222AD40112012262
:100B4300A4D401120122E5D601120122CFD8011249
:100B530001220BD9011201229ADA01120122DFDAF2
:100B63000112012252DB01120122A7DB0112012231
:100B73000BDC0112012236DC0112012255DD0112C8
:100B8300012266DD0112012205CD021201227ECD72
:100B93000212012238D30212012243D4021201228B
:100BA300ECD5021201227AD602120122E06600126B
:100BB30001226167001201228E6700120122D767AA
:100BC30000120122D86800120122316900120122A9
:100BD300AD6A001201222F6B001201224A6B001230
:100BE3000122BB6B00120122786C001201223B6DC3
:100BF30000120122C96D00120122806E001201222F
:100C0300936E001201222C6F00120122C36F001297
:100C13000122EA6F001201225370001201229D701B
:100C230000120122EB7000120122907100120122C6
:100C33002E7200120122BB72001201222C730012C9
:100C43000122737300120122CB7300120122FD7380
:100C530000120122B77400120122BE750012012294
:100C63000776001201222476001201224376001235
:100C730001227677001201222D7800120122527888
:100C830000120122677800120122D7780012012294
:100C93001879001201223C7A00120122BD7A001257
:100CA300012245C30212012290C3021201229CC3F6
:100CB3000212012270C40212012287C4021201220D
:100CC300C4C402120122F5C4021201222DC502126C
:100CD300012283C50212012299C502120122D5C540
:100CE30002120122E8C5021201220FC602120122DA
:100CF30043C60212012269C702120122B3C80212BB
:100D03000122AFC902120122CCCA02120122112907
:100D13000012012289DD01120122C4DD0112012228
:100D230016E10112012272E20112012231E30112E2
:100D3300012298E60112012282E701120122CEE785
:100D430001120122E8E70112012225E80112012222
:100D530030E8011201226FE80112012278E8011242
:100D6300012222E901120122F9E9011201224DEACD
:100D730001120122AAEA011201221CEB0112012233
:100D8300B0A9011201220FAD0112012215AD01120A
:100D9300012246B4011201224DB801120122ADBE57
:100DA300031201228ABF03120122CEBF03120122C2
:100DB30008C003120122A0C0031201220FC10312B3
:100DC300012218C10312012224C1031201223EC1D0
:100DD3000312012268C10312012298C103120122E6
:100DE300A1A303120122AEA303120122C8A303127B
:100DF3000122FBA30312012239A4031201229EA4A0
:100E030003120122B3A403120122BEA4031201227E
:100E1300CBA403120122E2A403120122F0A40312C1
:100E23000122FBA40312012207A50312012216A526
:100E33000312012221A50312012244A50312012258
:100E4300E8A503120122F8A50312012212A6031238
:100E530001222FA6031201224AA6031201226FA622
:100E6300031201227AA6031201228FA60312012282
:100E7300A3A60312012204A7031201220AA7031245
:100E8300012210A70312012216A7031201222EA783
:100E93000312012261A7031201220580021201221B
:100EA3009C80021201223481021201222482021246
:100EB30001225B82021201226E8202120122DC8273
:100EC300021201227784021201229E84021201225D
:100ED30040850212012275850212012286850212C3
:100EE3000122FF8502120122208602120122388686
:100EF3000212012290870212012299890212012211
:100F0300E98B02120122EC8C021201223B8D0212A8
:100F130001226BEC0112012268ED0112012253EE52
:100F2300011201225DEE011201227FEE0112012264
:100F33008BEE01120122DDEF011201220CF00112EE
:100F430001223CF1011201227EF101120122AAF2D7
:100F53000112012280F301120122D2F301120122B4
:100F630031F40112012268F401120122A3F40112E7
:100F730001223EF80112012257F801120122D9F889
:100F830001120122E7F8011201223CF901120122A8
:100F93004AF901120122B7F90112012229FA0112B9
:100FA30001226FFA011201220C99021201222E99D9
:100FB30002120122189B02120122BD9E021201227B
:100FC30000A002120122DAA002120122B5D90312F3
:100FD3000122DAD9031201224BDA0312012262DF62
:100FE300021201226BDF0212012274DF02120122BC
:100FF300A5E002120122C4E202120122FAE2021265
:10100300012234E3021201226AE302120122A4E361
:1010130002120122D8E30212012204E40212012285
:101023004DE40212012287E402120122CFE40212EC
:10103300012225E5021201225AE502120122B5E539
:1010430002120122EFE50212012240E602120122FE
:1010530076E602120122B0E602120122DEE6021255
:10106300012201E70212012234DF0312012260DFB1
:1010730003120122BBDF03120122C5DF0312012287
:10108300D5DF03120122F8FA011201221FFB01121C
:1010930001225AFB0112012218E1031201223249F3
:1010A30000120122424C00120122D74D00120122EC
:1010B300524E00120122FE4E00120122A14F0012D5
:1010C30001223950001201226850001201220055FA
:1010D30000120122925500120122CE560012012263
:1010E300385700120122EC5700120122A25A0012B3
:1010F3000122DC5A00120122465B00120122A35B8B
:1011030000120122005C001201225D5C0012012228
:10111300485D001201228E5D00120122D95D00128A
:101123000122FC5D00120122435F00120122575F7E
:1011330000120122C6600012012205610012012281
:10114300456100120122986100120122B961001267
:101153000122F761001201221D64001201225E6464
:1011630000120122F964001201226B6500120122B0
:10117300AC6600120122A885031201224E860312D7
:1011830001229387031201221C8803120122098979
:1011930003120122488903120122B2890312012298
:1011A300208A03120122CBC40312012296C7031221
:1011B3000122C4E20312012286DE0312012296DE1B
:1011C30003120122AADE0312012226DF03120122E7
:1011D300C6C1031201226EC203120122B0C403125C
:1011E3000122F47F0012012216F50212012213F7E5
:1011F3000212012299F702120122ABF80212012214
:101203006FF902120122ECF9021201225EFA0212B4
:10121300012261FA021201226FFA021201228CFAF0
:1012230002120122B5FA02120122DEFA021201228F
:10123300ECFA0212012204FB02120122A4C70312D8
:101243000122E4C70312012239C80312012265C82F
:10125300031201220CC903120122E8D7031201224F
:1012630011D8031201223BD803120122FCD8031226
:1012730001225AD9031201221CA40212012231A411
:10128300021201228DA402120122F8A402120122E9
:1012930040A502120122B2A502120122DBA502120D
:1012A3000122E9A802120122F7A80212012259A978
:1012B3000212012297A902120122B2A902120122EB
:1012C3004DAA02120122F6AA0212012279AB0212DE
:1012D3000122B2AB021201223DAC0212012294ACF4
:1012E30002120122F2AC0212012204AD0212012207
:1012F3002AAD0212012233AD0212012284AE021280
:10130300012228D2031201228FD2031201224CD3CD
:1013130003120122CAD303120122FEB303120122D4
:1013230031B40312012263B503120122A7B50312DC
:10133300012283B6031201226BDB0312012249DC73
:10134300031201221ECD0312012263CD03120122D7
:10135300A9CD0312012272CF0312012288E00312E6
:101363000122A3E003120122B3E003120122DFDF13
:1013730003120122B8AE0212012294AF021201221B
:10138300DBAF0212012218B00212012286B0021250
:101393000122E0B00212012250B10212012288B2EE
:1013A3000212012277B302120122EEB302120122CA
:1013B3008AB50212012217B6021201228AB602125C
:1013C300012206B7021201221DB70212012242B8FE
:1013D300021201229CB80212012200800312012290
:1013E300208003120122268103120122728103123B
:1013F3000122928103120122E5810312012252820A
:1014030003120122988203120122FC820312012299
:10141300168301120122438801120122468B011215
:1014230001226F8B01120122988B011201224A8C37
:1014330001120122338E011201227E8F0112012239
:10144300978F01120122CE940112012207950112F6
:1014530001224B95011201225C960112012287BBE6
:1014630003120122B3BB0312012212FB0212012257
:1014730021FB0212012299FB0212012266FC0212D5
:10148300012285FC02120122A7FC0212012256FD51
:1014930002120122E5FD0212012219FE02120122AB
:1014A30042FE021201227DEE02120122EDF002122F
:1014B3000122A0F102120122BEF102120122E0F187
:1014C30002120122E3F20212012211F3021201229B
:1014D30067CA031201228BCA03120122B2CA031282
:1014E3000122BBCA03120122CACA03120122DBCAA8
:1014F30003120122B1CB03120122C7CB0312012233
:10150300EACC03120122E990031201227291031221
:1015130001228F9103120122A892031201224D93FB
:1015230003120122789403120122F2E10312012231
:101533006FE20312012238E2031201229BE203123B
:101543000122E3E203E066701008A3E066700A0874
:10155300A3E066700408A3E06622C3E7960809E7E0
:10156300960809E7960809E79622C3E09608A3E0E0
:101573009608A3E09608A3E09622C008C3E096F578
:101583000808A3E096420808A3E096420808A3E0EF
:101593009645087001D3D00822080808EAC0E0EB9A
:1015A300C0E086F0E7A4FA180986F0E7A42AFA183F
:1015B3000986F0E7A42AFA180986F0E7A42AFA199B
:1015C30086F0E7A4FBE5F02AFA190886F0E7A42BD6
:1015D300FBE5F03AFA190886F0E7A42BFBE5F03AAD
:1015E300FA18180986F0E7A4C5F02BFBE43AFA19B8
:1015F30008E7C5F0C6A426F6E5F03BFBE43AFA1883
:1016030086F0E7A4F6E5F00826F6E43B08F6E43AAC
:1016130008F6D0E0FBD0E0FA22E4CFC0E0E4CEC08D
:10162300E0E4CDC0E0E4CCC0E075F020E626F608A7
:10163300E633F608E633F608E633F6181818EC3303
:10164300FCED33FDEE33FEEF33FFC3EC9709ED976B
:1016530009EE9709EF97191919400FFFEC97FC0949
:10166300ED97FD09EE97FE191906D5F0BFECF709C2
:10167300EDF709EEF709EFF7191919D0E0FCD0E0FF
:10168300FDD0E0FED0E0FF226016080808C6C313B1
:10169300C618C613C618C613C618C613C6D5E0EABD
:1016A300227009080808226016181818C6C333C622
:1016B30008C633C608C633C608C633C6D5E0EA2211
:1016C300E627F60809E637F60809E637F60809E6D5
:1016D30037F622E026F608A3E036F608A3E036F64E
:1016E30008A3E036F622E026F008A3E036F008A3CC
:1016F300E036F008A3E036F022C3E697F60809E6E1
:1017030097F60809E697F60809E697F622C3E096E6
:10171300F008A3E096F008A3E096F008A3E096F0A3
:1017230022E056F608A3E056F608A3E056F608A30F
:10173300E056F622E056F008A3E056F008A3E05680
:10174300F008A3E056F022E0F608A3E0F608A3E0D1
:10175300F608A3E0F622E6F008A3E6F008A3E6F015
:1017630008A3E6F022E0FAA3E0FBA3E0FCA3E0FD7C
:1017730022E0F8A3E0F9A3E0FAA3E0FB22E8F0A358
:10178300E9F0A3EAF0A3EBF022CAC0E0E6F0A30875
:10179300DAFAD0E0FA22CAC0E0E0A3C582CCC5825F
:1017A300C583CDC583F0A3C582CCC582C583CDC512
:1017B30083DAE6D0E0CA22C3E498F8E499F9121771
:1017C300FB8026C3E49AFAE49BFBE920E7E91217BE
:1017D300FBE498F8E499F922C3E498F8E499F91240
:1017E30017FBE498F8E499F9C3E49AFAE49BFB2223
:1017F300EB20E7CFE920E7E0B90010BB0008E88A57
:10180300F084F8AAF022E4FBC8FA22EB70227B10E2
:10181300C833C8C933C9335007C39AC3DBF2800640
:101823009A50012ADBEAC833F4C8C933F4C9FA224F
:1018330075F008E4C833C8C933C933C99AC99B5082
:1018430004C92AC93BD5F0ECFBC833F4C8E4C9FA90
:1018530022600D08C6A2E713C618C613C6D5E0F367
:1018630022600C08C6C313C618C613C6D5E0F422FB
:10187300700422600D18C6C333C608C633C6D5E04C
:10188300F41822251810AF08F518400C1519800814
:10189300F51840021519D2AF2200C0D0251810AF99
:1018A30008F518500C05198008F51850020519D2CF
:1018B300AFD0D0222518F58210AF08F518400C15CB
:1018C300198008F51840021519D2AF85198322C56E
:1018D300822518C582C583351910AF07F51985828E
:1018E300188007F519858218D2AFC583222518F50C
:1018F30082E43519F583222518F8E43519F92225F0
:1019030018FAE43519FB222518FCE43519FD22E405
:10191300732518C582C0E0E51934FFC583C0E0E52F
:1019230018C3958224F810AF08858319858218801F
:1019330008858319858218D2AFCEF0A3E520F0A3E2
:101943007808E608F0A3DEFAEFF0A3E58124FAF8BD
:10195300E608F0A3E608F0A3E608F0A30808E60803
:10196300F0A3E608F0A315811581D0E0FED0E0F8DE
:10197300158115811581E8C0E0EEC0E0222518C568
:1019830082C0E0E51934FFC583C0E0E518C3958242
:1019930024F910AF08858319858218800885831977
:1019A300858218D2AFCEF0A3E520F0A37808E6082D
:1019B300F0A3DEFAEFF0A3E58124FBF8E608F0A339
:1019C300E608F0A30808E608F0A3E608F0A31581EB
:1019D3001581D0E0FED0E0F815811581E8C0E0EE76
:1019E300C0E022851983851882E0A3FEE0A3F520D9
:1019F3007808E0A3F608DFFAE0A3FFE0A3C0E0E085
:101A0300A3C0E0E0A3C0E0E0A3C0E0E0A3C0E01017
:101A1300AF08858218858319800885821885831904
:101A2300D2AFD083D08202011F851983851882E04B
:101A3300A3FEE0A3F5207808E0A3F608DFFAE0A30D
:101A4300FFE0A3C0E0E0A3C0E0E0A3C0E0E0A3C0E8
:101A5300E010AF0885821885831980088582188570
:101A63008319D2AFD083D08222C0D02518C582C0BB
:101A7300E0E51934FFC583C0E0E518C3958224F37C
:101A830010AF08858319858218800885831985829C
:101A930018D2AFC8F0A3E9F0A3EAF0A3EBF0A3795F
:101AA30008E709F0A3D8FAECF0A3EDF0A3EEF0A356
:101AB300EFF0A3D0E0F0A3D0E0F0A3D0E0F0A3E5F3
:101AC30020F0A3E5F0F0A322851983851882E0C0F6
:101AD300E0A3E0F9A3E0FAA3E0FBA37808E0F608AB
:101AE300A3DFFAE0FCA3E0FDA3E0FEA3E0FFA3E095
:101AF300C0E0A3E0C0E0A3E0F5D0A3E0F520A3E0BD
:101B0300A3F5F010AF0885831985821880088583B3
:101B130019858218D2AFD082D083D0E0F8D0E032DA
:101B230074048006740280027401C0E0F404121885
:101B3300B7D0E012178C227404800474028000CCA6
:101B4300C0E0EDC0E0E518C39CCCAD1950011D10F9
:101B5300AF068C188D1980068C188D19D2AF121709
:101B630099D0E0FDD0E0FC22D083D082E9C0E0E44C
:101B730093A3C386F0C5F095F0F908E493A386F028
:101B8300C5F095F0700BE493A3C3994005E9048075
:101B930002A3E475F002A42582F582E5F03583F50E
:101BA30083D0E0F9E493A3C0E0E493C0E022D083C0
:101BB300D082CCC0E0E493A36006121BDB1470FA5E
:101BC300E493A36006121BFA1470FAD0E0FCE493CA
:101BD300A3C0E0E493C0E022C0E0E493A3D39C500D
:101BE30010E493A3C39C400AD0E0D0E0D0E0021BF2
:101BF300CEA3A3A3D0E022C0E0E493A36C7009D0EA
:101C0300E0D0E0D0E0021BCEA3A3D0E022D083D06B
:101C130082ECC0E0EDC0E0E493A3FCE493A3FDED0C
:101C23004C600D121C5CEC24FFFCED34FFFD80EFD7
:101C3300E493A3FCE493A3FDED4C600D121C9BEC19
:101C430024FFFCED34FFFD80EFD0E0FDD0E0FCE4A9
:101C530093A3C0E0E493C0E022C0E0C3E4939608FA
:101C63007401939618400FE4936670080874019307
:101C7300661870007019A3A3C3E4939608740193C4
:101C83009618A3A3400DD0E0D0E0D0E0021C4CA3F3
:101C9300A3A3A3A3A3D0E022C0E0C0F088F0E49301
:101CA3006670080874019366187000A8F0A3A37007
:101CB3000BD0F0D0E0D0E0D0E0021C4CA3A3D0F0D6
:031CC300D0E0224C
:101CC80074F6121980EAFEEBFF8C088D09EE2434B5
:101CD800F8E43FF9E8FCE9FDEE2435121FDBFAEEE3
:101CE8002437121FDBF88508F0A4C885F00A850997
:101CF800F0A4250AF9EA28F8E439F97A257B0012D4
:101D080017FBEA8C828D83F0FA131313541FF8EE35
:101D180028F8E43FF9E8245DF582E439F583E0C06A
:101D2800E074075AF8D0E0B800028004C313D8FC66
:101D3800A2E0EE50082434F582E43F8018243612DD
:101D48001FDBF5F0EA84A8F0EE28F8E43FF9E82470
:101D580038F582E439F583E0F97F03021A2C74F729
:101D6800121980EAFEEBFFEE2434121FDBC0E0EE0E
:101D78002435F582E43FF583D0E0F08E828F83A38B
:101D8800A3A3A3A3A3A3C082C0838E828F83A3A38C
:101D9800A3A3A3E0F8A3E0F9D083D082E0C398F529
:101DA80008A3E099F509EE247F121FDB6401703E59
:101DB800EE2480F582E43FF583C082C0838E828F53
:101DC80083A3A3A3A3A3E0240108A3E03400F9D0CC
:101DD80083D082E0687003A3E06970127CB17D044F
:101DE800120C4EEE247FF582E43FF583E4F0AC0854
:101DF800AD09EEFAEFFB121CC8E9F91227337F028E
:101E0800021A2CC082C083851882851983E0F8A342
:101E1800E0F9C3EA9CEB9D5010C3EC98ED99401B88
:101E2800C3EA98EB995014800EC3EA98EB994007DF
:101E3800C3EC98ED994004790180027900D083D0F1
:101E48008222EAC39CFAEB9DFB2274EF1219809060
:101E58000376E064086005E06407702A9061C8E0D2
:101E680060249003A4E0F4601DE0F875F00BA4C8AA
:101E7800AAF02AF974A628FE740339FF8E828F838C
:101E8800A3A3A3E07003021F60906060E0C0E0EECF
:101E98002468F582E43FF583D0E0F0750C21750DD8
:101EA80005750800750900E5D914F50AE5D9540344
:101EB800F50E60127403650E6043E50A600AEE24AD
:101EC80067121FDB7002807590051CE06401601FBB
:101ED800121FD860047A0480027A00E50AC39AFACD
:101EE80095E0FB120AF88A088B09EA450970051281
:101EF8000E7C8064121FD870048A0C8B0DE50A6072
:101F080012850C82850D83F50BE5D9F0A3150BE539
:101F18000B70F6121FD8604474FC250AF50A780C79
:101F2800121B27AC0AA90EEEFAEFFB120D08740279
:101F380012189CE97026AA08AB09121308793D8E7D
:101F4800828F83A3A3A3A3E0FA7B0012095AEEFAB7
:101F5800EFFB120C72120D1A7900806F7403650E74
:101F68006051850A107511007810121B27AC0CAD52
:101F78000DAA08AB09120CCC740212189CEE246846
:101F8800121FDB64807004747F8001E0F50C780C0C
:101F9800121B2BE50EF50C780C121B2BA90AAC08AA
:101FA800AD099003A4E0FA7B0012093074021218FC
:101FB8009C8013900376E06408600BAC0CAD0DEECA
:101FC800FAEFFB120D92120E8879017F0A021A2C81
:101FD800EE2483F582E43FF583E02274F21219803F
:101FE80074FC121886EAFEEBFF8909A2AFE433F508
:101FF80008C2AF0220ADE0601B780C121B27AC0BA7
:10200800A90EEEFAEFFB120D02740212189C74046A
:10201800250BF50B7401250BF5D9850ED9E50B6059
:1020280018F50A850C82850D83E0F5D9A385820C05
:1020380085830D150AE50A70EA75E195EE2463F8C3
:10204800E43FF97A007B00A2AFE433F50BC2AF8816
:10205800828983E0FCA3E0FDEC4D603A88828983A5
:10206800E0FAA3E0FB8A828B83E0FCA3E0FD888290
:102078008983ECF0A3EDF08A828B83E4F0A3F088E7
:10208800828983E0FCA3E0FDEC4D700A8882898395
:10209800A3A3E4F0A3F0E50BA2E092AF121308901B
:1020A80004B8E004F0EE2463121FDBF8A3E0F9E8BB
:1020B800496064EE2463121FDB2402F8A3E03400B5
:1020C800F988828983E5822402F50CE43583F50DCD
:1020D800E0F50BA3E0F50EEE2462121FDB6401703D
:1020E800369061D0E0F8121FD860047C0480027C2E
:1020F800007480C398FA95E0FBE50B2CF8E43400F3
:10210800F9E82402F8500109C3EA98EB99A2D265CC
:10211800D0334003021FFE9004B8E0604D9004B92C
:10212800E0F89004B8E0C398500C74026509703A5E
:102138009004BAE060348E828F83A3A3A3A3E085C2
:10214800188285198312218274021218F0E812216C
:10215800829004B7E028F0740212190AAA18AB1981
:1021680079011209849004B8E4F0E508A2E092AF7E
:10217800740412189C7F07021A2CF0A3E4F0900450
:10218800B8E0F8228521878522C622C0E074EB12C8
:102198001A6CA2AFE433F508C2AF759B0090618258
:1021A800E0A2E05030E591A2E0502A7591FE74015A
:1021B80065217021122326120DD4122314121B3A02
:1021C8001224DD740412189CE96401700579011267
:1021D8000E10121E52906182E0A2E5505DE591A2B8
:1021E800E550577591DF900376E064076005E06479
:1021F80008702F12232674016521703E120DD41227
:102208002314121B3A1224DD740412189CE9640189
:1022180070057901120E107901EEFAEFFB121FE337
:102228008018E0640D7013900398E004F06428703F
:1022380002E4F07A00E0F9120E8E906182E0A2E6E4
:1022480040030222E9E591A2E640030222E97591E2
:10225800BF900376E064057008120DBC120DC880AB
:1022680003120DC2752100120E1CE9900377F07954
:1022780000120E10120BBE7A017B00900375E0F974
:102288001212D8907803E064427056900520E0144A
:10229800F0704EC2AF1222A000782AD0E0F618D013
:1022A800E0F6E59F5407F87005750DFF8003750D7E
:1022B8007FC4C0E07829E6F50A08E6550DF50B74E9
:1022C8000B780A121864D0E0250AF8906270E0A230
:1022D800E740F8E8C333906272F0906270E0D2E0B1
:1022E800F0906181E0A2E35009E5E9A2E3500375AB
:1022F800E9F7A3E0A2E75009E591A2E75003759139
:102308007FE508A2E092AF7F08021ACB8E828F8306
:10231800E0F8A3E0C82416F582E438F58322900398
:10232800A4E0F875F00BA4C8AAF02AF974A628FE50
:10233800740339FF22C0E0C0D0C082C0839061839B
:10234800E0A2E05009E5BFA2E0500375BFFEE0A29D
:10235800E15009E5BFA2E1500375BFFDE0A2E250DC
:1023680009E5BFA2E2500375BFFBE0A2E35009E50F
:10237800BFA2E3500375BFF7E0A2E45009E5BFA28E
:10238800E4500375BFEFE0A2E55009E5BFA2E550B0
:102398000375BFDFE0A2E65009E5BFA2E65003756A
:1023A800BFBFD083D082D0D0D0E032C0E074F21268
:1023B8001A6CE5A7A2E6500FE5A1A2E6500953A7BB
:1023C800BF75A1BF122407E5A7A2E5500CE5A1A29D
:1023D800E5500653A7DF75A1DFE5A7A2E15009E59F
:1023E800A1A2E1500375A1FDE5A7A2E2500CE5A169
:1023F800A2E2500653A7FB75A1FB7F01021ACB741A
:10240800F7121980752101900376E06406701512A1
:102418000D3E8A828B83A3A3A3A3A3A3E0FAA3E020
:10242800FB120DAAA2AFE433FED2AF90037CE064A6
:102438000170187A207B00900375E0F91213FE7A78
:10244800207B00900375E0F91212DE906182E0D2E1
:10245800E6F090051DE0602185C622801690037B7A
:10246800E064017008E5C654F84405F5C653BEFC9F
:1024780012218C7401652160E4EEA2E092AF7F0224
:10248800021A2C008E238F2485822885832785189D
:1024980082851983E0CEA3E0CF852882852783EB48
:1024A800C9EAC8EDCBECCA75F010C3E833C8E93304
:1024B800C9EA33CAEB33CBC3EA9EF526EB9FF52571
:1024C800B35004AB25AA26EC33CCED33CDD5F0DAE6
:1024D800AE23AF242274F11219808A088B098C0A62
:1024E8008D0B90828E7808121724740F1218F078CA
:1024F8000C12174A90828E780C1217247808790CDF
:1025080012155D90827650107808790C1216FC78B6
:102518000812157D4014800E780C79081216FC7884
:102528000C12157D50047901800279007F08021A87
:102538002C74ED1219808A088B098C0A8D0B9082F5
:102548008E780812172474131218F0780C12174A90
:1025580090828E780C121724780C790812155D4039
:10256800117808790C1216FCAA08AB09AC0AAD0B55
:10257800802275100075110075120075130178100E
:10258800790C1216FC781079081216C3AA10AB1130
:10259800AC12AD137F0C021A2C90828E7808121799
:1025A8004A8A828B8378081217377F04021A2C74A0
:1025B800F51219808C828D83780812174A8A828BCB
:1025C80083780812171012260FC3E09CF0A3E09D31
:1025D80012260140229082A6780812174A8A828B16
:1025E8008378081216E98A828B83A3A3A3A3E02425
:1025F80020F0A3E0344EF080A0F088828983C3E005
:102608009420A3E0944E22EA2404F8E43BF98C8257
:102618008D83A3A3A3A3E0FCA3E0FD888289832282
:1026280074F5121980E9FE9004D3E0FAA3E0FBEEFA
:1026380029F8E433F9745928F582748139F583E06F
:102648002AF508A3E03BF5097808121B2790829227
:1026580012176812248C740212189C8A088B098C31
:102668000A8D0B7410780812168BAA08AB097F0420
:10267800021A2C74F11219808A0C8B0D8C0E8D0F96
:1026880074111218F0121B3E74111218F0E0240194
:10269800F508A3E03400F509E4F50AF50B780C79A0
:1026A8000812159C908272780812174A780C7908DB
:1026B80012159CAA0CAB0DAC0EAD0F12248C740233
:1026C80012189C8B09EA450960047A0180027A0095
:1026D800EC2AFCE43DFD74131218F0E0F8A3E0F9CD
:1026E800E8FEE9FFECF8EDF97A717B021217FB8836
:1026F800088909E4F50AF50B8E828F83780812178A
:1027080059ECF8EDF97A717B021217FB8A088B09EC
:10271800740578081218738E828F83A3A3A3A3E588
:1027280008F0A3E509F07F08021A2CC082C083E9EB
:10273800906000F0D083D08222C0E074F2121A6C4C
:10274800A2AFE433FED2AFC2C0E5D1A2E450067511
:10275800D10F121236EEF8EEA2E092AF7F01021A04
:10276800CBC0E0C0D0E8C0E0E9C0E0A2AFE433F8F5
:10277800D2AFC2C7E8F9E8A2E092AFD0E0F9D0E062
:10278800F8D0D0D0E032C0E0C0D0E8C0E0E9C0E086
:10279800EAC0E0C082C083A2AFE433FAD2AF9009A6
:1027A800EFE0F89009F0E068700B539AFB9009F19C
:1027B8007401F0802CC2E99009EFE0F874012890C8
:1027C80009EFF07900745928F582740939F583E026
:1027D800F5C19009EFE0C3949640069009EF7400A4
:1027E800F0EAF8EAA2E092AFD083D082D0E0FAD043
:1027F800E0F9D0E0F8D0D0D0E032C2AF0200002239
:10280800C0E0C0D0E8C0E0E9C0E0EAC0E0C082C0F3
:1028180083AAAFEAA2E040030228F590178EE0F8F9
:10282800A3E0F9901791E0687003A3E0697007C20C
:1028380090C2910228E990178EE0F8A3E0F990176A
:1028480093E0687003A3E0697014901790E0700734
:10285800D290C2910228E9C290D2910228E9901739
:102868008EE0F8A3E0F9901795E0687003A3E0699B
:102878007006C290C291806990178EE0F8A3E0F9C3
:10288800901797E0687003A3E0697012901790E0C2
:102898007006C290D2918049D290C291804390171D
:1028A8008EE0F8A3E0F9901799E0687003A3E06957
:1028B8007006C290C291802990178EC082C0839002
:1028C800179BE0F8A3E0F9D083D082C3E098A3E097
:1028D80099400EC290C29190178E7400F0A37400B4
:1028E800F090178EE02401F0A3E03400F0D083D0FC
:1028F80082D0E0FAD0E0F9D0E0F8D0D0D0E032C011
:10290800D0C2C353D8EED0D03202011FFFFFFFFF61
:10291800FFFFFFFFC082C083E9901880F0D083D00A
:102928008202011F74F6121914E99002E8F090036C
:1029380048E0F50875090074027808121873AA08A7
:10294800AB091213509002E91232DF9002E91236F5
:10295800CC606F900348E075F003A4FAABF0121353
:10296800509003061232DF9003061236CC700B909B
:1029780002E912369D12135680489003061246311A
:102988007AFF7BFF1211767A0080198A0875090090
:10299800740278081218731240D974FF122ADFE4FF
:1029A800F0A3F00A900348E0F8EAC39840DD7905FF
:1029B80012081C9002E8E0F91207087AA67B0812B0
:1029C8000A9802417C74F41219148A088B09EB5492
:1029D8008060479002E8E0F91212C08A0A8B0BAEB9
:1029E8000AAF0BEE4F602A8E828F83E064B0701AB4
:1029F80012082EE960148E828F83A3A3A3A3E0F9A3
:102A0800EE2405FAE43FFB1207FEEEFAEFFB121282
:102A1800AEAA08E5096480FB80047A007B00022CDA
:102A28002F74F212191474FB121886EAFEEBFFEEEB
:102A38004F604574031218F0EEF0A3EFF08518828A
:102A4800851983ECF0A3EDF074021218F0E9F0AAEE
:102A580018AB19120702E9F508707574131218F00B
:102A6800E0F50AA3E0F50BE50A450B60638E828F5B
:102A780083123068EE4F700575080280537A067B22
:102A8800001213508A0C8B0DA80CA90DE84970058B
:102A9800750813803B88828983E4122ADFEEF0A34D
:102AA800EF122BFBE50AF0A3E50BF09002EC122BDA
:102AB800F49002EC6017E0FCA3E08003EAFCEBFD75
:102AC8008C828D83122BF470F38C828D83123CF4EC
:102AD800A90874050248B1F0A3124613A32274F2A0
:102AE8001219148908890C750D007403780C1218D2
:102AF80073850C0A850D0B9002EBF09002E9123AEF
:102B0800FF122BF2602E1213567900801D890C7566
:102B18000D007402780C1218739002E9123F98881D
:102B280082F583A3A3E4F0A3F009900348E0F8E951
:102B3800C39840D9900348E0FA850AF0A4CAA8F0DF
:102B4800850BF0A428FB1213508A0C8B0DAE0CAF2A
:102B58000DEE4F7003022BE8900348E0FC850AF065
:102B6800A4CCA8F0850BF0A428FD79001212967C5D
:102B78000080318D0C750D007403780C1218738A5F
:102B8800828B83122BED88828983E4F0122BFAA3BF
:102B9800A3F0A3F00DEDC3950840D8EE250AFEEF8B
:102BA800350BFF0C900348E0F8ECC39850288C0CC8
:102BB800750D007402780C1218739002E9122BED4F
:102BC800E82402500109FAE9FB8A828B83EEF0A31C
:102BD800EFF07D0080BFE5089002EBF079008002FD
:102BE80079130248B4123F9CF922A3A31236A1EA32
:102BF8004B22A3124613A3A3A32274F41219147927
:102C080000EAA2E0501F7508387509827808121B7F
:102C18002779107C047D007A827B181208167402CA
:102C280012189CE9F980007F040219E6C082C0836B
:102C38009002EC1236CC601C88828983A3A3E06AD8
:102C48007003A3E06B8882898370E8A3A3A3A3120F
:102C5800369D80047A007B0002292574F21219142B
:102C680074FD121886EAFEEBFF851882851983E445
:102C7800F0A3F074021218F07401F01236C970143F
:102C88001209D21213509002EF1232DF1236C970B5
:102C980003022DF51233DFEE2404F50AE43FF50BA9
:102CA800850A82F583E024FE603C24FC607424FEDF
:102CB800607E24FE7003022D4524FE7003022D520F
:102CC80024FE7003022D5F24FE7003022D6C24FE87
:102CD8007003022D7924FC7003022D9A24FE7003E0
:102CE800022DB2022DEE1209D29002F1EAF0A3EB06
:102CF800122E0112044AE96003022DEE9002F1122D
:102D08001B3E8E828F83A3A3A3A3A31246318508FB
:102D18008285098312369D1207E6740212189C02F6
:102D28002DEEAC18AD19EEFAEFFB120834022DBDEA
:102D3800AC18AD19EEFAEFFB12083A8078AC18AD72
:102D480019EEFAEFFB120840806BAC18AD19EEFAD9
:102D5800EFFB120846805EAC18AD19EEFAEFFB12D5
:102D6800084C8051AC18AD19EEFAEFFB12085280EE
:102D78004474021218FA880C890D780C121B2774F7
:102D88000212190AEEFAEFFB120858740212189C84
:102D98008023AC18AD19EEFAEFFB12085EE9F87063
:102DA8001674021218F0E4F0803CAC18AD19EEFA73
:102DB800EFFB120864E9F8E8602C8E828F83A3E0A9
:102DC80064146022850A82850B83E09002F1F08505
:102DD800188285198312369D9002F21232DFE8A319
:102DE800122E01120444EEFAEFFB1207BC74021211
:102DF80018F0E0F974030248B1F07CF17D0285080F
:102E0800828509831236A12274E812191474FA1201
:102E1800188674041218F0ECF0A3EDF08A128B13E4
:102E2800EA2405F50EE43513F50FEA2402F510E45B
:102E38003513F511851082F58312369D12053A8AED
:102E48000A8B0B7508007C037D0079007AF17B0200
:102E5800121296E50E2402F516E4350FF5177402E2
:102E68001218FA880C890D780C121B27850E82859A
:102E78000F83A3A3A3A3E0F50C750D00780C121B18
:102E880027E50E2405F50CE4350FF50D780C121B1B
:102E9800278516828517831239A412072074061213
:102EA800189C8A0C8B0DE50C450D7003023031809F
:102EB80020851882851983E088828983F005088532
:102EC8001882851983A3E0C0E0123072D0E0F005C3
:102ED80008E50A24FBFAE50B34FFFBC3E5089AE48E
:102EE8009B40030230317E007F0085128285138368
:102EF800A3A3A3A3E0F5097809121B2BE4F514F5A5
:102F0800157814121B277514EE7515027814121B08
:102F1800279002EF121B3E74091218F0121B3EE5AF
:102F28000A24F9F9AC0CAD0D85108285118312368F
:102F38009D12088E740912189CE96003022FD2852D
:102F48000E82850F83A3A3A3A3A3A3A3E0F89002F3
:102F5800EEE0687075E0F5148E157814121B2712D0
:102F6800462E850E82850F83A3A3A3A3A3A3A3A3A1
:102F780012369D121290740212189CE9604C90024D
:102F8800F21236CC703BE4F5147814121B277CFF40
:102F98007DFF790785108285118312369D1207F807
:102FA800740212189C1236D27017850E82850F8310
:102FB8001247CB74041218F012408C1239D5023023
:102FC80065850C82850D83123068A818A9198814A4
:102FD80089157814121B2774041218F0121B3E85E9
:102FE80016828517831232D512072C740412189C86
:102FF8008A0C8B0DEE4F7003022EAE123072EE1259
:10300800307D12398BEF12307DF8A3E03400F9E5FA
:103018000C450D6003022EB98882898374FFF00580
:103028000812307274FFF00508E508601A1313548B
:103038003F1232E5120456E960099002F212369DF9
:1030480012130879008016850E82850F831247CBEC
:1030580074041218F012408C123CF4790A02395E9A
:10306800A3A3A3A3E0FEA3E0FF22A8089002F2E036
:103078002812398B22F00508089002F2E028227401
:10308800E812191474FA12188674021218F012321F
:10309800DF74041218F0ECF0A3EDF074021218F0CB
:1030A800E02405123974E0F50CA3E0F50D74021262
:1030B80018F0E02402F510A3E03400F51185108221
:1030C800F58312369D12053A750800750900EA2441
:1030D800FCFEEB34FFFF8008050CE50C7002050DC3
:1030E800A808C3EE98EF94005003023291A818A9DB
:1030F80019880E890F780E121B278514828515836F
:10310800A3A3A3A3124635121B27E5142405F50E25
:10311800E43515F50F780E121B2785148285158363
:103128001232D3120720740612189C8A0E8B0FEAEB
:10313800450F7003023291EA2404F516E4350FF5C1
:1031480017851682F583E0F50CA3E0F50D85188246
:103158008519831246318A828B83A3A3A3E0F9855C
:10316800108285118312369D12070EE9F509600356
:1031780002329174021218F012399BF5097809127B
:103188001B2BE4F512F5137812121B277512EE7536
:1031980013027812121B279002EF121B3E740712BB
:1031A80018F0121B3EEEF9AC0EAD0F85108285119A
:1031B8008312369D12088E740912189CE9F509606D
:1031C80003023291E508703FE4F50EF50F780E1210
:1031D8001B277CFF7DFF79098510828511831236B4
:1031E8009D1207F8740212189C1239C1700D7404EC
:1031F8001218F01232C879110232C59002EEE0249A
:10320800029002F2F080149002F2E0FA9002EEE0EE
:10321800790024025001096A497072A8089002EEE8
:10322800E0FAE82AFAE43400FBEE9AEF9B405A856C
:103238001682851783E0C0E09002F3123077D0E061
:10324800F00508851682851783A3E0C0E008900280
:10325800F3123077D0E0F005089002EE12463512EE
:103268001B2712462EA80812396812127E74021201
:10327800189C9002EEE02508F50874FF650C7004B0
:1032880074FF650D60030230E0E508601F9002F2EC
:10329800E0F5F0E508841232E512045CE960099073
:1032A80002F312369D12130879008011E5097003A4
:1032B80075090A74041218F01232C8A90902395E95
:1032C800123B03E50CF0A3E50DF022A3A31248C0BE
:1032D800AA0CAB0D22A3A3EAF0A3EBF0229002F113
:1032E800F07CF17D028510828511831236A122744B
:1032F800EC12191474FC121886123E047402121986
:103308000A1236971207268A0C8B0DEA450D7003B0
:103318000233CF1233DFA818A91988108911781041
:10332800121B277CFF7DFF790B8508828509831294
:10333800369D1207F8740212189C1234D5700C8549
:103348000A82850B831239D20233DC8E828F83A3E3
:10335800A3A3A3E0F5127812121B2BE4F512F513C0
:103368007812121B277512F17513027812121B2797
:103378007810121B2774091218F0121B3E740912D8
:1033880018F0E0F9AC0CAD0D85088285098312367A
:103398009D12088E740912189CE9FE70157CF17D47
:1033A8000285088285098312369D120462E9700934
:1033B800802074166E70027E009002F212369D1202
:1033C8001308EE7004800B7E01850A82850B831238
:1033D8003CF1EEF9023D06EE2402F508E43FF5095A
:1033E8002274EC12191474FC121886EAFEEBFF8C96
:1033F8000E8D0FEE2405F508E43FF5097402121945
:103408000A85088285098312369D1207268A0C8B45
:103418000DEA450D70030234C5EE2402F50AE43FB7
:10342800F50BA818A919881089117810121B277C88
:10343800FF7DFF790D1236971207F8740212189C57
:103448001234D5700B8508828509831239D2807AA7
:103458008E828F83A3A3A3A3E0F5127812121B2BED
:10346800850882850983A3A3121B3E7512F1751383
:10347800027812121B277810121B2774091218F0F1
:10348800121B3E74091218F0E0F912369312088ED6
:10349800740912189CE9FE700F7CF17D02123697B0
:1034A800120468E97009802074166E70027E00901C
:1034B80002F212369D121308EE7004800B7E01850D
:1034C8000882850983123CF1EEF9023D061236DCCA
:1034D800F510A3E0F511EA45112274E812191474E5
:1034E800FE1218868A168B178C148D15EA2405F59A
:1034F8000CE43517F50DEA2402F50EE43517F50F3F
:10350800850E82F58312369D12053A8A088B097555
:103518000B007C037D0079007AF17B02121296750C
:103528000A00E50814F5100424FFF508E50934FF3E
:10353800F50980549002F1E0FA9002EEE0F8EA28EA
:10354800F8E43400F9E50898E50999500D9002F17E
:10355800E0F8E510C3989002EEF0E0F5127513005C
:103568007812121B2712462E9002F2E02AFAA3E0E4
:103578003400FB12127E740212189C9002EEE0F8DE
:103588009002F1E028F0050A850C82850D83A3A33B
:10359800123FA840030236789002F1E0C39508E490
:1035A80095094003023678AE0AEE2EFEE433FF1288
:1035B80036B7AC18AD19124649E439FB1207268A0A
:1035C800128B13AC12AD13EC4D701B750B01123638
:1035D800A7123CF59002F2122BF46003121308A90B
:1035E8000B7402023960851682851783A3A3A3A3EF
:1035F800E0F50B780B121B2BE4F512F51378121279
:103608001B277512EE7513027812121B279002EF12
:10361800121B3E74071218F0121B3EA910850E8269
:10362800850F8312369D12088E740912189CE9F5CD
:103638000B709B9002F21236CC600302353CE4F525
:1036480012F5137812121B277CFF7DFF790F850E68
:1036580082850F8312369D1207F8740212189C1285
:1036680036D2600302353C1236A71239D60235E944
:103678007CF17D02850E82850F8312369D12046EC1
:10368800E960030235DC79000235E9AC0CAD0D8543
:103698000A82850B831236A122E0FAA3E0FB2212EC
:1036A80036B7E0FAA3E0F9EA851482851583228506
:1036B8000C82850D83E02EF8A3E03FF98882898388
:1036C800229002EF1247CFE849221236DCF8A3E035
:1036D800F9E849229002F2EAF0A3EBF09002F2E056
:1036E8002274E812191474FA12188674041218F065
:1036F8001232DF8C168D1774041218F0E02405F5C9
:103708000EA3E03400F50F74041218F0E02402123E
:10371800397412369D12053A8A0A8B0B7F007E0097
:10372800A818A919880889097808121B27850E8204
:10373800850F83A3A3A3A3E0F5088E097808121BBD
:1037480027E50E2405F508E4350FF5097808121B5E
:1037580027850E82850F83A3A31239A4120720742C
:103768000612189C8A0C8B0D8029123995F00F12BD
:103778003995F00F9002EE123CE0121B2712462EEC
:10378800EFF812396812127E740212189C9002EE39
:10379800E02FFFE50C450D7003023824851882855B
:1037A8001983123E16A3A3A3E0F985148285158315
:1037B80012369D12070EE9FEE50C2404F510E435D7
:1037C8000DF511EE705074041218F012399BF508BB
:1037D8007808121B2BE4F508F5097808121B2775E1
:1037E80008EE7509027808121B279002EF121B3E9B
:1037F80074071218F0121B3EE50A24FAF9AC0CAD56
:103808000D85148285158312369D12088E7409124F
:10381800189CE9FE60391239B1123CF4EF700302CA
:10382800394B9002F2E0F5F0EF849002F1F07CF170
:103838007D0285148285158312369D120474E96011
:10384800099002F312369D121308790002395E8F2F
:1038580008EF703BE4F512F5137812121B277CFF72
:103868007DFF791185148285158312369D1207F81C
:10387800740212189C1239C170091239B11239D563
:1038880002395E9002EEE024049002F2F080359056
:1038980002EEE0F89002F2E0FAE82404FCE43400D6
:1038A800FDEC6A4D600302382AE50A24FAFAE50BB2
:1038B80034FFFBE50828F8E43400F9EA98EB99505E
:1038C8000302382A851082851183E0C0E09002F354
:1038D800E02FF8A3E034008882F583D0E0F00F856C
:1038E8001082851183A3E0C0E0123982D0E0F00F86
:1038F80074021218FA880889097808121B277402BA
:103908001218F0121B3E850E82850F831232D312D5
:10391800072C740412189C8A0C8B0DEA450D700351
:1039280002377274021218F0E0C0E0123982D0E057
:10393800F00F74021218F0A3E0C0E0123982D0E050
:1039480002377AEE70027E0A850E82850F8312395D
:10395800B7123CF4EEF9740612189C7F100219E6AF
:103968009002F3E028FAA3E03400FB22F514A3E068
:103978003400F515851482F58322123986229002C7
:10398800F3E02FFAA3E034008A82F5832212398605
:1039980074FF22123B03A3A3A3A3E0221248C0850D
:1039A8000E82850F831236A122851082851183121B
:1039B80047CF851682851783229002F3EAF0A3EB9E
:1039C800F09002F31247CFE84922123CFAE8F0A33C
:1039D800E9F079112274EA12191474FE1218868A11
:1039E800088B098C128D13EA2405FEE43509FFAC17
:1039F80018AD198E828F8312369D1207268A0C8B7A
:103A08000DEE2406F50EE43FF50FEA450D700302AE
:103A18003AD5E5082402F50AE43509F50B8A828BC4
:103A280083A3A3A3E0A2E5502885188285198312F1
:103A3800369D1208828A108B11EA4511602079128E
:103A4800123693851082851183121912E9F50C70CC
:103A58007F850E82850F83E0600979528011750C8D
:103A68000E806D850882850983A3A3A3A3E0F9E4EA
:103A7800F508F5097808121B278E828F83A3A3E027
:103A8800F5087808121B278E828F83A3A3A3121B25
:103A98003E8E828F8312463112369712089474062E
:103AA80012189CE9F50C7011850E82850F83E07061
:103AB8002D12369712047A80257416650C701175CC
:103AC8000C0074181218F0123AFFE48010750C01FB
:103AD8001247C7851282851383E8F0A3E9F0850EA3
:103AE80082850F83E0600479008002A90C740212B9
:103AF800189C7F0E0219E6123B0322E0F8A3E0F5BA
:103B08008388822274EC12191474F71218868A0AB0
:103B18008B0B8C108D11EA2405FEE4350BFF750C18
:103B280000AC18AD198E828F8312369D1207268A33
:103B3800088B09EA45097003023CCBE50A2402F523
:103B48000A5002050B8A828B83A3A3A3E0A2E55047
:103B58002F85188285198312369D1208828A0C8B4C
:103B68000DEA450D604F7912AC08AD0912369785FC
:103B78000C82850D83121912E9F50C6003023CCE04
:103B8800850A82850B83E0F508A3E0F509AA08FBFE
:103B9800120876EA4B70197AFF7BFF120876EA4B17
:103BA8007003023CC18A828B83E508F0A3E509F023
:103BB8007508008008750C0E023CCE05089002EBD3
:103BC800E0F8E508C3984003023CC185080E750F6C
:103BD800007403780E1218738A828B83A3A3E025DE
:103BE8000EF8A3E0350F12409570D08E828F8312A5
:103BF8003CE91232DF8E828F83A3A3123CE9123292
:103C0800DDEE2404F508E43FF509850882F583E034
:103C180088828983A3A3A3A3F0A3E4F0EE2405F587
:103C28000EE43FF50F850E82F583123CE9A3A3A3AA
:103C3800A31232DD7512077513007812121B27EED6
:103C4800FCEFFD740412190212127E740212189C01
:103C5800E4F5127812121B27850882850983E0FC97
:103C68007D0079171236971207F8740212189C749F
:103C7800071218F01232DF74071218F0E0FA4B60DE
:103C88003D850882850983123CE0121B27850E8238
:103C9800850F8312463112127E740212189C740228
:103CA80012190A123697120480E96026740712184E
:103CB800F012369D1213088019750C098008750CCE
:103CC800118003750C011247C78510828511831274
:103CD8003CF4A90C74098028E0F5087509007808F7
:103CE800221236A18882898322123CFAE8F0A3E9DD
:103CF800F022E0F8A3E0F9850E82850F8322740490
:103D080012189C7F0C0219E674EC121914123E0466
:103D1800751000EE2402F50CE43FF50D850C82F5D4
:103D28008312369D1208768A088B09EA45097003C2
:103D3800023DE8850A82850B83E064016003023D49
:103D4800DDAC08AD09AA0AAB0B12086AE9606E85FA
:103D5800088285098312306AEE2406F50AE43FF5E5
:103D68000B8E828F83A3A3121B3E8E828F83A3A305
:103D7800A3A3121B3E850A82850B83121B3E79186A
:103D88008E828F83123E1612369D12089474061284
:103D9800189CE9F8741668700B850A82850B83E411
:103DA800F0A38014E860128E828F8312369D850EF0
:103DB80082850F83EAF0A3EBF088108018780E1242
:103DC8001B27AC08AD09EEFAEFFB1208707402125B
:103DD800189CE9F510AA08AB0912087CE510700ECA
:103DE800850C82850D8312369D120486800974160F
:103DF80065107003751000A910023D0BEAFEEBFF79
:103E08008C0E8D0FEE2405F50AE43FF50B221248BF
:103E1800C0850C82850D832274EA12191475080076
:103E28007509007E007F00750A00EC2402F510E495
:103E38003DF5118035EC65087003ED6509600302F6
:103E48003ED588828983A3A3E06A7003A3E06B70E0
:103E58007C88828983A3A3A3A31247CBEE28FEEF15
:103E680039FFEA28FAEB39FB050A123FA5503A85D3
:103E78000A0C750D007403780C121873851082856E
:103E88001183123F98124095601FE508450970A5F7
:103E98008C088D098882898312306888828983A377
:103EA800A3E02EFAA3E03F80BEE50AC394025003C4
:103EB800023F93750800750900EE4F6010EEFAEFA7
:103EC800FB1213028A0E8B0FEA450F700579000268
:103ED8003F95750B00023F68850B0C750D00740348
:103EE800780C121873851082851183E0250CF50C67
:103EF800A3E0350DF50DE50C2406F514E4350DF5B4
:103F080015851482F58312409A6042E50C2404F565
:103F180012E4350DF513851282F583121B3EE50E6A
:103F28002508FAE50F3509FB12127E740212189C57
:103F3800851282851383E02508F508A3E03509F585
:103F48000985148285158312369D121308E50B60C6
:103F58000D7C087D007900AA0CAB0D121296050B9A
:103F6800E50BC3950A5003023EE085108285118354
:103F78001247CB88828983A3A3A3A3A3A3E50EF04A
:103F8800A3E50F122BFBEEF0A3EFF07901023AFA4A
:103F9800123F9C22E0250CF8A3E0350D229002EB9D
:103FA800E0F8E50AC3982274F01219148A0E8B0FF0
:103FB8008C0A8D0B750D00750C0080507916EE2457
:103FC80006F508E43FF5098E828F83A3A3121B3EF2
:103FD8008E828F83A3A3A3A3121B3E850882850923
:103FE80083121B3E850E82850F83A3A312369D1272
:103FF8000894740612189CE9F50D7416650D706C1A
:10400800850882850983E4F0A3F0050C9002EBE0B3
:10401800F8E50CC3985066AA0C8A08750900740361
:104028007808121873850A82850B83A3A31240E4CB
:10403800E8FEE9FF8E828F8312409A6040EA2401ED
:10404800F508E43400F5099002EBE065087002E534
:1040580009601488828983A3A3A3A3A3A3A3A3129B
:1040680036CC6003023FC47918023FC6E9609B1250
:1040780047C774101218F012408C123CF4A90D7F37
:10408800080219E6E0FAA3E0F5838A8222F9888219
:1040980089831248C0EC4D2274F61219147C0080F2
:1040A800010C900348E0F8ECC398501E8C08750981
:1040B80000740278081218731240D9E06A7003A3DA
:1040C800E06B70DDE8FAE9FB80047A007B000241CE
:1040D8007C9002E91240E48882898322E02508F86E
:1040E800A3E03509F92274F21219148A088B0975AC
:1040F8000A0080278E828F83A3A3A3A3122BF260CA
:10410800031213087C087D007900EEFAEFFB121207
:10411800968E828F83E4F0A3F0050A123FA55027FC
:10412800850A0C750D007403780C121873850882C3
:10413800850983A3A3E0250CFEA3E0350DFF8E823D
:104148008F831236CC70AD85088285098374FFF0A1
:10415800A3F00248B474F61219141208288A828B44
:1041680083E582458370067A007B008007A3A3A3BA
:10417800A312369D7F020219E674F41219148908F5
:104188008C828D83E06402703C12476AFEA3E0F9DA
:10419800EEF874026870037429697029750A02754B
:1041A8000B00780A121B2774101218F0121B3E74A9
:1041B800101218F0121B3EA9081211887406121862
:1041C8009CE9F980027901022C2F74E81219147401
:1041D800FB121886E9851882851983F08A168B17D1
:1041E800ECFEEDFF7510008E828F83A3A3A3E0A2DF
:1041F800E4502D741D1218F012369D1208828A821E
:104208008B83E58245837003024609790AEEFCEF49
:10421800FDAA16AB17121912E9F510600302460C35
:10422800741F1218F0E0F508A3E0F50974211218BC
:10423800F0E0F50AA3E0F50B74231218F0E0F50E90
:10424800A3E0F50F8E828F83E0640260030245AA23
:10425800A31247CB850882850983A38582128583AB
:1042680013EE2406F50CE43FF50D88828983124687
:1042780049F514E439F5157814121C1001000028CA
:104288000128AC420700022871430328DF420029B5
:10429800A0440129CB4402296C440329A0440429E1
:1042A8004445AA45E50E450F60030245A5850C82E5
:1042B800850D831247CBE8FAE9FB8A828B83E08578
:1042C8000A82850B83124654121B278A828B83A38A
:1042D800E0FCA3E002452EE50E450F60030245A56C
:1042E800850A82850B837401F012463E8508828513
:1042F8000983F07C007D008E828F83A3A3A3A3E0B3
:104308002401FAA3E03400FB120726EA4B60408A36
:10431800828B83E02402F8850A82850B83E028F0EB
:10432800EA2404F8E43BF988828983E085128285CF
:104338001383124662124654121B278A828B83A368
:10434800124631E5082403FAE43509FB02453385B2
:104358000A82850B83E02404F07C047D007900AA9E
:1043680012AB1312129602460CE50E450F600302BB
:1043780045A512463EFEA3E0FF850A82850B83749D
:1043880004F0EE850882850983F0EF851282851393
:1043980083F0740312190AEEFAEFFB1207268A0C4F
:1043A8008B0DEA450D700302444F8A828B83A3A3C9
:1043B80012306874011218FA880E890F780E121BD1
:1043C8002774051218F0121B3E7CFF7DFF12072C84
:1043D800740412189C8B0FEA450F7033850C828584
:1043E8000D83124635121B27850C82850D83A31277
:1043F8001B3E7C027D007AF77B821205287404122A
:10440800189CE9700A74011218F074FFF0A3F08E7A
:10441800828F83E064027039750C02750D00780C88
:10442800121B278E828F83A3124631E5082404FAD3
:10443800E43509FB12127E740212189C850A8285E3
:104448000B83E02402800974011218F0EEF0A3EF48
:10445800F074011218F012462374011218F0124673
:104468001A02459FE50E450F60030245A5850C829B
:10447800850D831248B9AA16AB1712118E850A82C8
:10448800850B837402F0850882850983EAF085121A
:1044980082851383EB0245A2E50E450F60030245B2
:1044A800A512463EF8A3E0F9850A82850B837402BB
:1044B800F0E8850882850983F0E9851282851383EF
:1044C8000245A2850C82850D8312369D121278EA68
:1044D800FAF8C3950EE4950F405CE8650E450F7039
:1044E800047A008021851882851983E0FCE50E2C6A
:1044F800FCE4350FFDC3EC98ED94005003E0800513
:10450800E50ECAC39AFAEA850A82850B83F08A0AFD
:10451800750B00780A121B27850C82850D83E02510
:104528000EFCA3E0350FFDAA08AB0912127E740237
:1045380012189C02460C75100702460CE50E450F32
:10454800705B850C82850D831247CB850A82850BAB
:10455800837407F08882898312461B124613E0850C
:104568001282851383F0E82402FAE439FB8A828BED
:10457800831246238A828B8312461AA3A3122BFA2C
:10458800124628F0E82405F8500109888289831228
:104598004628A3124662A3A3A3A3F0806775100B55
:1045A8008062741D1218F012369D1208288A828BB8
:1045B80083E5824583604A1247CB880C890DE8451C
:1045C8000D603E74251218F0E0F5107810121B2BC0
:1045D800780E121B27780A121B277808121B2774DB
:1045E800071218F0E0F9EEFCEFFDAA16AB17850CE0
:1045F80082850D83121912740712189CE9F5108030
:104608000375100EA9107405023960F08882898339
:10461800A322A3E085088285098322124669F02235
:10462800124669A3A3229002EF1248C022E0F50EB9
:10463800750F00780E22850C82850D83123B03E0EE
:1046480022E0FAA3E0F8E4C8F9EA2822F08A828B8B
:1046580083E0F50A750B00780A22124613124669A0
:1046680022E0850882850983A3A32274EE12191417
:1046780074FE1218868A088B09ECFEEDFF890AACD5
:1046880018AD19EEFAEFFB1207268A0C8B0DEA45D6
:104698000D700302475B85188285198312369D12B7
:1046A80008288A828B83E58245837003024756A3D4
:1046B800A31247CB880E890FE8450F7003024756AF
:1046C80074141218F0E0F510A3E0F511E50AF50BE3
:1046D800780B121B2B74191218F0121B3E7810124B
:1046E8001B27741B1218F0E0F9AC0CAD0DAA08AB2F
:1046F80009850E82850F83121912740512189CE918
:10470800F50B705274FE650A604C850C82850D832A
:10471800E06402704112476AFAA3E0F9EAF8740209
:10472800687003742969702E85108285118312467A
:1047380049F50CE439F50D780C121B27EEFCEFFD5A
:10474800AA08AB091208AC740212189C8008750BF1
:104758000E8003750B01A90B740212189C7F0A02C4
:1047680019E6A31247CF88828983E02274F61219CA
:104778001474FE121886740C1218F01247CBE885D0
:104788001882851983F074011218F0E9F0E4F5082D
:10479800F5097808121B277508027808121B277478
:1047A800041218FA880889097808121B2779FE125A
:1047B8000894740612189C740212189C02417C8E8C
:1047C800828F831247CF22E0F8A3E0F92274F71210
:1047D8001914EAFEEBFF89089003061246311211FC
:1047E8008EEA5402600BA908EEFAEFFB12071A8052
:1047F8000279017F010219E674F212191474FE128B
:104808001886EAFEEBFF890A7401650A60147402CF
:10481800650A60030248AF7901120AB6E96003022B
:1048280048AFEEFAEFFB120876EA4B600312087CF9
:10483800A818A919880889097808121B2775080279
:104848007509007808121B277508DD750982780834
:10485800121B277CFF7DFF7A017B0012072074065C
:1048680012189C8038850882850983A3A3A3A3A373
:10487800A31248B9EEFAEFFB121176E4F50CF50D28
:10488800780C121B2774021218F0121B3E7CFF7D55
:10489800FFAA08AB0912072C740412189C8A088B0B
:1048A80009E508450970BE740212189C7F060219B2
:1048B800E6123B031248C022E0FCA3E0FD2274F498
:1048C8001219148A088B09ECFEEDFF901880E0F4A9
:1048D800604B7A097B001212A8EA4B60408A828BEF
:1048E8008374B1F0A3E4124928F08A828B83A3A3CE
:1048F800E508F0A3E509124928A3EEF0A3EFF07448
:104908000C1218F01247CB8A828B83A3A3A3A3A30C
:10491800A3A3123CF4901880E0F91212B4022C2FD1
:10492800F08A828B83A3A3A3A32274EE12191474B2
:10493800FA1218868A0A8B0BE9FF8C088D097E000B
:10494800850A0C850B0D780C121B6B0004100E4C9D
:104958007A499D49BC49DF49024A254A564A794A5B
:10496800904AC04A6F4B924BB54BE34B0E4C0E4CE2
:10497800E94A74016F7019850882850983E0C39438
:1049880003500D850882850983E090196CF0800238
:104998007E18024C3674026F70158508828509836B
:1049A800E0F8A3E0F990196DE8F0A3E9F080027E41
:1049B80018024C3674016F7019850882850983E0E6
:1049C800C39402500D850882850983E0900749F059
:1049D80080027E18024C3674016F70198508828532
:1049E8000983E0C39405500D850882850983E0900A
:1049F800074AF080027E18024C3674016F701985E0
:104A08000882850983E0C39402500D8508828509D0
:104A180083E090074BF080027E18024C3674106FCA
:104A28007027750C10750D00780C121B27AC08AD9B
:104A3800097A4C7B0712127E740212189C8A0C8B1E
:104A48000D850C82850D8380027E18024C36740118
:104A58006F7019850882850983E0C39402500D851B
:104A68000882850983E090075CF080027E18024C7A
:104A78003674016F700D850882850983E09019707E
:104A8800F080027E18024C3674046F702690829271
:104A9800780C12174A850882850983780C12156DDF
:104AA800501185088285098312177490075E1217C2
:104AB8008080027E18024C36EF70211206C0E97021
:104AC8001312111CE9F50D79501213D4E9F50C12E3
:104AD800110A800A9007F17401F080027E18024CD6
:104AE8003674076F707C750E06750F00780E121BF2
:104AF80027850882850983A3AC82AD8374021219C5
:104B080002121284740212189C8A108B1185100EDE
:104B180085110F7C007D00AA18AB198508828509CC
:104B280083E0F91210B0E9F50CE50CC3940A502E95
:104B38001206C0E97015A90C121122E9F50E795078
:104B48001213D4E9F50D12110A8019A80C79007412
:104B5800F228F582740739F5837401F080067E0225
:104B680080027E18024C3674016F701985088285A0
:104B78000983E0C39402500D850882850983E0907B
:104B8800075DF080027E18024C3674016F7019853B
:104B98000882850983E0C3940A500D850882850937
:104BA80083E090196FF080027E18024C3674016F12
:104BB8007025850882850983E0C394074019850814
:104BC80082850983E0C39411500D85088285098385
:104BD800E0901971F080577E18805374016F70222D
:104BE8009007F0E0F50C850882850983E09007F0CE
:104BF800F0E50C70399007F0E06401703112110A89
:104C0800802C7E188028C3E50A9427E50B94005071
:104C18001B74026F7016850882850983E0FCA3E087
:104C2800FDAA0AAB0B120540E9FE80027E02EEF9EE
:104C3800740612189C7F0A0219E674EC121914748F
:104C4800DA121886890D8A128B138C0A8D0B743A26
:104C58001218F0E0F50C90822CAC18AD19740612FD
:104C68001799AC18AD19AA12AB13A90D1210B0E917
:104C7800FEEEC3940A4003024DB6EEF91210ECE9B9
:104C8800FF90196CE064027004740180027400F5EE
:104C9800087808121B2BAD0CEFFCEEF9AA0AAB0B37
:104CA80012115E740112189C7C147D007900741234
:104CB8001219021212968A0E8B0F850E08850F099B
:104CC800741212190A7A1075F006EEA42424F91247
:104CD80013CEE9703C7C1079FF741212190212127B
:104CE800FCE9702D74221218F0AC82AD837A047539
:104CF800F006EEA42425F91213CEE9F50874121271
:104D0800190AEFA2E0E433F9AA0AAB0B1205CAE9C3
:104D1800F8740612190A7A0C74702EF91213CEE977
:104D2800707974061219021210E0750E00E50EC3B0
:104D380094045067A80E7900E875F003A4C8AAF097
:104D480075F000A42AFA75F003E9A42AF97406128A
:104D580018F0E58228F508E58339F5098508828584
:104D68000983E0F8A3E0F9E849602C850882850901
:104D780083A3A3E0F5107511007810121B2785088E
:104D880082850983E0FCA3E0FDAA0AAB0B12089A0E
:104D9800740212189CE9F8050E8092EFA2E1500EF9
:104DA800900748E0F9AA0AAB0B1208A0E9F87404C6
:104DB800650C700F90196CE064027007AA0AAB0BBF
:104DC8001211587900742612189C7F0C0219E67487
:104DD800F7121914EAFEEBFF1206C0E97067900794
:104DE800F1E06401701B12111CE9F5089007F174D9
:104DF80000F07C0A7D0079007AF27B071212968017
:104E080039750800E508C3940A502FA8087900747A
:104E1800F228F582740739F583E064017018A9084F
:104E2800121122E9FAA808790074F228F5827407A9
:104E380039F5837400F0050880CA79501213D4E953
:104E4800F50812110A7F010219E674F21219148981
:104E58000BEAFEEBFF8C088D09750A0AE50B600C5E
:104E6800146009146044146064024EF7EEFAEFFB14
:104E78001210FEE9F50AE50AC3940A5072E50845DE
:104E880009606C750C06750D00780C121B27EEFC7A
:104E9800EFFDAA08AB0912127E740212189C8A0C44
:104EA8008B0D850C82850D838045EEFAEFFB121081
:104EB800F8E9F50AE50AC3940A5034E5084509609B
:104EC8002EAA08AB09A90A1210F2E98022EEFAEF1D
:104ED800FB121104E9F50AE50AC3940A5011E50822
:104EE8004509600BAA08AB09A90A1210F2E9F8A94A
:104EF8000A7F060219E674F21219148A0C8B0DE95E
:104F0800FF7E1574FF650C700474FF650D702A75BB
:104F18000800E508C3940A5014EFFC7A027B00A944
:104F2800081210CEE960027E00050880E5EF606295
:104F38007A467B11120ADA8059AA0CAB0D120AAA1A
:104F48008A0A8B0B850A08850B09E5084509604024
:104F58007C007D00E5082405FAE43509FB85088214
:104F6800850983A3A3A3A3E0F91210B0E9F50AE524
:104F78000AC3940A500EEFFC7A027B00A90A1210A9
:104F8800CEE97E00EF600BAA08AB09121146800239
:104F98007E14EEF97F060219E674EE1219148A0ED1
:104FA8008B0F8C0A8D0B74121218F0E0F50CA3E02D
:104FB800F50D75081574FF650E700474FF650F70A4
:104FC8001E7E00EEC3940A5061AC0CAD0DAA0AAB6C
:104FD8000BEEF91210D4E960037508000E80E4AAFC
:104FE8000EAB0F120AAA8A108B11AE10AF11EE4F3A
:104FF80060357C007D00EE2405FAE43FFB8E828F4D
:1050080083A3A3A3A3E0F91210B0E9F509E509C346
:10501800940A5016AC0CAD0DAA0AAB0BA9091210D4
:10502800D4E97508008003750814A9087F0A0219D5
:10503800E674F7121914EAFEEBFF900762EEF0A38C
:10504800EFF0900748E0FC7D007A267B00120540CF
:10505800E9F508900748E0F91208047F010219E60B
:1050680074F012191474EC1218868A0C8B0D850CC6
:1050780082850D83A3A3E024FA70030254E124FD82
:10508800700302535614700302515814601024FD23
:1050980070030252FE1470030253950254F4AE0CCE
:1050A800AF0D900762E0F8A3E0F9E8496066900761
:1050B80062E0F8A3E0F5838882E0F8A3E0F9E84924
:1050C8006052EE240CF582E43FF583E0F508780899
:1050D800121B2BEE240BF582E43FF583E0F98E8258
:1050E8008F83A3A3A3A3A3A3A3A3A3E0FCA3E0FD8F
:1050F800EE2403FAE43FFB900762E0F8A3E0F583AF
:105108008882E0F8A3E0F5838882121912740112EC
:10511800189C80398E828F83A3A3A3A3A3A3A3A3E0
:10512800A3121B3E90075E1217681205DC74021268
:10513800189CE9601879018E828F83A3A3A3A3A387
:10514800A3A3A3A3E0FAA3E0FB1205D6E90254F453
:10515800AE0CAF0D7508008E828F83A3E06003024A
:1051680052808E828F83A3A3A3A3A3E0A2E040036F
:105178000252809007FCE0F8A3E0F9E849600302D6
:1051880052807C0E7D007900AA18AB191212968AFB
:105198000A8B0BAA0AAB0BEE240CF582E43FF583CD
:1051A800E0F8A3E0F9E8496036750A06750B00785F
:1051B8000A121B27EE240CF582E43FF583E0241045
:1051C800FCA3E03400FD740212190212127E74026C
:1051D80012189C8A0A8B0B850A82850B83804F8E56
:1051E800828F83A3A3A3E0FAA3E0FB120AAA8A0E84
:1051F8008B0F850E0A850F0BE50A450B602D750E82
:1052080006750F00780E121B27E50A2405FCE43505
:105218000BFD740212190212127E740212189C8A73
:105228000E8B0F850E82850F8380030254F48E82C5
:105238008F83A3A3A3A3A3E0A2E25004D2F0800229
:10524800C2F0A2F0E433F87900740C1218F0E048C8
:10525800F0A3E049F0EEFCEFFDAA18AB191210E636
:10526800E970127A027B00900748E0F91212D8E937
:1052780079000254F6750815900762E0F8A3E0F982
:10528800E849606F900762E0F8A3E0F5838882A39D
:10529800A3E0F8A3E0F9E84960598E828F83A3E080
:1052A800FC79018E828F83A3A3A3E0FAA3E0FB908D
:1052B8000762E0F8A3E0F5838882A3A3E0F8A3E0FF
:1052C800F5838882121912E5086028AC0879038EE4
:1052D800828F83A3A3A3E0FAA3E0FB900762E0F820
:1052E800A3E0F5838882A3A3E0F8A3E0F58388828E
:1052F8001219120254F4AE0CAF0D900762E0F8A335
:10530800E0F9E8496045900762E0F8A3E0F5838892
:1053180082A3A3E0F8A3E0F9E849602F850C828511
:105328000D83A3E0FC79028E828F83A3A3A3E0FA06
:10533800A3E0FB900762E0F8A3E0F5838882A3A3CB
:10534800E0F8A3E0F58388821219120254F4AE0C37
:10535800AF0D7C007D00EE2404FAE43FFB8E828FC3
:1053680083A3A3A3E0F91210B0E9F508E508C394F4
:105378000A5017EE240AFCE43FFD7A0475F006E5AE
:1053880008A42425F91213C8E9F80254F4AE0CAFA6
:105398000D90075DE0601990196FE0F98E828F8398
:1053A800A3A3A3E0FAA3E0FB1205D6E9F80254F49C
:1053B80090196CE0701679058E828F83A3A3A3E001
:1053C800FAA3E0FB1205D6E9F80254F48E828F8323
:1053D800A3A3A3E0FAA3E0FB120AAA8A0A8B0B850F
:1053E8000A08850B09E508450970030254F48E8202
:1053F8008F83A3A3A3A3A3A3A3E0A2E0506D850872
:1054080082850983A3A3A3A3E060608E828F83A310
:10541800A3A3A3A3A3A3A3A3E0F50AA3E0F50B7496
:1054280009780A121864E50A5401F8E50B5400F9E2
:10543800E8A2E04036740E12190AE5082405FAE4D9
:105448003509FB850882850983A3A3A3A3E0F91284
:1054580010B0E9701679038E828F83A3A3A3E0FAB4
:10546800A3E0FB1205D6E9F80254F4EE2405FCE4A7
:105478003FFD850882850983A3A3A3A3E0F98E8253
:105488008F83A3A3A3E0FAA3E0FB12115290076253
:10549800E0F8A3E0F9E8496053900762E0F8A3E078
:1054A800F5838882A3A3E0F8A3E0F9E849603D7C8E
:1054B8000079008E828F83A3A3A3E0FAA3E0FB9078
:1054C8000762E0F8A3E0F5838882A3A3E0F8A3E0ED
:1054D800F58388821219128013AE0CAF0D8E828F5D
:1054E80083A3A3A3E0FAA3E0FB1210AA7901741422
:1054F80012189C7F080219E674F512191474F21236
:1055080018868909EAFEEBFF8C0AAC18AD197A0EE9
:1055180075F006E509A42420F91213CEE9705F7C22
:105528000679FFAA18AB191212FCE97051740C1213
:1055380018F0E0F8A3E0F9E8F508E50A6005EE429E
:10554800088004EEF45208A8087900740C1218F0C8
:10555800E0687003A3E0696021A8087900740C1260
:1055680018F0E8F0A3E9F0AC18AD197A0E75F0065A
:10557800E509A42420F91213C8E979018002790009
:10558800740E12189C7F030219E674F01219147431
:10559800E6121886890B8A0C8B0DECFEEDFF740C55
:1055A80012190A7A0E75F006E50BA42420F91213D5
:1055B800CEE960030256C27C0679FF740C12190208
:1055C8001212FCE960030256C2AC18AD197A0C74C9
:1055D80070250BF91213CEE960030256BE750A0056
:1055E800AA18AB191210E0E50C450D702E7C0C7949
:1055F80000AA18AB191212FCE960030256A47C0C2D
:105608007D007900AA18AB191212968A088B0985B1
:105618000882850983750A010256A4AC18AD19AA37
:105628000CAB0D1210DA8A0E8B0F850E08850F0948
:10563800E50845097030EE4F601BAC18AD197A00CB
:105648007B001210DA8A0E8B0FA80EA90F88088922
:1056580009E849700479008063850882850983E533
:105668000CF0A3E50DF0850882850983A3A3E0F873
:105678007900EE687002EF696022EEC0E08508826A
:10568800850983A3A3D0E0F0EE4F700D85088285CD
:1056980009837400F0A37400F0750A01E50A601626
:1056A800AA18AB191210E0AC18AD197A0C74702551
:1056B8000BF91213C8E9790180027900741A1218DB
:1056C8009C7F080219E674F61219148A088B097E61
:1056D80000EEC394045050EEF87900E875F003A486
:1056E800C8AAF075F000A42AFA75F003E9A42AF90B
:1056F800EC28F582ED39F583E065087004A3E065D0
:10570800097021EEF87900E875F003A4C8AAF075CD
:10571800F000A42AFA75F003E9A42AF9EC28FAEDB6
:1057280039FB80070E80AA7A007B007F020219E607
:1057380074F71219147C00ECC3940440030257E771
:10574800ECF87900E875F003A4C8ADF075F000A492
:105758002DFD75F003E9A42DF9EA28F582EB39F55A
:1057680083E0F4FEA3E0F4FFECF87900E875F003B9
:10577800A4C8ADF075F000A42DFD75F003E9A42DC3
:10578800F9EA28F582EB39F583EEF0A3EFF0ECF8AF
:105798007900E875F003A4C8ADF075F000A42DFDFC
:1057A80075F003E9A42DF9EA28F582EB39F583A30E
:1057B800A3E0F4C0E0ECF87900E875F003A4C8AD04
:1057C800F075F000A42DFD75F003E9A42DF9EA2881
:1057D800F582EB39F583A3A3D0E0F00C02573F7FA5
:1057E800010219E674F012191474F4121886EAFE0C
:1057F800EBFF8C088D099007FCE0F8A3E0F9E84975
:10580800702CEE4F6006E508450970057901025ACB
:1058180098EEFAEFFB1210FEE9901972F0901972E7
:10582800E0C3940A4008121110E9901972F0901917
:1058380072E0C3940A4003025A969007FCE0F8A36A
:10584800E0F9E84960030258E2EEFCEFFD7A0E75D4
:10585800F006901972E0A42420F91213C8E9F50C97
:105868007C0C7D0079FFAA18AB191212968A0E8B50
:105878000F850E0A850F0BAC18AD197A0C901972AA
:10588800E02470F91213C8E9F50D750E0E750F00B6
:10589800780E121B27EEFCEFFD901972E0F87900E4
:1058A800E875F00EA4C8AAF075F000A42AFA75F0FD
:1058B8000EE9A42AF9746428FA740739FB12127ED7
:1058C800740212189C8A0E8B0FA80EA90F9007FC61
:1058D800E508F0A3E509F0025A929007FCE0F8A366
:1058E800E0C82406F582C83400F583E0F8A3E0F99F
:1058F800E84960439007FCE0F8A3E0C82406F58275
:10590800C83400F583E0FCA3E0FD7A1B75F006902F
:105918001972E0A42421F91213C8E9F89007FCE0F1
:10592800F9A3E0C92406F582C93400F5837400F0B0
:10593800A37400F0025A929007FCE0F8A3E0C82490
:105948000AF582C83400F583E0F8A3E0F9E8496075
:10595800439007FCE0F8A3E0C8240AF582C83400A5
:10596800F583E0FCA3E0FD7A1B75F006901972E060
:10597800A42422F91213C8E9F89007FCE0F9A3E07F
:10598800C9240AF582C93400F5837400F0A37400B1
:10599800F0025A929007FCE0F8A3E0C8240CF582C4
:1059A800C83400F583E0F8A3E0F9E84960439007BC
:1059B800FCE0F8A3E0C8240CF582C83400F583E0C5
:1059C800FCA3E0FD7A1075F006901972E0A4242378
:1059D800F91213C8E9F89007FCE0F9A3E0C9240C10
:1059E800F582C93400F5837400F0A37400F0025AFC
:1059F800929007FCE0F8A3E0C82408F582C83400B8
:105A0800F583E0F8A3E0F9E849606F9007FCE0F857
:105A1800A3E0C82408F582C83400F583E0FCA3E0BD
:105A2800FD7A1075F006901972E0A42424F9121377
:105A3800C8E9F50A9007FCE0F8A3E0C82408F58255
:105A4800C83400F583E02410FCA3E03400FD7A0498
:105A580075F006901972E0A42425F91213C8E9F824
:105A68009007FCE0F9A3E0C92408F582C93400F5E1
:105A7800837400F0A37400F080109007F0E06003D6
:105A880012116412114C79018006790080027901A3
:105A9800740C12189C7F080219E674F71219147412
:105AA800F2121886E9FEAC18AD197A0E75F006EEFA
:105AB800A42420F91213CEE9700E740C1218F0E029
:105AC800F8A3E0F9E8F980027900740E12189C7FB7
:105AD800010219E674F412191474F212188689096D
:105AE800EAFEEBFFE509C3940A5004EE4F7004790F
:105AF800028041AC18AD197A0E75F006E509A424A8
:105B080020F91213CEE9F508E5087026750A06751E
:105B18000B00780A121B27740212190AEEFAEFFB1F
