:020000040000FA
:0600000002011A02215D5D
:03002B000226307A
:0300330002261290
:030053000221D3B4
:03006B000225E982
:10008300021FB3E5C754F84401F5C7790122000004
:100093000080FB120086B90003020104E4791B7897
:1000A30002B800028004F709D8FCE4791D7802B88D
:1000B30000028004F709D8FCE490028178247919BE
:1000C3008002F0A3D8FCD9FA781A90014A7A01BACF
:1000D30000028007E493A3F608DAF97AA47B1A9066
:1000E300014B78DB79018015E493A3AD82AE838A5B
:1000F300828B83F0A3AA82AB838D828E83D8E9D9C6
:10010300E77582A37583E2740312012C75829175DE
:100113008300740012012C75D00075813F7518811E
:10012300751902759F00020096C09FF59FE473D076
:100133009F22D083D082C09FE493C0E0740193C018
:10014300E0740293F59F2201C903D5030B04050450
:10015300FF0000B4000028002800283075A000A08C
:1001630000A000A00000080008E001F0001000104B
:10017300001000100010001000500050005000103C
:10018300001000D0070000000000000F0001000570
:1001930000307507001000010081FF00000000FF20
:1001A300FFFF020202FE90010000EA9002069101A5
:1001B3000000FE1A02F490010000B8020206910149
:1001C3000000FF1A02F290010000CE02FFFF0100BF
:1001D300FF2002FE90010000ED9002069101000055
:1001E3002D1B02F090000000000002F690030000B7
:1001F300FA0217005D0C5D0C5D0C5D0C5D0C5D0C73
:100203005D0C5D0C5D0C5D0C5D0C5D0C5D0C850E79
:10021300A30E7F0E01E803057710020AFFFFFF001C
:10022300FEFF1201358EFD02120135A1FD021201FE
:1002330035C2FD021201352DFE021201356EFE029A
:100243001201358FFE02120135B0FE02120135F1A3
:10025300FE0212013589FF02120135D1FF0212019C
:10026300358DBE03120135A0BE03120135D1BE0385
:100273001201350BBF0312013564BF03120135AB05
:10028300BF03120135F3BF0312013522C00312016C
:100293003551C00312013588C003120135CFC003A5
:1002A300120135E8C0031201353DC1031201356B5C
:1002B300C103120135A5C103120135E8B1021201D0
:1002C30035EBB20212013518B30212013569B302DC
:1002D3001201358CB3021201359EB302120135A10E
:1002E300B302120135DFB30212013553B402120116
:1002F30035BFB40212013587B502120135A3B50229
:10030300120135DAB50212013514B602120135AB0A
:10031300B602120135FDB6021201352EB7021201E3
:100323003531B70212013562B7021201356FB702D8
:1003330012013587B702120135F1B702120135F404
:10034300B70212013501B80212013504B8021201D5
:10035300355BB8021201356CB802120135A5B8023B
:10036300120135A8B802120135DCB802120135DFDB
:10037300B80212013533B9021201357CB9021201F8
:10038300358CB902120135BFB902120135CCB9025D
:10039300120135CFB90212013537BA0212013539CC
:1003A300BB02120135DDBB0212013546BC0212014C
:1003B3003584BC021201355EC60212013556C702EE
:1003C3001201358AC70212013520C8021201356BAA
:1003D300C802120135CFC80212013559C9021201F0
:1003E3003512CA0212013534CD02120135B1CE02E3
:1003F300120135D4CE02120135A4A60312013549E8
:10040300A80312013569A8031201358AA903120151
:1004130035DDA903120135ECAE0312013514AF0328
:1004230012013541AF0312013579AF03120135D7FC
:10043300AF0312013523B0031201358AB003120151
:1004430035CAB00312013507B10312013535B103C3
:10045300120135DFB103120135E9B103120135F69B
:10046300B10312013529B20312013535B20312016A
:10047300354DB20312013557B203120135CBDE03FA
:10048300120135D9DE03120135F1DE0312013509FC
:10049300DF0312013520DF03120135E4E20112010B
:1004A300358EE3011201350AE40112013528E50115
:1004B30012013564E501120135FFE501120135E34F
:1004C300E601120135A6E7011201351EE80112010A
:1004D30035ACE9011201351DEA01120135D7EA01F4
:1004E300120135C9EB0112013509EC01120135BDC9
:1004F300EC01120135EFEC01120135E5EE011201B9
:100503003527EF0112013545EF01120135CAEF011D
:100513001201358EF001120135ADF201120135D20F
:10052300B603120135E8B60312013506B70312010B
:100533003517B80312013521B8031201354CB9033D
:1005430012013543BA03120135B0BA03120135481B
:100553008F03120135EC8F0312013523900312012F
:10056300357A90031201358F92031201350A9101F6
:10057300120135BB9101120135D79101120135A04A
:100583009201120135AA9201120135C4920112019E
:1005930035CF9201120135A59301120135829401E1
:1005A300120135DF94011201356F950112013526D1
:1005B3009601120135349901120135239B01120171
:1005C30035D59B011201359E9C01120135E39F0134
:1005D3001201358DA001120135B6A1011201357248
:1005E300A30112013512A40112013560A401120105
:1005F300359FA40112013572A501120135A6A5018B
:1006030012013533A601120135AFD0011201353B7A
:10061300D1011201359FD201120135ABD201120172
:1006230035E6D20112013555D3011201355ED401ED
:1006330012013567D5011201352ED6011201358B12
:10064300D701120135A9D701120135C6D70112010D
:100653003591D801120135B9D80112013583DB0177
:1006630012013588DB01120135A1DD01120135EFDD
:10067300DD011201355FDE011201359DDE0112013C
:100683003579DF0112013539E00112013585E001C9
:1006930012013588E001120135CCE0011201351455
:1006A300E10112013553E10112013575E101120136
:1006B30035A9E1011201350CE2011201353E8A032D
:1006C300120135478A03120135558A03120135A8F1
:1006D3008A03120135C78A031201350C8B031201F9
:1006E30035508C03120135EB8C031201352F8D032A
:1006F300120135598D03120135C88D031201350ED0
:100703008E03120135858E03120135368F031201D4
:1007130035682600120135782600120135192700A5
:100723001201357527001201353228001201354EAA
:100733002900120135802900120135AF2900120169
:10074300355C2B00120135D32D00120135433000E7
:100753001201353531001201352E320012013535C3
:1007630034001201352937001201355838001201BF
:10077300355C3A001201356C3B00120135FB3C003D
:10078300120135EC3D001201353A3E00120135A944
:100793003E00120135CD3E001201351E3F0012010D
:1007A30035BF4300120135C0440012013521450015
:1007B3001201354C4500120135124600120135E590
:1007C300B203120135EFB20312013534B303120140
:1007D3003548B303120135D8B30312013500B4030E
:1007E3001201353BB40312013564B4031201359889
:1007F300B403120135ADB40312013518B503120168
:100803003539B5031201354DB50312013562B50310
:100813001201359CB50312013501B60312013544AB
:10082300B6031201356EB603120135AAB6031201DF
:1008330035BDDB03120135159C02120135F89C020C
:10084300120135739D02120135AE9D02120135FF6F
:100853009E02120135889F02120135A0A1021201E6
:100863003532A402120135E4A40212013503A602B3
:100873001201355CA60212013500800312013543D3
:100883008003120135C780031201359A81031201D7
:10089300357184031201353DCB03120135EACB03D5
:1008A300120135F7CC0312013536CD031201359011
:1008B300CD0312013584D303120135E7D3031201AB
:1008C3003584D403120135B2D403120135D3D403D2
:1008D3001201350ED5031201352ED5031201353E13
:1008E3009403120135CA9403120135899503120149
:1008F30035A19603120135BB9803120135AABC0238
:10090300120135CFBC02120135A3BD02120135100D
:10091300BE0212013566BE0212013502BF02120188
:100923003536C00212013511C10212013570C10200
:1009330012013541C202120135CDC202120135D076
:10094300C2021201351AC3021201358CC30212010D
:100953003537C40212013557C4021201359FC40250
:10096300120135BBC40212013535C50212013543EC
:10097300C502120135D2C5021201353BC60212016E
:1009830035899D031201350E9E03120135509E03D6
:10099300120135349F03120135A19F03120135E57E
:1009A3009F0312013529A00312013556A00312013A
:1009B300357EA003120135B6A003120135F4A0035E
:1009C3001201351BA10312013595A103120135DF75
:1009D300A103120135095F00120135D6600012012F
:1009E30035BF62001201351363001201353E630007
:1009F300120135ED630012013531640012013575C2
:100A03006400120135886400120135C964001201C3
:100A130035F664001201354465001201358A65001C
:100A2300120135B5650012013508660012013594CF
:100A330066001201357D67001201356768001201F7
:100A430035656A00120135746F00120135CD6F00F0
:100A5300120135097000120135EF7100120135A83A
:100A63007300120135FE73001201352E7500120159
:100A7300353F750012013597C80312013509C903C3
:100A83001201355FC903120135A3C903120135C32E
:100A9300C90312013510CA0312013558CA031201E2
:100AA30035ABCA03120135FCCA031201357E460079
:100AB300120135C74600120135F4460012013526EE
:100AC30047001201353247001201353E470012013B
:100AD300355547001201353048001201358E480064
:100AE300120135C34800120135F4490012013541A2
:100AF3004A001201358F4A00120135ED4A001201F6
:100B030035D64B00120135524D001201351B4E00F4
:100B13001201352B4E00120135554E001201355886
:100B23004E001201352F4F00120135E04F00120124
:100B330035855000120135E350001201352A51006A
:100B4300120135AE5100120135495200120135F43C
:100B53005200120135A05300120135125400120144
:100B630035595400120135BD5400120135EC5400BF
:100B73001201357F5500120135915700120135D509
:100B830057001201351A58001201359C5800120102
:100B9300352659001201353B5A00120135C15A005E
:100BA300120135E65A001201353D5B001201355240
:100BB3005B001201359A5B001201350D5C001201D6
:100BC30035525C00120135575D00120135085E0095
:100BD300120135645E00120135C05E00120135D981
:100BE3005E00120135F7CF021201354BD00212011C
:100BF3003557D00212013521D1021201354ED102EF
:100C03001201357CD102120135E8D1021201351EE1
:100C1300D20212013557D2021201356FD2021201EC
:100C230035C4D202120135DDD20212013522D302BC
:100C330012013535D3021201354FD3021201356546
:100C4300D30212013583D402120135AED50212014B
:100C53003598D60212013589D702120135F17F008A
:100C6300120135238503120135A68803120135F3DA
:100C73008903120135BAF2011201358DF501120112
:100C83003593F50112013523F80112013586FA0176
:100C9300120135F298031201358999031201354780
:100CA3009A03120135719A031201354B9C03120109
:100CB30035509D03120135EBBC011201351DBD01F9
:100CC30012013502C70112013553C8011201355C07
:100CD300C901120135DBCA01120135C2CB01120170
:100CE3003511CC011201352BCC0112013571CC0128
:100CF300120135B8CC01120135C1CC011201356D99
:100D0300CD0112013546CE011201358DCE011201FE
:100D130035F5CE0112013537CF0112013565CF010B
:100D2300120135A2CF01120135BABA0312013530CF
:100D3300BB0312013546BB03120135D6BB031201B7
:100D43003513BC031201354DBC0312013587BC03B7
:100D5300120135FABC031201353BBD0312013544C0
:100D6300BD0312013550BD031201356FBD031201DE
:100D73003599BD03120135AEBD03120135D6BD034E
:100D830012013538BE031201355FBE03120135105F
:100D9300F10212013523F1021201353DF102120174
:100DA300356AF102120135B0F102120135E3F102A5
:100DB30012013521F20212013586F2021201359B2E
:100DC300F202120135B2F202120135C0F20212012F
:100DD30035CFF202120135E4F202120135F9F202C3
:100DE30012013504F30212013510F3021201351D0D
:100DF300F30212013530F3021201353BF302120103
:100E03003560F30212013504F40212013519F402BC
:100E13001201352EF40212013548F4021201356530
:100E2300F40212013582F4021201358DF40212012B
:100E33003539F5021201351AF6021201353FF60271
:100E43001201354AF6021201355FF60212013573BB
:100E5300F602120135D4F602120135DAF602120156
:100E630035E0F602120135E6F602120135FEF6020E
:100E730012013531F7021201356275001201358412
:100E830075001201354C7600120135067900120106
:100E9300351C7A001201353D7B00120135177C00A9
:100EA300120135C67C00120135928E0212013529DA
:100EB3008F02120135C18F02120135B19002120166
:100EC30035E89002120135FB900212013569910257
:100ED3001201350493021201352B9302120135CD11
:100EE3009302120135029402120135139402120186
:100EF300358C9402120135AD9402120135C594026A
:100F03001201351D9602120135269802120135761B
:100F13009A02120135799B02120135C89B02120114
:100F230035008002120135FD8002120135E881028D
:100F3300120135F2810212013514820212013520A9
:100F43008202120135728302120135A1830212015A
:100F530035D184021201351385021201353F860211
:100F6300120135158702120135678702120135C652
:100F73008702120135FD87021201353888021201FA
:100F830035D38B02120135EC8B021201356E8C02C4
:100F93001201357C8C02120135D18C02120135DF2E
:100FA3008C021201354C8D02120135BE8D021201E5
:100FB30035048E021201353CD50312013561D50388
:100FC300120135D2D50312013543D9021201354C32
:100FD300D90212013555D90212013586DA021201FE
:100FE30035A5DC02120135DBDC0212013515DD0209
:100FF3001201354BDD0212013585DD02120135B9CF
:10100300DD02120135E5DD021201352EDE02120189
:101013003568DE02120135B0DE0212013506DF0249
:101023001201353BDF0212013596DF02120135D082
:10103300DF0212013521E00212013557E0021201ED
:101043003591E002120135B4E00212013592E0035A
:10105300120135BEE00312013519E10312013523F4
:10106300E10312013533E103120135B3F702120133
:1010730035F2F7021201357BF80212013590F802BE
:10108300120135DBF8021201350FF9021201354E58
:10109300F9021201355DF90212013512FA02120149
:1010A300356BFA02120135BAFA0212013513FB024B
:1010B30012013520FC0212013519FD0212013556C9
:1010C300FD02120135E4E10312013529A7011201E2
:1010D30035A9A9011201351DAB011201357AAB0106
:1010E30012013523AC0112013520AD01120135A8DF
:1010F300AD0112013534AE0112013559AE011201B1
:1011030035A9AE011201354AB101120135BBB10156
:10111300120135A7B201120135E1B20112013521E5
:10112300B301120135C1B401120135F2B401120148
:101133003547B50112013594B50112013505B601E4
:1011430012013528B60112013542B6011201355894
:10115300B70112013568B701120135F9B80112015F
:101163003519B9011201354FB901120135D3BA014D
:101173001201354CBB011201358BBB01120135BD88
:10118300BC01120135B7D1031201351BD203120181
:1011930035CAD203120135E9D2031201353DD30317
:1011A30012013536FF0112013547FF01120135FBEC
:1011B300E2031201353AE303120135EAFF0112019A
:1011C30035B0DF03120135C0DF03120135D8DF0369
:1011D3001201358CE003120135D1DC0312013555C0
:1011E300DD03120135BBDD03120135F2D603120113
:1011F300351BD70312013581D703120135A0D7035D
:10120300120135F4D7031201354DD8031201358885
:10121300D8031201358BD80312013568C5031201B7
:10122300357DC503120135A1C6031201350BC70372
:101233001201357FC70312013599C703120135B077
:10124300C703120135C3C703120135DBC7031201FC
:1012530035F0C70312013511C80312013562C80303
:10126300120135EAAA0312013501AB031201357AE3
:10127300AB031201354FAC0312013521AE0312014A
:101283003586AE03120135D9AE03120135F87F005E
:10129300120135DDCF0312013553D103120135B4E9
:1012A300D10312013533DA031201355CDA0312017B
:1012B3003585DA031201351EDB0312013536DB03F4
:1012C30012013578DB0312013542E1021201354C7C
:1012D300E1021201358CE102120135D5E10212015E
:1012E300350FE20212013565E20212013584E20292
:1012F30012013509E50212013512E50212013563C7
:10130300E5021201358CE502120135A1E502120155
:101313003511E6021201359FE602120135E3E602BA
:101323001201350BE7021201358AE702120135CDAE
:10133300E7021201350AE8021201351CE802120124
:10134300353BE80212013544E8021201350EE90289
:1013530012013595D803120135E6D8031201356F12
:10136300D903120135D5D9031201350DC203120178
:101373003537C20312013531C30312013556C30396
:10138300120135F7C3031201357DC403120135D4AD
:10139300DD03120135DBCD0312013511CE0312013A
:1013A300354ACE03120135A3CF031201353DE103C4
:1013B30012013553E1031201355DE103120135B327
:1013C300E10312013544E2031201353AE902120145
:1013D30035F7E90212013532EA021201355AEA02FF
:1013E300120135BCEA0212013508EB021201357312
:1013F300EB02120135EFEB02120135EBEC021201A5
:101403003572EE02120135F5EE0212013559EF0283
:1014130012013570EF0212013566F002120135B286
:10142300F0021201351FA20312013534A203120187
:1014330035E4A20312013524A3031201353DA303AE
:1014430012013570A303120135BDA303120135F157
:10145300A30312013533A40312013531A60312018C
:101463003597A60312013505A702120135F3A7022A
:10147300120135BBA80212013543AB021201353804
:10148300AC021201355BAC021201359CAE021201B3
:1014930035EEAE0212013581AF02120135CCB00236
:1014A30012013567B10212013544E303120135BA63
:1014B3007F0012013570E30312013599E303E066FF
:1014C300701008A3E066700A08A3E066700408A31E
:1014D300E06622C3E7960809E7960809E796080934
:1014E300E79622C3E09608A3E09608A3E09608A334
:1014F300E09622C008C3E096F50808A3E0964208E8
:1015030008A3E096420808A3E09645087001D3D0EB
:101513000822080808EAC0E0EBC0E086F0E7A4FA76
:10152300180986F0E7A42AFA180986F0E7A42AFA2C
:10153300180986F0E7A42AFA1986F0E7A4FBE5F078
:101543002AFA190886F0E7A42BFBE5F03AFA190802
:1015530086F0E7A42BFBE5F03AFA18180986F0E7C2
:10156300A4C5F02BFBE43AFA1908E7C5F0C6A42694
:10157300F6E5F03BFBE43AFA1886F0E7A4F6E5F06B
:101583000826F6E43B08F6E43A08F6D0E0FBD0E0A0
:10159300FA22E4CFC0E0E4CEC0E0E4CDC0E0E4CC86
:1015A300C0E075F020E626F608E633F608E633F6E3
:1015B30008E633F6181818EC33FCED33FDEE33FE72
:1015C300EF33FFC3EC9709ED9709EE9709EF9719EE
:1015D3001919400FFFEC97FC09ED97FD09EE97FEF3
:1015E300191906D5F0BFECF709EDF709EEF709EF86
:1015F300F7191919D0E0FCD0E0FDD0E0FED0E0FFF0
:10160300226016080808C6C313C618C613C618C630
:1016130013C618C613C6D5E0EA22700908080822C3
:101623006016181818C6C333C608C633C608C633AF
:10163300C608C633C6D5E0EA22E627F60809E63728
:10164300F60809E637F60809E637F622E026F60833
:10165300A3E036F608A3E036F608A3E036F622E068
:1016630026F008A3E036F008A3E036F008A3E0363E
:10167300F022C3E697F60809E697F60809E697F617
:101683000809E697F622C3E096F008A3E096F0086F
:10169300A3E096F008A3E096F022E657F60809E6E1
:1016A30057F60809E657F60809E657F622E056F614
:1016B30008A3E056F608A3E056F608A3E056F62280
:1016C300E056F008A3E056F008A3E056F008A3E0C4
:1016D30056F022E066F608A3E066F608A3E066F695
:1016E30008A3E066F622E0F608A3E0F608A3E0F616
:1016F30008A3E0F622E6F008A3E6F008A3E6F00864
:10170300A3E6F022E0FAA3E0FBA3E0FCA3E0FD22C2
:10171300EAF0A3EBF0A3ECF0A3EDF022E0F8A3E0F2
:10172300F9A3E0FAA3E0FB22E8F0A3E9F0A3EAF0CF
:10173300A3EBF022CAC0E0E6F0A308DAFAD0E0FA9D
:1017430022CAC0E0E0A3C582CCC582C583CDC583D0
:10175300F0A3C582CCC582C583CDC583DAE6D0E0CC
:10176300CA22C3E498F8E499F91217A68026C3E4C1
:101773009AFAE49BFBE920E7E91217A6E498F8E458
:1017830099F922C3E498F8E499F91217A6E498F8B2
:10179300E499F9C3E49AFAE49BFB22EB20E7CFE94F
:1017A30020E7E0B90010BB0008E88AF084F8AAF04B
:1017B30022E4FBC8FA22EB70227B10C833C8C9337A
:1017C300C9335007C39AC3DBF280069A50012ADB60
:1017D300EAC833F4C8C933F4C9FA2275F008E4C877
:1017E30033C8C933C933C99AC99B5004C92AC93BF1
:1017F300D5F0ECFBC833F4C8E4C9FA22600D08C67F
:10180300A2E713C618C613C6D5E0F322600C08C6B8
:10181300C313C618C613C6D5E0F422700422600DA4
:1018230018C6C333C608C633C6D5E0F41822251834
:1018330010AF08F518400C15198008F5184002156B
:1018430019D2AF2200C0D0251810AF08F518500CDC
:1018530005198008F51850020519D2AFD0D02225FA
:1018630018F58210AF08F518400C15198008F51803
:1018730040021519D2AF851983222518F582E43564
:1018830019F583222518F8E43519F9222518FAE405
:101893003519FB222518FCE43519FD22E4732518BC
:1018A300C582C0E0E51934FFC583C0E0E518C395E0
:1018B3008224F810AF0885831985821880088583F0
:1018C30019858218D2AFCEF0A3E520F0A37808E6FD
:1018D30008F0A3DEFAEFF0A3E58124FAF8E608F0B6
:1018E300A3E608F0A3E608F0A30808E608F0A3E6D9
:1018F30008F0A315811581D0E0FED0E0F81581151D
:10190300811581E8C0E0EEC0E0222518C582C0E061
:10191300E51934FFC583C0E0E518C3958224F910A7
:10192300AF088583198582188008858319858218F5
:10193300D2AFCEF0A3E520F0A37808E608F0A3DE4B
:10194300FAEFF0A3E58124FBF8E608F0A3E608F03C
:10195300A30808E608F0A3E608F0A315811581D0D3
:10196300E0FED0E0F815811581E8C0E0EEC0E0228A
:10197300851983851882E0A3FEE0A3F5207808E0AB
:10198300A3F608DFFAE0A3FFE0A3C0E0E0A3C0E012
:10199300E0A3C0E0E0A3C0E0E0A3C0E010AF08858F
:1019A30082188583198008858218858319D2AFD060
:1019B30083D082020132851983851882E0A3FEE079
:1019C300A3F5207808E0A3F608DFFAE0A3FFE0A37D
:1019D300C0E0E0A3C0E0E0A3C0E0E0A3C0E010AF3C
:1019E300088582188583198008858218858319D212
:1019F300AFD083D08222C0D02518C582C0E0E519BC
:101A030034FFC583C0E0E518C3958224F310AF0803
:101A13008583198582188008858319858218D2AF3A
:101A2300C8F0A3E9F0A3EAF0A3EBF0A37908E70970
:101A3300F0A3D8FAECF0A3EDF0A3EEF0A3EFF0A33C
:101A4300D0E0F0A3D0E0F0A3D0E0F0A3E520F0A332
:101A5300E5F0F0A322851983851882E0C0E0A3E0B6
:101A6300F9A3E0FAA3E0FBA37808E0F608A3DFFA02
:101A7300E0FCA3E0FDA3E0FEA3E0FFA3E0C0E0A33E
:101A8300E0C0E0A3E0F5D0A3E0F520A3E0A3F5F0E8
:101A930010AF08858319858218800885831985828C
:101AA30018D2AFD082D083D0E0F8D0E03274048073
:101AB30006740280027401C0E0F404121862D0E0DC
:101AC300121737227404800474028000CCC0E0ED46
:101AD300C0E0E518C39CCCAD1950011D10AF068CB6
:101AE300188D1980068C188D19D2AF121744D0E0C7
:101AF300FDD0E0FC22D083D082E9C0E0E493A3C30D
:101B030086F0C5F095F0F908E493A386F0C5F09547
:101B1300F0700BE493A3C3994005E9048002A3E4A6
:101B230075F002A42582F582E5F03583F583D0E0D4
:101B3300F9E493A3C0E0E493C0E022D083D082EC25
:101B4300C0E0EDC0E0E493A3FCE493A3FDED4C609F
:101B53000D121B8AEC24FFFCED34FFFD80EFE493B0
:101B6300A3FCE493A3FDED4C600D121BC9EC24FF11
:101B7300FCED34FFFD80EFD0E0FDD0E0FCE493A367
:101B8300C0E0E493C0E022C0E0C3E493960874018C
:101B9300939618400FE493667008087401936618CF
:101BA30070007019A3A3C3E4939608740193961865
:101BB300A3A3400DD0E0D0E0D0E0021B7AA3A3A3FF
:101BC300A3A3A3D0E022C0E0C0F088F0E493667042
:101BD300080874019366187000A8F0A3A3700BD0D3
:101BE300F0D0E0D0E0D0E0021B7AA3A3D0F0D0E0A5
:101BF3002274F612190DEAFEEBFF8C088D09EE2410
:101C030034F8E43FF9E8FCE9FD121D26E0FAEE247E
:101C130037F582E43FF583E0F88508F0A4C885F042
:101C23000A8509F0A4250AF9EA28F8E439F97A259E
:101C33007B001217A6EA8C828D83F0FA13131354D8
:101C43001FF8EE28F8E43FF9E8245DF582E439F55E
:101C530083E0C0E074075AF8D0E0B800028004C300
:101C630013D8FCA2E05003EA8020EE2436F582E488
:101C73003FF583E0F5F0EA84A8F0EE28F8E43FF9B5
:101C8300E82438F582E439F583E0F97F030219B9D2
:101C930074F512190DEAFEEBFFEE2434F582E43FEE
:101CA300F583E0C0E0121D26D0E0F08E828F83A37F
:101CB300A3A3A3A3E0FAA3E0FB8E828F83A3A3A332
:101CC300A3A3A3A3E0C39AF508A3E09BF509EE241D
:101CD3007FF8E43FF9880A890B8882F583E0640181
:101CE300702CEE2480F582E43FF583EA2401F8E4C6
:101CF3003BF9E0687003A3E06970137CC07D06EED6
:101D0300FAEFFB120B6D850A82850B83E4F0AC08B6
:101D1300AD09EEFAEFFB121BF4E9F91225DB7F04A0
:101D23000219B9EE2435F582E43FF5832274ED12EE
:101D3300190D900369E064086005E06407702C9056
:101D430061C8E06026900397E0F874FF68601CE8C0
:101D530075F00DA4C8AAF02AF9749928FE74033902
:101D6300FF8E828F83A3A3A3E070057900021EC9AF
:101D7300EE2468F50EE43FF50F906060E0850E8277
:101D8300850F83F07510FC75110675080075090041
:101D9300E5D914F50AE5D95403F50B601FEE248346
:101DA300F50CE43FF50D7403650B6059E50A601704
:101DB300EE2467F582E43FF583E0700B793DEEFA9C
:101DC300EFFB120B9D80A49006F7E064016023856E
:101DD3000C82850D83E060047A0480027A00E50AB0
:101DE300C39AFA95E0FB1209E78A088B09EA4509C9
:101DF3007006120E5B021D6E850C82850D83E070EA
:101E0300048A108B117A008014E5D9C0E0EAF8E562
:101E13001028F582E43511F583D0E0F00AEAC39582
:101E23000A40E6850C82850D83E0602874FC250A50
:101E3300F50A7810121AB4AC0AA90BEEFAEFFB12EA
:101E43000C577402121847E9700AAA08AB09121357
:101E530059021DBF7403650B6054850A0C750D0090
:101E6300780C121AB4AC10AD11AA08AB09120C1BF2
:101E73007402121847850E82850F83E0F874806818
:101E83007005750C7F8002880CE50CF50D780D123A
:101E93001AB8780B121AB8A90AAC08AD09900397BF
:101EA300E0FA7B0012083174021218478013900382
:101EB30069E06408700BAC10AD11EEFAEFFB120C85
:101EC30087120E6779017F0C0219B974F312190D89
:101ED30074FC121831EAFEEBFF8909A2AFE433F573
:101EE30008C2AFEE2463F50AE43FF50B8010AA0A9B
:101EF300AB0B120BD31213599006C7E004F0850AFB
:101F030082850B83E0F8A3E0F9E849602DE8240219
:101F1300FAE439FBEA2402F50CE43BF50D780C12E4
:101F23001AB48A828B83E0FCA3E0F9EEFAEFFB128A
:101F33000BC77402121847E960B49006C7E0604DFE
:101F43009006C8E0F89006C7E0C398500C74026589
:101F530009703A9006C9E060348E828F83A3A3A3ED
:101F6300A3E0851882851983121FA0740212187DBD
:101F7300E8121FA09006C6E028F07402121897AA70
:101F830018AB19790112088B9006C7E4F0E508A293
:101F9300E092AF74041218477F060219B9F0A3E464
:101FA300F09006C7E0F8220000851B87851CC62237
:101FB300C0E074EB1219F9A2AFE433F508C2AF75B0
:101FC3009B00906182E0A2E05030E591A2E0502AAC
:101FD3007591FE7401651B7021122146120D711259
:101FE3002134121AC71225177404121847E9640121
:101FF30070057901120DBF121D30906182E0A2E5D8
:10200300505DE591A2E550577591DF900369E06457
:10201300076005E06408702F1221467401651B7088
:102023003E120D71122134121AC7122517740412AD
:102033001847E9640170057901120DBF7901EEFAC1
:10204300EFFB121ECE8018E0640D701390038BE03B
:1020530004F064287002E4F07A00E0F9120E6D9047
:102063006182E0A2E64003022109E591A2E6400372
:102073000221097591BF900369E064057008120D90
:1020830059120D658003120D5F751B00120DDDE9FA
:1020930090036AF07900120DBF120AD17A017B0016
:1020A300900368E0F9121329907803E064427056B4
:1020B3009006FBE014F0704EC2AF1220C000781EF1
:1020C300D0E0F618D0E0F6E59F5407F87005750DDB
:1020D300FF8003750D7FC4C0E0781DE6F50A08E6AE
:1020E300550DF50B740B780A12180FD0E0250AF87A
:1020F300906270E0A2E740F8E8C333906272F09018
:102103006270E0D2E0F0906181E0A2E35009E5E97A
:10211300A2E3500375E9F7A3E0A2E75009E591A212
:10212300E7500375917FE508A2E092AF7F08021A9A
:10213300588E828F83E0F8A3E0C82416F582E43832
:10214300F58322900397E0F875F00DA4C8AAF02A4E
:10215300F9749928FE740339FF22C0E0C0D0C0820D
:10216300C083906183E0A2E05009E5BFA2E0500381
:1021730075BFFEE0A2E15009E5BFA2E1500375BFC0
:10218300FDE0A2E25009E5BFA2E2500375BFFBE008
:10219300A2E35009E5BFA2E3500375BFF7E0A2E451
:1021A3005009E5BFA2E4500375BFEFE0A2E5500973
:1021B300E5BFA2E5500375BFDFE0A2E65009E5BF26
:1021C300A2E6500375BFBFD083D082D0D0D0E03217
:1021D300C0E074F21219F9E5A7A2E4500FE5A1A239
:1021E300E4500953A7EF75A1EF122227E5A7A2E553
:1021F300500CE5A1A2E5500653A7DF75A1DFE5A7C3
:10220300A2E15009E5A1A2E1500375A1FDE5A7A252
:10221300E2500CE5A1A2E2500653A7FB75A1FB7F98
:1022230001021A5874F812190D751B01900369E025
:10223300640670077A007B00120D41A2AFE433FEFF
:10224300D2AF90036FE0640170187A207B00900393
:1022530068E0F91214497A207B00900368E0F912D0
:10226300132F906182E0D2E6F09006F8E0602185BA
:10227300C61C801690036EE064017008E5C654F82E
:102283004405F5C653BEFC121FAC7401651B60E424
:10229300EEA2E092AF7F010219B974E912190D742D
:1022A300FA121831EAFEEBFF8C088D09120D83EA4E
:1022B300F8EBF9ECFAEDFB8E828F8312172B900368
:1022C30069E024F7C3940550067510010223D41264
:1022D3000CE18A0A8B0BEA450B70030223D1120D22
:1022E300778A0C8B0D120D77EA650C7003EB650D85
:1022F30060ECEEFCEFFDAA18AB19120D7D850A8286
:10230300850B83A3A3780C1216E990905A780C12CC
:1023130016B085188285198378141216E990905A9D
:1023230078141216B0780C79141214D6501F780C46
:10233300791412167590908A780C1214F64047851A
:102343000C10850D11850E12850F13804590908A10
:102353008514108515118516128517137810790CBD
:1023630012167578101214F6501C751000751100B2
:102373007512007513017810791412167578107997
:102383000C12163C800C7510017511007512007546
:1023930013007409781012161D909066780C1216AB
:1023A300E97810790C121595900369E06408600AC6
:1023B300E064066005E06405702090908678101252
:1023C30014F650169090AE781012164F800C7510BC
:1023D3000075110075120075130085088285098345
:1023E30078101216F874061218477F100219B97480
:1023F300F712190D120D959006F6E0640170109016
:102403006245E4F0A3F053F4F343FE0C5390F3124C
:102413000D2FE5C654B84441F5C6E59E54476441C3
:1024230070F8906185740FF09006F4E0F47002A3E5
:10243300E0602C7508017509009006F4E078081235
:10244300181EE508F4FAA3E0600814600A14600C8F
:10245300800DEA52808008EA52908003EA52A07904
:10246300007F020219B974F712190DE9FEEAFF742D
:10247300016E700C7A807B00900368E0F9121329D7
:10248300902660E493F46008E493F9120AB3800998
:1024930053C6B8E59E544770FA120D359006F6E020
:1024A30064017003120AE99006F4E0F47002A3E0F9
:1024B300602B7508017509009006F4E0780812187E
:1024C3001EE508FAA3E0600814600A14600C800D8E
:1024D300EA42808008EA42908003EA42A0120CE1BB
:1024E3008A088B09A808A909E8496016E5E170FC88
:1024F300E82414F582E439F583E0F874FF68600298
:1025030088E174016F700A7A01900368E0F912138D
:10251300B902246474F112190D8A088B098C0A8D8F
:102523000B90905A78081216B0740F12187D780C1D
:102533001216E990905A780C1216B07808790C129A
:1025430014D690908A50107808790C121675780872
:102553001214F64014800E780C7908121675780C54
:102563001214F650047901800279007F080219B928
:1025730074ED12190D8A088B098C0A8D0B90905AF1
:1025830078081216B0741312187D780C1216E9909D
:10259300905A780C1216B0780C79081214D64011A0
:1025A3007808790C121675AA08AB09AC0AAD0B8032
:1025B30022751000751100751200751301781079DA
:1025C3000C1216757810790812163CAA10AB11ACD0
:1025D30012AD137F0C0219B9C082C083E990600069
:1025E300F0D083D08222C0E074F21219F9A2AFE4D2
:1025F30033FED2AFE589A2E15003121209758900B7
:10260300C2C5751A00EEA2E092AF7F01021A58C04C
:10261300E074F21219F9A2AFE433FED2AFE58BA254
:10262300E05003121209758B00C2E880D5C0E0C0E8
:10263300D0E8C0E0E9C0E0A9A8D2AFC2C7751A00CC
:10264300E9A2E7E433F8E9A2E792AFD0E0F9D0E0FA
:0C265300F8D0D0D0E032C2AF020000226C
:10266000FFFFFFFFFFFFFFFFC082C083E9901B2C2D
:10267000F0D083D08202013274F61218A1E99002E0
:10268000DCF090033BE0F50875090074027808124D
:10269000181EAA08AB091213A19002DD12302B906C
:1026A00002DD123418606F90033BE075F003A4FA6A
:1026B000ABF01213A19002FA12302B9002FA1234EE
:1026C00018700B9002DD1233E91213A780489002B4
:1026D000FA12437D7AFF7BFF1211857A0080198AF6
:1026E000087509007402780812181E123E2574FF3E
:1026F00012282BE4F0A3F00A90033BE0F8EAC39819
:1027000040DD79051207299002DCE0F91206157AFE
:10271000B37B07120987023EC874F41218A18A0815
:102720008B09EB548060479002DCE0F91213118AA8
:102730000A8B0BAE0AAF0BEE4F602A8E828F83E0BE
:1027400064B0701A12073BE960148E828F83A3A3D2
:10275000A3A3E0F9EE2405FAE43FFB12070BEEFA1F
:10276000EFFB1212FFAA08E5096480FB80047A00DF
:102770007B0002297B74F21218A174FB121831EA53
:10278000FEEBFFEE4F6045740312187DEEF0A3EFF1
:10279000F0851882851983ECF0A3EDF0740212180D
:1027A0007DE9F0AA18AB1912060FE9F508707574E7
:1027B0001312187DE0F50AA3E0F50BE50A450B605E
:1027C000638E828F83122DB4EE4F700575080280E0
:1027D000537A067B001213A18A0C8B0DA80CA90D4D
:1027E000E8497005750813803B88828983E41228C4
:1027F0002BEEF0A3EF122947E50AF0A3E50BF090CA
:1028000002E01229409002E06017E0FCA3E08003A0
:10281000EAFCEBFD8C828D8312294070F38C828D53
:1028200083123A40A90874050245FDF0A312435FE4
:10283000A32274F21218A18908890C750D00740383
:10284000780C12181E850C0A850D0B9002DFF09093
:1028500002DD12384B12293E602E1213A779008038
:102860001D890C750D007402780C12181E9002DD83
:10287000123CE48882F583A3A3E4F0A3F00990035B
:102880003BE0F8E9C39840D990033BE0FA850AF0B1
:10289000A4CAA8F0850BF0A428FB1213A18A0C8B04
:1028A0000DAE0CAF0DEE4F700302293490033BE0E8
:1028B000FC850AF0A4CCA8F0850BF0A428FD7900D3
:1028C0001212E77C0080318D0C750D007403780CBA
:1028D00012181E8A828B8312293988828983E4F038
:1028E000122946A3A3F0A3F00DEDC3950840D8EE3E
:1028F000250AFEEF350BFF0C90033BE0F8ECC39884
:1029000050288C0C750D007402780C12181E900261
:10291000DD122939E82402500109FAE9FB8A828B89
:1029200083EEF0A3EFF07D0080BFE5089002DFF0BA
:10293000790080027913024600123CE8F922A3A331
:102940001233EDEA4B22A312435FA3A3A32274F434
:102950001218A17900EAA2E0501F7508327509909B
:102960007808121AB479107C047D007A2E7B1B1231
:1029700007237402121847E9F980007F04021973D3
:10298000C082C0839002E0123418601C8882898360
:10299000A3A3E06A7003A3E06B8882898370E8A335
:1029A000A3A3A31233E980047A007B00022671748A
:1029B000F21218A174FD121831EAFEEBFF8518829D
:1029C000851983E4F0A3F0740212187D7401F012EB
:1029D000341570141208D91213A19002E312302B8F
:1029E0001234157003022B4112312BEE2404F50A28
:1029F000E43FF50B850A82F583E024FE603C24FC6D
:102A0000607424FE607E24FE7003022A9124FE700E
:102A100003022A9E24FE7003022AAB24FE700302E6
:102A20002AB824FE7003022AC524FC7003022AE699
:102A300024FE7003022AFE022B3A1208D99002E506
:102A4000EAF0A3EB122B4D12026DE96003022B3A60
:102A50009002E5121ACB8E828F83A3A3A3A3A312A5
:102A6000437D8508828509831233E91206F37402D7
:102A7000121847022B3AAC18AD19EEFAEFFB120709
:102A800041022B09AC18AD19EEFAEFFB1207478093
:102A900078AC18AD19EEFAEFFB12074D806BAC184D
:102AA000AD19EEFAEFFB120753805EAC18AD19EECC
:102AB000FAEFFB1207598051AC18AD19EEFAEFFB93
:102AC00012075F80447402121887880C890D780CF5
:102AD000121AB47402121897EEFAEFFB120765741B
:102AE000021218478023AC18AD19EEFAEFFB12075B
:102AF0006BE9F87016740212187DE4F0803CAC1893
:102B0000AD19EEFAEFFB120771E9F8E8602C8E823E
:102B10008F83A3E064146022850A82850B83E09092
:102B200002E5F08518828519831233E99002E612D6
:102B3000302BE8A3122B4D120267EEFAEFFB1206C0
:102B4000C9740212187DE0F974030245FDF07CE5BA
:102B50007D028508828509831233ED2274E81218FC
:102B6000A174FA121831740412187DECF0A3EDF080
:102B70008A128B13EA2405F50EE43513F50FEA24C7
:102B800002F510E43513F511851082F5831233E94F
:102B90001203B18A0A8B0B7508007C037D00790053
:102BA0007AE57B021212E7E50E2402F516E4350FF2
:102BB000F5177402121887880C890D780C121AB454
:102BC000850E82850F83A3A3A3A3E0F50C750D00EA
:102BD000780C121AB4E50E2405F50CE4350FF50D4A
:102BE000780C121AB48516828517831236F01206F5
:102BF0002D74061218478A0C8B0DE50C450D7003D9
:102C0000022D7D8020851882851983E08882898342
:102C1000F00508851882851983A3E0C0E0122DBE57
:102C2000D0E0F00508E50A24FBFAE50B34FFFBC30E
:102C3000E5089AE49B4003022D7D7E007F0085120B
:102C400082851383A3A3A3A3E0F5097809121AB818
:102C5000E4F514F5157814121AB47514E27515021A
:102C60007814121AB49002E3121ACB740912187D68
:102C7000121ACBE50A24F9F9AC0CAD0D851082854A
:102C800011831233E912079B7409121847E9600394
:102C9000022D1E850E82850F83A3A3A3A3A3A3A346
:102CA000E0F89002E2E0687075E0F5148E15781493
:102CB000121AB412437A850E82850F83A3A3A3A3AD
:102CC000A3A3A3A31233E91212E17402121847E975
:102CD000604C9002E6123418703BE4F5147814123C
:102CE0001AB47CFF7DFF790785108285118312332A
:102CF000E9120705740212184712341E7017850E68
:102D000082850F83124517740412187D123DD81264
:102D10003721022DB1850C82850D83122DB4A818A0
:102D2000A919881489157814121AB4740412187D1C
:102D3000121ACB8516828517831230211206397438
:102D4000041218478A0C8B0DEE4F7003022BFA12F7
:102D50002DBEEE122DC91236D7EF122DC9F8A3E001
:102D60003400F9E50C450D6003022C058882898347
:102D700074FFF00508122DBE74FFF00508E5086029
:102D80001A1313543F123031120279E9600990028C
:102D9000E61233E912135979008016850E82850FE9
:102DA00083124517740412187D123DD8123A4079E7
:102DB0000A0236AAA3A3A3A3E0FEA3E0FF22A80869
:102DC0009002E6E0281236D722F00508089002E6C5
:102DD000E0282274E81218A174FA12183174021251
:102DE000187D12302B740412187DECF0A3EDF074F2
:102DF0000212187DE024051236C0E0F50CA3E0F5C0
:102E00000D740212187DE02402F510A3E03400F5E1
:102E100011851082F5831233E91203B1750800752C
:102E20000900EA24FCFEEB34FFFF8008050CE50CEA
:102E30007002050DA808C3EE98EF94005003022F0E
:102E4000DDA818A919880E890F780E121AB48514F6
:102E500082851583A3A3A3A3124381121AB4E51498
:102E60002405F50EE43515F50F780E121AB4851405
:102E70008285158312301F12062D74061218478A98
:102E80000E8B0FEA450F7003022FDDEA2404F516BE
:102E9000E4350FF517851682F583E0F50CA3E0F510
:102EA0000D85188285198312437D8A828B83A3A3A3
:102EB000A3E0F98510828511831233E912061BE91C
:102EC000F5096003022FDD740212187D1236E7F552
:102ED000097809121AB8E4F512F5137812121AB427
:102EE0007512E27513027812121AB49002E3121AE4
:102EF000CB740712187D121ACBEEF9AC0EAD0F850C
:102F000010828511831233E912079B740912184746
:102F1000E9F5096003022FDDE508703FE4F50EF5E1
:102F20000F780E121AB47CFF7DFF79098510828517
:102F300011831233E9120705740212184712370D74
:102F4000700D740412187D12301479110230119032
:102F500002E2E024029002E6F080149002E6E0FA39
:102F60009002E2E0790024025001096A497072A8D7
:102F7000089002E2E0FAE82AFAE43400FBEE9AEF65
:102F80009B405A851682851783E0C0E09002E712C5
:102F90002DC3D0E0F00508851682851783A3E0C015
:102FA000E0089002E7122DC3D0E0F005089002E29D
:102FB000124381121AB412437AA8081236B41212BC
:102FC000CF74021218479002E2E02508F50874FF5A
:102FD000650C700474FF650D6003022E2CE508601B
:102FE0001F9002E6E0F5F0E5088412303112027F0E
:102FF000E960099002E71233E91213597900801150
:10300000E509700375090A740412187D123014A9B9
:10301000090236AA12384FE50CF0A3E50DF022A301
:10302000A312460CAA0CAB0D22A3A3EAF0A3EBF06B
:10303000229002E5F07CE57D0285108285118312E5
:1030400033ED2274EC1218A174FC121831123B50AB
:1030500074021218971233E31206338A0C8B0DEAAE
:10306000450D700302311B12312BA818A9198810C5
:1030700089117810121AB47CFF7DFF790B850882C4
:103080008509831233E912070574021218471232B8
:1030900021700C850A82850B8312371E0231288E1F
:1030A000828F83A3A3A3A3E0F5127812121AB8E4C7
:1030B000F512F5137812121AB47512E57513027829
:1030C00012121AB47810121AB4740912187D121A56
:1030D000CB740912187DE0F9AC0CAD0D8508828522
:1030E00009831233E912079B7409121847E9FE702D
:1030F000157CE57D028508828509831233E9120279
:1031000085E97009802074166E70027E009002E6D8
:103110001233E9121359EE7004800B7E01850A8286
:10312000850B83123A3DEEF9023A52EE2402F5087D
:10313000E43FF5092274EC1218A174FC121831EA6C
:10314000FEEBFF8C0E8D0FEE2405F508E43FF5092C
:1031500074021218978508828509831233E91206D2
:10316000338A0C8B0DEA450D7003023211EE2402F6
:10317000F50AE43FF50BA818A919881089117810F1
:10318000121AB47CFF7DFF790D1233E31207057428
:1031900002121847123221700B85088285098312AA
:1031A000371E807A8E828F83A3A3A3A3E0F51278C3
:1031B00012121AB8850882850983A3A3121ACB7547
:1031C00012E57513027812121AB47810121AB47438
:1031D0000912187D121ACB740912187DE0F9123306
:1031E000DF12079B7409121847E9FE700F7CE57D1A
:1031F000021233E312028BE97009802074166E709C
:10320000027E009002E61233E9121359EE70048038
:103210000B7E01850882850983123A3DEEF9023A58
:1032200052123428F510A3E0F511EA45112274E892
:103230001218A174FE1218318A168B178C148D1572
:10324000EA2405F50CE43517F50DEA2402F50EE441
:103250003517F50F850E82F5831233E91203B18A13
:10326000088B09750B007C037D0079007AE57B02F1
:103270001212E7750A00E50814F5100424FFF5089A
:10328000E50934FFF50980549002E5E0FA9002E286
:10329000E0F8EA28F8E43400F9E50898E5099950DF
:1032A0000D9002E5E0F8E510C3989002E2F0E0F539
:1032B000127513007812121AB412437A9002E6E0E3
:1032C0002AFAA3E03400FB1212CF740212184790BE
:1032D00002E2E0F89002E5E028F0050A850C82851C
:1032E0000D83A3A3123CF440030233C49002E5E033
:1032F000C39508E4950940030233C4AE0AEE2EFEDE
:10330000E433FF123403AC18AD19124395E439FBD2
:103310001206338A128B13AC12AD13EC4D701B7571
:103320000B011233F3123A419002E6122940600376
:10333000121359A90B74020236AC851682851783C5
:10334000A3A3A3A3E0F50B780B121AB8E4F512F5CA
:10335000137812121AB47512E27513027812121A47
:10336000B49002E3121ACB740712187D121ACBA97B
:1033700010850E82850F831233E912079B740912A0
:103380001847E9F50B709B9002E6123418600302AF
:103390003288E4F512F5137812121AB47CFF7DFF1F
:1033A000790F850E82850F831233E91207057402A7
:1033B00012184712341E60030232881233F3123798
:1033C000220233357CE57D02850E82850F83123320
:1033D000E9120291E960030233287900023335AC27
:1033E0000CAD0D850A82850B831233ED22E0FAA322
:1033F000E0FB22123403E0FAA3E0F9EA85148285A7
:10340000158322850C82850D83E02EF8A3E03FF919
:1034100088828983229002E312451BE849221234F4
:1034200028F8A3E0F9E849229002E6EAF0A3EBF0DD
:103430009002E6E02274E81218A174FA12183174AE
:103440000412187D12302B8C168D17740412187DFF
:10345000E02405F50EA3E03400F50F740412187D86
:10346000E024021236C01233E91203B18A0A8B0B30
:103470007F007E00A818A919880889097808121AFF
:10348000B4850E82850F83A3A3A3A3E0F5088E095C
:103490007808121AB4E50E2405F508E4350FF5098D
:1034A0007808121AB4850E82850F83A3A31236F012
:1034B00012062D74061218478A0C8B0D80291236BD
:1034C000E1F00F1236E1F00F9002E2123A2C121ADC
:1034D000B412437AEFF81236B41212CF74021218F3
:1034E000479002E2E02FFFE50C450D7003023570B6
:1034F000851882851983123B62A3A3A3E0F9851482
:10350000828515831233E912061BE9FEE50C2404BB
:10351000F510E4350DF511EE7050740412187D129B
:1035200036E7F5087808121AB8E4F508F5097808BE
:10353000121AB47508E27509027808121AB49002DA
:10354000E3121ACB740712187D121ACBE50A24FA7B
:10355000F9AC0CAD0D8514828515831233E9120781
:103560009B7409121847E9FE60391236FD123A4081
:10357000EF70030236979002E6E0F5F0EF849002D8
:10358000E5F07CE57D028514828515831233E9120E
:103590000297E960099002E71233E91213597900A2
:1035A0000236AA8F08EF703BE4F512F51378121279
:1035B0001AB47CFF7DFF791185148285158312333F
:1035C000E9120705740212184712370D70091236F6
:1035D000FD1237210236AA9002E2E024049002E6AE
:1035E000F080359002E2E0F89002E6E0FAE8240488
:1035F000FCE43400FDEC6A4D6003023576E50A24F4
:10360000FAFAE50B34FFFBE50828F8E43400F9EAA0
:1036100098EB995003023576851082851183E0C0BE
:10362000E09002E7E02FF8A3E034008882F583D031
:10363000E0F00F851082851183A3E0C0E01236CE42
:10364000D0E0F00F740212188788088909780812F0
:103650001AB4740212187D121ACB850E82850F835C
:1036600012301F12063974041218478A0C8B0DEAA7
:10367000450D70030234BE740212187DE0C0E012E2
:1036800036CED0E0F00F740212187DA3E0C0E01235
:1036900036CED0E00234C6EE70027E0A850E8285F8
:1036A0000F83123703123A40EEF974061218477F5F
:1036B000100219739002E7E028FAA3E03400FB221D
:1036C000F514A3E03400F515851482F58322123633
:1036D000D2229002E7E02FFAA3E034008A82F58339
:1036E000221236D274FF2212384FA3A3A3A3E022E2
:1036F00012460C850E82850F831233ED22851082CF
:1037000085118312451B851682851783229002E757
:10371000EAF0A3EBF09002E712451BE84922123AC7
:1037200046E8F0A3E9F079112274EA1218A174FEB8
:103730001218318A088B098C128D13EA2405FEE4D5
:103740003509FFAC18AD198E828F831233E912064A
:10375000338A0C8B0DEE2406F50EE43FF50FEA4597
:103760000D7003023821E5082402F50AE43509F555
:103770000B8A828B83A3A3A3E0A2E550288518823D
:103780008519831233E912078F8A108B11EA4511CC
:10379000602079121233DF85108285118312189F01
:1037A000E9F50C707F850E82850F83E06009795200
:1037B0008011750C0E806D850882850983A3A3A3F3
:1037C000A3E0F9E4F508F5097808121AB48E828F9F
:1037D00083A3A3E0F5087808121AB48E828F83A31E
:1037E000A3A3121ACB8E828F8312437D1233E3126E
:1037F00007A17406121847E9F50C7011850E828531
:103800000F83E0702D1233E312029D80257416653C
:103810000C7011750C00741812187D12384BE4806E
:1038200010750C01124513851282851383E8F0A3ED
:10383000E9F0850E82850F83E0600479008002A99B
:103840000C74021218477F0E02197312384F22E0CF
:10385000F8A3E0F58388822274EC1218A174F712A1
:1038600018318A0A8B0B8C108D11EA2405FEE43581
:103870000BFF750C00AC18AD198E828F831233E9E3
:103880001206338A088B09EA45097003023A17E5E4
:103890000A2402F50A5002050B8A828B83A3A3A394
:1038A000E0A2E5502F8518828519831233E91207AB
:1038B0008F8A0C8B0DEA450D604F7912AC08AD096B
:1038C0001233E3850C82850D8312189FE9F50C6095
:1038D00003023A1A850A82850B83E0F508A3E0F516
:1038E00009AA08FB120783EA4B70197AFF7BFF12C3
:1038F0000783EA4B7003023A0D8A828B83E508F056
:10390000A3E509F07508008008750C0E023A1A0547
:10391000089002DFE0F8E508C3984003023A0D85FD
:10392000080E750F007403780E12181E8A828B839E
:10393000A3A3E0250EF8A3E0350F123DE170D08E71
:10394000828F83123A3512302B8E828F83A3A3127B
:103950003A35123029EE2404F508E43FF5098508CC
:1039600082F583E088828983A3A3A3A3F0A3E4F074
:10397000EE2405F50EE43FF50F850E82F583123A2D
:1039800035A3A3A3A312302975120775130078126B
:10399000121AB4EEFCEFFD740412188F1212CF74D9
:1039A00002121847E4F5127812121AB485088285BB
:1039B0000983E0FC7D0079171233E31207057402D6
:1039C000121847740712187D12302B740712187DD5
:1039D000E0FA4B603D850882850983123A2C121A61
:1039E000B4850E82850F8312437D1212CF740212AA
:1039F000184774021218971233E31202A3E96026E3
:103A0000740712187D1233E91213598019750C09C5
:103A10008008750C118003750C0112451385108206
:103A2000851183123A40A90C74098028E0F50875C5
:103A300009007808221233ED8882898322123A46DF
:103A4000E8F0A3E9F022E0F8A3E0F9850E82850F03
:103A5000832274041218477F0C02197374EC121835
:103A6000A1123B50751000EE2402F50CE43FF50D59
:103A7000850C82F5831233E91207838A088B09EAE1
:103A800045097003023B34850A82850B83E064019B
:103A90006003023B29AC08AD09AA0AAB0B120777F9
:103AA000E9606E850882850983122DB6EE2406F53D
:103AB0000AE43FF50B8E828F83A3A3121ACB8E826A
:103AC0008F83A3A3A3A3121ACB850A82850B83122B
:103AD0001ACB79188E828F83123B621233E9120758
:103AE000A17406121847E9F8741668700B850A82EB
:103AF000850B83E4F0A38014E860128E828F83121A
:103B000033E9850E82850F83EAF0A3EBF0881080FD
:103B100018780E121AB4AC08AD09EEFAEFFB1207D2
:103B20007D7402121847E9F510AA08AB091207893B
:103B3000E510700E850C82850D831233E91202A9FF
:103B40008009741665107003751000A910023A57A9
:103B5000EAFEEBFF8C0E8D0FEE2405F50AE43FF52F
:103B60000B2212460C850C82850D832274EA1218F2
:103B7000A17508007509007E007F00750A00EC241D
:103B800002F510E43DF5118035EC65087003ED6534
:103B9000096003023C2188828983A3A3E06A700341
:103BA000A3E06B707C88828983A3A3A3A31245172B
:103BB000EE28FEEF39FFEA28FAEB39FB050A123C42
:103BC000F1503A850A0C750D007403780C12181E1A
:103BD000851082851183123CE4123DE1601FE508E7
:103BE000450970A58C088D0988828983122DB488B7
:103BF000828983A3A3E02EFAA3E03F80BEE50AC337
:103C000094025003023CDF750800750900EE4F6016
:103C100010EEFAEFFB1213538A0E8B0FEA450F706A
:103C2000057900023CE1750B00023CB4850B0C7574
:103C30000D007403780C12181E851082851183E024
:103C4000250CF50CA3E0350DF50DE50C2406F51457
:103C5000E4350DF515851482F583123DE66042E5E5
:103C60000C2404F512E4350DF513851282F5831248
:103C70001ACBE50E2508FAE50F3509FB1212CF74B1
:103C800002121847851282851383E02508F508A3E0
:103C9000E03509F5098514828515831233E912137D
:103CA00059E50B600D7C087D007900AA0CAB0D1264
:103CB00012E7050BE50BC3950A5003023C2C851057
:103CC0008285118312451788828983A3A3A3A3A3A6
:103CD000A3E50EF0A3E50F122947EEF0A3EFF0796C
:103CE00001023846123CE822E0250CF8A3E0350D2D
:103CF000229002DFE0F8E50AC3982274F01218A1BE
:103D00008A0E8B0F8C0A8D0B750D00750C00805080
:103D10007916EE2406F508E43FF5098E828F83A319
:103D2000A3121ACB8E828F83A3A3A3A3121ACB85CF
:103D30000882850983121ACB850E82850F83A3A37F
:103D40001233E91207A17406121847E9F50D74162B
:103D5000650D706C850882850983E4F0A3F0050C7D
:103D60009002DFE0F8E50CC3985066AA0C8A08754B
:103D700009007403780812181E850A82850B83A334
:103D8000A3123E30E8FEE9FF8E828F83123DE6608B
:103D900040EA2401F508E43400F5099002DFE0650B
:103DA000087002E509601488828983A3A3A3A3A3F2
:103DB000A3A3A31234186003023D107918023D1228
:103DC000E9609B124513741012187D123DD8123A07
:103DD00040A90D7F08021973E0FAA3E0F5838A82F7
:103DE00022F98882898312460CEC4D2274F612184F
:103DF000A17C0080010C90033BE0F8ECC398501EBE
:103E00008C087509007402780812181E123E25E00D
:103E10006A7003A3E06B70DDE8FAE9FB80047A00C6
:103E20007B00023EC89002DD123E308882898322E8
:103E3000E02508F8A3E03509F92274F21218A18AE6
:103E4000088B09750A0080278E828F83A3A3A3A302
:103E500012293E60031213597C087D007900EEFAA6
:103E6000EFFB1212E78E828F83E4F0A3F0050A12B3
:103E70003CF15027850A0C750D007403780C12185C
:103E80001E850882850983A3A3E0250CFEA3E035E7
:103E90000DFF8E828F8312341870AD8508828509DC
:103EA0008374FFF0A3F002460074F61218A1120703
:103EB000358A828B83E582458370067A007B008099
:103EC00007A3A3A3A31233E97F0202197374F412A8
:103ED00018A189088C828D83E06402703C1244B67C
:103EE000FEA3E0F9EEF87402687003742969702982
:103EF000750A02750B00780A121AB4741012187D34
:103F0000121ACB741012187D121ACBA90812118B39
:103F10007406121847E9F98002790102297B74E8D6
:103F20001218A174FB121831E9851882851983F0E3
:103F30008A168B17ECFEEDFF7510008E828F83A31F
:103F4000A3A3E0A2E4502D741D12187D1233E912D0
:103F5000078F8A828B83E5824583700302435579FC
:103F60000AEEFCEFFDAA16AB1712189FE9F51060D8
:103F700003024358741F12187DE0F508A3E0F50909
:103F8000742112187DE0F50AA3E0F50B74231218D2
:103F90007DE0F50EA3E0F50F8E828F83E064026072
:103FA000030242F6A3124517850882850983A3857B
:103FB0008212858313EE2406F50CE43FF50D88820A
:103FC0008983124395F514E439F5157814121B3ED4
:103FD000010000280128F83F07000228BD400328FF
:103FE0002B400029EC41012917420229B84103293D
:103FF000EC4104299042F642E50E450F600302426F
:10400000F1850C82850D83124517E8FAE9FB8A8257
:104010008B83E0850A82850B831243A0121AB48A2F
:10402000828B83A3E0FCA3E002427AE50E450F6099
:10403000030242F1850A82850B837401F012438AE0
:10404000850882850983F07C007D008E828F83A3A2
:10405000A3A3A3E02401FAA3E03400FB120633EA91
:104060004B60408A828B83E02402F8850A82850BAC
:1040700083E028F0EA2404F8E43BF988828983E0AD
:104080008512828513831243AE1243A0121AB48A9A
:10409000828B83A312437DE5082403FAE43509FBF0
:1040A00002427F850A82850B83E02404F07C047D34
:1040B000007900AA12AB131212E7024358E50E452D
:1040C0000F60030242F112438AFEA3E0FF850A82D9
:1040D000850B837404F0EE850882850983F0EF85F3
:1040E0001282851383F07403121897EEFAEFFB1215
:1040F00006338A0C8B0DEA450D700302419B8A82C0
:104100008B83A3A3122DB47401121887880E890F14
:10411000780E121AB4740512187D121ACB7CFF7D2A
:10412000FF12063974041218478B0FEA450F7033DB
:10413000850C82850D83124381121AB4850C828509
:104140000D83A3121ACB7C027D007AFC7B901203B4
:104150009F7404121847E9700A740112187D74FFE5
:10416000F0A3F08E828F83E064027039750C0275C3
:104170000D00780C121AB48E828F83A312437DE552
:10418000082404FAE43509FB1212CF74021218470E
:10419000850A82850B83E024028009740112187D50
:1041A000EEF0A3EFF0740112187D12436F74011248
:1041B000187D1243660242EBE50E450F6003024292
:1041C000F1850C82850D83124605AA16AB171211D4
:1041D00091850A82850B837402F0850882850983A4
:1041E000EAF0851282851383EB0242EEE50E450F5D
:1041F00060030242F112438AF8A3E0F9850A82853E
:104200000B837402F0E8850882850983F0E9851242
:10421000828513830242EE850C82850D831233E979
:104220001212C9EAFAF8C3950EE4950F405CE865EE
:104230000E450F70047A008021851882851983E06D
:10424000FCE50E2CFCE4350FFDC3EC98ED9400501A
:1042500003E08005E50ECAC39AFAEA850A82850B57
:1042600083F08A0A750B00780A121AB4850C8285CD
:104270000D83E0250EFCA3E0350FFDAA08AB091263
:1042800012CF7402121847024358751007024358A0
:10429000E50E450F705B850C82850D8312451785F1
:1042A0000A82850B837407F0888289831243671220
:1042B000435FE0851282851383F0E82402FAE43933
:1042C000FB8A828B8312436F8A828B83124366A39D
:1042D000A3122946124374F0E82405F85001098816
:1042E000828983124374A31243AEA3A3A3A3F080D5
:1042F0006775100B8062741D12187D1233E9120766
:10430000358A828B83E5824583604A124517880C83
:10431000890DE8450D603E742512187DE0F5107892
:1043200010121AB8780E121AB4780A121AB4780851
:10433000121AB4740712187DE0F9EEFCEFFDAA160C
:10434000AB17850C82850D8312189F7407121847CE
:10435000E9F510800375100EA91074050236ACF053
:1043600088828983A322A3E085088285098322129B
:1043700043B5F0221243B5A3A3229002E312460CE8
:1043800022E0F50E750F00780E22850C82850D83D4
:1043900012384FE022E0FAA3E0F8E4C8F9EA282254
:1043A000F08A828B83E0F50A750B00780A221243AB
:1043B0005F1243B522E0850882850983A3A3227496
:1043C000EE1218A174FE1218318A088B09ECFEED6A
:1043D000FF890AAC18AD19EEFAEFFB1206338A0C0E
:1043E0008B0DEA450D70030244A785188285198359
:1043F0001233E91207358A828B83E5824583700385
:104400000244A2A3A3124517880E890FE8450F7036
:10441000030244A2741412187DE0F510A3E0F51114
:10442000E50AF50B780B121AB8741912187D121AD6
:10443000CB7810121AB4741B12187DE0F9AC0CADD5
:104440000DAA08AB09850E82850F8312189F74058B
:10445000121847E9F50B705274FE650A604C850C22
:1044600082850D83E0640270411244B6FAA3E0F93C
:10447000EAF87402687003742969702E85108285C9
:104480001183124395F50CE439F50D780C121AB42A
:10449000EEFCEFFDAA08AB091207B9740212184727
:1044A0008008750B0E8003750B01A90B740212189E
:1044B000477F0A021973A312451B88828983E02271
:1044C00074F61218A174FE121831740C12187D12B1
:1044D0004517E8851882851983F0740112187DE963
:1044E000F0E4F508F5097808121AB475080278089E
:1044F000121AB47404121887880889097808121AE5
:10450000B479FE1207A174061218477402121847F4
:10451000023EC88E828F8312451B22E0F8A3E0F989
:104520002274F71218A1EAFEEBFF89089002FA1232
:10453000437D121191EA5402600BA908EEFAEFFBD9
:10454000120627800279017F0102197374F2121892
:10455000A174FE121831EAFEEBFF890A7401650AA4
:1045600060147402650A60030245FB79011209A513
:10457000E960030245FBEEFAEFFB120783EA4B60AA
:1045800003120789A818A919880889097808121A36
:10459000B47508027509007808121AB47508F67522
:1045A00009907808121AB47CFF7DFF7A017B001213
:1045B000062D74061218478038850882850983A362
:1045C000A3A3A3A3A3124605EEFAEFFB121185E401
:1045D000F50CF50D780C121AB4740212187D121A2B
:1045E000CB7CFF7DFFAA08AB0912063974041218B0
:1045F000478A088B09E508450970BE7402121847FE
:104600007F0602197312384F12460C22E0FCA3E019
:10461000FD2274F41218A18A088B09ECFEEDFF90BC
:104620001B2CE0F4604B7A097B001212F9EA4B6014
:10463000408A828B8374B1F0A3E4124674F08A82BC
:104640008B83A3A3E508F0A3E509124674A3EEF05B
:10465000A3EFF0740C12187D1245178A828B83A386
:10466000A3A3A3A3A3A3123A40901B2CE0F9121317
:104670000502297BF08A828B83A3A3A3A322C08295
:10468000C0839061907404F0A37448F0A3E4F090A8
:1046900061807440F09061BC7407F0906187746928
:1046A000F09061B67416F07900120AD77902120AF6
:1046B000DD902660E493F46006E493F9120AB3797E
:1046C00005120E4F024AE6C082C083E9540FF990EA
:1046D0006185E0696012E5C654B84441F5C6E59EBF
:1046E0005447644170F8E9F053C6B8E59E544770EA
:1046F000FA024AE674F71218A1AEA853A87E120A6D
:10470000BFC2BA539AFEC289759B00C2C2120AC5C3
:1047100075A91175B905120ACBD2BA439A017480F2
:104720005E42A80251A9C082C083906181E4F0A3D7
:10473000801D75E90075910075BF00020132C082CD
:10474000C083906181E4F0A374C0F0A3E48002F020
:10475000A3F0024AE6C082C08374F81218319003B5
:104760006B125EA7700302482890036BE054406010
:10477000177908AA18AB19120BF1AA18AB1912086D
:104780001990036BE054BFF0E054806010790C7A0C
:104790001C7B07120BF190036BE0547FF0E0A2E06A
:1047A000500F7900120AD712081F90036BE054FED5
:1047B000F0E05402600F7901120AD712081F90032B
:1047C0006BE054FDF0E05404600F7900120ADD1232
:1047D000082590036BE054FBF0E05408600F79016A
:1047E000120ADD12082590036BE054F7F0E0541034
:1047F000600F7902120ADD12082590036BE054EF76
:10480000F0E05420600F7903120ADD1208259003AE
:104810006BE054DFF0A3E05401600D120AE91208C6
:104820002B90036CE054FEF07408121847024AE61D
:10483000C082C083E9600514602A804F90619A7439
:1048400033F0A37455F09061A0743AF09006F6E04E
:1048500064017009C29190036D7467802D90036D9F
:104860007461802690619A743FF0A3745AF090614D
:10487000A0747FF09006F6E064017009D291900375
:104880006D7471800590036D746AF0024AE6C0820F
:10489000C083E9600B14600D14601714600C802055
:1048A000902664801590266580109006F6E06401DD
:1048B00070059026668003902667E493906186F0E9
:1048C000024AE674EE1218A174F412183190904A5C
:1048D000AC18AD19740412174490266493F4600365
:1048E0000249DB907808E0C3940250030249BF906C
:1048F0009015740412189774081217447F00750CF1
:10490000FF750DFF750EFF7E00EFFC800F74086EC3
:10491000606D74096E6068740A6E60638E08750954
:10492000007402780812181E1249E51216E9A90946
:10493000E50AC9F8881074187808121604E51045BD
:1049400008FAE9FBEC2CF8E433F9740412187DE55D
:104950008228F582E5833912507FC3E89AE99B40AB
:1049600008E8C39AF8E99B8006EAC398F8EB99F93E
:10497000C3E8950CE9950D5006880C890D8E0E0E36
:10498000EEC39413408774FF650C700474FF650DCB
:104990006023850E087402780812181E1249E51269
:1049A00016E9851882851983E5822CF582E4358322
:1049B000F583E508F00FEFC3940450030248FE7539
:1049C00008017509007808121AB474021218977A4F
:1049D000997B091211DF7402121847740C121847E0
:1049E0007F0A02197374482508F58274783509F531
:1049F00083780822C082C083906186E0F8902667A1
:104A0000E493687009902666E493906186F0906163
:104A1000AE7468F0A3746AF090624574FBF0A3046E
:104A2000F053F4FD43FE029006F67401F09061A08D
:104A3000E0643A7004790080027901120AD7024AD0
:104A4000E6C082C0839006D4E0640170139006DA59
:104A5000E0F87401686019E87006A3E06401601072
:104A60009006EBE06401700C9006F1E064017004C4
:104A7000790C80027900024AE6125070940622E016
:104A8000C4333354C0222414F582E438F58322C0A1
:104A900082C0839006DE7425F09006DC7401F0A3DA
:104AA000E4F07A01FB120DCB124ADA241AF582E403
:104AB00038F583740DF0A3740BF09006DBE064010D
:104AC00070169006DAE070107901120E2B120DFBB1
:104AD000120E257900120E37800C9006CA124E4F26
:104AE00022E0F91225DBD083D082020132C082C0DD
:104AF0008374FA1218319006D3E064017008120A28
:104B0000F59006D3E4F075E1F1124ADA2415F58246
:104B1000E438F5837401F09006D5E06401704690A6
:104B20009038AC18AD19740612174475D90D90065B
:104B3000CC124A7F4403F5D97A00EAF874CD1255B5
:104B40007A3406124A7940F27A00EAF885188285AA
:104B50001983E58212557A3583124A7940EC75E162
:104B600095790180027900120DD1901B50124BCD26
:104B70007499F0A3740CF0A3124BCD124BCD124DCF
:104B800022749FF0A3740C124D379006CCE0F97A92
:104B9000CD7B06120DAD9006DEE0F91225DB790122
:104BA000120DD790904E121707120DEF909092129F
:104BB0001707120DB97900120E43124ADA124A860B
:104BC0007416F09003697405F00402482A7493F097
:104BD000A3740CF0A32274F71218A18908A8081274
:104BE000587A9006E3E0F97AE47B06120DAD900660
:104BF000F1E070257900120E0DEE2406FAEF340173
:104C0000FBEE240CF582EF3401F583E070047900AB
:104C100080027901120DB380057901120E0D75E144
:104C2000F175D9239006E3124A7F4405F5D97A003D
:104C3000EAF874E412557A3406124A7940F275D9CA
:104C40000075D90075D90075D90075D90075D900DE
:104C50007A00124D0F242212506640F67A00124D4F
:104C60000F2426F582E439124FB0EAC3940340EED4
:104C7000EE242B12505B242C12505B242D12505B1F
:104C8000242E12505B242F12505B243012505B24D0
:104C90003112505B243212505B243312504F124DAC
:104CA0000F245DF582E4391250DD40F2EE24371214
:104CB000517B541FF8EE242A12517BC43354E04830
:104CC000F5D975E195901B507463F0A3740CF0A3B3
:104CD0007469F0A3740C124D19746FF0A3740C1264
:104CE0004D379006F0E0F91225DB90904E12170731
:104CF000120DEF909092121707120DB990600DE40B
:104D0000F07901120E439003697406F00251A9EA8A
:104D1000F8EE28F8E43FF9E822F0A3124D22124DF4
:104D20002222124D2622745DF0A3740CF0A3745D50
:104D3000F0A3740CF0A322124D3B22F0901B5E12E4
:104D40004D47A3124D4722124D26745DF0A3740CFB
:104D5000F02274EC1218A19006E11258917810120A
:104D600016E99006F2E0FAF875F00DA4C8ACF02C44
:104D7000125A2AEE2EFEEF33FF8E0CF50D750E0043
:104D8000750F0085100885110985120A85130B908F
:104D90009056780812164F7808121AB085100885B8
:104DA000110985120A85130B7808790C12163C78C4
:104DB00010790C121595E4F50EF50F7808790C12A0
:104DC00016758A0C750D007403780C12181E78087D
:104DD000790C12163C90905A78081216B0AA08ABBB
:104DE00009AC0AAD0B12257374041218478A088B9C
:104DF00009A808A909C3EE98EF995006E82EF8E92A
:104E00003FF9E890600EF0E9A3F0EEA3F0EFA3F015
:104E100090600D74C1F07F0C021973C082C0839042
:104E200006CA124E3B9006DE024AE1C082C0839061
:104E300006E1124E3B9006F0024AE1124E4F124E2E
:104E400045F0A3F0222406F582E438F583E422E05D
:104E5000F8A3E0C82202013274F21218A1124F2105
:104E6000FAEE2483F50AE43FF50B850A82F583E028
:104E70006004780480027800E8240EF8EAC39850B1
:104E800003024F1C75080C9006FCE4F0EE24761229
:104E9000517B9006FDF07902EE2477FCE43FFD7A29
:104EA000FE7B06120BDF7902EE2479FCE43FFD1253
:104EB0000BDF7902EE247BFCE43FFD120BDF79026D
:104EC000EE247DFCE43FFD120BDFEE2474124FC292
:104ED000120BDF850A82850B83E0601E7508FC7566
:104EE00009067808121AB47C0C7903EEFAEFFB126B
:104EF0000C51740212184775081074012508F5D971
:104F000075D9037A008003124FADEAC3950840F7C4
:104F100075E1957904120DF579018002790002524C
:104F2000CDEAFEEBFF9061D0E0F87480C398227464
:104F3000F21218A11252D26004780480027800E8BC
:104F4000240AF8EAC3984060750A089006FC7401C8
:104F5000F079057CC07D067AFD7B06120BDFEE241E
:104F600080124FC2120BDF850882850983E0601E24
:104F70007508FC7509067808121AB47C087903EEE6
:104F8000FAEFFB120C517402121847750A0C1252F8
:104F90002C8003124FADEAC3950A40F775E195796D
:104FA00004120DF57901800279000252CD124FB73B
:104FB000F583E0F5D90A22EAF874FC28F582E43496
:104FC0000622FCE43FFD8E828F83A3A3A3A3A3123A
:104FD0005EB48C828D83E028F0A3E039F079022260
:104FE00074F71218A1EAFEEBFF9061D0E0705B75D8
:104FF000D91875D90375D9037A00124D0F249C1264
:10500000507940F6EE24A412505B24A512504F12A2
:105010004D0F249412507940F67A00124D0F2488D7
:1050200012506640F675E1957908EE2494FAE43F53
:10503000FB120BE57904EE2488FAE43FFB120BE542
:105040007904120DF5125186800279000251A9F5FA
:1050500082E43FF583E0F5D97A0022F582E43FF55A
:1050600083E0F5D9EE2212506C940422F582E439E3
:10507000F583E0F5D90AEAC32212506C940822F5B0
:1050800083125EB42274F61218A1EAFEEBFF9006BA
:10509000FC7406125120121AB47C017903120C51CF
:1050A000740212184775D90675D9037A001250DABE
:1050B00040FB75E195900369E064087018EE246F79
:1050C000F582E43F12507FEE2471F582E43FF583D0
:1050D000E8F0A3E9F0790102536B124FB712507058
:1050E00094052274F61218A1EAFEEBFF9061D0E05D
:1050F00070299006FC740A125120121AB47C0179AE
:1051000003120C51740212184775D90675D9037A27
:10511000001250DA40FB1251838002790002536B77
:10512000F07508FC75090678082274F61218A1EAD1
:10513000FEEBFF9061D0E0703D7A019006FC740BAD
:10514000F0900369E06407701B7508FC7509067828
:1051500008121AB47C017903EEFA120C517402128F
:1051600018477A0512537E8003125389EBC39A4085
:10517000F81251838002790002536BF582E43FF507
:1051800083E02275E195EE246FF582E43FF583120A
:105190005EB4EE2471F582E43FF583E8F0A3E9F014
:1051A000790122A2E092AF79007F0102197374F5B0
:1051B0001218A11252386004780480027800E824A2
:1051C0000BF8EAC3984052750A099006FC7408F07F
:1051D000F9125220120BDF850882850983E0601ED8
:1051E0007508FC7509067808121AB47C097903EE73
:1051F000FAEFFB120C517402121847750A0D125285
:105200002C8003124FADEAC3950A40F775E19579FA
:1052100004120DF5125186800279007F0302197382
:10522000EE24E5FCE43FFD7AFD7B06227401250AAD
:10523000F5D975D9037A00221252E2F8E43FF988D1
:105240000889098882F583E02274F21218A11252AB
:10525000D26004780480027800E82408F8EAC39851
:105260004069750A069006FC740CF0900386E09085
:1052700006FDF079027C877D037AFE7B06120BDF48
:1052800079027C897D03120BDF850882850983E022
:10529000601E7508FC7509067808121AB47C067938
:1052A00003EEFAEFFB120C517402121847750A0A4A
:1052B00012522C8003124FADEAC3950A40F775E1F4
:1052C000957904120DF5125186800279007F06024D
:1052D00019731252E2F508E43FF509850882F58357
:1052E000E022EAFEEBFF9061D0E0F87480C398FA08
:1052F000EE24832274F61218A1124F21FCEE2483AF
:10530000F8E43FF988828983E060047A0480027AB5
:1053100000EA2404FAECC39A404F7A029006FCEAB1
:10532000F0EE24F7F582E43F125394E0601B750819
:10533000FC7509067808121AB47C027903EEFA1299
:105340000C5174021218477A0612537E80031253CE
:1053500089EBC39A40F875E1951253707904120DE8
:10536000F5EE240D125189800279007F0202197333
:10537000EE241DF582E43FF583E4F0A3F0227401EE
:105380002AF5D975D9037B0022EB124FB8F583E0DB
:10539000F5D90B22F583E09006FDF08882898322FF
:1053A00074F61218A1124F25FEEA2483F8E43BF9A3
:1053B00088828983E060047C0480027C00EC240401
:1053C000FCEEC39C40477C029006FC7407F0EA2484
:1053D000F8F582E43B125394E060177508FC7509F8
:1053E000067808121AB47903120C51740212184785
:1053F0007C0674012CF5D975D9037A008003124F0D
:10540000ADEAC39C40F875E195790180027900020C
:10541000536B74F71218A18908A2AFE433FFC2AF2F
:105420007E001254A480010E8C828D83E0F8EEC3BE
:1054300098500CEEF8125452E0650870EA800B1296
:105440005452E508125EBAE004F0EFA2E092AF0217
:1054500051A91254B5125B342274F71218A1A2AFED
:10546000E433FFC2AF1254A48C828D83E014F07E2B
:10547000008016EE1254B0246BF582E439F583E017
:10548000C0E0125B2FD0E0F00E8C828D83E0F8EE4E
:10549000C39840DFEA246DF582E43BF58374FF1284
:1054A00054DB80A6EA246EF8E43BF9E8FCE9FD222F
:1054B000F81254B522EA28F8E43BF9E822C082C089
:1054C00083A8A8C2AFEA12574BE91254DBE8A2E75F
:1054D000E433FAE8A2E792AF024AE6F0EA2469125E
:1054E00054E322F582E43BF583E4F02274F21218CF
:1054F000A18C828D83A3A3A3A3E0541FF0EA2436DA
:10550000125BF68E828F83E4F0750C00A80CEC28F9
:10551000F508E43DF509850882F583E0C0E01257FF
:1055200064D0E0F0750D00850882850983E0F50AF6
:10553000750B00E50D780A1217FFE50AA2E0502569
:10554000E50C33333354F8250DC0E08E828F83E0B1
:105550001254B02438F582E439F583D0E0F08E821D
:105560008F83E004F0050DE50DC3940840B9050CE8
:10557000E50CC3940540950252CD28F582E42274CF
:10558000F41218A1900395E0640370030257457C60
:1055900000ECF875F00DA4C8AAF02A12580CE060CF
:1055A0000302573BE82404FAE439FB8A828B83A385
:1055B000A37401125E53A3A3A3E4F0EA2404125BD4
:1055C000F6EC8E828F83F0125DF47401F0EA2467AA
:1055D000F582E43BF5837401125770E4F0A312578F
:1055E00070A3A3125782240FF582E43BF583740164
:1055F000F0EA24351254E3F508F509F50AF50BEA4B
:105600002418F582E43BF58378081216F8EA241C86
:10561000125754241D12577B247F1257542473129F
:10562000575424821257542468F582E43BF583745E
:10563000801254DBEA246E12575424ED125754247E
:10564000EE12575424EF12575424F012575424F1F9
:1056500012577B24F312577B24F61254E3125DFE9B
:10566000E4F0EA24D312575424D412575424D5F525
:1056700082E43BF58378081216F8EA24D9F582E42F
:105680003BF58378081216F8EA24DF12575424E118
:1056900012575424DD12575424E212575424E312B3
:1056A000575424F912577B24FB12577B24FD1257C1
:1056B0007B24FF12577B240C12575924061257598A
:1056C00024071257592408125759240912575924EC
:1056D0000A125759240B12575912574B74FF78046A
:1056E000F0A3D8FC7C00ECF874C012557A3406F5AF
:1056F00083E0C0E0125764D0E0F00CECC3940540A6
:10570000E57C00ECF8747D12557A3403F583E0C033
:10571000E01254B124E5F582E439F583D0E0F00CD1
:10572000ECC3940840DD900395E004F06401701927
:105730008E828F83E0900397F0800E0CECC394036D
:1057400050030255917A007B008041246AF582E47F
:105750003BF583221254E3EA22F582EB3401F58310
:10576000E4F0EA221254B5245DF582E439F583228F
:10577000F08A828B83A3A3A3A3A322F582E43BF543
:1057800083E4F0A3F0EA2274041218477F0402199C
:1057900073C082C083EA2403F582E43BF583E060B2
:1057A00008E4F0900396E014F0900395E014F07094
:1057B0000690039774FFF08A828B83A3A3E4F09092
:1057C00006C5E0700D900396E06401700579001243
:1057D0000DBF024AE6C082C0837A00EAF875F00D78
:1057E000A4C8ABF02B12580CA3E412539AA3A3A3A2
:1057F000A3A3A3F00AEAC3940340E0900395E4F066
:10580000A3F0A374FFF075E1F1024AE6F97495285C
:10581000F87403125B25A3A3A32274F51218A175D3
:105820000800750900750A00A80A12587A8E828F3E
:1058300083A3A3A3E0602BE5084509601D850882CA
:10584000850983125891121AC712588D1217071220
:1058500025177404121847E97008EEF8EFF9880864
:105860008909050AE50AC3940340BD8508828509B4
:1058700083A3A3A3A3E0F902521BE875F00DA4C80B
:10588000AAF02AF9749928FE740339FF228E828FB8
:1058900083E0F8A3E0F5838882A3A32274F71218AB
:1058A000A178FF79FF7E00EEFC75F00DA4CCAFF07F
:1058B0002FFD74992CFC74033DFD8C828D83A3A372
:1058C000A3E06040EC2473F582E43DF583E0FF74CF
:1058D000FF68700374FF69700774016F701C800D9E
:1058E00074016F700DEC24791259195017EC24795A
:1058F000800BEC242E125919500AEC242EF582E468
:105900003D12507F0EEEC39403409CC3EA98EB997E
:105910004004E8FAE9FB0251A9F582E43DF583C3AE
:10592000E098A3E0992274F01218A18C088D0989DF
:105930000EEA2AF50AEB33850A0CF50D900396E082
:10594000F8E9C39850117AFF7BFF120B8B8A0A8B00
:105950000BAE0AAF0B8017E96010A3E0F875F00DED
:10596000A4C8AAF02A125A2A8004AE0CAF0D9003E4
:1059700096E0F50F8E0A8F0B7403780A12180FA8A1
:105980000FC3E50A98E50B94005003025A16850CE4
:105990000A850D0BE50825E0F508E50933F509ACA6
:1059A0000AAD0B8007EC2402FCE43DFDC3E5089C36
:1059B000E5099D404FC3EC9EED9F402FECF8EDF9BB
:1059C000EEFAEFFB1217A68A0C8B0DA80CA90DE8B6
:1059D000496006EEFAEFFB80047A007B00EC98F851
:1059E000ED99F9E82AFCE93BFD8019E50EC3950F16
:1059F0005012EEF8EFF9ECFAEDFB1217A68B0DEA58
:105A0000450D70A1C3EC950AED950B4009C3E5085F
:105A10009CE5099D50067AFF7BFF8009ECFAEDC3F7
:105A200013FBEA13FA7F08021973F974C728F58289
:105A3000740339F583E0FEA3E0FF2274F41218A189
:105A400074FC121831EAFEEBFFEE2463F508E43F24
:105A5000F5098016AA08AB09120BD3121359900648
:105A6000C6E004F09006C7E004F08508828509834B
:105A7000125EA770DF9006C7E060358E828F83A329
:105A8000A3A3A3E0851882851983F0A3E4F0900610
:105A9000C7E0F8740212187DE8F0A3E4F074021273
:105AA0001897AA18AB19790112088B9006C7E4F071
:105AB000EEFAEFFB120B79EEFAEFFB120CDB02575A
:105AC0008774F71218A1EAFEEBFF8E828F83A3A3DF
:105AD000A3A3E0FA7B00120861EEFAEFFB120B972A
:105AE000120CBD0251A9C082C0837A00EAF875F099
:105AF0000DA4C8ABF02BF9749928F87403125B2538
:105B0000E06016E8246EF582E439F583E0600A125D
:105B10005B2FE07004790180090AEAC3940340CC4A
:105B20007900024AE639F988828983A3A3A322E88F
:105B3000125B3422246AF582E439F58322C082C0E4
